S0160000626F6F746C6F616465725F64656D6F2E733337AF
S315080030000004002021A00008CBB90008CBB90008AD
S31508003010CBB90008CBB90008CBB9000800000000FE
S31508003020000000000000000000000000CBB9000806
S31508003030CBB90008000000007D7B0008CBB900086A
S31508003040CBB90008CBB90008CBB90008CBB9000842
S31508003050D1890008678B0008CBB90008CBB90008EE
S31508003060458C0008A9910008F5980008116A00081F
S31508003070CBB90008CBB90008CBB90008CBB9000812
S31508003080CBB9000881BB0008900500005004002059
S31508003090000000009BBB00085000000068B900084B
S315080030A000040020000000007365744465737445CD
S315080030B0756936340000000073657420646573749E
S315080030C0696E6174696F6E20455549363420666F9E
S315080030D07220626F6F6C6F6164657220636F6D6DCD
S315080030E0616E64730D0A706172616D6574657273E1
S315080030F03A206575693634006765744465737445A6
S31508003100756936340000000066696E64424C4E6F7D
S31508003110646573006C6F6164496D616765000000E2
S3150800312046696E6420666972737420626F6F746C88
S3150800313061646572206E6F646520616E64206C6FD1
S315080031406164207465737420696D61676520746FA6
S31508003150206974006765740067657420636F6D6D18
S31508003160616E64006267657400000000676574201C
S31508003170636F6D6D616E64202862726F616463614E
S3150800318073742900676574696400000067657420B4
S31508003190696420636F6D6D616E64000062676574B3
S315080031A06964000067657420696420636F6D6D61EA
S315080031B06E64202862726F6164636173742900000B
S315080031C067657476657273696F6E0000676574204B
S315080031D076657273696F6E20636F6D6D616E6400DC
S315080031E06267657476657273696F6E0067657420C9
S315080031F076657273696F6E20636F6D6D616E64209C
S315080032002862726F61646361737429007265616410
S31508003210000000007775000052656164206D656DD9
S315080032206F727920636F6D6D616E640D0A706172DD
S31508003230616D65746572733A20616464726573734F
S3150800324020627974657300007772697465000000FE
S31508003250777562005772697465206D656D6F72794E
S3150800326020636F6D6D616E640D0A706172616D65C4
S31508003270746572733A206164647265737320627947
S315080032807465732064617461000000007772697464
S3150800329065496E6372656D656E74616C0000000049
S315080032A075620000577269746520696E63206D65E2
S315080032B06D6F727920636F6D6D616E640D0A706152
S315080032C072616D65746572733A20627974657320EC
S315080032D06461746100000000657261736500000036
S315080032E04572617365206D656D6F727920636F6DC8
S315080032F06D616E640D0A706172616D6574657273D5
S315080033003A20706167657320706167655F6C6973E1
S3150800331074000000676F0000476F20636F6D6D6172
S315080033206E640D0A706172616D65746572733A2018
S31508003330616464726573730068656C7000000000F0
S315080033404C69737420636F6D6D616E647300000061
S31508003350556E6B6E6F776E004745545F56455253F0
S31508003360494F4E004745545F494400004552415372
S315080033704500000057524954450000005752495429
S31508003380455F494E4352454D454E54414C00000059
S3150800339052454144000000007B264E2063616C6C58
S315080033A02E2E2E204F4B2C200000000067657445FA
S315080033B075693634000000007B25743A0000000069
S315080033C06465737445756936340000004C6F616432
S315080033D0696E6720696D616765206F6E2072656D1D
S315080033E06F7465206E6F646520776974682045552B
S315080033F04936343A200000002530325800000000D3
S315080034005772697474656E202530356C752F2530B2
S3150800341035640D000D0A25730D0A00004661696CB6
S3150800342065640000546F74616C2074696D652028AA
S315080034306E6F7420696E636C7564696E672073635A
S315080034407265656E206D6573736167657329203DC6
S3150800345020256C752E2530366C75207365632E0D08
S315080034600A0000004E6F206E6F64657320666F75E4
S315080034706E6420696E20626F6F746C6F616465722A
S31508003480206D6F64650D0A007B264E20426F6F74AF
S315080034906C6F616420636F6D6D616E642E2E2E20D5
S315080034A026743278200D0A007374617475730000EF
S315080034B07265706C7900000066696E644E6F6465AB
S315080034C073496E426F6F746C6F616465724D6F6499
S315080034D065000000636F756E740000007B25745FDD
S315080034E025643A004555493634000000000400209A
S315080034F0B15D00087B5E00087B5E00087B5E000805
S315080035007B5E00087B5E00080000000000000000EB
S3150800351000000000000000007B5E00087B5E0008DB
S3150800352000000000395B00087B5E00087B5E00082F
S315080035307B5E00087B5E00087B5E00081951000868
S31508003540ED4700087B5E00087B5E00087B5E00088E
S315080035507B5E00087B5E0008CD5400087B5E000891
S315080035607B5E00087B5E00087B5E00087B5E0008C9
S315080035702DE9F04FA1B017461C46029002AD6960CE
S315080035800020A8620DF1440A6FF0004802E0A86A1C
S31508003590401CA862387818B9A86A21B0BDE8F08F2F
S315080035A0252816D1002028616861A861E86128628B
S315080035B0686217F8011F202908D023291BD02B2958
S315080035C012D02D2914D0302918D01AE040F0010065
S315080035D0EFE717F8011B6868029A904768600028A9
S315080035E0D5D14FF0FF30D8E740F0020080B2E0E7CF
S315080035F040F00400FAE740F00800F7E740F0100052
S31508003600F4E72A290DD12268111D21601168296362
S31508003610002904D54942296340F0040080B27F1C82
S3150800362012E00021296309E0296B414505D001EB29
S31508003630810302EB4301303929637F1C3A78A2F1F2
S315080036403001C9B20A29EFD339782E291CBF4FF0A9
S31508003650FF31E9621DD117F8011F2A2906D1226810
S31508003660111D21601168E9627F1C12E00021E962E0
S3150800367009E0E96A414505D001EB810302EB430104
S315080036803039E9627F1C3A78A2F13001C9B20A29B9
S31508003690EFD3A8863978DFF8540B02F00BFE08B191
S315080036A017F8010B8DF83E009DF83E00682804D1F6
S315080036B0387868280AD1622005E06C2806D138785F
S315080036C06C2803D171208DF83E007F1C11A8E86094
S315080036D03A781046413800F0B680001F022840F2BA
S315080036E0B280133870D0093800F0AD80801E17D02C
S315080036F0401E1FD0401E022840F2A580001F19D088
S31508003700401F00F0CF80401E5ED0401E00F0F880BB
S31508003710C01E00F00081801E56D0C01E54D00FE196
S315080037202869411C29612268111D2160116800F869
S315080037300A100CE19DF83E006C280FD071280BD1B9
S315080037402068C01D20F007002060034603F108002A
S315080037502060D3E9000106E06A28F1D02168081D37
S3150800376020600868C1179DF83E30682B08BF00B274
S3150800377007D0622B08BF40B203D0742B01D07A2B36
S3150800378000D1C117002904DA2B695E1C2E612D268B
S315080037900DE0AB8E9E0704D52B695E1C2E612B2689
S315080037A005E0DB0705D52B695E1C2E61202603F88C
S315080037B00A602B6911AE3344AB60CDE900011146AE
S315080037C000A800F058F9C2E09DF83E006C280FD01A
S315080037D071280BD12068C01D20F007002060034621
S315080037E003F108002060D3E9000106E06A28F1D059
S315080037F02168081D2060086800219DF83E30682B66
S3150800380008BF80B207D0622B08BFC0B203D0742BA2
S3150800381001D07A2B00D1002195F834301B07C8D582
S3150800382009B90028C5D042F02003782BC1D12B69ED
S315080038305E1C2E61302603F80A602B695E1C2E6119
S3150800384003F80A20B5E72068C01D20F007002060AD
S31508003850034603F108002060D3E90001CDE9000121
S31508003860BDF80600000404D52869411C29612D21EC
S315080038700DE0A88E810704D52869411C29612B21F2
S3150800388005E0C00705D52869411C2961202100F8F3
S315080038900A10286911A94018A860114600A800F066
S315080038A071F954E09DF83E0062280BD0682820D0B4
S315080038B06A280ED06C2815D071280AD0742811D021
S315080038C07A280FE0A86A2268111D2160116808701D
S315080038D03DE0A86AC11723681A1D22601A68C2E962
S315080038E0000134E02168081D20600868A96A0160A3
S315080038F02DE0A86A2268111D21601168088026E05B
S315080039002168081D2060086811A9A9600021CDE971
S315080039100001782154E72168081D20600868A8601E
S31508003920EA6A002A02D502F099FB07E0002102F0B4
S315080039308FFA00281ABFA968401AE86A686106E083
S315080039402869411C296102B9252200F80A207F1C32
S31508003950286B2969401AE969401A6969401A296A6F
S31508003960401AA969401A696AA0EB010995F834005A
S31508003970400711D420208DF840000026B9F1010F28
S315080039800ADB012210A900A800F03AFC00287FF4FF
S3150800399028AE761C4E45F4DB2A6911A900A800F06A
S315080039A02FFC00287FF41DAE30208DF84000EE690C
S315080039B04FF0000B012E0BDB012210A900A800F026
S315080039C01FFC00287FF40DAE0BF1010BB345F3DBAA
S315080039D06A69A96800A800F013FC00287FF401AE04
S315080039E030208DF840002E6A4FF0000B012E0BDBBD
S315080039F0012210A900A800F003FC00287FF4F1AD0D
S31508003A000BF1010BB345F3DBAA696869A96841188C
S31508003A1000A800F0F5FB00287FF4E3AD30208DF810
S31508003A2040006E6A4FF0000B012E0BDB012210A935
S31508003A3000A800F0E5FB00287FF4D3AD0BF1010BDD
S31508003A40B345F3DB95F8340040077FF5A3AD202096
S31508003A508DF840000026B9F1010FFFF69BAD012253
S31508003A6010A900A800F0CCFB00287FF4BAAD761C9C
S31508003A704E45F4DB8EE52DE9FA4786B004466069C3
S31508003A8000909DF818006F2808BF082705D040F059
S31508003A902000782814BF0A2710273C25D4E90001FE
S31508003AA0064689469DF81820642A01D0692A04D159
S31508003AB0002902DA764269EB4909B9F1000F02D109
S31508003AC00EB9606B60B3A5F101084546F817CDE954
S31508003AD0047030464946DDE9042301F071FCCDE95E
S31508003AE00201B246DDE90223DDE90401A0FB026911
S31508003AF05046801B3030C0B23A2803D39DF81810C0
S31508003B0051390818009908F80100DDE90269B9F188
S31508003B10000F00D126B12069009969188842D2D3CE
S31508003B20082F0BD194F83C00000707D50098285CAD
S31508003B30302803D06D1E009830212954C5F13C0069
S31508003B40E061009969182161616B884206DA081AF2
S31508003B506062A08F20F01000A08710E000290ED523
S31508003B6094F83C1001F01401102908D1A16BA26940
S31508003B70891A626A891A0D1A012DA8BF656208B0EA
S31508003B80BDE8F0872DE9F24F8EB0054604AFD5E9BA
S31508003B900001CDE902019DF8380040F020008DF8BB
S31508003BA0000061280BD0686B002848BF062005D4A2
S31508003BB005D19DF80000672801D101206863E888CF
S31508003BC0C0F30A1040F2FF71884222D1A8790F216A
S31508003BD0084205D1A88818B9688808B9288868B13C
S31508003BE00320E8619DF838006138C0B21A2836D338
S31508003BF089A10322286902F061F8C7E10320E86178
S31508003C009DF838006138C0B21A2834BF83A184A150
S31508003C10EFE7012804DA284601F06BFE01281BDAD3
S31508003C2040F2FE31EA8861F30E12EA80441A4FF038
S31508003C30FF309DF80010612917D12A69511C2961A6
S31508003C403021117029694A1C2A619DF83820612A99
S31508003C500CBF7822582204E000240020E9E7CDA111
S31508003C60C7E70A70A969891CA96110B90026B04678
S31508003C7082E19DF80000612840F09580686B002875
S31508003C804EBF2126461C36B2771CD5E900ABDDE9C6
S31508003C9002010022002302F047FA3ABF8BF00040E7
S31508003CA0CDE902A0CDE902ABA4F104088DF81020F5
S31508003CB00DF11109012F33DBDDE902010022002392
S31508003CC002F04AFA2CD21C2102A801F01BFDDDE9FC
S31508003CD0020102F0E9F80446FF1F012F09DB02F092
S31508003CE053FA02460B46DDE9020101F0E3F9CDE994
S31508003CF0020109F207000721012C0BDB491E5EBFF2
S31508003D0004F00F0200F8012D2411F5D502E0002277
S31508003D1000F8012D491EFAD500F20709012FCBDA62
S31508003D200DF11100A9EB00000DF11107B042B8BF63
S31508003D3006B2002E30D4864206DA04A83018407837
S31508003D40082828BF0F2000D20020314604AA8A1866
S31508003D5001E0761E36B2491E12F801398342F8D0C0
S31508003D600F2804D104A808184278521C427000296A
S31508003D7004D504AF761C36B208F10408304609E0CB
S31508003D80C15D3031C9B23A2903D39DF838203A3A91
S31508003D905118C155401EF3D5686B002840F1EC80D8
S31508003DA0701E6863E8E0DDE902010022002302F0E4
S31508003DB0BBF905D2DDE9020181F00041CDE9020136
S31508003DC024B247F297506043DFF8241490FBF1F8C9
S31508003DD00FFA88F8C8F107040027DFF81894012CB1
S31508003DE020DBDDE902ABE00707D5504659463A46DF
S31508003DF04B4600F0BFFF82468B466410384649465C
S31508003E003A464B4600F0B6FF07468946002CEAD1EB
S31508003E10CDE902AB28E000BF4E414E00696E660050
S31508003E20494E460064429246DFF8CCB314D0E00708
S31508003E3007D5504659463A464B4600F09BFF824600
S31508003E408B466410384649463A464B4600F092FF80
S31508003E5007468946002CEAD1DDE9020152465B464F
S31508003E6000F080FCCDE902019DF8000066280CBF31
S31508003E7008F10A000620696B4418142CA8BF1324FD
S31508003E8030208DF810000DF11106012C30DBDB4FC8
S31508003E9011E0DDE9020102F01DF802F07FF90246A1
S31508003EA00B46DDE9020101F005F900223B4600F068
S31508003EB061FFCDE90201DDE9020102F00BF806F126
S31508003EC0080104220A23B0FBF3F603FB1600303080
S31508003ED001F8010DB6FBF3F003FB1063303301F86C
S31508003EE0013D521EEED101F10806083C012CD0DA3C
S31508003EF00DF11100301A0DF111079DF81110302936
S31508003F0006D1401EA8F1010817F8011F3029F8D07C
S31508003F109DF80010662904BF0FFA88F808F1010118
S31508003F2003D065290CBF012100216A6B8E1836B2B1
S31508003F30B042B8BF06B2002E1ED4864204DAF05D3F
S31508003F40352828BF392000D230203146CA19521EDA
S31508003F5001E0761E36B2491E12F801398342F8D0BE
S31508003F60392802D1C85D401CC855002904D57F1ED2
S31508003F70761C36B208F101080FFA88F0009033462D
S31508003F803A469DF83810284600F006F80FB0BDE806
S31508003F90F08F00006E616E002DE9F04385B005468E
S31508003FA0894690461E46BDF930406F6B012EBCBF50
S31508003FB001260FF2342849F02000662807D0672822
S31508003FC07AD16FF003018C427CDBBC427ADA641C3E
S31508003FD066280AD095F83C00000702D4BE42B8BF4E
S31508003FE0374624B23F1B48BF00272869E96924B22F
S31508003FF0012C21DA4A1C30230B54012F03DA95F8D9
S315080040003C10090702D52E211154521CEA61E742D9
S31508004010B8BF7C4224B26142A962E719B742B8BF69
S315080040203E4636B22E6232464146EB69181801F012
S3150800403045FEB81BE862BFE00818A64216DA324603
S31508004040414601F03BFEE9697118E961A01BA862C7
S31508004050012F03DA95F83C00000705D528692E22BA
S315080040600A54286A401C2862EF62A5E022464146A7
S3150800407001F024FEE8692018E861361B012F03DAEF
S3150800408095F83C10090704D5411CE96129692E22D7
S31508004090425436B2B742B8BF3E4636B2324604EB51
S315080040A00801E8692B69C01801F008FEE8693018AC
S315080040B0E861B81BA8627FE0B9F1610F14D14FF02F
S315080040C0700916E0BE4204DA95F83C10090758BF95
S315080040D037467F1E48BF0027B9F1670F14BF4FF058
S315080040E045094FF0650904E0B9F1410F08BF4FF0E3
S315080040F05009E9694A1C286918F8013B0B54012F35
S3150800410003DA95F83C10090702D52E211154521CE2
S31508004110EA61012F10DB761E36B2B742B8BF3E46BB
S3150800412036B232464146EB69181801F0C7FDE86910
S315080041303018E861B81BA862E869296900EB01082C
S3150800414008F8019B002C5CBF2B2008F8010B03D54F
S315080041502D2008F8010B6442002602AF24B2012C78
S315080041600EDB0A22214600A802F0C2F8019807F8D9
S31508004170010B009C761C24B2012CF2DA022E06DA18
S3150800418049F02000652804BF302008F8010B1EB945
S31508004190302008F8010B09E0012E07DB761E02A87D
S315080041A0305C303008F8010B012EF7DAE869296926
S315080041B04018A8EB0000286295F83C0000F01400AF
S315080041C010280DD1A869E9690818A96A0818296A82
S315080041D00818E96A0818A96B8842BCBF081A6862F9
S315080041E005B0BDE8F083000030000000405E00081E
S315080041F0A0860100000024400000F03F84D79741C4
S31508004200F8B504460D46164600208EB14FF0FF3726
S3150800421005E0206B401C20630020761E08D015F8A8
S31508004220011BE068A2689047E0600028F1D1384693
S31508004230F2BD0000DFF8E804006870472DE9F04F8A
S3150800424099B0DFF8E04461681891DFF8DC54296812
S315080042506A6841EA0221AA6841EA0241019169684D
S31508004260490703D5E16941F00201E1612968490777
S3150800427003D5E16941F00401E1614FF0010A0199B2
S315080042802A690AFA02F2114203D0E16941F00801EB
S31508004290E161DFF88C1400220A60DFF890740128C7
S315080042A000F0F481022806D0032819D0042840F02B
S315080042B0FF81626014E0386CC00703D5E06940F0FE
S315080042C04000E061386C400703D5E06940F0200003
S315080042D0E061386C800703D5E06940F01000E061C2
S315080042E002F00EF801F0D9FB17904FF0000B386C6E
S315080042F01690786C1590DFF83884D8F84C0014902E
S31508004300D8F850001390D8F854001290D8F85800EE
S315080043101190DFF8200400681090DFF81804406850
S315080043200F90DFF8100440690E90DFF80804406A21
S315080043300D90DFF8046430680C9070680B90B068D4
S315080043400A90F06809903069089070690790B0691A
S315080043500690F0690590B06A0490DFF8E0030068FB
S31508004360DFF8DC134968029102212160DFF8D413D3
S315080043700968DFF8D423126841EA0221DFF8CC2362
S31508004380126841EA024103914FF0FF316162DFF89A
S31508004390C093D9F80020DFF888130968D20409D534
S315080043A06A68D20706D5E269D20703D5D3464FF421
S315080043B080721143D9F80020920408D56A6852061B
S315080043C005D5E269D20744BFD34641F48041D9F8FE
S315080043D0002052040AD500F076F907D0E269D20720
S315080043E004D5D346EA680AFA02F21143D9F800203E
S315080043F0120410D5019A2B690AFA03F31A420AD055
S31508004400E269D20702D4E269120704D5D3462A69BB
S315080044100AFA02F21143D9F80020D20305D5E26957
S31508004420120644BFD34641F00061BD4A116000211F
S315080044306A68D20748BF4FF480516A68520648BF77
S3150800444041F4005100F03FF918BF41F480412B694F
S315080044500AFA03F31A4218BF41F40041E269D20688
S3150800446005D4E269920602D4E269520601D541F002
S315080044701001E269120648BF41F4803108400090F5
S31508004480A52001F001FBC4F83CA0E069A16B11B1BD
S31508004490616A0142FAD0616A014200F0DC800020BC
S315080044A0E0639F48006840F080409D49086001F03D
S315080044B051FF072038600F20C8F800001898606080
S315080044C016983864159878641498C8F84C001398A8
S315080044D0C8F850001298C8F854001198C8F858003F
S315080044E09448109901600F9941600E9941610D99A0
S315080044F041620C9830600B9870600A98B060099811
S31508004500F06008983061079870610698B061059860
S31508004510F0610498B0628948009901608848029958
S3150800452041608C484FF0FF3101608648D0F800B0F2
S315080045308548006885490968626AE3691A402B69F3
S31508004540029312F00206334618BF012312F004063E
S31508004550B44618BFD44612F00806B64618BFD64663
S315080045606F4E36680096039E4BEA002040EA0140EB
S3150800457070400199084040EA832040EA8C0002997D
S315080045800EFA01F108434FF47C71114040EA0151DB
S31508004590009808436249086001F0B2FE01F0DCFEAB
S315080045A000202060179808B101F064FA5C4800689A
S315080045B062490968C90303D5010144BF2021216264
S315080045C0396C890703D5C10144BF0221F960396CEA
S315080045D0490703D5810144BF0421F960396CC9072D
S315080045E003D5410148BFC7F80CA0D8F84C10E02203
S315080045F0114205D0C10544BF4FF48051C9F80010D7
S31508004600D8F85010114205D0410444BF4FF4005168
S31508004610C9F80010D8F85410114208D0E9680AFA07
S3150800462001F108421CBF4FF48041C9F80010D8F8C0
S315080046305810114208D029690AFA01F108421CBF2C
S315080046404FF40041C9F8001040F0004034490860B2
S3150800465001F070FE34E0BBF1000F7FF422AF35485D
S31508004660816921F0010181613548C06840F0040084
S315080046703349C860384880F800A0096841F080517D
S315080046802F4A116001780029FCD112E701F005FADA
S315080046900446A52001F0F8F901F05CFE01F04AFE97
S315080046A001F056FE01F058FE54B101F0E3F907E0B7
S315080046B040F24B32294919A001F06EFC01F06BFC5F
S315080046C019B0BDE8F08F019AEB680AFA03F31A42AB
S315080046D07047154ACBB21360C1F307235360C1F381
S315080046E0074191601E4900230B6013681BB9536884
S315080046F00BB992681AB10A6842F001020A600A68A0
S315080047004FF480731A430A600A684FF400731A4319
S315080047100A600A6842F080020A608FE530000000ED
S31508004720B80400200400004008BC004014A0004063
S3150800473014A80040044000400050004000E100E09A
S3150800474004ED00E008B0004008B4004008B8004096
S3150800475000E200E080E200E0A8040020A85B000870
S3150800476020000040F0B540F2FF7581EA030C0CF01A
S31508004770004C15EA11541DBF15EA1357AC42AF4257
S31508004780E5E0BC41C1F31301C3F31303801A994151
S3150800479043F4801304D2641E4000494180185941ED
S315080047A0C90241EA5051B1FBF3F603FB1611A2FB0D
S315080047B00675D7EBC020A94102D2761E801859414A
S315080047C0C90241EA5051B1FBF3FE03FB1E11A2FBDD
S315080047D00E75D7EBC020A94103D2AEF1010E8018A1
S315080047E05941890241EA9051760546EA8E2EB1FB77
S315080047F0F3F603FB1611A2FB0675D7EB8020A94139
S3150800480002D2761E80185941C90241EA50514EEA31
S31508004810060EB1FBF3F603FB1611A2FB0675D7EBE2
S31508004820C020A94102D2761E80185941C90241EA20
S315080048305051B1FBF3F703FB1711A2FB0735D3EB76
S31508004840C020A94167F100070CBF004247F00107E5
S3150800485066F3D5274FEA1E31B80814F5806412DDD1
S31508004860BD0775F1004250EB0E5051EB045111F59E
S31508004870801F5CBF41EA0C01F0BD4CF07F6141F03E
S31508004880E0410020F0BDBD076D0840EA0E5041F436
S315080048908011D4F10104B4F120060ADAC4F1200625
S315080048A00200E04001FA06F3E1401843B24015431E
S315080048B00EE0342C13DCC6F1200445EA40056D08E9
S315080048C020FA06F2154321FA06F0A1400D4300210D
S315080048D075F1004250F1000051EB0C01F0BD0020CB
S315080048E05FEA0C01F0BDCFB992185B41B3FA83F7C2
S315080048F004BFB2FA82F6BF190B3FB7F120062FBFE5
S3150800490002FA06F3BB40C7F1200622FA06F638BFBC
S315080049103343BA401CB1E419641E33E77F4231F0D1
S315080049200041B1FA81F404BFB0FA80F6A4190B3C31
S31508004930B4F120062FBF00FA06F1A140C4F1200603
S3150800494020FA06F638BF3143A0403C1B1AE7AC42B2
S315080049501ABF05EA1357AF4212E050EA41061CBFD8
S3150800496052EA4306BFE750EA4107304661461CBF94
S3150800497041EA0551F0BD52EA430C08BFC143F0BDF8
S3150800498000204FF4001616EB410F98BF16EB430FA5
S3150800499008BF16EB410F24BFC14305E016EB430FD2
S315080049A00CBF61464CEA0551F0BD0000E0B50A238C
S315080049B07F227048018800A801F0B8F9BDF8060002
S315080049C04FF6FF71884208D16B48372200F108017B
S315080049D001F0E2FA01F0DFFA07BD68494A68002AE1
S315080049E0FBD1C0228A6001220A6000220A604A6856
S315080049F0002AFCD10A69C860022008600020086005
S31508004A0048680028FCD107BDF8B516461F46069C1F
S31508004A105C4D286C20F00800286401F071FC39030D
S31508004A2041EAC61141EA840141F00101544A116084
S31508004A300821296001F086FC0020F2BD5148026871
S31508004A401207FCD5082202604F480068088000203B
S31508004A50704730B583B002237F224C48018801A8ED
S31508004A6001F064F900200090022303220021FFF7D9
S31508004A70CBFF00F035F8BDF8064000200090022371
S31508004A8001220146FFF7C0FF00F02AF8BDF80650DC
S31508004A9000200090022302460146FFF7B5FF00F00A
S31508004AA01FF83748016821F001010160BDF80400CC
S31508004AB04FF6FF7188420EBF4FF4E1600A2190FB62
S31508004AC0F1F0ADF80400BDF80600001B0004291B30
S31508004AD0B0FBF1F0BDF8041048434000000C3EBDA1
S31508004AE00DF106010020A9E710B5294CFFF7B1FF23
S31508004AF040F68C218842206834BF40F0080020F038
S31508004B000800206010BD10B582B0044602237F223B
S31508004B102048018800A801F009F99DF801009DF8D0
S31508004B200010FF2903D1FF2804BF042000210CB17F
S31508004B30801CC0B20828A8BF07200829A8BF0721DB
S31508004B4041EAC0101449086013BD14490A68144B99
S31508004B501B68DB0758BF4008032809D34B6D43F091
S31508004B6001034B650B689B1A1B031B0B8342F9D386
S31508004B7070470000725E0008145A0008E8100040EA
S31508004B800470004018A0004000700040765E0008DF
S31508004B9000BC0040745E0008180000403820004041
S31508004BA01C400040F8B507460E4614461D46A7F5B4
S31508004BB096706049884207D35F482C2200F12C0181
S31508004BC001F0EAF901F0E7F95C4800EB5700B0FBA1
S31508004BD0F7F05B4900F001028A6140084861072E38
S31508004BE00CBF00200220012C08BF40F0180003D09B
S31508004BF0022C08BF40F0080005F00F02022AA8BFE1
S31508004C0040F004008860012008604E4800210180B9
S31508004C10418081800921092000F046FF04210A20ED
S31508004C2000F042FF48480121C164016C46F20902BE
S31508004C30114301644FF6FF71016044482021016069
S31508004C40F1BD10B50023012804D0022802D04FF088
S31508004C50FF3010BD3E48002904D1C1684906FCD57D
S31508004C60002010BD8469012CF1D106E0C4686407F0
S31508004C70FCD511F8014B04605B1C1446621E002C1F
S31508004C80F4D1184610BD71E02DE9F0410C46904666
S31508004C9010B14FF0FF301DE000262E4F294D14E0CD
S31508004CA001F02EFB6988C95D04F8011B6988491C57
S31508004CB08A1101EB5262D211A1EBC2116980A9884F
S31508004CC0491EA98001F03EFB761CA88808B1464516
S31508004CD0E6D33046BDE8F08170B51B480168026C22
S31508004CE002EA01041B49174A194B002C1AE0DC6832
S31508004CF01D68EDB2382634420ED194887F2C0BD22B
S31508004D0016887554751CAE1105EB5666F611A5EB9B
S31508004D10C6151580641C9480DC68A407E7D404686B
S31508004D20056C2C4005D0046046F209052C42F3D1E7
S31508004D30F5E770BDD50E0E000859000800366E015D
S31508004D4054C80040B004002008A8004000E100E074
S31508004D503CC800400404002080B50122014600201A
S31508004D60FFF792FF00B10120C0B202BD0022002168
S31508004D70012066E7B0B581EA030C0CF0004C40F25E
S31508004D80FF7515EA11541DBF15EA1357AC42AF4219
S31508004D903AE0E41923EA455343F48013C90241F083
S31508004DA0004141EA50574FEAC02E1100AEFB0202FD
S31508004DB000284FF00000E7FB01204FF00001E3FB5D
S31508004DC00E2118BF42F00102401800214941E3FBB9
S31508004DD00701A4F580640F0302D2520040414941FD
S31508004DE054F101046BDD470872F1004250F10000EE
S31508004DF051EB0451A1F580115CBF41EA0C01B0BD2D
S31508004E004CEA05510020B0BD05EA1357AC4214BF61
S31508004E10AF4240E050EA410E1CBF52EA430E02E0A0
S31508004E2061460020B0BD24423C441AD13F42F7D027
S31508004E30090302BF01460020143FB1FA81FEA7EB21
S31508004E400E0401FA0EF70EF10C0ECEF1200100FA4F
S31508004E500EFEC84047EA000723EA455343F4801389
S31508004E60A3E733F00043B3FA83F704BFB2FA82FE2E
S31508004E7077440B3FE41BB7F1200E2FBF02FA0EF35F
S31508004E80BB40C7F1200E22FA0EFE38BF43EA0E03D6
S31508004E90BA40641C82E750EA410E14BF52EA430E38
S31508004EA06FF000014FF4001717EB430F8ABF19463E
S31508004EB017EB410FB6E74CEA05510020B0BDD4F117
S31508004EC00104B4F120070FDAC4F12007520828BFFD
S31508004ED042F0010210FA07F501FA07F7E1BF2A4383
S31508004EE0E0403843E1400FE0352C99DCC7F1200457
S31508004EF052EA400220FA07F218BF42F0010231FADC
S31508004F0007F0A1400A43002172F1004250F1000067
S31508004F1051EB0C01B0BD00002DE9F04100245C4DB9
S31508004F202C605C4E34604FF4A040706041F29A08E1
S31508004F304046FFF70AFE686844F69041081A00B230
S31508004F404FF4487190FBF1F000B200F303003060B3
S31508004F504046FFF7FAFD08274046FFF7F6FD686862
S31508004F6004197F1EF8D14C48211DC908B0FBF1F081
S31508004F7080B27060BDE8F08138B56FF00F04474D18
S31508004F800120A8602C608020FFF7DFFDE868FF2875
S31508004F9002D8641C102CF5DB31BD10B5404C4148D5
S31508004FA00088206040F2DC50FFF7CFFDA06800F0D3
S31508004FB0010010BD70B53C4C02202061394D00201F
S31508004FC028801026F605360E288830182880FFF720
S31508004FD0E4FF10B12888801B2880002EF2D12068B3
S31508004FE0C00702D42888401C288028880D2834BF8A
S31508004FF0801C0F20288070BD70B500244FF6FF7600
S31508005000284D2888B0420BD102237F2227480188E1
S31508005010284600F08BFE2888B04208BFFFF7CAFF73
S31508005020214E02203061FFF7B8FF316811F0020106
S3150800503018BF01212A8800B9521C21B192B2032A4D
S3150800504024BF521E01242A802A8801B918B9D11E04
S3150800505089B20C29E7D308B1022A06D20D2A02D250
S31508005060901C288002E00F20FBE70CB1FFF795FFA4
S31508005070306940F0010030610120706101F040F9AB
S315080050800B4911220A60BDE8704001F05BB90000C7
S31508005090104000400C0000400060E3160840004045
S315080050A004400040000400200C400040785E0008E0
S315080050B00080004070B44FF0004591EA030F44BFEA
S315080050C06B4000F0ACBB841A71EB030604D26E4049
S315080050D0001BB141121973414FF4001C1CEB410F20
S315080050E034BF7CEB430684E00C0DA4EB1356362E36
S315080050F07DDC012E43DC45EAC32343EA525312BF43
S31508005100D20292025B08240545EAC12141EA5051C0
S31508005110D2EBC020994125D407D1B0FA80F610FA0F
S3150800512006F164D00020203608E0B1FA81F6B140D5
S31508005130C6F1200220FA02F21143B0404FEAF47495
S31508005140B4EB465434F001064FEA74040AD8D6F58F
S315080051500016760D04F00044F04061FA06F250405D
S31508005160F1404840C00A40EA415021F0004128BFBA
S315080051705FEA500550F1000044EBD12137E045EADB
S31508005180C323DB0A45EAC121C90AB6F120050EDDAB
S3150800519042EA0242120CC5F1200603FA06F6EB4073
S315080051A042EA06056D42984161F100010DE062FA96
S315080051B006F5F240554063FA06FC82EA0C02F34013
S315080051C05A406D42904161EB030111F4801F05D1ED
S315080051D0641E620502D06D004041494121F48011E8
S315080051E0430875F1004350F1000041EB045170BCCF
S315080051F070471CEB410F15D223F0004352EA4306D1
S315080052000BD04FEA4C0CBCEB410F04D80C0D661EB4
S31508005210342EB7DDEBE7801A994150EA410608BFFC
S315080052200021E4E708BF1CEB430F28BF6FF000011D
S31508005230DDE7000038B55B4C204600F0F5FF01209D
S31508005240FFF721FD01F05CF8054600F090FE4FF4EB
S3150800525090610320FFF73DFA00F08AFE284601F028
S3150800526071F800F02EF8FEF7E5FF014604F110008C
S31508005270BDE8344000F0D8BF70B50446494D142146
S3150800528005F1240000F0D0FF0120FFF7FCFC01F037
S3150800529037F8064600F06BFE4FF49061204600F0A2
S315080052A02DFA00F065FE304601F04CF800F009F8DA
S315080052B0FEF7C0FF014605F11000BDE8704000F09A
S315080052C0B3BF0123002208214FF4E130FFF76ABC7F
S315080052D010B533A000F0A8FF334C204600F0A4FF19
S315080052E004F13C0000F0A0FF04F17C0000F09CFFF4
S315080052F004F1900000F098FF04F1B00000F094FF6C
S3150800530004F1D000BDE8104000F08EBF1CB50020A7
S31508005310009000F01BFEFFF7D4FF01F00BF8224CBB
S3150800532004F1D80000F080FF04F1E80000F07CFFEB
S3150800533000F0E2FE00F042FC072000F0E8FE10B99B
S315080053400E2000F04BFC01A8FFF706FD0028F3D05D
S3150800535004F1D00000F068FF9DF804000A28EBD09D
S315080053600D28E9D03F2813D06C280DD0732802D019
S31508005370742803D00FE0FFF75DFFDDE714200090E7
S3150800538000A8FFF779FFD7E70E2000F041FCD3E726
S31508005390FFF79EFFD0E704F2081000F045FFCBE7C1
S315080053A00D0A0000F45A0008F04F000813F0004CEC
S315080053B003D55B42524263F100039CEA210C15D1E6
S315080053C01B4229D109424CD12AB18446B0FBF2F0DE
S315080053D002FB10C2704700F0C1BFFCD300220023B5
S315080053E070470B00020000210020704710B5644684
S315080053F003D34942404261F10001FFF7E1FF64002F
S3150800540004D34942404261F10001244203D55B427C
S31508005410524263F1000310BD904271EB030CE0D3D6
S3150800542070B5B1FA81F4B3FA83F52C1BA340C4F125
S31508005430200532FA05F63343A2405FF00046E640FF
S3150800544002E05B085FEA3202841A71EB030524BFA7
S31508005450204629467641F4D302000B00300000218D
S3150800546070BD012AB9D970B5140C20D0B1FA81F4EF
S31508005470B2FA82F5C4F120046419B4F12006D6D331
S31508005480B2405FF00044F440002502E052085FEAAB
S315080054903303C61A71EB020E24BF304671466441C7
S315080054A06D41F3D302000B002000290070BD0C46A5
S315080054B0B1FBF2F102FB11452D0445EA1045B5FB97
S315080054C0F2F402FB145580B240EA0545B5FBF2F04A
S315080054D002FB105240EA044070BD0000733A2020D7
S315080054E02068616C536C6565704770696F57616BAE
S315080054F06528504F5745525F444F574E2C207761C9
S315080055006B65206F6E20756172742F627574746F87
S315080055106E205331290D0A00743A20202068616CE8
S31508005520536C656570466F725173576974684F702E
S3150800553074696F6E732874696D652C2077616B6565
S31508005540206F6E20756172742F627574746F6E2089
S315080055505331290D0A0000006C3A202020746F6729
S31508005560676C65206C65640D0A0000003F3A2020D0
S3150800557020446973706C6179207468697320686562
S315080055806C70206D656E750D0A000000533120623F
S315080055907574746F6E3A2020207475726E73206F5E
S315080055A06E206C6564204431000000000D0A3E2020
S315080055B000000000536C65657020546573740D0A0D
S315080055C000000000456E746572203F20666F7220E9
S315080055D06C697374206F6620636F6D6D616E64739A
S315080055E00D0A0000556E6B6E6F776E20436F6D6DFA
S315080055F0616E640D0A0000003A480168406840EA96
S315080056000140704738480721016038480121017078
S3150800561070472DE9F44F0C460025206810B900F0B4
S3150800562089FE48E000F06CFE83463148102101608F
S315080056302068070E4FEA0028FFF7DEFF8146DFF8ED
S31508005640ACA08AF80050284E2A484FF6FF71B8F1E8
S31508005650000F09D008EB090201EA02034360120CA5
S31508005660026002223260326447B101EA0901C16070
S315080056704FEA194181600420306030641E481021C9
S315080056800160584600F05EFE02E004203060306497
S31508005690206880B100990220FFF71BF835649AF854
S315080056A0000058B98525FFF7A7FF2168A0EB090078
S315080056B0A1EB102020602846BDE8F28F2068002F55
S315080056C01ABF7F1EA0F18070A0EB182020608AF810
S315080056D00050002FD9D12068002818BF0220D5D144
S315080056E0E9E700001060004014A00040BC04002058
S315080056F080E100E01860004000E100E00A4601464B
S31508005700012086E770B504460D46E088C0F30A1006
S3150800571040F2FF76B04210D1A0790F21084208D195
S31508005720A088002805D16088002802D12088002892
S3150800573001D0022070BD012070BD30B9204600F0AE
S31508005740D8F8012801DB002070BD4519B54209DBF0
S31508005750E088000447BF00202A4900202A49C4E9F6
S315080057600001E8E7012DE08805DB48F20F01084053
S3150800577040EA051041E000F40040A17901F00F016C
S3150800578041F01001E1806D1E15F1340F05DAE08055
S315080057900020A0806080208070BD2DB26FF00E01C1
S315080057A08D420BDA62882280A2886280E288A28013
S315080057B00022E28010352DB28D42F3DB694209B230
S315080057C00A0018D0C1F1100223880B41658895405C
S315080057D02B43238063880B41A58895402B43638020
S315080057E0A3880B41E58805FA02F21A43A280E288EB
S315080057F022FA01F1E180E1880843E0804FF0FF30AA
S3150800580070BD00BF0000F0FF0000F07F70B44FF0DD
S31508005810004591EA030C44BF6B40FFF754BC841A59
S3150800582071EB030603D2001BB141121973414FF401
S31508005830001C1CEB410F34BF7CEB430443E00C0D0A
S31508005840A4EB1356352E50DC45EAC323DB0A45EA9A
S31508005850C121C912B6F120050DDD63FA05F6EB4044
S3150800586086EA0305124218BF45F00105C01851F132
S3150800587000010CD213E062FA06F5F2405540F341F6
S315080058805A40B340F3405A408018594107D3490853
S315080058905FEA30005FEA350528BF45F0010501F5E6
S315080058A08011420875F1004250F1000041EB0451A5
S315080058B070BC4FF4001C1CEB410F38BF704700202A
S315080058C0090D090570471CEB410F10D252EA430631
S315080058D00BD0BCEB410F05D80C0DAB43661E342E1E
S315080058E0B5DD02E0AB438018594170BC704770BC07
S315080058F0704770B4C18801F400420121837913F01E
S315080059000F03C38012D1838823B9438813B9038848
S31508005910002B4BD08388C3804488848004884480C5
S3150800592000240480103909B2002BF3D0C388102B49
S3150800593016D28388C488DD0B45EA4404C4804588AA
S31508005940EE0B46EA430383800388DE0B46EA4505E9
S3150800595045805B000380491E09B2A4B2102CE8D327
S31508005960C388202B1ED303884488C4F30004E403A9
S3150800597044EA5303038043888488C4F30004E40399
S3150800598044EA530343808388C488C4F30004E403C9
S3150800599044EA53038380C3885B08C380491C09B261
S315080059A0202BE0D2837903F00F03C380C3881A4300
S315080059B0C280084670BC704770B52A4842782A49A2
S315080059C00B685B0722D5032A20DA00EB420384889A
S315080059D09C810123847803FA02F2224382700278BA
S315080059E0224C82B1002502E06D1C032D0EDA03FA63
S315080059F005F61642F8D045707240027000EB450075
S31508005A00808A206002E02260032242704FF6FF700F
S31508005A100860BFF35F8F70BD124800210170032133
S31508005A2041700021C17005210181002181700F4953
S31508005A3000220A604A604FF400428A601022CA6057
S31508005A40001D4861012088610320C86006480421BA
S31508005A5001644FF6FF71016005484FF4006101606B
S31508005A60FEF7A4BF8404002010A8004004D000401C
S31508005A7000E100E02148012181604EF6BE21416027
S31508005A80FFE7012101607047A52805D11B484DF69F
S31508005A90AD6141600221016070471848006810F046
S31508005AA0010018BF0120704710B58208144B53F83F
S31508005AB02220136800F0030080000F248440A343CB
S31508005AC001FA00F01843106010BD80B50D4810218A
S31508005AD001600D48022101600C484FF40061016025
S31508005AE0FFF71AFA0A4807210160002101640948EC
S31508005AF010210160002002BD000000000060004087
S31508005B00985D000880E100E0080000400C60004055
S31508005B1014A0004000E100E080B51D4840F20731BE
S31508005B20016072B61B490A6822F001020A601A4926
S31508005B3011220A6019491A4A4A601A4A8A604FF0BD
S31508005B4078424A61184A8A61184ACA61184A194B42
S31508005B5013604FF0803353609360D360E023136182
S31508005B6010220A614FF4E0220A624069800609D5CC
S31508005B70114800220270086840F08050086000F062
S31508005B80AFFBFEE700F0BCFB62B6012002BD00BF1A
S31508005B9018000040FCED00E00080004004ED00E045
S31508005BA0003000080004FA05F8F8F84080F840804C
S31508005BB000E400E080804080A804002080B5012130
S31508005BC00E20FFF771FF01210D20FFF76DFF0E2054
S31508005BD000F011F80D20BDE802400CE0C1080329C9
S31508005BE008D2C1108902154A012300F0070003FAFA
S31508005BF000F050507047C108032908D2C110890225
S31508005C000F4A012300F0070003FA00F050507047CE
S31508005C1010B5044600F074FBE10803290AD2E11026
S31508005C20084A02EB81210A68012304F00704A3400D
S31508005C305A400A60BDE8104000F084BB14B000402A
S31508005C4010B000400CB0004010B5044603E014F84C
S31508005C50010B00F0B0FA20780028F8D110BD2DE924
S31508005C60F04104460D4616461F46DFF84C804EB1F5
S31508005C704046FFF7E9FF3046FFF7E6FF08F1100058
S31508005C80FFF7E2FF2046FFF7DFFF09A0FFF7DCFF7B
S31508005C902846FFF7D9FF07A0FFF7D6FF3846FFF7D4
S31508005CA0D3FF08F11800FFF7CFFF0020BDE8F08109
S31508005CB03A00000020000000DC5B00084AB38B07AE
S31508005CC007D011F8013B00F8013B521E21D08B0783
S31508005CD0F7D183071ED1103A07D330B4B1E838108C
S31508005CE0103AA0E83810F9D230BC530724BFB1E8FF
S31508005CF00810A0E8081044BF51F8043B40F8043BDC
S31508005D00D20724BF31F8022B20F8022B44BF0B78A8
S31508005D1003707047083A07D3B1E80810083A40F804
S31508005D20043B40F804CBF7D25307E4E730B583B019
S31508005D30044610467F2808BF0020B1F5004F19D148
S31508005D4008237F2240F6120100A8FFF7EFFF08227A
S31508005D500D4900A800F01AF930B908237F2240F24D
S31508005D60A27100A8FFF7E2FF082200A9204600F06A
S31508005D700BF937BD1A46054D294300FB031120468A
S31508005D8000F002F937BD0000385E0008000004087C
S31508005D900300002013F0030F09D0521E22BF13F888
S31508005DA0010B11F801CBB0EB0C00F3D07047121FB2
S31508005DB022BF53F8040B51F804CB6045F7D0121DE7
S31508005DC00AD200BA9CFA8CFCB0EB0C0038BF6FF014
S31508005DD0000088BF01207047521E22BF13F8010B2E
S31508005DE011F801CBB0EB0C00F6D0521C08BF1046D8
S31508005DF070470000286261756472617465203E3DD3
S31508005E002033303029202626202862617564726185
S31508005E107465203C3D3932313630302900000000A7
S31508005E206A3A5C636376696577735C73746D33325B
S31508005E30772D6465765C68616C5C6D6963726F5C0E
S31508005E40636F727465786D335C756172742E630066
S31508005E50C9B2830706D0521E22D310F8013B9942D5
S31508005E60F7D11FE0083A13D302F1040241EA0121EF
S31508005E7041EA014150F8043B121F21BF4B40A3F1F0
S31508005E80013C2CEA030C1CF0803FF3D0C9B2001F7A
S31508005E90083210F8013B521E28BF91EA030FF8D8C2
S31508005EA018BF0120401E7047F446400D40EAC12045
S31508005EB0490006D200F013F8004248BF6FF00040D0
S31508005EC0604700F00CF84FF0004188428CBF084646
S31508005ED040426047400D40EAC12049000CD240F0DC
S31508005EE00040490DA1F58061491C05D4D1F11F0177
S31508005EF054BFC840C01770474FF0000070470000F5
S31508005F0046414C53450000006A3A5C63637669650E
S31508005F1077735C73746D3332772D6465765C68616C
S31508005F206C5C6D6963726F5C636F727465786D33F0
S31508005F305C6D6963726F2D636F6D6D6F6E2D696E23
S31508005F407465726E616C2E630000000080B50D48A2
S31508005F50016821F0100101600020FEF7D4FD00F071
S31508005F6007F8FFF709F8BDE80140FFF7AEBD70472F
S31508005F7080B5FFF751FDFEF7B7FDBDE80140FFF715
S31508005F803BB8000000BC0040FFF798BE80B5FFF79D
S31508005F90FFFE40B202BD704770B584B0034608469E
S31508005FA00A2100248DF80A400DF109040A25491E24
S31508005FB0C9B292FBF5F605FB1622303204F8012920
S31508005FC03246012AA8BF0129F1DA002200AC0919D4
S31508005FD0FFF745FE08B900F0B1B904B070BD00007E
S31508005FE00D0A736C656570696E672E2E2E0D0A0094
S31508005FF057616B65496E666F3A20253038580D0A29
S31508006000000000000D0A736C656570696E6720787C
S315080060102025642071756172746572732E2E2E0D9B
S315080060200A0000000B48007850B1EFF30880A0F191
S31508006030200080F3088880E8F00F0749086030BF21
S315080060400548006890E8F00F00F1200080F3088802
S3150800605070470000A8040020AC04002000F10103EA
S31508006060810704D010F8011B89B18107FAD10268AB
S31508006070B2F10131914311F0803F04BF50F8042F6B
S31508006080F6E710F8011B11B110F8011BFBE7C01A5F
S31508006090704700006A3A5C636376696577735C7378
S315080060A0746D3332772D6465765C68616C5C6D69F6
S315080060B063726F5C636F727465786D335C736C655D
S315080060C065702E6300000000496E2066756E637465
S315080060D0696F6E2000000000202D2D2000000000B2
S315080060E0202D2D20617373657274696F6E20666149
S315080060F0696C65640A00000080B508210720FFF76F
S31508006100D3FC0748016841F08001016001BD0728FA
S3150800611004D1044800680006C00F70470320704782
S315080061200CB0004008B000404FF4001C1CEB410FB7
S3150800613094BF1CEB430F09E041EA030C50EA4C0CF0
S3150800614052EA0C0C03D2994208BF9042704714BF1A
S315080061508B428242704700004FF4001C1CEB410F33
S3150800616094BF1CEB430F09E041EA030C50EA4C0CC0
S3150800617052EA0C0C03D28B4208BF8242704714BF06
S315080061809942904270470000010040F10880F446A9
S31508006190404200F004F851F000416047010009D080
S315080061A0B0FA80F18840C91CC1F58461090501EB84
S315080061B0D0214005704710B582B0044614F1010F8E
S315080061C00AD08DF80000012200A90120FEF739FD4A
S315080061D0012801D1204616BD4FF0FF3016BD10B478
S315080061E009E050F8041B50F8042B51F8044B42F808
S315080061F0044B1B1FF9D150F8043B002BF1D110BCFE
S31508006200704700007D5D0008BC0000000404002003
S3150800621000000000F35C0008040000007C5E000833
S3150800622000040020000000000EB400B582B003A9E7
S31508006230009100AB024601210248FDF799F906BC18
S315080062405DF810FBDF5D000810B50548054CA04257
S3150800625004D050F8041B8847A042FAD110BD00BFED
S31508006260185D00083C5D0008002305E050F8041B93
S3150800627041F8043B121FFBD150F8042B002AF5D134
S315080062807047000000B0004004B0004000B4004071
S3150800629004B4004000B8004004B80040FFF73CFCD6
S315080062A0002801D0FFF7D0FF0020FFF72FF800F0F5
S315080062B04CF800000278C9B28A421AB11CBF10F81D
S315080062C0012FF9E718BF0020704738B504460D4678
S315080062D02846FFF770FFA84218BF0024204632BDA3
S315080062E00248006880F3088862B67047AC0400204C
S315080062F091FBF2F303FB1211C0E90031704700006D
S31508006300EFF31180602181F3118870470149182045
S31508006310ABBEFBE72600020007463846FFF7F6FF46
S31508006320FBE70000FFFFFFFFFFFFFFFF686A6C74D3
S315080063307A4C0000002181F31188704780B501204E
S31508006340FFF7E4BF80F31188704780B5FFF7E4BF15
S3150800635030BF704772B6704762B670477047D2074B
S31508006360DC07DE07EE08FEE7FFFF00007B264E206F
S3150800637063616C6C2E2E2E204F4B7D0D0A0000009B
S3150800638053657444657374457569363400000000B6
S315080063902862726F6164636173742900257320250E
S315080063A0732025730D0A0D0A00000000A8300008A6
S315080063B0296E0008B6B90008B8300008F830000899
S315080063C05B6E0008BEBB0008BEBB000808310008AB
S315080063D091720008BEBB0008BEBB00081431000855
S315080063E09F6E0008BEBB0008203100085431000823
S315080063F04D700008BEBB000858310008643100081B
S31508006400D7710008BEBB00086C310008843100084B
S315080064105D700008BEBB00088C3100089C3100087E
S31508006420EF710008BEBB0008A4310008C03100089F
S3150800643065700008BEBB0008CC310008E0310008D2
S315080064400B720008BEBB0008EC3100080C320008CD
S315080064507370000814320008183200084832000821
S31508006460C970000850320008543200088C320008FF
S3150800647085710008A0320008A4320008D832000846
S315080064801F710008A0320008E03200081433000823
S3150800649039710008B8B900081833000838330008FD
S315080064A0FD720008BEBB000840330008000000006B
S315080064B0000000000000000000000000726574750E
S315080064C0726E56616C75653D3D53545F5355434333
S315080064D045535300563A5C6C696E6B5F73746D3343
S315080064E032775F6275696C645C73696D706C656D33
S315080064F061635C64656D6F735C626F6F746C6F610A
S315080065006465725F64656D6F5C626F6F746C6F61F2
S315080065106465725F64656D6F2E630000426F6F7409
S315080065206C6F616465722064656D6F206170706C54
S3150800653069636174696F6E0D0A0000007B264E2040
S315080065404150492063616C6C2E2E2E2026743278B9
S315080065507D0D0A0068616C476574526573657449F8
S315080065606E666F007265736574496E666F0000002B
S315080065706E6F206572726F72000000007365726933
S31508006580616C20706F7274206572726F7200000001
S315080065906E6F207375636820636F6D6D616E64003E
S315080065A077726F6E67206E756D626572206F6620F2
S315080065B0617267756D656E7473000000696E746547
S315080065C067657220617267756D656E74206F757484
S315080065D0206F662072616E676500000061726775DC
S315080065E06D656E742073796E746178206572726F4A
S315080065F072000000737472696E6720746F6F206C86
S315080066006F6E6700696E76616C6964206172677582
S315080066106D656E74207479706500000025730D0A27
S3150800662000000000000202024B4B4647766572697D
S315080066306679466962282900563A5C6C696E6B5F12
S3150800664073746D3332775F6275696C645C68616C0C
S315080066505C6D6963726F5C636F727465786D335CC9
S31508006660666C6173682E6300FFFFFFFFFFFFFFFF85
S3150800667046414C5345000000563A5C6C696E6B5FA8
S3150800668073746D3332775F6275696C645C68616CCC
S315080066905C6D6963726F5C636F727465786D335C89
S315080066A06D6963726F2D636F6D6D6F6E2D696E7494
S315080066B065726E616C2E630000B0004004B0004045
S315080066C000B4004004B4004000B8004004B80040DC
S315080066D0284E564D5F4C4546545F50414745254D1B
S315080066E046425F504147455F53495A455F42293DF7
S315080066F03D300000563A5C6C696E6B5F73746D339F
S3150800670032775F6275696C645C68616C5C6D69633D
S31508006710726F5C636F727465786D335C6E766D2E1E
S3150800672063000000284E564D5F52494748545F5053
S31508006730414745254D46425F504147455F53495AB3
S31508006740455F42293D3D3000286F666673657426AD
S31508006750307831293D3D3000286C656E67746826AF
S31508006760307831293D3D30006F66667365742B6C51
S31508006770656E6774683C4E564D5F444154415F539D
S31508006780495A455F42000000286261756472617467
S3150800679065203E3D20333030292026262028626198
S315080067A0756472617465203C3D3932313630302962
S315080067B000000000563A5C6C696E6B5F73746D334B
S315080067C032775F6275696C645C68616C5C6D69637D
S315080067D0726F5C636F727465786D335C7561727421
S315080067E02E630000AA212900552329000025280028
S315080067F0AA26270055282700002A2600AA2B2600A5
S31508006800552D2500002F2400AA30240055322300D8
S3150800681000342200AA35220055372100003920000D
S31508006820AA3A2000D5E6ECEFF2F4F5F7F8F9FAFB08
S31508006830FBFCFCFDFDFEFEFFFFFF00000001010161
S315080068400202020300000001030A000030203D3D59
S3150800685020282828446D61416464726573735479ED
S315080068607065296275666629202620312900000090
S31508006870737461636B5C7068795C73746D333277BB
S315080068803130387878636C6173735C7068792D631E
S315080068906F6D6D6F6E2E630053545F5355434345BA
S315080068A05353203D3D2073746D526164696F53657F
S315080068B0744368616E6E656C2873746D52616469A1
S315080068C06F4368616E6E656C290000007278446DCE
S315080068D061576F7264436F756E74203E20340000F2
S315080068E0737461636B5C7068795C73746D3332774B
S315080068F031303878785C7068792E6300626F746816
S31508006900546F6B2E696666696C7465724820213D02
S315080069102030786666666600737461636B5C7068BF
S31508006920795C73746D3332773130387878636C619B
S3150800693073735C616E616C6F6775652D66696C74DF
S3150800694065722E630000000010F0B0C0D000000091
S315080069501120304060708090A0E00000626F74687B
S315080069602E746F6B2E626961736D61737465722024
S31508006970213D2030786666666600000073746163A0
S315080069806B5C7068795C73746D3332773130387844
S3150800699078636C6173735C616E616C6F6775652D86
S315080069A063656C6C2D626961732E63007374616331
S315080069B06B5C7068795C73746D3332773130387814
S315080069C078636C6173735C616E616C6F6775652D56
S315080069D076636F2E63000000496E2066756E6374D9
S315080069E0696F6E2000000000202D2D200000000099
S315080069F0202D2D20617373657274696F6E20666130
S31508006A00696C65640A000000686A6C747A4C000058
S31508006A1070B52A4842782A490B685B0722D5032AAB
S31508006A2020DA00EB420384889C810123847803FAE8
S31508006A3002F2224382700278224C82B1002502E0DB
S31508006A406D1C032D0EDA03FA05F61642F8D04570CA
S31508006A507240027000EB4500808A206002E02260E6
S31508006A60032242704FF6FF700860BFF35F8F70BD58
S31508006A70124800210170032141700021C1700521CF
S31508006A800181002181700F4900220A604A604FF493
S31508006A9000428A601022CA60001D48610120886190
S31508006AA00320C8600648042101644FF6FF7101609F
S31508006AB005484FF40061016001F09CB9680900209F
S31508006AC010A8004004D0004000E100E02DE9F8439A
S31508006AD004460D469046012700260FE001F084FF84
S31508006AE081463019AA49C968884730B901F07CFF40
S31508006AF008EB09018142F4D20027761CAE4201DA7E
S31508006B00012FEBD03846BDE8F2832DE9F14382B078
S31508006B100F461446994600259D4E002102A8326963
S31508006B2090479DF80800C0F1FF008DF8000001218C
S31508006B3000A832699047DFF85C8200F05AF820B165
S31508006B409DF80000792804D04FE002254EE0022582
S31508006B500837387878B3002504E0002128189047CC
S31508006B60681CC5B23269786839788D42F5DB00232E
S31508006B70012904BF0078C34308D09C4604E01CF8EA
S31508006B8000506B400CF1010C8C45F8DB8DF8013098
S31508006B9001210DF101009047424601210DF1010046
S31508006BA0FFF794FF0028D2D09DF8010079280CBF82
S31508006BB000250125CCE7CDB9424621464846FFF7D0
S31508006BC085FF0028C1D09DF8080011280ED031286D
S31508006BD00CD036280AD0432808D000F00AF8002836
S31508006BE0B3D09DF80000792800D001252846BDE8D5
S31508006BF0FE834246012100A868E7602801D3602089
S31508006C007047401C4FF6FE710840704730B5604C1F
S31508006C10002525706060A1602261E36030BD000038
S31508006C202DE9F0418EB00446594D29780A465A4E48
S31508006C30D6F88030686803EB0008A868C01A0A29E5
S31508006C400BD8DFE801F0060B0D18323D4A759C9308
S31508006C509B000020C6F88000012290E002228EE008
S31508006C600BAB0A2200210020FFF74FFF08B90322C9
S31508006C7085E00A2283E004AB032200210220FFF705
S31508006C8044FF0028F5D1A86800F2FF308003000E03
S31508006C90411E3170002104E08A1901F10C0353707A
S31508006CA0491C8142F8DB042269E03078801C00F038
S31508006CB087F84320FFF729FF0028DAD105225EE08E
S31508006CC03648C018F070C0F30721B170C0F3074109
S31508006CD07170000E3070062251E004218DF81410F0
S31508006CE005AF7E60FFF789FF401C3872387A00F0DE
S31508006CF057F8387A801E3071301DF86000208DF8FC
S31508006D0024000023024605A93120FFF7FEFE0028CD
S31508006D10AFD100F04BF809D30020F0703020B070E6
S31508006D200020707008203070092228E0072226E02B
S31508006D30FFF763FF401C8DF800009DF8000000F087
S31508006D402FF89DF80000801E307100A8311D4160A3
S31508006D500021017200230A4600A93620FFF7D5FE56
S31508006D60002886D100F022F8E0D3D5E7042000F009
S31508006D7027F82120FFF7C9FE0028F2D108222A7039
S31508006D80D6F88000206028780EB0BDE8F0810000B3
S31508006D908809002000093D00C807002000300008C7
S31508006DA0421ED2B24146701D01F098B9D6F880004D
S31508006DB03179491C0818C6F88000A96888427047C6
S31508006DC08DF8000000A846600021017200230A46DB
S31508006DD000A9704710B518B3DFF8B047621C402108
S31508006DE0201D01F064FDF0B1002000E00846C0B2A5
S31508006DF002191379411C0A2B18BF0D2B18BF002B3B
S31508006E00F4D120700D2010712170C9B208190A2218
S31508006E100271491C217000206070C9B2201D00E073
S31508006E20002100F0D5FC10BD1CB50023082200A9DE
S31508006E30002000F06FFE0720DFF8541700AC421858
S31508006E4043421B19DB799371401EF8D5DFF84407D6
S31508006E5000F1140101F0F2FC13BD70B5DFF83847F4
S31508006E6004F15C0104F1480001F0E8FC04F170014A
S31508006E7004F1680001F0E2FC07246FA5DFF810674B
S31508006E80A0198179284601F0D9FC641EF8D56BA0B3
S31508006E9001F0D4FC6AA0BDE8704001F0CFBC2DE932
S31508006EA0F04182B000250026DFF8EC86DFF8E076B0
S31508006EB00121B81D00F0AFF900284CD008F17C007C
S31508006EC003F0F2F80724E019817908F1A80003F025
S31508006ED0EBF8641EF7D55BA003F0E6F8002000F097
S31508006EE06FFA00F0A5FADFF8B436DFF8B4264FF4E7
S31508006EF03A5108F29C10FFF789FE01F075FD074626
S31508006F0000A8FFF78DFE044601F06EFD4019C51B6B
S31508006F100A2C08BF01264FF43A52009908F1B0002E
S31508006F2003F0C2F801F074FD082CE6D1002E14BF58
S31508006F3008F2CC0144A108F1C40003F0B5F876B90B
S31508006F40DFF86006B5FBF0F100FB115208F1D4003A
S31508006F5003F0AAF803E008F2141003F0A5F8BDE858
S31508006F60F3812DE9F04391B00746884615461E463B
S31508006F70189C204600F024FA00F05AFA33462A46AE
S31508006F8041463846FFF7C1FD8046DFF80C9649466C
S31508006F9087B1012F10D0022F11D0112F18D0212F11
S31508006FA019D0312F0ED0362F0FD0432F08BF09F234
S31508006FB01C0111E0B5A10FE009F108010CE009F286
S31508006FC0140109E009F2240106E009F22C0103E0A4
S31508006FD009F2400100E0C8A100A803F075F84CB119
S31508006FE000A803F093F80C22DFF8BC1500ABC01814
S31508006FF003F022F8434609F2581200A909F238109C
S3150800700001F01CFC09F2601109F1680001F016FC98
S31508007010002409A704E0A15D384601F00FFC641CB2
S31508007020AC42F8DB05A001F009FC05A001F006FC5E
S3150800703011B0BDE8F0830000257800007D0000004F
S315080070407D0D0A000D0A00004F4B000000B585B003
S315080070500020009001AB0A220021C4E000B583B0ED
S315080070600020C7E000B583B0002000F0C9F8012071
S31508007070C3E000B5A9B000F05CF8009004208DF8D4
S315080070800C0002A804900020414202AA891800AA0E
S31508007090825CCA70401C0428F6DB012000F024FD3F
S315080070A0401E8DF8040001208DF8140001A80690F2
S315080070B000208DF81C00009009AB9DF80400421CC6
S315080070C0D2B203A9112026E000B5A9B000F031F824
S315080070D000F046F800F04CF8012000F005FD401ECF
S315080070E08DF8200000239DF82000421CD2B20DF135
S315080070F02101022000F00EFD9DF82000801C8DF86D
S31508007100100008A8059000208DF8180000900023AC
S31508007110024602A93120FFF724FF29B000BD00B5B9
S31508007120A5B000F006F800F03AF800F045F843205C
S3150800713031E0002000F0D8BC00B587B0FFF7F9FFB2
S3150800714000F00EF88DF8100000F012F800200090FC
S315080071500023024602A92120FFF703FF07B000BD5E
S31508007160009004208DF8080001A8039000207047BD
S31508007170414201AA891800AA825CCA70401C0428E8
S31508007180F6DB704700B5A5B0FFF7D3FF00F007F8A8
S3150800719000F012F83620FFF7E4FE25B000BD401EC9
S315080071A08DF8140000239DF81400421CD2B20DF18C
S315080071B01501012000F0AEBC9DF81400801C8DF866
S315080071C0040005A8029000208DF80C00009000230A
S315080071D0024601A9704700B585B00120009001ABB1
S315080071E00A2200210020FFF7BCFE05B000BD00B54D
S315080071F083B0012000F004F80220FFF7B2FE07BDB5
S31508007200009001AB03220021704700B583B001202E
S31508007210FFF7F6FFF1E72DE9F04182B004460D4687
S315080072200026012000F0CCF800F002F900AB03229A
S3150800723000210120FFF769FC20BBDFF87073B5B1A8
S31508007240082207F10E01204600F048FF01260EE04D
S3150800725097F8980080B1082207F10E0104EBC600E2
S3150800726000F03CFF761CF6B2002087F89800AE4284
S3150800727008DA01F0B9FB8046404601F0BBFBC94974
S315080072808842E5D33046BDE8F681000047455400FC
S315080072902DE9F04190B0082100A8FFF7BCFF04468D
S315080072A0DFF8F482234608F2841208F2681108F21D
S315080072B0381001F0C3FA0026B2A715E0324608F2E4
S315080072C0941108F28C1001F0B9FA072500A800EB12
S315080072D0C600295C08F1A80002F0E6FE6D1EF5D589
S315080072E0384601F0ABFA761CA642E7DB384601F0D1
S315080072F0A5FA10B0BDE8F081474F000038B5AC4C90
S3150800730004F1100505E0EB68AA68204602F0CCFEF9
S31508007310103529680029F6D131BDF8B50246002096
S31508007320A44C04F280052B7912781A552A79521C36
S315080073302A7161B36879411C954E9F4F94F8803045
S315080073401BB113323A70F87002E017323270F070DF
S3150800735069710120E87000206870002B14BF07F2DD
S31508007360120006F216002A79214600F0B7FE94F8B4
S31508007370800000B13E46304601F055FC08B10220B7
S31508007380E870E8780128FCD0E87800212971F2BD78
S315080073900021864A92F8983083B102F298018B78D8
S315080073A09B189B7D03708878401C88704978C0B20A
S315080073B0884224BF002082F89800012108467047B9
S315080073C0F8B57C4D05F28004714E4BF20B017A4FED
S315080073D078B1012085F880000020A07038704CF63E
S315080073E00100A7F801004FF6FF70B880F8803981D0
S315080073F00AE085F880000320A070002030704CF663
S315080074006140A6F80100B18001F013FC95F88010E0
S31508007410002914BF07F20A0306F20E0308220146E2
S31508007420184600F05BFE00206070E0702071F1BD28
S3150800743010B55E4C9B220021204600F056FE4FF602
S31508007440FF70A4F8960010BD38B55C4C012020707A
S3150800745000F008FE022100A801F0F0FB009800F0F9
S315080074601BFE0123002208214FF4E13001F0E2FA65
S3150800747001F0AAFA00F01AFC514D002001F0C6FBF3
S3150800748040B140F2522205F11801284604F0C1FA2B
S3150800749004F0BEFA01F0B6FA05F1600002F004FE47
S315080074A0002305F1A80205F1980105F1800001F015
S315080074B0C5F90020FFF784FFFFF7BAFF374B384AB4
S315080074C000210020FFF7A2FB4BF20B0001F0AFFBF7
S315080074D00F2001F0A6FB00F04BF92BA52078FFF74B
S315080074E079FC0028FAD0207810B1284602F0DCFD95
S315080074F001F08EFAF2E770B504462C4DE078B5F83F
S31508007500961088421AD0B4F801004CF661418842B8
S3150800751014D105F29606B07868B92078421CD2B222
S315080075202146284600F0DAFD0120B07000203071AF
S3150800753028781538F070E078A5F8960070BD10B573
S315080075401C4901F280040222E27028B1402805D0C5
S315080075508D2803D08F2814D1002011E06078A278F6
S3150800756090420ED2401C60700120E07091F88000B5
S31508007570002814BF1048064801F055FB08B1022040
S31508007580E07010BD7D0D0A003E00000024090020B1
S31508007590140600206C630008503300089173000835
S315080075A01B73000840420F0090630008780500200E
S315080075B09C63000840070020AC060020DA0900207A
S315080075C0BC64000800207047002070477047704769
S315080075D0704700002DE9F04100245C4D2C605C4E9C
S315080075E034604FF4A040706041F29A08404600F0BB
S315080075F0D6FC686844F69041081A00B24FF4487100
S3150800760090FBF1F000B200F303003060404600F052
S31508007610C6FC0827404600F0C2FC686804197F1EAD
S31508007620F8D14C48211DC908B0FBF1F080B2706052
S31508007630BDE8F08138B56FF00F04474D0120A8600A
S315080076402C60802000F0ABFCE868FF2802D8641C98
S31508007650102CF5DB31BD10B5404C41480088206040
S3150800766040F2DC5000F09BFCA06800F0010010BD61
S3150800767070B53C4C02202061394D00202880102628
S31508007680F605360E288830182880FFF7E4FF10B173
S315080076902888801B2880002EF2D12068C00702D4D3
S315080076A02888401C288028880D2834BF801C0F2075
S315080076B0288070BD70B500244FF6FF76284D2888BF
S315080076C0B0420BD102237F2227480188284600F0C2
S315080076D05FFB2888B04208BFFFF7CAFF214E022089
S315080076E03061FFF7B8FF316811F0020118BF0121B8
S315080076F02A8800B9521C21B192B2032A24BF521E0D
S3150800770001242A802A8801B918B9D11E89B20C2900
S31508007710E7D308B1022A06D20D2A02D2901C288085
S3150800772002E00F20FBE70CB1FFF795FF306940F048
S31508007730010030610120706101F040F90B49112206
S315080077400A60BDE8704001F035B9000010400040FD
S315080077500C0000400060E31608400040044000406A
S31508007760360400200C400040C6B9000800800040DE
S31508007770DFF8F8030021017000F241010022CA7403
S3150800778080F841208A740A75FF2048757047612879
S3150800779028BF572107D2412828BF372103D23A28C4
S315080077A034BF30210021401AC0B27047DFF8BC133D
S315080077B0401890F8421090F84100081AC0B2704775
S315080077C0DFF8A813401890F841004018401C70478D
S315080077D02DE9F84F804689460026DFF8907307F2B0
S315080077E053040FE03878012805D19DF8000000F011
S315080077F09BF88DF80000E8199DF800104170607834
S31508007800401C6070B8F1000F0ED100A801F0CFF847
S3150800781010B1012812D002E03046BDE8F28F0120EF
S31508007820A0700420387076E05FFA89F10029F3D059
S3150800783018F8010B8DF80000A1F101099DF8000068
S315080078400D28DFD00A2805D101260025222805D1D2
S31508007850012004E000262028F7D1012500203978E8
S3150800786031B102292FD025D3042954D02ED3C9E704
S315080078707EB100F093F8C5E7401C87F85300C0B204
S31508007880C019617880F8411000203870002EB9D0F0
S31508007890EFE7002DB6D130B1022038706578402D5B
S315080078A0A0D10620BCE79DF800007B2814BF012064
S315080078B00320F2E70EB9002DF0D097F853001128EF
S315080078C0DAD10320ACE70028F7D1E7E794F803A05C
S315080078D0BAF1FF0F14BF4FF0010B4FF0000B9DF8E4
S315080078E000007D2804D1BBF1000FE6D0052097E7FC
S315080078F0FFF74DFF10280BDABBF1000F06D000EB9F
S315080079000A108DF80000FF20E070C7E7E07079E7FD
S31508007910002DFCD1EAE7002EF9D0A07808B100F0D6
S315080079201DF9FFF725FF6DE7A0F14101C9B21A2934
S315080079303CBF2030C0B270478C4991F857201018C8
S31508007940C0B2401890F841004018407870472DE9B9
S31508007950F84305460E4670B2FFF732FF0446304636
S31508007960FFF724FF06460BE018F8010BFFF7DCFFCC
S31508007970814617F8010BFFF7D7FF814504D010356C
S31508007980686848B12F68A046A8EB0400B042EBD15E
S3150800799038780028F3D12846BDE8F2832DE9F84364
S315080079A0734C0027DFF8C49199F8530008B91BE017
S315080079B0646839462046FFF7CAFF04000BD07F1CCF
S315080079C0FFB2A06800786E28F2D009F25306377124
S315080079D04FF0000814E009F153000221817009F103
S315080079E05300807800F0BAF8BDE8F143C0E6B078F5
S315080079F000283ED17F1CFFB208F101005FFA80F82B
S31508007A0099F85300A16887422EDA18F801504046C3
S31508007A10FFF792FF294619B362391BD0113902D0F4
S31508007A20891E02291ED8752D08BFFF2509D0762D77
S31508007A3008BF4FF6FF7504D0732D0CBF7F254FF096
S31508007A40FF350121404600F01AF88542CFD20420BE
S31508007A50B070C4E72228CAD07B28C8D00520F7E72B
S31508007A600320F5E70720F3E73279801A405C0028FF
S31508007A70F6D1B0780028B2D160688047B4E72DE91E
S31508007A80F0478846DFF8E49099F857100818C0B20E
S31508007A9000EB090191F8411049444E1CFFF786FE98
S31508007AA0824600240A25002702E074B910257F1CA7
S31508007AB0574516DAB85DB8F1000F02D00FB92D2870
S31508007AC0F5D07828F1D05828EFD0FFF760FEA84205
S31508007AD0B8BF05FB0404EADB052089F85500002039
S31508007AE000E02046BDE8F0870021C8E770B50C46DF
S31508007AF01E4991F857100D18EDB2C643F60F24B17A
S31508007B002846FFF753FE801B207068B2FFF758FE21
S31508007B10301870BDF8B50C4616461F4600A9FFF783
S31508007B20E5FF05469DF80000864298BF30468DF869
S31508007B300000002F1DBF9DF80000361AF6B2002679
S31508007B4032460021204600F0D0FA9DF8002029464A
S31508007B50301900F0C3FA9DF80000F2BD054951F846
S31508007B602010054802F0A0BA00000000CC0800204A
S31508007B70AC630008080400201C6600080B4800785F
S31508007B8050B1EFF30880A0F1200080F3088880E860
S31508007B90F00F0749086030BF0548006890E8F00F05
S31508007BA000F1200080F3088870470000AC09002027
S31508007BB0B00900200248006880F3088862B670475A
S31508007BC0B00900203748018A40F6A772914209D1C8
S31508007BD0418A4FF47F40014204D102298041C043C3
S31508007BE0C00F7047002070472DE9F04704468846C5
S31508007BF000F0E4FE82462A4F012038702A4DFFF72E
S31508007C00E1FF40B9E82205F1140105F1080003F087
S31508007C1000FF03F0FDFE2348D0F8289041464FF4B4
S31508007C2080702043C8470646504600F0C3FE002031
S31508007C3038700EB1705D05E041464FF40070204380
S31508007C40C847405DBDE8F0872DE9F047804689467C
S31508007C50560000F0B3FE8246134CFFF7B3FF48B94F
S31508007C6040F2291204F1140104F1080003F0D1FED0
S31508007C7003F0CEFE0B48456A002332464946404685
S31508007C80A8470746504600F095FE0FB1385D05E057
S31508007C903346002249464046A847005DBDE8F087BE
S31508007CA0DB090020000004082466000880B50121CD
S31508007CB00E2000F0A1F901210D2000F09DF90E20FB
S31508007CC000F004F80D20BDE80240FFE7C1080329CB
S31508007CD008D2C1108902044A012300F0070003FAFA
S31508007CE000F050507047000010B0004080B51D48A5
S31508007CF040F20731016072B61B490A6822F0010298
S31508007D000A601A4911220A6019491A4A4A601A4A27
S31508007D108A604FF078424A61184A8A61184ACA61ED
S31508007D20184A194B13604FF0803353609360D36041
S31508007D30E023136110220A614FF4E0220A624069C7
S31508007D40800609D5114800220270086840F0805064
S31508007D500860FFF72FFFFEE700F030FE62B601204D
S31508007D6002BD00BF18000040FCED00E000800040A6
S31508007D7004ED00E0003000080004FA05F8F8F840C1
S31508007D8080F8408000E400E080804080AC09002054
S31508007D9030B583B0044610467F2808BF0020B1F5E9
S31508007DA0004F19D108237F2240F6120100A8FFF7D9
S31508007DB0EFFF08220D4900A800F092F930B9082310
S31508007DC07F2240F2A27100A8FFF7E2FF082200A96D
S31508007DD0204600F083F937BD1A46054D294300FBB6
S31508007DE00311204600F07AF937BD000068660008DE
S31508007DF000000408E0B50A237F227348018800A81A
S31508007E00FFF7C6FFBDF806004FF6FF71884208D196
S31508007E106E48372200F1080103F0FBFD03F0F8FD78
S31508007E2007BD6B494A68002AFBD1C0228A60012235
S31508007E300A6000220A604A68002AFCD10A69C860FA
S31508007E40022008600020086048680028FCD107BDA9
S31508007E506048016821F0010101607047F8B51646CF
S31508007E601F46069C5C4D286C20F00800286400F02C
S31508007E70A5FD390341EAC61141EA840141F0010131
S31508007E80544A11600821296000F094FD0020F2BDD3
S31508007E90514802681207FCD5082202604F4800685C
S31508007EA008800020704730B583B002237F224C48F3
S31508007EB0018801A8FFF76CFF002000900223032227
S31508007EC00021FFF7CBFF00F035F8BDF8064000208B
S31508007ED00090022301220146FFF7C0FF00F02AF8AE
S31508007EE0BDF8065000200090022302460146FFF71F
S31508007EF0B5FF00F01FF83748016821F0010101605D
S31508007F00BDF804004FF6FF7188420EBF4FF4E160DA
S31508007F100A2190FBF1F0ADF80400BDF80600001B3D
S31508007F200004291BB0FBF1F0BDF8041048434000DB
S31508007F30000C3EBD0DF106010020A9E710B5294C3D
S31508007F40FFF7B1FF40F68C218842206834BF40F025
S31508007F50080020F00800206010BD10B582B0044665
S31508007F6002237F222048018800A8FFF711FF9DF809
S31508007F7001009DF80010FF2903D1FF2804BF042043
S31508007F8000210CB1801CC0B20828A8BF0720082908
S31508007F90A8BF072141EAC0101449086013BD144957
S31508007FA00A68144B1B68DB0758BF4008032809D327
S31508007FB04B6D43F001034B650B689B1A1B031B0BA8
S31508007FC08342F9D370470000BEB9000870660008FE
S31508007FD0E81000400470004018A0004000700040FF
S31508007FE0C2B9000800BC0040C0B90008180000402B
S31508007FF0382000401C40004010B58208134B53F847
S315080080002220136800F0030080000F248440A34355
S3150800801001FA00F01843106010BD80B50C48102115
S3150800802001600C48022101600B484FF400610160B1
S31508008030FFF7D0FA094807210160002101640848C2
S3150800804010210160002002BD00000000B86600088B
S3150800805080E100E0080000400C60004014A00040E9
S3150800806000E100E080B52348016821F010010160B5
S315080080700020FFF772FF00F006F8FFF7DBFABDE80D
S315080080800140FFF7CABF80B5FEF7F2FCFFF756FFBF
S31508008090BDE80140FFF70EBB81B209B94BF6EF61A7
S315080080A0154A1180000C08BF4FF6CE205080704745
S315080080B00288130448BF4A405100018090B27047B5
S315080080C038B50D4C62212046FFF7F2FF054641F20E
S315080080D00B01A01CFFF7ECFF684032BD01F0ACBFF6
S315080080E080B502F063F840B202BD13460A46194647
S315080080F002F028B800BC004038040020DFF88403EA
S315080081000068DFF8841309686FF0FF02DFF87C3334
S31508008110984213D111F1010F01D1042070476FF471
S315080081207F00814201D10220704711F1807F01D181
S315080081300320704791421ED10520704710F1807FB9
S3150800814003D1914208D10620704710F1010F07D1DB
S31508008150994210D10820704799420CD107207047E0
S31508008160904208D1994201D10920704711F1807FC8
S3150800817001D10A207047002070472DE9F047804654
S315080081800F461446DFF8089340F2FF3ADFF8F45238
S3150800819015EA0A0F07D0532209F12401484603F0CD
S315080081A038FC03F035FCDFF8E06216EA0A0F08D05F
S315080081B0542209F1240109F1540003F02AFC03F0C2
S315080081C027FCF80708D5562209F1240109F1780099
S315080081D003F01FFC03F01CFCE00708D5582209F140
S315080081E0240109F1880003F014FC03F011FCE019DE
S315080081F0B0F5806F08D35A2209F1240109F19800D5
S3150800820003F007FC03F004FC6408FFF777FF401E41
S31508008210032805D9001F03280DD9001F012815D8E2
S3150800822078190021A142BEBF30F8112028F8112084
S31508008230491CF7DB15E0B8190021A142BEBF30F88A
S31508008240112028F81120491CF7DB0AE000214FF617
S31508008250FF7002E028F81100491CA142FADB012050
S3150800826000E00020BDE8F087F8B5044601256D1E3C
S3150800827004EB8526374600203978FF2906D0314693
S315080082800220FFF7B1FC48B94FF48060401C7F1C00
S31508008290B0F5806FF0D3002DE9D10020F2BD0000C3
S315080082A02DE9F54F83B00E46794D40F2FF34DFF8DD
S315080082B0D48118EA040F08D040F20B1205F1240104
S315080082C0284603F0A6FB03F0A3FBDFF8BCA11AEAD5
S315080082D0040F09D04FF4867205F1240105F1540004
S315080082E003F097FB03F094FBF00709D54FF4877268
S315080082F005F1240105F1780003F08BFB03F088FBF8
S31508008300BDF81000C00709D54FF4887205F124019D
S3150800831005F1880003F07DFB03F07AFBBDF81040F9
S31508008320A019B0F5806F09D34FF4897205F12401BD
S3150800833005F1980003F06DFB03F06AFBFFF7DEFE1C
S31508008340BDF81010C1F58061891B091F4FEA510B52
S315080083503419311F49080191411E032905D9091FFE
S31508008360032918D9091F01291AD8474655464FF037
S3150800837007090A28FDD8DFE800F0072D31353F51F7
S315080083805D61697B7F00F4E73846FFF76DFF60B1F2
S3150800839005B0BDE8F08F574645464FF00309E8E7B4
S315080083A0574645464FF00309EEE72846FFF75CFFB8
S315080083B00028EDD100F073F80028E9D100F07EF826
S315080083C00028E5D100F066F80028E1D100F085F82C
S315080083D00028DDD100F068F80028D9D100F075F83A
S315080083E00028D5D1B9F1030F01D10020D0E72846DE
S315080083F0FFF73AFF0028CBD100F051F80028C7D183
S3150800840000F05CF80028C3D100F044F80028BFD17A
S315080084104FF47F4000F05AF80028B9D14FF47F4056
S31508008420ADF80000012200A908F10200FFF70CFCD4
S315080084300028ADD100F049F80028A9D1B9F1070FF5
S31508008440D3D02846FFF710FF0028A1D100F027F85F
S3150800845000289DD100F032F8002899D100F01AF8CA
S31508008460002895D14FF47F4000F037F800288FD1C7
S3150800847000F01AF800288BD1002000F02EF800280A
S3150800848086D1AFE700F8010800FC01080000FFFFED
S31508008490D06600085A4639192819FFF7D5BB019A3C
S315080084A0391D281DFFF7D0BB4FF47F40ADF80000FB
S315080084B0012200A90AF10200FFF7C6BBBDF81000A9
S315080084C0420803997019FFF7BFBB0020ADF80000FA
S315080084D0012200A95046FFF7B7BBADF800000122FC
S315080084E000A94046FFF7B0BB38B50446206A211DEF
S315080084F0451AEDB22946201D2268904720B100F0A2
