S01500006961705F626F6F746C6F616465722E7333371B
S315080000000004002019260008C5260008C526000891
S31508000010C5260008C5260008C526000800000000F9
S31508000020000000000000000000000000C5260008CF
S31508000030C526000800000000C5260008C5260008D9
S31508000040C5260008C5260008C5260008C5260008D6
S31508000050C5260008C5260008C5260008C5260008C6
S31508000060032000083D090008A10F0008C52600085E
S31508000070C5260008C5260008C5260008C5260008A6
S31508000080C52600085FEA000D704700004FF00051D2
S315080000900860DFF8100744F24441016000228260DC
S315080000A0DFF804070160DFF80407426182618260B5
S315080000B00260DFF8FC060260426062B6704770B5FF
S315080000C00446DFF8F456A87ADFF8F06682199475C4
S315080000D0401CA872A9B317303070A879F070401C7C
S315080000E0A8710020687008226879DFF8D4164018CD
S315080000F0A0F10801B01D02F039F80EE0304601F013
S315080001006FFFE8710028F9D16878002802BF287ABD
S31508000110697A8842F8D0687A2872687810B9287A95
S315080001201428EBD3687820B1002028726872A87268
S3150800013001E001F04CFE1F2C03D1A878E8700020DE
S31508000140287070BDDFF8700601780029FCD0C178E8
S315080001504A1CC27083788B4204BF00210170D2B258
S31508000160DFF85C06101810F8010C7047F8B504465D
S315080001700D0046BF00266D422E460027FFF7E2FF18
S31508000180385546407F1CBD42F8D2FFF7DBFF864252
S3150800019005D001211F20FFF792FF0020F2BD681C41
S315080001A0F2BD10B582B0044600F06CFA6FF0020199
S315080001B000A8FFF7DBFF042802D04FF0FF3016BD7A
S315080001C0214600F05DFA009800BA16BDDFF8F4156E
S315080001D0884204D3B0F1202F01D202207047DFF8FD
S315080001E0E8150918B1F5E83F01D204207047DFF891
S315080001F0DC1509184FF40072914201D208207047A5
S31508000200DFF8CC150818B0F5006F01D2102070473A
S3150800021001207047DFF8BC05DFF8BC150160DFF880
S31508000220BC25026041604260DFF8B41501220A600D
S315080002304A68D207FCD58168C907FCD47047DFF83D
S31508000240A00541688907FCD400210160DFF8940500
S315080002508021016070472DE9F84380460C46154613
S3150800026000264746002D54D008F0010005F001018C
S31508000270084318BF012059D14046FFF7A7FF81461A
S3150800028005EB0800401EFFF7A1FF40EA0900042815
S3150800029003D0082818BF022048D1FFF7BBFF00206B
S315080002A0DFF8441501E0BF1C801CA8422DD23A880D
S315080002B003195B7810F804C00CEB03239BB29A422F
S315080002C0F1D04FF6FF7C624500D0EBB9DFF8FC248D
S315080002D0D219102A34BF4FF4047240F201224A6040
S315080002E03B800A68D207FCD420220A600A681423D5
S315080002F01A42D8D00868C0064CBF04260526102026
S3150800030008600420086000E00626FFF798FF3046DC
S315080003100CE0002000E0401C984206D217F8011BAA
S31508000320025D9142F7D0072000E00020BDE8F28385
S315080003302DE9F843054608460024860AB602E9B2BE
S31508000340012924D104274FF000694FF40048E80535
S3150800035019D5FFF75FFFDFF890044760E9B2022975
S3150800036008BF866047F0400141600168C907FCD4B0
S31508000370202101600168C90602D510210160042404
S31508000380FFF75DFF34BBA80524D5002019E0022934
S315080003900AD1FFF71BFF042818BF02201BD102272A
S315080003A0B1464FF48078D2E7E8B2032802BF4FF48B
S315080003B00877DFF838944FF08008C8D003200AE0A1
S315080003C0401C404506D259F8041B11F1010FF7D01D
S315080003D0072000E02046BDE8F2832DE9F04FC1B0C2
S315080003E0DFF80C94DFF80CA4DFF80C54DFF80C6483
S315080003F0DFF80C743868400B4003B0F1005F10D189
S3150800040070680068A8420CD001F04CFF48B97C68B7
S315080004105046FFF73BFEC9F800703868FFF732FE12
S31508000420A04770680168A94206D00F21417170681B
S315080004304BF20B01C18012E000210160706801795E
S3150800044069B9016001F0FCF9DFF8B8034168726820
S31508000450D288A1EB020B0068FFF714FED84701F01B
S31508000460A3FC022100A801F0C8FD009801F0BAFC1F
S3150800047002F00EF9002000F0E6FA7068C08801F074
S31508000480B7FD7068407901F0A9FD012001F0ACFDC7
S31508000490012001F0ABFD01F0ADFD3060C7496122D6
S315080004A04A70CC228A707268D3880B71D288120A75
S315080004B04A7100225318155C9D73521C082AF9DBF1
S315080004C001F00BFFDFF840B30DF1040804E000F07B
S315080004D0D9F8B0682818B060FFF734FE0546FFF76C
S315080004E031FE6840FF2818BFFF25C8480068800706
S315080004F003D5A5F1110072280DD3284602280BD979
S3150800050011381ED0103842D0103862D0401F60D043
S315080005100D3800F093808EE000F0B1F815F80B4026
S3150800052005E0002114F80B00FFF7C9FD641C05EB74
S315080005300B0040788442F4D301217920FFF7BFFDF0
S31508000540CAE70120FFF72DFE0546FFF73FFE0446E2
S31508000550FFF7F8FD0746FFF7F5FD7840FF2813D1AA
S31508000560012C11D000F08BF87F1C002404E015F84C
S31508000570010BFFF7A4FD641CBC42ADD2781E844271
S315080005800CBF01210021F2E701211F20D6E7002038
S31508000590FFF707FE0446FFF719FE102C09D200F0F4
S315080005A071F89B480019FFF771FD8248C9F80400E5
S315080005B092E706210842E7D0656800F063F85046DE
S315080005C0FFF764FDC9F800402068FFF75BFDA84700
S315080005D082E7312D04D10120FFF7E3FDB06001E089
S315080005E000F050F8B068FFF7F1FD0446FFF7AAFDE2
S315080005F0014601A8FFF7BAFD0546E5B1B7687819BF
S31508000600401EFFF7E3FD2043022808D10024AC4230
S315080006103EBF14F80800E055641CF8D38CE70C209C
S31508000620044208D02B462A4601A93846FFF713FE8E
S3150800063000283FF44CAF01211F207FE700F022F885
S315080006401F27FFF77FFDFE2816D2014601A8FFF7F0
S315080006508DFD054685B17927002414F80800800227
S3150800066000F1006140F20230FFF762FE08B11F2771
S3150800067002E0641CAC42F0D3012138465EE7002153
S3150800068079201CE50121792019E570B5411C4A4CF1
S315080006902278002A6ED10A7802F02002520915D172
S315080006A00A68C2F38122022A10D14FF6FF72B1F806
S315080006B0033093420AD1B1F80530934206D10A783D
S315080006C002F04002521E9241D20F00E0002222712F
S315080006D00A6802F00703012B4CD113074AD4D20645
S315080006E048D422790B68C3F34013012B09D10B6850
S315080006F0C3F38123032B04D10B68C3F38013012BA7
S3150800070001D0002A36D00B68C3F38133032B31D1CD
S315080007108978A38999422DD0012121700178A17089
S315080007200023274D03E01E5C5E555B1CDBB2067892
S315080007309E42F8DA002A14BF12201620E070E078EC
S315080007406071002A14D0132915D1415D40194078EB
S315080007504840FF280FD119B1012901D002290AD131
S31508000760288901F045FC1548297A0171697A417191
S31508000770E878A08170BD0020207070BD0E49402821
S3150800078008D08D2806D08F2807D101204870002070
S3150800079048727047487A401CFAE70120487070474B
S315080007A00000000004B0004000B4004054C80040F7
S315080007B01C4000400400FA055204002034060020BC
S315080007C0B40500200004002000D0FFF700F8FBF76E
S315080007D00000FCF70480004023016745AB89EFCD94
S315080007E02C400040108000400C800040000804089F
S315080007F008ED00E010010FF04D2001B06004002064
S315080008000030000800000408482600081C80004044
S3150800081000010FF0002070470020704770477047AE
S31508000820704700207047000010B5DFF8B044207804
S3150800083078B100202070DFF8A804016821F48051FF
S3150800084001600022E168402001F0CCFBA068401C52
S31508000850A06010BD010603D54FF67F710840C000A1
S31508000860704738B5DFF87444DFF87C04417871B115
S31508000870C178E2785518ADB200798542A8BF054619
S3150800088001F0C4FA0121A940491E084000E00020F1
S31508000890A080A088C0B232BD38B50546C00708D5C5
S315080008A0DFF84804FB2200F1240101F04AFD01F0BB
S315080008B047FDDFF83C44206DC00701D58C2032BDCA
S315080008C0202020626560256060687F3060600420B3
S315080008D02062DFF8080400210170DFF80C5429783B
S315080008E00029A16F14BF41F0010121F00101A167A0
S315080008F0697849B10021C170206D40F00400206577
S31508000900A06F40F0080006E0206D20F00400206586
S31508000910A06F20F00800A067FFF7A3FFA06468791E
S315080009200028206D14BF40F0080020F0080020655C
S31508000930206D40F001002065002032BD2DE9F04110
S31508000940DFF8B0637068716C01EA0004A4B27460E1
S31508000950DFF89C73DFF88453687800284DD1DFF8F8
S315080009608883E00719D53868396C7A6C42EA014100
S31508000970E96098F8002062B14078800609D5012020
S3150800098028704FF480503060306C40F480503064EA
S3150800099003E00022002001F025FB20060CD528786C
S315080009A030B1002028700022E968402001F01AFBC7
S315080009B0306C20F480503064E00616D5E878401C88
S315080009C0E87098F80210C0B2884207D2FFF749FFCC
S315080009D0B864386D40F00100386506E000F039FB70
S315080009E0002201468D2001F0FDFA200705D5386C56
S315080009F0796C41EA0040FFF712FFA0060ED5386D64
S31508000A0000F00100386520203862687830B900F0B7
S31508000A1020FB00220146882001F0E4FA600608D58A
S31508000A20687830B900F015FB00220146892001F0EC
S31508000A30D9FA687828B14FF44070044204BF0120FF
S31508000A40A870BDE8F08170B50446DFF8AC52002006
S31508000A50E871DFF8A80200210160DFF8A462152119
S31508000A60F160092101651F2141600121016600F03D
S31508000A70F2FB00F09DFB00F07FF901F0D9FD00F0D4
S31508000A80CDF8288900F0EDF8688900F0EFF870686D
S31508000A9040F040007060A87800F0A8F8E87800F008
S31508000AA0B1F8687800F0D1F8DFF8580290F900003C
S31508000AB000F094FC287800F0FCF895F9040000F0A2
S31508000AC004F9687900F0DAF8A87900F0E3F83068F4
S31508000AD040F001003060DFF83002007800F0BEFB1D
S31508000AE048B1824840F2F11200F124014C3001F07D
S31508000AF028FC01F025FC854DF12028647820E86360
S31508000B0000F01EF982484FF480710160012C02D171
S31508000B10BDE8704006E04FF6FF7129604FF4C061EA
S31508000B20016070BD70B57B4D2E68B6B2724CE07927
S31508000B3001282BD001F092FD48F2D00129606A689D
S31508000B40520509D548F222022A606A68D205F5D507
S31508000B5029606A685207F1D42E606F494FF4C06263
S31508000B600A606E490A6A22F001020A620A6822F0DD
S31508000B7001020A600A6842F002020A604A6A42F002
S31508000B8001024A620121E17101F08EFD70BD70B566
S31508000B90594CE07930B301F061FD05466048012102
S31508000BA00160504E306D40F0010030650020E07164
S31508000BB000F0C6F820203060306B40F00200306349
S31508000BC0F06D40F00800F065284601F06DFDC8207C
S31508000BD000F03BFF4D484FF6FF7101604C484FF45B
S31508000BE0C061016070BD4448C07970474D4900280E
S31508000BF00A6814BF42F0120222F012020A603E4945
S31508000C0088707047474900280A6814BF42F0800276
S31508000C1022F080020A603849C87070474248434942
S31508000C204A780B7803EB02220260CA788B7803EBCA
S31508000C30022242604A790B7903EB02228260CA7962
S31508000C40897901EB0221C1607047364900280A6894
S31508000C5014BF42F0200222F020020A60264948709A
S31508000C6070472549088132490860704722494881FA
S31508000C70304908607047304800787047184900289E
S31508000C800A6814BF42F4005222F400520A601A4954
S31508000C90487170471D4928B108220A600A6C42F05B
S31508000CA0080202E00A6C22F008020A6412498871F6
S31508000CB07047134900280A6814BF42F0020222F05E
S31508000CC002020A600C490870704700F19A0109048B
S31508000CD0890A1A4A1160084908717047B406002043
S31508000CE040A000403020004078040020782000080A
S31508000CF01020004000A000406C0400205C1000405A
S31508000D0080200040440400208604002004A00040FF
S31508000D1000E100E01C10004080E100E06020004097
S31508000D20281000408420004098200040C406002077
S31508000D309420004090200040880400205410004071
S31508000D40DFF8A40310210163DFF8A0130A6842F054
S31508000D5001020A60DFF8981301F214020260012208
S31508000D60026301F29E01816002210163DFF88403B8
S31508000D704FF6FF710160704780B5DFF87C0345F2D6
S31508000D806401C1601E21416250210162C821C1610E
S31508000D908165F021C16545F6900141668821816625
S31508000DA00621C16644F2066101604FF6FF71416093
S31508000DB0DFF84803007838B1DFF8440348F2607179
S31508000DC001604FF4C1514160CE48016841F0040109
S31508000DD0016000F078F9CC49088001BD2DE9F84397
S31508000DE00446C34D8A2000FB045000F215004278E1
S31508000DF0037803EB02239BB203F44042C34E3678D2
S31508000E002E709B0635D5C24EF36C1B0631D5671975
S31508000E104FF480684FF40069B2F5404F03D1C01D06
S31508000E2001F0E9F809E0B2F5004F16D1017AC07968
S31508000E3000EB012080B2FFF7EDFC70B1706CC006C4
S31508000E4006D400F018F803D0F06A40F00100F0620A
S31508000E500120B8703068E8600BE0706CC00606D5F3
S31508000E6000F009F803D0F06A20F00100F0620020D3
S31508000E70B870BDE8F183306B04B1C84610EA080FB4
S31508000E8070472DE9F04E82B00446994E8A2000FB41
S31508000E90046000F2140B9F4D002C0CBF286868688C
S31508000EA0C0B241005FFA81F9052808DA9A484FF47A
S31508000EB0D67200F1140101F044FA01F041FA09EB87
S31508000EC00B0010F8081D427802EB01211FFA81FA7F
S31508000ED0A6F806A001793181317801708F4FF86B39
S31508000EE020F48050F863686E00060CD59BF8010064
S31508000EF0800608D50AF4A040B0F5A04F03D188486B
S31508000F000168491C01604FF4E4501AEA000F3BD10E
S31508000F10FFF7B1FE10B15FEA4A4035D59BF80000ED
S31508000F20802831D2A4B93868400516D4686BADF864
S31508000F300000286BADF80200009830617089401CEB
S31508000F407081A01982784946584601F06DF820E06C
S31508000F50012CEBD138680005E8D57248017859B1FB
S31508000F60002101709BF80100000900F001026E489B
S31508000F7001688F2001F036F8002C0CBF4FF4806012
S31508000F804FF40060386004E0FFF74EFCB088401C60
S31508000F90B080002C0CBF012002202861BDE8F38E2A
S31508000FA0F8B5544C2068216C01EA00055F4E25E02F
S31508000FB0A80645D468063BD4E80416D5376D25F44B
S31508000FC080554FF48050206008203065706D00050C
S31508000FD009D5B06920F00100B061B06940F00100A0
S31508000FE0B061FFF721FCBFB23765A80406D5FFF745
S31508000FF015FC25F400554FF40050206035B328073A
S3150800100006D50020FFF7EAFE25F00805082020602F
S31508001010E80606D50120FFF7E1FE25F010051020A9
S31508001020206005F060006028C2D13068C00507D589
S3150800103025F04005402020600120FFF722FFD4E775
S3150800104025F02005202020600020F6E700202060FB
S31508001050F1BD2F480068704770B58AB004460D4642
S315080010600020009000230322014600F04DFC1EE0FC
S31508001070002601A800F023F805A800F020F8B61C01
S31508001080102EF6DB05A901A800F00CFE0020208032
S31508001090218801AA8218527801ABC35C03EB0222AD
S315080010A051402180801C1028F2DB6D1EA41CEDB275
S315080010B0002DDDD100F022FC01200AB070BD3118E8
S315080010C0002000F03BBC00B583B00020009004234C
S315080010D00222002100F018FC01A9FFF7F1FF00F039
S315080010E00DFCBDF804000EBD002000408420004021
S315080010F08C04002000A000404C100040870400200B
S31508001100D010004080200040D4060020860400202D
S3150800111038200040202000409424000804A0004005
S31508001120CC060020B4060020C00600206820004037
S3150800113010B500F014F81040C84010BD10B500F006
S315080011400EF8D44320401140084380B2D8600220EC
S3150800115018600020186058680028FCD110BDDFF818
S3150800116064335C68002CFCD198600120186000206C
S31508001170186058680028FCD118697047DFF84803DA
S31508001180DFF848138A780AB149780FE089566FF074
S3150800119008029142B8BF302108DBC16D39B140F26F
S315080011A04A31C26DB1FBF2F189B2C91E01607047BE
S315080011B02DE9F04182B00546DFF81043A581B5F563
S315080011C0004F19D102237F22DFF8040300F075F9D6
S315080011D0BDF80000000AFF2800D000B9182060708A
S315080011E0BDF800000006C00E10281CBF001D00F048
S315080011F0F5F8BDF80000C54305F00108C5F340073A
S3150800120008EB4800B34946184FF4F852B078010283
S31508001210E020FFF793FFB048016841F40041016000
S315080012204FF440527078010389B22020FFF786FFF9
S31508001230404600F01BFE4022B901A020FFF77EFFC2
S3150800124017B915F0040000D00120A070FFF796FF2B
S315080012500020BDE8F6819D48808970472DE9FE4F3C
S315080012608046A8F10B05ADB2FFF7BDFC8146A8F193
S315080012700B00C0B2102802D38A20BDE8FE8F984F13
S31508001280B868000702D43868C00701D58C20F4E78F
S31508001290924C84F80080934E30680C2801D10020C7
S315080012A0EBE7607838B9706A40F400507062706A8B
S315080012B020F4805070628C480078012808BFFFF738
S315080012C066FC8A48D0F800A089484FF4C0610160DE
S315080012D0386A20F002003862A800001D0290042235
S315080012E0014600A801F01CF99DF800008DF80700DA
S315080012F09DF801008DF806009DF802008DF805009E
S315080013009DF803008DF804007A4830F82500F0614E
S3150800131048F2607B6078C0B1C6F824B0386A20F01D
S3150800132001003862012000F090FB386A40F00100A5
S315080013303862642000F089FB706A20F4805070627D
S31508001340706A40F40050706202E0404600F0D1FC3A
S3150800135029460DF1010000F021FC29460DF1020095
S3150800136001F034F82A4600A90DF1030000F0D2F87E
S315080013709DF800009DF80710884211D19DF80100DC
S315080013809DF8061088420BD19DF802009DF80510BD
S31508001390884205D19DF803009DF80410884204D0C0
S315080013A00422029900A801F0C3F80AF4C0604F4964
S315080013B00860FFF7C5FC386A40F0020038626078BA
S315080013C020B1C6F824B0642000F03FFB00F096FA7E
S315080013D0B9F1010F01D1FFF7A5FB60E72DE9F0414F
S315080013E086B004466FF02A00844201DA8B205EE05C
S315080013F014237F22404800F060F8BDF810004FF62D
S31508001400FF71884204D00E21084218BF012606D172
S315080014103F220021F020FFF78BFE054600263748BD
S315080014202A49042C0FDA0022354B01E0521CD2B2AD
S31508001430D756A742FADB02600F7000200024074641
S315080014404FF003080EE0092CD0DA625C02600C70DB
S3150800145014237F222B4800F030F8032001240127AB
S315080014604FF0280826B14FF6BF72BDF8101018E0E5
S315080014704FF46052C10200F01DF84FF4E0622102F9
S3150800148000F018F88022F90100F014F885F0200021
S3150800149008EB0005ADB2402DA8BF3F253F2285F0D9
S315080014A02001A020FFF74AFEFFF768FE002006B0DD
S315080014B0BDE8F08189B2A02040E6018800A800F0C6
S315080014C0BFBE0000E810004064100040440400203D
S315080014D0BE260008802600081C100040860400204E
S315080014E060200040AC1000407304002000E100E0DA
S315080014F080E100E054240008B4260008C01000402B
S31508001500BC250008B62600083F22410089B22020E3
S31508001510FFF714BE2DE9F34F97B0784C784800785A
S31508001520002814BF606A206980B203901798007873
S315080015304FF67F7101EA000618990978039B5B1C30
S315080015408B4203DB039B5B1E994201DA012100E013
S315080015500021012303FA02F2ADF80A20000608D496
S3150800156068480088BDF80A20104202D1002900F018
S31508001570BC80E06C80B20690206880B20590624D0F
S31508001580E86A80B204904FF6FF7200211120FFF737
S31508001590CFFD80464FF6FF720021A020FFF7C8FD59
S315080015A083464FF40040206000202861686148F2B5
S315080015B0020000F0BDF84CF68C30E06448F2F0000A
S315080015C0E8624FF4805211461120FFF7B7FD4FF637
S315080015D0FF720021A020FFF7B1FD00F0AEF802A9C6
S315080015E000F0B3F800F0B4F80DF1060100F0ADF81C
S315080015F04CF69C30E0640020FFF786FF0020009040
S3150800160006231A46C02100F07FF90026B0B2FFF77C
S315080016107BFF00F092F807A800EB460100F095F86A
S31508001620761C202EF2DB00F08FF81020FFF76CFFF7
S3150800163000F08EF800F088F8BDF80400BDF8061032
S31508001640401ABDF83C10BDF80820891A404301FB32
S3150800165001094FF0100A112700F062F800F078F837
S3150800166000F072F800F052F804DB8146BA467F1C97
S31508001670202FF1DB1FFA8AFABAF1100F0FD10F27C4
S3150800168000F04EF800F064F800F05EF800F03EF85E
S3150800169005DB8146BA46781E07B2002FF0D54FEA19
S315080016A04A0086B20698E064059820600498E862C5
S315080016B04FF6FF7241461120FFF740FD4FF6FF72C5
S315080016C05946A020FFF73AFD01202861002000F0C6
S315080016D02FF817980670189803990170094800881A
S315080016E0BDF80A108843074908803F223146202062
S315080016F0FFF724FD19B0BDE8F08F0000C0100040C8
S3150800170087040020D606002018100040BDF8040003
S31508001710BDF80610401A404306FB060048457047C8
S3150800172007A830F81700BDF80810461AB8B2EBE655
S31508001730286040F24C4000F088B90020009006234B
S315080017400622C02100F0E0B801A9002000F0F6B892
S315080017500020009006230722C02100F0D5B800001B
S315080017602DE9F04100245C4D2C605C4E34604FF44A
S31508001770A040706041F29A08404600F066F9686831
S3150800178044F69041081A00B24FF4487190FBF1F004
S3150800179000B200F303003060404600F056F908270F
S315080017A0404600F052F9686804197F1EF8D14C4883
S315080017B0211DC908B0FBF1F080B27060BDE8F08168
S315080017C038B56FF00F04474D0120A8602C608020C3
S315080017D000F03BF9E868FF2802D8641C102CF5DBFA
S315080017E031BD10B5404C41480088206040F2DC50BD
S315080017F000F02BF9A06800F0010010BD70B53C4C54
S3150800180002202061394D002028801026F605360E64
S31508001810288830182880FFF7E4FF10B12888801B35
S315080018202880002EF2D12068C00702D42888401CE0
S31508001830288028880D2834BF801C0F20288070BD7A
S3150800184070B500244FF6FF76284D2888B0420BD194
S3150800185002237F2227480188284600F0F1FC2888C1
S31508001860B04208BFFFF7CAFF214E02203061FFF7DA
S31508001870B8FF316811F0020118BF01212A8800B9A2
S31508001880521C21B192B2032A24BF521E01242A8077
S315080018902A8801B918B9D11E89B20C29E7D308B12B
S315080018A0022A06D20D2A02D2901C288002E00F20B6
S315080018B0FBE70CB1FFF795FF306940F00100306196
S315080018C00120706100F0CAFE0B4911220A60BDE8CA
S315080018D0704000F0E9BE0000104000400C000040D7
S315080018E00060E316084000400440004084040020DD
S315080018F00C400040C0260008008000405D48016892
S3150800190021F0010101607047F8B516461F46069C8E
S31508001910594D286C20F00800286400F09FFE390312
S3150800192041EAC61141EA840141F00101514A1160B8
S315080019300821296000F0B8FE0020F2BD4E48026872
S315080019401207FCD5082202604C480068088000206F
S31508001950704730B583B002237F224948018801A821
S3150800196000F06EFC00200090022303220021FFF7FE
S31508001970CBFF00F035F8BDF80640002000900223A2
S3150800198001220146FFF7C0FF00F02AF8BDF806500D
S3150800199000200090022302460146FFF7B5FF00F03B
S315080019A01FF83448016821F001010160BDF8040000
S315080019B04FF6FF7188420EBF4FF4E1600A2190FB93
S315080019C0F1F0ADF80400BDF80600001B0004291B61
S315080019D0B0FBF1F0BDF8041048434000000C3EBDD2
S315080019E00DF106010020A9E710B5264CFFF7B1FF57
S315080019F040F68C218842206834BF40F0080020F069
S31508001A000800206010BD10B582B0044602237F226C
S31508001A101D48018800A800F013FC9DF801009DF8F8
S31508001A200010FF2903D1FF2804BF042000210CB1B0
S31508001A30801CC0B20828A8BF07200829A8BF07210C
S31508001A4041EAC0101149086013BD11490A68114BD3
S31508001A501B68DB0758BF4008032809D34B6D43F0C2
S31508001A6001034B650B689B1A1B031B0B8342F9D3B7
S31508001A70704700000470004018A000400070004045
S31508001A80BC26000800BC0040BA2600081800004022
S31508001A90382000401C4000404FF4FE52810189B2B4
S31508001AA0B020FFF74BBB30B583B0494C00206060CF
S31508001AB02060FFF723FF00F017F801A90020FFF7C1
S31508001AC03DFFBDF904504FF6FF7060602060FFF7D8
S31508001AD015FF00F009F801A90020FFF72FFFBDF94F
S31508001AE00400281A00B23EBD0020009006230922F1
S31508001AF0C021FFF709BF2DE9F84F364CA06A0090C0
S31508001B002568354E3768DFF8D4803548007818B12F
S31508001B1048F26070C8F800000220A0620120206028
S31508001B2040F24C40FFF791FF0120F06030604CF224
S31508001B304C00C8F83C000020FFF7AEFFFFF7B3FFE4
S31508001B4082467F20FFF7A8FFFFF7ADFF8346504682
S31508001B5000F0A2FD8146AAEB0B0000F09DFD82462F
S31508001B600020C8F83C00BFB23760F0600220206051
S31508001B70ADB2256000A80088A06240F24C40FFF78D
S31508001B8064FFFE2000FB09F01FFA8AF1B0FBF1F0B2
S31508001B9080B2401CC003000CBDE8F28F70B5044645
S31508001BA0012000FA01F520780E4E010602D431888C
S31508001BB0294206D0FFF79FFF20703188A94331805C
S31508001BC002E04FF67F710840BDE8704064E7000008
S31508001BD0381000406020004028100040D010004017
S31508001BE087040020D806002038B50446274D21462C
S31508001BF000F055F8E860211D00F051F8A86004F1DE
S31508001C00080100F04CF8686004F10C0100F047F890
S31508001C10286031BD38B504461C4DEA68214600F0F7
S31508001C203BF8AA68211D00F037F86A6804F1080134
S31508001C3000F032F82A6804F10C010020BDE83840AB
S31508001C4000F0E6BBF8B50446114D80202860114E19
S31508001C50062030600720286030688007FCD50027FA
S31508001C6004EB870100F01BF8A8627F1C042FF7D34A
S31508001C7030684007FCD500262A6B04EB860100F085
S31508001C800BF8761C042EF7D3F1BD0000383000405F
S31508001C900030004010A00040002000F0B9BB002032
S31508001CA000F0C4BB7FB504460D4600F0D7FC0646D7
S31508001CB000A8FFF7AFFF2846FFF796FF2046FFF775
S31508001CC0C1FF00A8FFF790FF304600F0EDFC7FBD8E
S31508001CD02F490A68920992010A600A681043086047
S31508001CE02C484FF400410160002101606420FFF791
S31508001CF0ACBE2DE9F84F8046274D28681FFA80F9B3
S31508001D00286840F400402860214F386820F4805045
S31508001D103860224C207870B12148A178627800EBAF
S31508001D20820212F82A2C891A00EB880010F82A0C6D
S31508001D30401886B202E02026012020703046FFF7C0
S31508001D40C7FF0FF2480ADFF85CB003E086B23046F8
S31508001D50FFF7BEFF386B042805D0386B400754BF21
S31508001D60701E701CF2E7F86A30B184F80180A6701C
S31508001D70C5F80090BDE8F18F4FF48B72594650466E
S31508001D8000F0DFFA00F0DCFAE4E7000030000000BB
S31508001D90D0100040181000401C100040D00600204B
S31508001DA054240008F424000880B51F48016821F06F
S31508001DB0100101600020FFF726FEFFF715FEFFF76A
S31508001DC03FFDFFF7FDFCBDE8014000F0DDBA80B538
S31508001DD000F044FC1548002101604160144815498B
S31508001DE0016001BD81B209B94BF6EF61124A118053
S31508001DF0000C08BF4FF6CE205080704702881304A7
S31508001E0048BF4A405100018090B2704738B50A4C25
S31508001E1062212046FFF7F2FF054641F20B01A01C9E
S31508001E20FFF7ECFF684032BD00BC00401C40004094
S31508001E300CED00E00400FA058004002010B500232C
S31508001E4002E05C5C1C545B1C9342FADB10BD30B5A7
S31508001E50002300E05B1C934205DA1C5C5D5CAC4227
S31508001E60F8D0012030BD002030BD0000F0B589B0A3
S31508001E7004460020FFF7C7FD0A237F22274801886A
S31508001E8000A800F0DDF94FF6FF75254EBDF80200F3
S31508001E90A84209D140F2071206F1340106F11400EE
S31508001EA000F04FFA00F04CFA00272A4617B94FF40B
S31508001EB07C4203E0022F08BF4EF23F0200A830F82A
S31508001EC01710B85DFFF73AF97F1C052FEDD3012CE3
S31508001ED002BF14237F22134802D014237F221248FC
S31508001EE0018803A800F0ACF900272A46012F08BF8D
S31508001EF04FF6C072082F08BF002203A830F8171043
S31508001F00B819007AFFF71AF97F1C0A2FEDD3012CAE
S31508001F1004BF0120FFF777FD09B0F0BDB826000819
S31508001F20DC210008B6260008B42600085FEA000D82
S31508001F307047000010B51D480068800608D51C4883
S31508001F4044680068FFF7F2FF1A4819490160A0477C
S31508001F50BDE8104080B5184840F20731016072B6F6
S31508001F601648016821F00101016015481121016038
S31508001F701448154901604FF07841C1601349016161
S31508001F80134941611349144A0A604FF080324A6086
S31508001F908A60CA60E0220A61102181604FF4E0215C
S31508001FA0816100F05BFB62B6012002BD2C00004097
S31508001FB00030000808ED00E018000040FCED00E0E5
S31508001FC0008000400CED00E00004FA05F8F8F8403F
S31508001FD080F8408000E400E080804080FFF73EB94A
S31508001FE0FEF75ABCFEF7CABBFEF700BEFEF70ABEEE
S31508001FF0FEF73CBE03E0FEF70FBCFFF72DB8084816
S31508002000704738B5074C2068216C01EA0005ADB267
S31508002010680748BFFEF704FC256031BD00000000D4
S31508002020C406002008A0004070B582B004461546D4
S315080020300819A0F10806FEF71EFE20B1207803282D
S3150800204024BF801E2070F078FEF704FC96F9021073
S31508002050663149B200910346707900F00F00B179F4
S31508002060090241EA0040F17941EA00022946204680
S31508002070FEF70BFB73BD000030203D3D20282828C5
S31508002080446D61416464726573735479706529623D
S31508002090756666292026203129000000737461635D
S315080020A06B5C7068795C73746D333277313038786D
S315080020B078636C6173735C7068792D636F6D6D6F8F
S315080020C06E2E630053545F53554343455353203D87
S315080020D03D2073746D526164696F5365744368611A
S315080020E06E6E656C2873746D526164696F436861BE
S315080020F06E6E656C2900000010B5044603E014F8FE
S31508002100010B00F022FA20780028F8D110BD2DE93D
S31508002110F04104460D4616461F46DFF84C804EB180
S315080021204046FFF7E9FF3046FFF7E6FF08F11000E3
S31508002130FFF7E2FF2046FFF7DFFF09A0FFF7DCFF06
S315080021402846FFF7D9FF07A0FFF7D6FF3846FFF75F
S31508002150D3FF08F11800FFF7CFFF0020BDE8F08194
S315080021603A00000020000000C42400084AB38B0788
S3150800217007D011F8013B00F8013B521E21D08B070E
S31508002180F7D183071ED1103A07D330B4B1E8381017
S31508002190103AA0E83810F9D230BC530724BFB1E88A
S315080021A00810A0E8081044BF51F8043B40F8043B67
S315080021B0D20724BF31F8022B20F8022B44BF0B7834
S315080021C003707047083A07D3B1E80810083A40F890
S315080021D0043B40F804CBF7D25307E4E710F0B0C04D
S315080021E0D00000001120304060708090A0E0000010
S315080021F0626F74682E746F6B2E626961736D61739A
S3150800220074657220213D2030786666666600000097
S31508002210737461636B5C7068795C73746D33327761
S315080022203130387878636C6173735C616E616C6F9A
S315080022306775652D63656C6C2D626961732E630025
S3150800224030B583B0044610467F2808BF0020B1F594
S31508002250004F19D108237F2240F6120100A8FFF784
S31508002260EFFF08220D4900A8FFF7F1FD30B9082352
S315080022707F2240F2A27100A8FFF7E2FF082200A918
S315080022802046FFF7DBFD37BD1A46054D294300FBFF
S3150800229003112046FFF7D2FD37BD00008826000847
S315080022A00000040881B0114848F244410160816881
S315080022B041F080018160002100914FF47A7202E0BA
S315080022C00099491C009100999142F9DB4068000683
S315080022D0C00F80F0010001B07047054844F2144170
S315080022E00160016821F020010160704704B00040D8
S315080022F004B40040626F7468546F6B2E6966666931
S315080023006C7465724820213D2030786666666600E2
S31508002310737461636B5C7068795C73746D33327760
S315080023203130387878636C6173735C616E616C6F99
S315080023306775652D66696C7465722E63000000000A
S31508002340704770B584B0034608460A2100248DF804
S315080023500A400DF109040A25491EC9B292FBF5F691
S3150800236005FB1622303204F801293246012AA8BF95
S315080023700129F1DA002200AC0919FFF7C8FE08B9ED
S3150800238000F08EB904B070BD80B50B48102101600D
S315080023900A48022101600A484FF400610160FFF70C
S315080023A0DFF9084807210160002101640648102169
S315080023B00160002002BD000080E100E00800004046
S315080023C00C60004014A0004000E100E010B584B0A5
S315080023D00A237F220C48018800A8FFF731FF4FF631
S315080023E0FF74BDF80000A04207D10848672200F133
S315080023F01C01FFF7A6FFFFF7A3FF2246BDF8001052
S315080024001020FEF79BFE1FBDB8260008F422000820
S3150800241010B50023002814BF1C46C3F10304E4B218
S315080024206254120A5B1C042BF4DB10BD30B54A78E3
S315080024308B78CC78097818B120461D460C4602E000
S31508002440084615461A4645EA002044EA022141EAAA
S31508002450004030BDAA21290055232900002528005F
S31508002460AA26270055282700002A2600AA2B260078
S31508002470552D2500002F2400AA30240055322300AC
S3150800248000342200AA3522005537210000392000E1
S31508002490AA3A20007278446D61576F7264436F756B
S315080024A06E74203E20340000737461636B5C706840
S315080024B0795C73746D33327731303878785C70684C
S315080024C0792E6300496E2066756E6374696F6E2097
S315080024D000000000202D2D2000000000202D2D20BA
S315080024E0617373657274696F6E206661696C656481
S315080024F00A000000737461636B5C7068795C7374BE
S315080025006D3332773130387878636C6173735C6118
S315080025106E616C6F6775652D76636F2E63000000BC
S3150800252080B5D2B2014BC9180BE0000000040020A8
S3150800253080B50B46D2B20146004801E000040020EF
S315080025401818FFF77BFC002002BD10B582B00446C0
S3150800255014F1010F0AD08DF80000012200A901200C
S31508002560FEF75FF9012801D1204616BD4FF0FF306E
S3150800257016BD10B409E050F8041B50F8042B51F8A6
S31508002580044B42F8044B1B1FF9D150F8043B002BAF
S31508002590F1D110BC70470000FD250008500200006C
S315080025A08C04002000000000732500088C00000041
S315080025B0C82600080004002000000000D5E6ECEF5D
S315080025C0F2F4F5F7F8F9FAFBFBFCFCFDFDFEFEFF5D
S315080025D0FFFF0000000101010202020310B50548D1
S315080025E0054CA04204D050F8041B8847A042FAD1F3
S315080025F010BD00BF98250008BC250008002305E08B
S3150800260050F8041B41F8043B121FFBD150F8042B69
S31508002610002AF5D170470000FFF78CFC002801D08E
S31508002620FFF7DCFF0020FDF7D8FE00F040F80000B9
S3150800263008237F22024801880248FFF701BE00BF2F
S31508002640C2260008C4060020040E1114090300015E
S315080026500211213136430300000109A8EFF3118066
S31508002660602181F31188704701491820ABBEFBE74A
S315080026702600020007463846FFF7F6FFFBE700008C
S3150800268000000001030A0000FFFFFFFFFFFFFFFF36
S31508002690002181F311887047002848BF40427047DF
S315080026A080B50120FFF7E0BF80F31188704780B539
S315080026B0FFF7E0BFAA07BE07D207DC07DE073C081C
S315080026C0EE080080FEE70000FFFFFFFFFFFFFFFFA9
S315080026D0FFFFFFFFFFFFFFFFFFFFFFFFFFFFFFFFFC
S315080026E0FFFFFFFFFFFFFFFFFFFFFFFFFFFFFFFFEC
S315080026F0FFFFFFFFFFFFFFFFFFFFFFFFFFFFFFFFDC
S31508002700FFFFFFFFFFFFFFFFFFFFFFFF03180000AC
S315080027101316191C1F0000000080000000000000AE
S31508002720000000000000FFFF00000000000000207D
S315080027300030000801000101B5000001FEFFFFFF9F
S315080027400101040305010000EFBECEFAFFFF0B01ED
S309080027500100000076
S70508002619B3
