S00F000070657279746F6E732E73333761
S3150800000000040020192E0008F7460008F7460008E5
S31508000010F7460008F7460008F74600080000000003
S31508000020000000000000000000000000F74600087D
S31508000030F746000800000000BD0E0008F746000855
S31508000040F7460008F7460008F7460008F74600088E
S31508000050051800084F190008F7460008F746000873
S31508000060191A00087D1F0008ED260008650C00080F
S31508000070F7460008F7460008F7460008F74600085E
S31508000080F74600085B49000820160000C80400204F
S31508000090000000007549000801000000010000008A
S315080000A00A4A00083700000000040020C5000000C6
S315080000B04F564552464C4F570D0A00004D41435482
S315080000C0494D4552434F4D504152454025640D0A0E
S315080000D000000000000202024B4B46477665726933
S315080000E06679466962282900563A5C6C696E6B5FC8
S315080000F073746D3332775F6275696C645C68616CC2
S315080001005C6D6963726F5C636F727465786D335C7E
S31508000110666C6173682E6300FFFFFFFFFFFFFFFF3A
S3150800012046414C5345000000563A5C6C696E6B5F5D
S3150800013073746D3332775F6275696C645C68616C81
S315080001405C6D6963726F5C636F727465786D335C3E
S315080001506D6963726F2D636F6D6D6F6E2D696E7449
S3150800016065726E616C2E630000B0004004B00040FA
S3150800017000B4004004B4004000B8004004B8004091
S31508000180284E564D5F4C4546545F50414745254DD0
S3150800019046425F504147455F53495A455F42293DAC
S315080001A03D300000563A5C6C696E6B5F73746D3354
S315080001B032775F6275696C645C68616C5C6D6963F3
S315080001C0726F5C636F727465786D335C6E766D2ED4
S315080001D063000000284E564D5F52494748545F5009
S315080001E0414745254D46425F504147455F53495A69
S315080001F0455F42293D3D3000286F66667365742663
S31508000200307831293D3D3000286C656E6774682664
S31508000210307831293D3D30006F66667365742B6C06
S31508000220656E6774683C4E564D5F444154415F5352
S31508000230495A455F4200000028626175647261741C
S3150800024065203E3D2033303029202626202862614D
S31508000250756472617465203C3D3932313630302917
S3150800026000000000563A5C6C696E6B5F73746D3300
S3150800027032775F6275696C645C68616C5C6D696332
S31508000280726F5C636F727465786D335C75617274D6
S315080002902E630000AA2129005523290000252800DD
S315080002A0AA26270055282700002A2600AA2B26005A
S315080002B0552D2500002F2400AA302400553223008E
S315080002C000342200AA3522005537210000392000C3
S315080002D0AA3A2000D5E6ECEFF2F4F5F7F8F9FAFBBE
S315080002E0FBFCFCFDFDFEFEFFFFFF00000001010117
S315080002F00202020300000001030A000030203D3D0F
S3150800030020282828446D61416464726573735479A2
S315080003107065296275666629202620312900000045
S31508000320737461636B5C7068795C73746D33327770
S315080003303130387878636C6173735C7068792D63D3
S315080003406F6D6D6F6E2E630053545F53554343456F
S315080003505353203D3D2073746D526164696F536534
S31508000360744368616E6E656C2873746D5261646956
S315080003706F4368616E6E656C290000007278446D83
S3150800038061576F7264436F756E74203E20340000A7
S31508000390737461636B5C7068795C73746D33327700
S315080003A031303878785C7068792E6300626F7468CB
S315080003B0546F6B2E696666696C7465724820213DB8
S315080003C02030786666666600737461636B5C706875
S315080003D0795C73746D3332773130387878636C6151
S315080003E073735C616E616C6F6775652D66696C7495
S315080003F065722E630000000010F0B0C0D000000047
S315080004001120304060708090A0E00000626F746830
S315080004102E746F6B2E626961736D617374657220D9
S31508000420213D203078666666660000007374616355
S315080004306B5C7068795C73746D33327731303878F9
S3150800044078636C6173735C616E616C6F6775652D3B
S3150800045063656C6C2D626961732E630073746163E6
S315080004606B5C7068795C73746D33327731303878C9
S3150800047078636C6173735C616E616C6F6775652D0B
S3150800048076636F2E63000000686A6C747A4C00000D
S31508000490496E2066756E6374696F6E2000000000F1
S315080004A0202D2D2000000000202D2D20617373655E
S315080004B07274696F6E206661696C65640A00000073
S315080004C0DFF824150A68504008607047DFF81815E9
S315080004D00A6822EA000008607047DFF80C150A6807
S315080004E0104308607047DFF8040544F214110160F0
S315080004F06020F2E710B5DFF8F844D4E90401D4E93E
S3150800050002238B4206D301D8824203D3101A63EB27
S31508000510010105E0D0F5801061EB410180185941D1
S31508000520DFF8D0240023994201D8904206D3202030
S31508000530FFF7C6FFD4E90201C4E9040110BD10B5EE
S3150800054082B0002001F05EFA00F00CFF022100A83C
S3150800055001F05EFA009802F07BFC012300220821D4
S315080005604FF4E13001F05AF901F048F9002001F0A2
S315080005702FFADFF8841400200870812000F0FEF8B6
S315080005800B2001F030FA002001F035FA002001F0C6
S3150800059034FA012001F02DFA00F08EF9FFF7A3FFD7
S315080005A0DFF84C4404F1280390221E2104F11C00B4
S315080005B004F0F1F800F066FA04F11C0004F0DDF826
S315080005C050B12078012807D14020FFF77FFF00F0BF
S315080005D030F94020FFF781FF00F077F9FFF78AFF2F
S315080005E0E8E72DE9F24F80461646DFF804A4DAE973
S315080005F002017070DAE902010004000EB070DAE94F
S315080006000201000CF070DAE90201000E3071DAE935
S315080006100201717106240B256FF07E0900F055F969
S315080006205FEAC87023D5032701E0781EC7B2E8B28F
S3150800063001F0D9F9002818BF002FF6D1A555601C7E
S315080006405FFA80FB0BF10104E4B21FB981200BF8B5
S3150800065006000CE0012705E001F0D8F98145B8BF8E
S3150800066081467F1C0098B842F6D20BF806904FEAEE
S3150800067058086D1C1B2DCFDB601E30709AF80100E0
S31508000680BDE8F24F01F0AFB9F8B504460025DFF82A
S315080006906C63B078070006D002281DD00ED3042854
S315080006A049D026D354E000F056F8002850D09DF8DB
S315080006B0000015284CD10127207049E000F04BF8BE
S315080006C0002845D09DF80000FF2804BF6070022767
S315080006D03ED015283CD03AE000F03DF8002837D047
S315080006E09DF80000A070032737709DF80000707011
S315080006F02EE000F030F858B330789DF80010015518
S31508000700401C3070C0B2011FA278914208BF04276E
S315080007101ED07178D21C9042BCBF9DF800004018CC
S31508000720E5DBA278D21C904212D19DF8000080F039
S31508000730FF004840DBE73078001910F8010C0C2858
S3150800074002D1707800B9012500203070707000273A
S31508000750B7702846F2BD012200A9002001F0CFB8E3
S3150800076010B50022022303E01C5CA218D2B25B1C5F
S315080007708C1EA342F8DB82F0FF0010BD38B5A04CF2
S3150800078015222270FF2262700322A270E0700425EF
S31508000790813801280FD9801E11D0401E1CD0001F99
S315080007A009D00838022806D9103822D0401E02D0AF
S315080007B00F3801282AD808782071052526E0172041
S315080007C0A070A078801C8542BFBF11F8010B285580
S315080007D06D1CEDB2F5DB19E00720A070A078801C2F
S315080007E08542BFBF11F8010B28556D1CEDB2F5DB2C
S315080007F00CE011F8010B821CA270021D9542BFBFC6
S3150800080011F8012B2A556D1CEDB2F6DBA078011DF7
S31508000810C9B22046FFF7A4FF2855681CC0B20C21B0
S315080008200155421CD2B221460120BDE8384001F0EC
S3150800083044B870B56E4C734D294604F11C0003F09C
S315080008405BFF05F2800315201874FF2058742A7878
S3150800085002F109009874F020D874D5E920011976B8
S31508000860060EDE75060C9E750604360E5E75187540
S3150800087060785876187A98760120144604E0415D27
S3150800088086F89A10401CC0B246198442F7DA05F277
S31508000890900502F10D01C9B22846FFF761FF86F8F7
S315080008A09A000C2086F89B0004F10D0229460120C7
S315080008B0BDE8704001F001B810B54D4C0020C4E900
S315080008C0020001F0A1F8A06110BD38B500F090FF54
S315080008D001F09AF846498A6990422EBF821AC2F5F3
S315080008E080128218D1E902450023A2186B41C1E99A
S315080008F002238861BDE8314000F080BFF8B59DF954
S3150800090018600021404B03E00C5CCC54491CC9B26A
S3150800091004788C42F8DA364FB96991422EBF881AA4
S31508000920C2F580100818D7E90245DFF8E0C060452F
S3150800093009D38A422EBF501AC1F58010101800211B
S315080009402018694103E00021201A65EB0101C3E97B
S31508000950200183F88860194607F11C00BDE8F440B9
S3150800096003F0EABE22480021017170470020704753
S3150800097000207047264802F05BBA70B51C4B99698F
S3150800098081422EBF0A1AC0F580128A18D3E9024599
S315080009901E4EB24209D388422EBF401AC1F58011B5
S315080009A0401800212018694103E00021A01A65EBD0
S315080009B001019A78312A12D1DB78164A98545B1CC1
S315080009C0DBB20404240E9C545B1CDBB2040C9C545E
S315080009D05B1CDBB2040E9C545B1CDBB2995470BDE5
S315080009E00D490E4802F024BA0CB4004004B4004085
S315080009F0C804002021A10700641A0020D81A002084
S31508000A00381A0020D015002020180020A1860100E1
S31508000A10B000000838190020091A0008BC000008B0
S31508000A20F8B5144CFF25144E3179002920D100F071
S31508000A30DCFF00281CD1012030711048C178B17044
S31508000A400079F0700E4F03E000280BD0FFF73DFF4A
S31508000A503968481E386030790029F5D1002818BF52
S31508000A60257001D1002020704FF0FF303860F1BDAD
S31508000A702570F1BD641A0020C8040020B0180020B3
S31508000A80080400202DE9F843724E3046FFF7FCFDB6
S31508000A9000281FD03079F1784FF0FF086E4C6F4D63
S31508000AA0012918D0022919D0032921D004293CD0BC
S31508000AB0102948D0112900F0AF80122900F0C18012
S31508000AC0202900F09780212900F0A18030294BD0F9
S31508000AD0312949D0BCE000F056FCB9E0002020706E
S31508000AE021468220FFF74AFE0020C5E90200AFE052
S31508000AF000F085FF00F207000121217002216170D4
S31508000B001021A17000210A1910F80139D370491C67
S31508000B100829F8DB122905DA08190022C270491CCF
S31508000B20C9B2F7E72146832090E0D5E90201217191
S31508000B30020EE270020CA2700204120E627020709D
S31508000B402146842082E06870A0F10B01C9B2102901
S31508000B5005D200F048FF10B96878207001E084F8E3
S31508000B6000802146902071E000203D4F302904BFC7
S31508000B70B178491E04D0312903D10120B178891EE4
S31508000B80397000EB060999F80400A0F10B01C9B207
S31508000B90102909D26978884202D000F024FFE0B90A
S31508000BA099F80400687001E0FF2816D10121F07851
S31508000BB005E0312801D15279CA55491CC9B23A789B
S31508000BC08A4204DB8A193028F3D11279F4E7FFF751
S31508000BD07CFE3846FFF724FF01E084F80080F078B1
S31508000BE0302804BF2146B02030D0312830D12146E4
S31508000BF0B1202BE02246B179F37901EB0321737911
S31508000C0040EA0320FFF7EDFC2146A0201EE0002065
S31508000C1020702146A12019E0287801280CD005F17A
S31508000C20280390221E2105F11C0003F0B4FD0120C3
S31508000C3028700020207001E084F800802146912069
S31508000C4004E000202870207021469220FFF796FDC8
S31508000C50BDE8F183B0180020641A0020C8040020FB
S31508000C603819002070B52A4842782A490B685B076C
S31508000C7022D5032A20DA00EB420384889C810123CB
S31508000C80847803FA02F2224382700278224C82B1F7
S31508000C90002502E06D1C032D0EDA03FA05F616424E
S31508000CA0F8D045707240027000EB4500808A2060DB
S31508000CB002E02260032242704FF6FF700860BFF31D
S31508000CC05F8F70BD12480021017003214170002119
S31508000CD0C17005210181002181700F4900220A6037
S31508000CE04A604FF400428A601022CA60001D4861BB
S31508000CF0012088610320C8600648042101644FF674
S31508000D00FF71016005484FF40061016000F0F2B917
S31508000D108C1A002010A8004004D0004000E100E032
S31508000D202DE9F04100245C4D2C605C4E34604FF494
S31508000D30A040706041F29A08404600F0B0FA686830
S31508000D4044F69041081A00B24FF4487190FBF1F04E
S31508000D5000B200F303003060404600F0A0FA08270E
S31508000D60404600F09CFA686804197F1EF8D14C4882
S31508000D70211DC908B0FBF1F080B27060BDE8F081B2
S31508000D8038B56FF00F04474D0120A8602C6080200D
S31508000D9000F085FAE868FF2802D8641C102CF5DBF9
S31508000DA031BD10B5404C41480088206040F2DC5007
S31508000DB000F075FAA06800F0010010BD70B53C4C53
S31508000DC002202061394D002028801026F605360EAF
S31508000DD0288830182880FFF7E4FF10B12888801B80
S31508000DE02880002EF2D12068C00702D42888401C2B
S31508000DF0288028880D2834BF801C0F20288070BDC5
S31508000E0070B500244FF6FF76284D2888B0420BD1DE
S31508000E1002237F2227480188284600F039F92888C6
S31508000E20B04208BFFFF7CAFF214E02203061FFF724
S31508000E30B8FF316811F0020118BF01212A8800B9EC
S31508000E40521C21B192B2032A24BF521E01242A80C1
S31508000E502A8801B918B9D11E89B20C29E7D308B175
S31508000E60022A06D20D2A02D2901C288002E00F2000
S31508000E70FBE70CB1FFF795FF306940F001003061E0
S31508000E800120706100F0B4FC0B4911220A60BDE82C
S31508000E90704000F0A9BC0000104000400C00004063
S31508000EA00060E3160840004004400040B0040020FB
S31508000EB00C400040F2460008008000400B480078CD
S31508000EC050B1EFF30880A0F1200080F3088880E88D
S31508000ED0F00F0749086030BF0548006890E8F00F32
S31508000EE000F1200080F3088870470000BC1A002033
S31508000EF0C01A00200248006880F3088862B6704766
S31508000F00C01A00203748018A40F6A772914209D1D3
S31508000F10418A4FF47F40014204D102298041C043EF
S31508000F20C00F7047002070472DE9F04704468846F1
S31508000F3000F05EFC82462A4F012038702A4DFFF7E2
S31508000F40E1FF40B9E82205F1140105F1080003F0B4
S31508000F504DFC03F04AFC2348D0F8289041464FF44C
S31508000F6080702043C8470646504600F03DFC0020E6
S31508000F7038700EB1705D05E041464FF400702043AD
S31508000F80C847405DBDE8F0872DE9F04780468946A9
S31508000F90560000F02DFC8246134CFFF7B3FF48B904
S31508000FA040F2291204F1140104F1080003F01EFCB2
S31508000FB003F01BFC0B48456A002332464946404667
S31508000FC0A8470746504600F00FFC0FB1385D05E00C
S31508000FD03346002249464046A847005DBDE8F087EB
S31508000FE0E41A002000000408D400000880B51D4853
S31508000FF040F20731016072B61B490A6822F0010205
S315080010000A601A4911220A6019491A4A4A601A4A94
S315080010108A604FF078424A61184A8A61184ACA615A
S31508001020184A194B13604FF0803353609360D360AE
S31508001030E023136110220A614FF4E0220A62406934
S31508001040800609D5114800220270086840F08050D1
S315080010500860FFF74FFFFEE700F0CAFB62B6012003
S3150800106002BD00BF18000040FCED00E00080004013
S3150800107004ED00E0000000080004FA05F8F8F8405E
S3150800108080F8408000E400E080804080BC1A0020A0
S3150800109030B583B0044610467F2808BF0020B1F556
S315080010A0004F19D108237F2240F6120100A8FFF746
S315080010B0EFFF08220D4900A800F091F930B908237E
S315080010C07F2240F2A27100A8FFF7E2FF082200A9DA
S315080010D0204600F082F937BD1A46054D294300FB24
S315080010E00311204600F079F937BD00001801000801
S315080010F000000408E0B50A237F227348018800A887
S31508001100FFF7C6FFBDF806004FF6FF71884208D103
S315080011106E48372200F1080103F068FB03F065FB0F
S3150800112007BD6B494A68002AFBD1C0228A600122A2
S315080011300A6000220A604A68002AFCD10A69C86067
S31508001140022008600020086048680028FCD107BD16
S315080011506048016821F0010101607047F8B516463C
S315080011601F46069C5C4D286C20F00800286400F099
S315080011703FFB390341EAC61141EA840141F0010106
S31508001180544A11600821296000F02EFB0020F2BDA8
S31508001190514802681207FCD5082202604F480068C9
S315080011A008800020704730B583B002237F224C4860
S315080011B0018801A8FFF76CFF002000900223032294
S315080011C00021FFF7CBFF00F035F8BDF806400020F8
S315080011D00090022301220146FFF7C0FF00F02AF81B
S315080011E0BDF8065000200090022302460146FFF78C
S315080011F0B5FF00F01FF83748016821F001010160CA
S31508001200BDF804004FF6FF7188420EBF4FF4E16047
S315080012100A2190FBF1F0ADF80400BDF80600001BAA
S315080012200004291BB0FBF1F0BDF804104843400048
S31508001230000C3EBD0DF106010020A9E710B5294CAA
S31508001240FFF7B1FF40F68C218842206834BF40F092
S31508001250080020F00800206010BD10B582B00446D2
S3150800126002237F222048018800A8FFF711FF9DF876
S3150800127001009DF80010FF2903D1FF2804BF0420B0
S3150800128000210CB1801CC0B20828A8BF0720082975
S31508001290A8BF072141EAC0101449086013BD1449C4
S315080012A00A68144B1B68DB0758BF4008032809D394
S315080012B04B6D43F001034B650B689B1A1B031B0B15
S315080012C08342F9D370470000EA4600082001000867
S315080012D0E81000400470004018A00040007000406C
S315080012E0EE46000800BC0040EC4600081800004026
S315080012F0382000401C40004010B58208134B53F8B4
S315080013002220136800F0030080000F248440A343C2
S3150800131001FA00F01843106010BD80B50C48102182
S3150800132001600C48022101600B484FF4006101601E
S31508001330FFF7F6FC09480721016000210164084807
S3150800134010210160002002BD0000000068010008AD
S3150800135080E100E0080000400C60004014A0004056
S3150800136000E100E080B52048016821F01001016025
S315080013700020FFF772FF00F011F8FFF701FDBDE846
S315080013800140FFF7CABF80B500F032FA17480021BE
S315080013900160416016481749016001BD80B5FFF735
S315080013A091FCFFF74BFFBDE80140FFF729BD028816
S315080013B0130448BF4A405100018090B2704738B5BF
S315080013C00D4C62212046FFF7F2FF054641F20B015C
S315080013D0A01CFFF7ECFF684032BD01F053BD80B595
S315080013E001F088FD40B202BD00BC00401C40004030
S315080013F00CED00E00400FA05B2040020DFF88403CF
S315080014000068DFF8841309686FF0FF02DFF87C33A1
S31508001410984213D111F1010F01D1042070476FF4DE
S315080014207F00814201D10220704711F1807F01D1EE
S315080014300320704791421ED10520704710F1807F26
S3150800144003D1914208D10620704710F1010F07D148
S31508001450994210D10820704799420CD1072070474D
S31508001460904208D1994201D10920704711F1807F35
S3150800147001D10A207047002070472DE9F0478046C1
S315080014800F461446DFF8089340F2FF3ADFF8F452A5
S3150800149015EA0A0F07D0532209F12401484603F03A
S315080014A0A5F903F0A2F9DFF8E06216EA0A0F08D0F8
S315080014B0542209F1240109F1540003F097F903F0C5
S315080014C094F9F80708D5562209F1240109F178009C
S315080014D003F08CF903F089F9E00708D5582209F1D9
S315080014E0240109F1880003F081F903F07EF9E01977
S315080014F0B0F5806F08D35A2209F1240109F1980042
S3150800150003F074F903F071F96408FFF777FF401EDA
S31508001510032805D9001F03280DD9001F012815D84F
S3150800152078190021A142BEBF30F8112028F81120F1
S31508001530491CF7DB15E0B8190021A142BEBF30F8F7
S31508001540112028F81120491CF7DB0AE000214FF684
S31508001550FF7002E028F81100491CA142FADB0120BD
S3150800156000E00020BDE8F087F8B5044601256D1EA9
S3150800157004EB8526374600203978FF2906D0314600
S315080015800220FFF7D1FC48B94FF48060401C7F1C4D
S31508001590B0F5806FF0D3002DE9D10020F2BD000030
S315080015A02DE9F54F83B00E46794D40F2FF34DFF84A
S315080015B0D48118EA040F08D040F20B1205F1240171
S315080015C0284603F013F903F010F9DFF8BCA11AEA6C
S315080015D0040F09D04FF4867205F1240105F1540071
S315080015E003F004F903F001F9F00709D54FF48772FF
S315080015F005F1240105F1780003F0F8F803F0F5F891
S31508001600BDF81000C00709D54FF4887205F124010A
S3150800161005F1880003F0EAF803F0E7F8BDF8104092
S31508001620A019B0F5806F09D34FF4897205F124012A
S3150800163005F1980003F0DAF803F0D7F8FFF7DEFEB5
S31508001640BDF81010C1F58061891B091F4FEA510BBF
S315080016503419311F49080191411E032905D9091F6B
S31508001660032918D9091F01291AD8474655464FF0A4
S3150800167007090A28FDD8DFE800F0072D31353F5164
S315080016805D61697B7F00F4E73846FFF76DFF60B15F
S3150800169005B0BDE8F08F574645464FF00309E8E721
S315080016A0574645464FF00309EEE72846FFF75CFF25
S315080016B00028EDD100F073F80028E9D100F07EF893
S315080016C00028E5D100F066F80028E1D100F085F899
S315080016D00028DDD100F068F80028D9D100F075F8A7
S315080016E00028D5D1B9F1030F01D10020D0E728464B
S315080016F0FFF73AFF0028CBD100F051F80028C7D1F0
S3150800170000F05CF80028C3D100F044F80028BFD1E7
S315080017104FF47F4000F05AF80028B9D14FF47F40C3
S31508001720ADF80000012200A908F10200FFF72CFC21
S315080017300028ADD100F049F80028A9D1B9F1070F62
S31508001740D3D02846FFF710FF0028A1D100F027F8CC
S3150800175000289DD100F032F8002899D100F01AF837
S31508001760002895D14FF47F4000F037F800288FD134
S3150800177000F01AF800288BD1002000F02EF8002877
S3150800178086D1AFE700F8010800FC01080000FFFF5A
S31508001790800100085A4639192819FFF7F5BB019A3E
S315080017A0391D281DFFF7F0BB4FF47F40ADF8000048
S315080017B0012200A90AF10200FFF7E6BBBDF81000F6
S315080017C0420803997019FFF7DFBB0020ADF8000047
S315080017D0012200A95046FFF7D7BBADF80000012249
S315080017E000A94046FFF7D0BB80F311887047000078
S315080017F0EFF31180602181F311887047002181F38E
S3150800180011887047034807210160034801210170C8
S315080018107047000014A00040E51A0020F8B50746F6
S315080018200E4614461D46A7F596706049884207D3AA
S315080018305F482C2200F12C0102F0D8FF02F0D5FFF8
S315080018405C4800EB5700B0FBF7F05B4900F001027B
S315080018508A6140084861072E0CBF00200220012C2F
S3150800186008BF40F0180003D0022C08BF40F008005B
S3150800187005F00F02022AA8BF40F004008860012084
S3150800188008604E4800210180418081800921092095
S31508001890FFF732FD04210A20FFF72EFD48480121F3
S315080018A0C164016C46F20902114301644FF6FF71E7
S315080018B00160444820210160F1BD10B500230128CC
S315080018C004D0022802D04FF0FF3010BD3E48002950
S315080018D004D1C1684906FCD5002010BD8469012CD5
S315080018E0F1D106E0C4686407FCD511F8014B046021
S315080018F05B1C1446621E002CF4D1184610BD2DE957
S31508001900F0410C46904610B14FF0FF301DE000261E
S315080019102E4F2A4D14E0FFF76BFF6988C95D04F85E
S31508001920011B6988491C8A1101EB5262D211A1EB8D
S31508001930C2116980A988491EA980FFF755FF761C40
S31508001940A88808B14645E6D33046BDE8F08170B5AB
S315080019501B480168026C02EA01041C49174A1A4B23
S31508001960002C1AE0DC681D68EDB2382634420ED128
S3150800197094887F2C0BD216887554751CAE1105EB0E
S315080019805666F611A5EBC6151580641C9480DC68AE
S31508001990A407E7D40468056C2C4005D0046046F219
S315080019A009052C42F3D1F5E770BD0000D50E0E00EF
S315080019B03802000800366E0154C80040CC1A0020D0
S315080019C008A8004000E100E03CC80040B819002023
S315080019D080B518490978C90701D4B02002BD00F0BE
S315080019E052FB002002BD00F0E9B800F075BAFEF718
S315080019F0B9BF00F07FBC00F026BC00F030BC09E09F
S31508001A00FEF7B6BF00F064BC00F0C9BE00F00EBC1D
S31508001A1000F0C8BE0848704738B5084C2068216CE5
S31508001A2001EA0005ADB2680748BFFEF7D9FF256091
S31508001A3031BD00009B070408C41A002008A0004016
S31508001A4070B582B0044615460819A0F1080600F0DC
S31508001A5042FC20B12078032824BF801E2070F0782D
S31508001A6000F018FA96F90210663149B20091034659
S31508001A70707900F00F00B179090241EA0040F17966
S31508001A8041EA000229462046FEF738FF73BD0000EA
S31508001A9010B500F014F81040C84010BD10B500F09D
S31508001AA00EF8D44320401140084380B2D860022083
S31508001AB018600020186058680028FCD110BDDFF8AF
S31508001AC064335C68002CFCD1986001201860002003
S31508001AD0186058680028FCD118697047DFF8480371
S31508001AE0DFF848138A780AB149780FE089566FF00B
S31508001AF008029142B8BF302108DBC16D39B140F206
S31508001B004A31C26DB1FBF2F189B2C91E0160704754
S31508001B102DE9F04182B00546DFF81043A581B5F5F9
S31508001B20004F19D102237F22DFF8040300F075F96C
S31508001B30BDF80000000AFF2800D000B91820607020
S31508001B40BDF800000006C00E10281CBF001D00F0DE
S31508001B50F5F8BDF80000C54305F00108C5F34007D0
S31508001B6008EB4800B34946184FF4F852B07801021A
S31508001B70E020FFF793FFB048016841F40041016097
S31508001B804FF440527078010389B22020FFF786FF90
S31508001B90404601F075F84022B901A020FFF77EFF04
S31508001BA017B915F0040000D00120A070FFF796FFC2
S31508001BB00020BDE8F6819D48808970472DE9FE4FD3
S31508001BC08046A8F10B05ADB200F02DFB8146A8F1C1
S31508001BD00B00C0B2102802D38A20BDE8FE8F984FAA
S31508001BE0B868000702D43868C00701D58C20F4E726
S31508001BF0924C84F80080934E30680C2801D100205E
S31508001C00EBE7607838B9706A40F400507062706A21
S31508001C1020F4805070628C480078012808BF00F0D4
S31508001C20D6FA8A48D0F800A089484FF4C061016006
S31508001C30386A20F002003862A800001D02900422CB
S31508001C40014600A8FFF719FC9DF800008DF807006B
S31508001C509DF801008DF806009DF802008DF8050034
S31508001C609DF803008DF804007A4830F82500F061E5
S31508001C7048F2607B6078C0B1C6F824B0386A20F0B4
S31508001C80010038620120FFF70AFB386A40F00100BC
S31508001C9038626420FFF703FB706A20F48050706294
S31508001CA0706A40F40050706202E0404601F059F84C
S31508001CB029460DF1010000F0BDFF29460DF102008D
S31508001CC000F0E8FD2A4600A90DF1030000F00AFE1F
S31508001CD09DF800009DF80710884211D19DF8010073
S31508001CE09DF8061088420BD19DF802009DF8051054
S31508001CF0884205D19DF803009DF80410884204D057
S31508001D000422029900A8FFF74BFC0AF4C0604F4969
S31508001D10086000F0BBFB386A40F002003862607861
S31508001D2020B1C6F824B06420FFF7B9FAFFF710FA15
S31508001D30B9F1010F01D100F015FA60E72DE9F0417C
S31508001D4086B004466FF02A00844201DA8B205EE0F2
S31508001D5014237F22404800F060F8BDF810004FF6C3
S31508001D60FF71884204D00E21084218BF012606D109
S31508001D703F220021F020FFF78BFE05460026374854
S31508001D802A49042C0FDA0022354B01E0521CD2B244
S31508001D90D756A742FADB02600F70002000240746D8
S31508001DA04FF003080EE0092CD0DA625C02600C7072
S31508001DB014237F222B4800F030F803200124012742
S31508001DC04FF0280826B14FF6BF72BDF8101018E07C
S31508001DD04FF46052C10200F01DF84FF4E062210290
S31508001DE000F018F88022F90100F014F885F02000B8
S31508001DF008EB0005ADB2402DA8BF3F253F2285F070
S31508001E002001A020FFF74AFEFFF768FE002006B073
S31508001E10BDE8F08189B2A02040E6018800A8FFF756
S31508001E2037B90000E8100040641000400C04002098
S31508001E30F0460008F40200081C100040C204002006
S31508001E4060200040AC100040BD04002000E100E026
S31508001E5080E100E094020008E6460008C010004051
S31508001E60D4020008E846000810B5DFF8D044207808
S31508001E7078B100202070DFF8C804016821F4805189
S31508001E8001600022E1684020FFF7B1FDA068401C10
S31508001E90A06010BD010603D54FF67F710840C0004B
S31508001EA0704738B5DFF89444DFF89C04417871B17F
S31508001EB0C178E2785518ADB200798542A8BF0546C3
S31508001EC0FFF77DFA0121A940491E084000E00020DD
S31508001ED0A080A088C0B232BD38B50546C00708D56F
S31508001EE0DFF86804FB2200F1240102F07FFC02F00F
S31508001EF07CFCDFF85C44206DC00701D58C2032BD20
S31508001F00202020626560256060687F30606004205C
S31508001F102062DFF8280400210170DFF82C542978A4
S31508001F200029A16F14BF41F0010121F00101A16749
S31508001F30697849B10021C170206D40F00400206520
S31508001F40A06F40F0080006E0206D20F00400206530
S31508001F50A06F20F00800A067FFF7A3FFA0646879C8
S31508001F600028206D14BF40F0080020F00800206506
S31508001F70206D40F001002065002032BD2DE9F041BA
S31508001F80DFF8D0637068716C01EA0004A4B274606B
S31508001F90DFF8BC73DFF8A453687800284DD1DFF862
S31508001FA0A883E00719D53868396C7A6C42EA01418A
S31508001FB0E96098F8002062B14078800609D50120CA
S31508001FC028704FF480503060306C40F48050306494
S31508001FD003E000220020FFF70AFD20060CD528782A
S31508001FE030B1002028700022E9684020FFF7FFFC86
S31508001FF0306C20F480503064E00616D5E878401C32
S31508002000E87098F80210C0B2884207D2FFF749FF75
S31508002010B864386D40F00100386506E000F0BFFB93
S31508002020002201468D20FFF7E2FC200705D5386C13
S31508002030796C41EA0040FEF7A0FCA0060ED5386D83
S3150800204000F00100386520203862687830B900F061
S31508002050A6FB002201468820FFF7C9FC600608D5C2
S31508002060687830B900F09BFB002201468920FFF70B
S31508002070BEFC687828B14FF44070044204BF0120C2
S31508002080A870BDE8F08170B50446DFF8CC52002090
S31508002090E871DFF8C80200210160DFF8C462152183
S315080020A0F160092101651F21416001210166FFF7E1
S315080020B082FDFFF72DFD00F005FA00F0DFFB00F0CA
S315080020C0DAF8288900F0FAF8688900F0FCF87068F0
S315080020D040F040007060A87800F0B5F8E87800F0A5
S315080020E0BEF8687800F0DEF8DFF8780290F90000AC
S315080020F0FFF724FE287800F00CF995F9040000F0A3
S3150800210014F9687900F0EAF8A87900F0F3F830686D
S3150800211040F001003060DFF850020078FFF74EFD0E
S3150800212048B18A4840F2F11200F124014C3002F01D
S315080021305DFB02F05AFB8D4DF12028647820E86398
S3150800214000F0A4F98A484FF480710160012C02D18D
S31508002150BDE8704006E04FF6FF7129604FF4C06194
S31508002160016070BD70B5834D2E68B6B27A4CE079C1
S3150800217001282BD0FFF73CFB48F2D00129606A689A
S31508002180520509D548F222022A606A68D205F5D5B1
S3150800219029606A685207F1D42E6077494FF4C06205
S315080021A00A6076490A6A22F001020A620A6822F07F
S315080021B001020A600A6842F002020A604A6A42F0AC
S315080021C001024A620121E171FFF70EFB70BD70B58D
S315080021D0614CE07930B3FFF70BFB054668480121EF
S315080021E00160584E306D40F0010030650020E07106
S315080021F000F04CF920203060306B40F0020030636C
S31508002200F06D40F00800F0652846FFF7EDFAC820A3
S31508002210FFF745F855484FF6FF71016054484FF4EB
S31508002220C061016070BD4C48C07970475548006868
S31508002230C0F38F109A3800B210F1800FB8BF6FF054
S315080022407F0040B27047504900280A6814BF42F020
S31508002250120222F012020A603F49887070474A4902
S3150800226000280A6814BF42F0800222F080020A6041
S315080022703949C8707047454845494A780B7803EB91
S3150800228002220260CA788B7803EB022242604A79FE
S315080022900B7903EB02228260CA79897901EB022164
S315080022A0C1607047384900280A6814BF42F0200206
S315080022B022F020020A60284948707047264908819A
S315080022C03449086070472449488133490860704793
S315080022D03249087070473148007870471849002815
S315080022E00A6814BF42F4005222F400520A601A49DE
S315080022F0487170471D4928B108220A600A6C42F0E5
S31508002300080202E00A6C22F008020A64124988717F
S315080023107047134900280A6814BF42F0020222F0E7
S3150800232002020A600C490870704700F19A01090414
S31508002330890A1B4A1160084908717047AC1A0020BF
S3150800234040A000403020004000040020FC020008A5
S315080023501020004000A00040B60400205C10004099
S31508002360802000400C040020C204002004A0004085
S3150800237000E100E01C10004080E100E06020004021
S31508002380281000400C10004084200040982000408F
S31508002390C41A00209420004090200040C404002065
S315080023A05410004038B50446274D214600F055F82C
S315080023B0E860211D00F051F8A86004F1080100F05A
S315080023C04CF8686004F10C0100F047F8286031BD4C
S315080023D038B504461C4DEA68214600F03BF8AA6861
S315080023E0211D00F037F86A6804F1080100F032F898
S315080023F02A6804F10C010020BDE8384002F0D3B980
S31508002400F8B50446114D80202860114E062030602C
S315080024100720286030688007FCD5002704EB870171
S3150800242000F01BF8A8627F1C042FF7D3306840071A
S31508002430FCD500262A6B04EB860100F00BF8761C07
S31508002440042EF7D3F1BD00003830004000300040BC
S3150800245010A00040002002F0A6B9002002F0B1B991
S315080024607FB504460D46FFF7C3F9064600A8FFF7F1
S31508002470AFFF2846FFF796FF2046FFF7C1FF00A8E3
S31508002480FFF790FF3046FFF7AFF97FBDDFF8A403EB
S3150800249010210163DFF8A0130A6842F001020A60FE
S315080024A0DFF8981301F2140202600122026301F2B6
S315080024B09E01816002210163DFF884034FF6FF71F4
S315080024C00160704780B5DFF87C0345F26401C1609E
S315080024D01E21416250210162C821C1618165F02136
S315080024E0C16545F690014166882181660621C16667
S315080024F044F2066101604FF6FF714160DFF8480358
S31508002500007838B1DFF8440348F2607101604FF48F
S31508002510C1514160CE48016841F00401016000F0F4
S3150800252078F9CC49088001BD2DE9F8430446C34D26
S315080025308A2000FB045000F215004278037803EB6A
S3150800254002239BB203F44042C34E36782E709B0694
S3150800255035D5C24EF36C1B0631D567194FF4806822
S315080025604FF40069B2F5404F03D1C01DFFF748FA92
S3150800257009E0B2F5004F16D1017AC07900EB0120C7
S3150800258080B2FEF7F3F970B1706CC00606D400F09D
S3150800259018F803D0F06A40F00100F0620120B87024
S315080025A03068E8600BE0706CC00606D500F009F8E4
S315080025B003D0F06A20F00100F0620020B870BDE890
S315080025C0F183306B04B1C84610EA080F70472DE94D
S315080025D0F04E82B00446994E8A2000FB046000F251
S315080025E0140B9F4D002C0CBF28686868C0B24100C8
S315080025F05FFA81F9052808DA9A484FF4D67200F18D
S31508002600140102F0F3F802F0F0F809EB0B0010F8E9
S31508002610081D427802EB01211FFA81FAA6F806A0E6
S3150800262001793181317801708F4FF86B20F4805031
S31508002630F863686E00060CD59BF80100800608D57D
S315080026400AF4A040B0F5A04F03D188480168491C98
S3150800265001604FF4E4501AEA000F3BD1FFF73BFE46
S3150800266010B15FEA4A4035D59BF80000802831D280
S31508002670A4B93868400516D4686BADF80000286B15
S31508002680ADF80200009830617089401C7081A0196D
S31508002690827849465846FFF7D3F920E0012CEBD15A
S315080026A038680005E8D57248017859B100210170EB
S315080026B09BF80100000900F001026E4801688F20AE
S315080026C0FFF795F9002C0CBF4FF480604FF40060BB
S315080026D0386004E0FFF7C8FBB088401CB080002CC7
S315080026E00CBF012002202861BDE8F38EF8B5544CD2
S315080026F02068216C01EA00055F4E25E0A80645D44E
S3150800270068063BD4E80416D5376D25F480554FF492
S315080027108050206008203065706D000509D5B069C5
S3150800272020F00100B061B06940F00100B061FFF728
S315080027309BFBBFB23765A80406D5FEF71BF925F43F
S3150800274000554FF40050206035B3280706D5002001
S31508002750FFF7EAFE25F0080508202060E80606D5FA
S315080027600120FFF7E1FE25F010051020206005F096
S3150800277060006028C2D13068C00507D525F040053D
S31508002780402020600120FFF722FFD4E725F020052E
S31508002790202020600020F6E700202060F1BD2F48A9
S315080027A00068704770B58AB004460D460020009050
S315080027B0002303220146FEF7D1FC1EE0002601A8ED
S315080027C000F023F805A800F020F8B61C102EF6DB5A
S315080027D005A901A8FFF744FE00202080218801AA48
S315080027E08218527801ABC35C03EB02225140218068
S315080027F0801C1028F2DB6D1EA41CEDB2002DDDD165
S31508002800FEF7A6FC01200AB070BD31180020FEF7BD
S31508002810BFBC00B583B0002000900423022200212B
S31508002820FEF79CFC01A9FFF7F1FFFEF791FCBDF846
S3150800283004000EBD0020004084200040F816002049
S3150800284000A000404C100040C3040020D0100040F7
S3150800285080200040DE1A0020C204002038200040F4
S31508002860202000407C03000804A00040D41A002061
S31508002870AC1A0020B81A00206820004008237F22DE
S31508002880024801880248FEF703BC00BFF446000868
S31508002890C41A002010B584B00A237F220C48018888
S315080028A000A8FEF7F5FB4FF6FF74BDF80000A0423E
S315080028B007D10848672200F11C0101F097FF01F0D3
S315080028C094FF2246BDF800101020FFF7E7F81FBD59
S315080028D0EA460008AC0300083F22410089B22020DE
S315080028E0FFF7DCB82DE9F34F97B0784C78480078B5
S315080028F0002814BF606A206980B203901798007890
S315080029004FF67F7101EA000618990978039B5B1C4C
S315080029108B4203DB039B5B1E994201DA012100E02F
S315080029200021012303FA02F2ADF80A20000608D4B2
S3150800293068480088BDF80A20104202D1002900F034
S31508002940BC80E06C80B20690206880B20590624D2B
S31508002950E86A80B204904FF6FF7200211120FFF753
S3150800296097F880464FF6FF720021A020FFF790F8EF
S3150800297083464FF40040206000202861686148F2D1
S31508002980020000F0BDF84CF68C30E06448F2F00026
S31508002990E8624FF4805211461120FFF77FF84FF690
S315080029A0FF720021A020FFF779F800F0AEF802A91F
S315080029B000F0B3F800F0B4F80DF1060100F0ADF838
S315080029C04CF69C30E0640020FFF786FF002000905C
S315080029D006231A46C021FEF7C1FB0026B0B2FFF750
S315080029E07BFF00F092F807A800EB460100F095F887
S315080029F0761C202EF2DB00F08FF81020FFF76CFF14
S31508002A0000F08EF800F088F8BDF80400BDF806104E
S31508002A10401ABDF83C10BDF80820891A404301FB4E
S31508002A2001094FF0100A112700F062F800F078F853
S31508002A3000F072F800F052F804DB8146BA467F1CB3
S31508002A40202FF1DB1FFA8AFABAF1100F0FD10F27E0
S31508002A5000F04EF800F064F800F05EF800F03EF87A
S31508002A6005DB8146BA46781E07B2002FF0D54FEA35
S31508002A704A0086B20698E064059820600498E862E1
S31508002A804FF6FF7241461120FFF708F84FF6FF721E
S31508002A905946A020FFF702F801202861002000F01F
S31508002AA02FF8179806701898039901700948008836
S31508002AB0BDF80A108843074908803F22314620207E
S31508002AC0FEF7ECFF19B0BDE8F08F0000C01000401B
S31508002AD0C3040020E01A002018100040BDF80400C6
S31508002AE0BDF80610401A404306FB060048457047E5
S31508002AF007A830F81700BDF80810461AB8B2EBE672
S31508002B00286040F24C40FEF7CABB0020009006231E
S31508002B100622C021FEF722BB01A90020FEF738BB1A
S31508002B200020009006230722C021FEF717BB0000ED
S31508002B304FF4FE52810189B2B020FEF7AFBF30B51F
S31508002B4083B0494C002060602060FEF701FB00F06E
S31508002B5017F801A90020FEF71BFBBDF904504FF634
S31508002B60FF7060602060FEF7F3FA00F009F801A92B
S31508002B700020FEF70DFBBDF90400281A00B23EBD81
S31508002B800020009006230922C021FEF7E7BA2DE9A6
S31508002B90F84F364CA06A00902568354E3768DFF83E
S31508002BA0D4803548007818B148F26070C8F800003B
S31508002BB00220A0620120206040F24C40FEF76FFB25
S31508002BC00120F06030604CF24C00C8F83C00002050
S31508002BD0FFF7AEFFFFF7B3FF82467F20FFF7A8FF98
S31508002BE0FFF7ADFF8346504601F023FE8146AAEB68
S31508002BF00B0001F01EFE82460020C8F83C00BFB25A
S31508002C003760F06002202060ADB2256000A8008819
S31508002C10A06240F24C40FEF742FBFE2000FB09F0A2
S31508002C201FFA8AF1B0FBF1F080B2401CC003000C19
S31508002C30BDE8F28F70B50446012000FA01F5207848
S31508002C400E4E010602D43188294206D0FFF79FFFAF
S31508002C5020703188A943318002E04FF67F71084021
S31508002C60BDE8704064E7000038100040602000406E
S31508002C7028100040D0100040C3040020E21A0020AB
S31508002C80F0B589B004460020FEF7E7FA0A237F224A
S31508002C902748018800A8FEF7FBF94FF6FF75254E71
S31508002CA0BDF80200A84209D140F2071206F1340124
S31508002CB006F1140001F09AFD01F097FD00272A4657
S31508002CC017B94FF47C4203E0022F08BF4EF23F02C9
S31508002CD000A830F81710B85DFEF7E0FE7F1C052F38
S31508002CE0EDD3012C02BF14237F22134802D01423EC
S31508002CF07F221248018803A8FEF7CAF900272A4648
S31508002D00012F08BF4FF6C072082F08BF002203A87C
S31508002D1030F81710B819007AFEF7C0FE7F1C0A2F84
S31508002D20EDD3012C04BF0120FEF797FA09B0F0BDD8
S31508002D30EA460008F8030008E8460008E6460008E0
S31508002D402F490A68920992010A600A6810430860C6
S31508002D502C484FF400410160002101606420FEF711
S31508002D609EBA2DE9F84F8046274D28681FFA80F944
S31508002D70286840F400402860214F386820F48050C5
S31508002D803860224C207870B12148A178627800EB2F
S31508002D90820212F82A2C891A00EB880010F82A0CED
S31508002DA0401886B202E02026012020703046FFF740
S31508002DB0C7FF0FF2480ADFF85CB003E086B2304678
S31508002DC0FFF7BEFF386B042805D0386B400754BFA1
S31508002DD0701E701CF2E7F86A30B184F80180A6709C
S31508002DE0C5F80090BDE8F18F4FF48B7259465046EE
S31508002DF001F0FCFC01F0F9FCE4E7000030000000FB
S31508002E00D0100040181000401C100040DB1A0020AB
S31508002E10940200085C040008FEF7E8F8002801D0D0
S31508002E2000F09AF80020FDF78AFB01F006FD000085
S31508002E300EB400B582B003A9009100AB0246012189
S31508002E40024800F099F806BC5DF810FB41480008F6
S31508002E5010B5044607480068010018BF80470648B1
S31508002E600021017005480068010018BF8047044822
S31508002E70046010BDA00400209C040020A8040020C3
S31508002E80A40400204AB38B0707D011F8013B00F8C9
S31508002E90013B521E21D08B07F7D183071ED1103A6A
S31508002EA007D330B4B1E83810103AA0E83810F9D290
S31508002EB030BC530724BFB1E80810A0E8081044BF87
S31508002EC051F8043B40F8043BD20724BF31F8022BE3
S31508002ED020F8022B44BF0B7803707047083A07D3D3
S31508002EE0B1E80810083A40F8043B40F804CBF7D29A
S31508002EF05307E4E70300002013F0030F09D0521E1E
S31508002F0022BF13F8010B11F801CBB0EB0C00F3D07C
S31508002F107047121F22BF53F8040B51F804CB6045C3
S31508002F20F7D0121D0AD200BA9CFA8CFCB0EB0C0042
S31508002F3038BF6FF0000088BF01207047521E22BFBD
S31508002F4013F8010B11F801CBB0EB0C00F6D0521CAC
S31508002F5008BF10467047000010B50548054CA0424A
S31508002F6004D050F8041B8847A042FAD110BD00BF10
S31508002F7084000008B00000082DE9F04FA1B01746FC
S31508002F801C46029002AD69600020A8620DF1440A51
S31508002F906FF0004802E0A86A401CA862387818B9A1
S31508002FA0A86A21B0BDE8F08F252816D1002028612F
S31508002FB06861A861E8612862686217F8011F20291C
S31508002FC008D023291BD02B2912D02D2914D030291B
S31508002FD018D01AE040F00100EFE717F8011B6868FF
S31508002FE0029A904768600028D5D14FF0FF30D8E79D
S31508002FF040F0020080B2E0E740F00400FAE740F053
S315080030000800F7E740F01000F4E72A290DD12268F6
S31508003010111D216011682963002904D549422963D5
S3150800302040F0040080B27F1C12E00021296309E009
S31508003030296B414505D001EB810302EB4301303989
S3150800304029637F1C3A78A2F13001C9B20A29EFD365
S3150800305039782E291CBF4FF0FF31E9621DD117F8C8
S31508003060011F2A2906D12268111D21601168E9620B
S315080030707F1C12E00021E96209E0E96A414505D0B2
S3150800308001EB810302EB43013039E9627F1C3A7890
S31508003090A2F13001C9B20A29EFD3A8863978DFF838
S315080030A0540B01F07DFA08B117F8010B8DF83E00B4
S315080030B09DF83E00682804D1387868280AD162202D
S315080030C005E06C2806D138786C2803D171208DF874
S315080030D03E007F1C11A8E8603A781046413800F097
S315080030E0B680001F022840F2B280133870D0093823
S315080030F000F0AD80801E17D0401E1FD0401E02284B
S3150800310040F2A580001F19D0401F00F0CF80401E56
S315080031105ED0401E00F0F880C01E00F00081801EC0
S3150800312056D0C01E54D00FE12869411C2961226877
S31508003130111D2160116800F80A100CE19DF83E0087
S315080031406C280FD071280BD12068C01D20F007000D
S315080031502060034603F108002060D3E9000106E079
S315080031606A28F1D02168081D20600868C1179DF8F3
S315080031703E30682B08BF00B207D0622B08BF40B2AA
S3150800318003D0742B01D07A2B00D1C117002904DA99
S315080031902B695E1C2E612D260DE0AB8E9E0704D58D
S315080031A02B695E1C2E612B2605E0DB0705D52B69EE
S315080031B05E1C2E61202603F80A602B6911AE334483
S315080031C0AB60CDE90001114600A800F058F9C2E04D
S315080031D09DF83E006C280FD071280BD12068C01DC1
S315080031E020F007002060034603F108002060D3E9B9
S315080031F0000106E06A28F1D02168081D20600868E9
S3150800320000219DF83E30682B08BF80B207D0622B9C
S3150800321008BFC0B203D0742B01D07A2B00D100218D
S3150800322095F834301B07C8D509B90028C5D042F02F
S315080032302003782BC1D12B695E1C2E61302603F83A
S315080032400A602B695E1C2E6103F80A20B5E7206820
S31508003250C01D20F007002060034603F10800206027
S31508003260D3E90001CDE90001BDF80600000404D544
S315080032702869411C29612D210DE0A88E810704D5F6
S315080032802869411C29612B2105E0C00705D5286955
S31508003290411C2961202100F80A10286911A9401843
S315080032A0A860114600A800F071F954E09DF83E00A8
S315080032B062280BD0682820D06A280ED06C2815D032
S315080032C071280AD0742811D07A280FE0A86A2268D3
S315080032D0111D2160116808703DE0A86AC1172368AE
S315080032E01A1D22601A68C2E9000134E02168081D27
S315080032F020600868A96A01602DE0A86A2268111D85
S3150800330021601168088026E02168081D2060086889
S3150800331011A9A9600021CDE90001782154E72168A7
S31508003320081D20600868A860EA6A002A02D501F02C
S3150800333043F907E0002101F007F900281ABFA96838
S31508003340401AE86A686106E02869411C296102B9E1
S31508003350252200F80A207F1C286B2969401AE9698A
S31508003360401A6969401A296A401AA969401A696A9D
S31508003370A0EB010995F83400400711D420208DF8F8
S3150800338040000026B9F1010F0ADB012210A900A8A6
S3150800339000F03AFC00287FF428AE761C4E45F4DB94
S315080033A02A6911A900A800F02FFC00287FF41DAE99
S315080033B030208DF84000EE694FF0000B012E0BDB34
S315080033C0012210A900A800F01FFC00287FF40DAE0A
S315080033D00BF1010BB345F3DB6A69A96800A800F095
S315080033E013FC00287FF401AE30208DF840002E6AC9
S315080033F04FF0000B012E0BDB012210A900A800F0EC
S3150800340003FC00287FF4F1AD0BF1010BB345F3DBA8
S31508003410AA696869A968411800A800F0F5FB0028A0
S315080034207FF4E3AD30208DF840006E6A4FF0000B54
S31508003430012E0BDB012210A900A800F0E5FB0028ED
S315080034407FF4D3AD0BF1010BB345F3DB95F83400EC
S3150800345040077FF5A3AD20208DF840000026B9F17E
S31508003460010FFFF69BAD012210A900A800F0CCFBC6
S3150800347000287FF4BAAD761C4E45F4DB8EE52DE9BF
S31508003480FA4786B00446606900909DF818006F28D0
S3150800349008BF082705D040F02000782814BF0A275F
S315080034A010273C25D4E90001064689469DF81820D0
S315080034B0642A01D0692A04D1002902DA764269EB26
S315080034C04909B9F1000F02D10EB9606B60B3A5F1D5
S315080034D001084546F817CDE9047030464946DDE946
S315080034E0042300F01FFFCDE90201B246DDE90223FD
S315080034F0DDE90401A0FB02695046801B3030C0B2EA
S315080035003A2803D39DF8181051390818009908F875
S315080035100100DDE90269B9F1000F00D126B1206981
S31508003520009969188842D2D3082F0BD194F83C0029
S31508003530000707D50098285C302803D06D1E009830
S3150800354030212954C5F13C00E061009969182161D0
S31508003550616B884206DA081A6062A08F20F01000B4
S31508003560A08710E000290ED594F83C1001F014014C
S31508003570102908D1A16BA269891A626A891A0D1ADB
S31508003580012DA8BF656208B0BDE8F0872DE9F24FA6
S315080035908EB0054604AFD5E90001CDE902019DF8D4
S315080035A0380040F020008DF8000061280BD0686BC9
S315080035B0002848BF062005D405D19DF800006728D5
S315080035C001D101206863E888C0F30A1040F2FF7150
S315080035D0884222D1A8790F21084205D1A88818B9AE
S315080035E0688808B9288868B10320E8619DF838001A
S315080035F06138C0B21A2836D389A103222869FFF791
S3150800360041FCC7E10320E8619DF838006138C0B283
S315080036101A2834BF83A184A1EFE7012804DA2846D3
S3150800362001F01DF901281BDA40F2FE31EA8861F340
S315080036300E12EA80441A4FF0FF309DF800106129F7
S3150800364017D12A69511C29613021117029694A1C30
S315080036502A619DF83820612A0CBF7822582204E096
S3150800366000240020E9E7CDA1C7E70A70A969891CEB
S31508003670A96110B90026B04682E19DF800006128CC
S3150800368040F09580686B00284EBF2126461C36B24E
S31508003690771CD5E900ABDDE902010022002300F022
S315080036A00DFB3ABF8BF00040CDE902A0CDE902AB95
S315080036B0A4F104088DF810200DF11109012F33DB50
S315080036C0DDE902010022002300F010FB2CD21C21A8
S315080036D002A800F0B5FEDDE9020100F01FFB044672
S315080036E0FF1F012F09DB00F0FBFD02460B46DDE953
S315080036F0020100F035FDCDE9020109F207000721B4
S31508003700012C0BDB491E5EBF04F00F0200F8012DE9
S315080037102411F5D502E0002200F8012D491EFAD53C
S3150800372000F20709012FCBDA0DF11100A9EB000011
S315080037300DF11107B042B8BF06B2002E30D486424A
S3150800374006DA04A830184078082828BF0F2000D2C7
S315080037500020314604AA8A1801E0761E36B2491EB0
S3150800376012F801398342F8D00F2804D104A80818A2
S315080037704278521C4270002904D504AF761C36B232
S3150800378008F10408304609E0C15D3031C9B23A296A
S3150800379003D39DF838203A3A5118C155401EF3D53F
S315080037A0686B002840F1EC80701E6863E8E0DDE98C
S315080037B002010022002300F081FA05D2DDE90201A8
S315080037C081F00041CDE9020124B247F297506043E7
S315080037D0DFF8241490FBF1F80FFA88F8C8F107040B
S315080037E00027DFF81894012C20DBDDE902ABE0079F
S315080037F007D5504659463A464B4600F0DFFB824607
S315080038008B466410384649463A464B4600F0D6FB86
S3150800381007468946002CEAD1CDE902AB28E000BF6D
S315080038204E414E00696E6600494E46006442924615
S31508003830DFF8CCB314D0E00707D5504659463A46C8
S315080038404B4600F0BBFB82468B4664103846494619
S315080038503A464B4600F0B2FB07468946002CEAD1A9
S31508003860DDE9020152465B4600F084FACDE9020121
S315080038709DF8000066280CBF08F10A000620696B4F
S315080038804418142CA8BF132430208DF810000DF10D
S315080038901106012C30DBDB4F11E0DDE9020100F0F7
S315080038A053FA00F027FD02460B46DDE9020100F057
S315080038B057FC00223B4600F081FBCDE90201DDE919
S315080038C0020100F041FA06F1080104220A23B0FBBE
S315080038D0F3F603FB1600303001F8010DB6FBF3F0E2
S315080038E003FB1063303301F8013D521EEED101F19E
S315080038F00806083C012CD0DA0DF11100301A0DF13A
S3150800390011079DF81110302906D1401EA8F10108AB
S3150800391017F8011F3029F8D09DF80010662904BF52
S315080039200FFA88F808F1010103D065290CBF0121B7
S3150800393000216A6B8E1836B2B042B8BF06B2002EA6
S315080039401ED4864204DAF05D352828BF392000D215
S3150800395030203146CA19521E01E0761E36B2491E7B
S3150800396012F801398342F8D0392802D1C85D401CC3
S31508003970C855002904D57F1E761C36B208F1010801
S315080039800FFA88F0009033463A469DF838102846D4
S3150800399000F006F80FB0BDE8F08F00006E616E000B
S315080039A02DE9F04385B00546894690461E46BDF981
S315080039B030406F6B012EBCBF01260FF2342849F048
S315080039C02000662807D067287AD16FF003018C4259
S315080039D07CDBBC427ADA641C66280AD095F83C007F
S315080039E0000702D4BE42B8BF374624B23F1B48BFC1
S315080039F000272869E96924B2012C21DA4A1C3023F8
S31508003A000B54012F03DA95F83C10090702D52E212D
S31508003A101154521CEA61E742B8BF7C4224B26142A3
S31508003A20A962E719B742B8BF3E4636B22E62324699
S31508003A304146EB691818FFF725FAB81BE862BFE09C
S31508003A400818A64216DA32464146FFF71BFAE96914
S31508003A507118E961A01BA862012F03DA95F83C00EA
S31508003A60000705D528692E220A54286A401C2862B0
S31508003A70EF62A5E022464146FFF704FAE8692018F6
S31508003A80E861361B012F03DA95F83C10090704D5BF
S31508003A90411CE96129692E22425436B2B742B8BFA1
S31508003AA03E4636B2324604EB0801E8692B69C0186F
S31508003AB0FFF7E8F9E8693018E861B81BA8627FE003
S31508003AC0B9F1610F14D14FF0700916E0BE4204DA5D
S31508003AD095F83C10090758BF37467F1E48BF002790
S31508003AE0B9F1670F14BF4FF045094FF0650904E0B7
S31508003AF0B9F1410F08BF4FF05009E9694A1C286916
S31508003B0018F8013B0B54012F03DA95F83C10090706
S31508003B1002D52E211154521CEA61012F10DB761EA4
S31508003B2036B2B742B8BF3E4636B232464146EB6970
S31508003B301818FFF7A7F9E8693018E861B81BA862F2
S31508003B40E869296900EB010808F8019B002C5CBFAD
S31508003B502B2008F8010B03D52D2008F8010B644229
S31508003B60002602AF24B2012C0EDB0A22214600A849
S31508003B7000F0D8FE019807F8010B009C761C24B2C9
S31508003B80012CF2DA022E06DA49F02000652804BF75
S31508003B90302008F8010B1EB9302008F8010B09E09F
S31508003BA0012E07DB761E02A8305C303008F8010BC0
S31508003BB0012EF7DAE86929694018A8EB000028629F
S31508003BC095F83C0000F0140010280DD1A869E969A1
S31508003BD00818A96A0818296A0818E96A0818A96B4A
S31508003BE08842BCBF081A686205B0BDE8F0830000C9
S31508003BF03000000088040008A08601000000244068
S31508003C000000F03F84D79741F8B504460D4616469E
S31508003C1000208EB14FF0FF3705E0206B401C206373
S31508003C200020761E08D015F8011BE068A2689047A8
S31508003C30E0600028F1D13846F2BD000010B5044610
S31508003C4003E014F8010B00F074FE20780028F8D180
S31508003C5010BD2DE9F04104460D4616461F46DFF80D
S31508003C604C804EB14046FFF7E9FF3046FFF7E6FFC6
S31508003C7008F11000FFF7E2FF2046FFF7DFFF09A073
S31508003C80FFF7DCFF2846FFF7D9FF07A0FFF7D6FFA7
S31508003C903846FFF7D3FF08F11800FFF7CFFF0020DB
S31508003CA0BDE8F0813A0000002000000090040008FA
S31508003CB00746384600F09CFCFBE700004FF4001C62
S31508003CC01CEB410F94BF1CEB430F09E041EA030CC0
S31508003CD050EA4C0C52EA0C0C03D2994208BF9042A7
S31508003CE0704714BF8B428242704700004FF4001C95
S31508003CF01CEB410F94BF1CEB430F09E041EA030C90
S31508003D0050EA4C0C52EA0C0C03D28B4208BF824292
S31508003D10704714BF9942904270470000F446400D20
S31508003D2040EAC120490006D200F013F8004248BF15
S31508003D306FF00040604700F00CF84FF000418842F1
S31508003D408CBF084640426047400D40EAC120490002
S31508003D500CD240F00040490DA1F58061491C05D4FC
S31508003D60D1F11F0154BFC840C01770474FF000007B
S31508003D7070470000F0B540F2FF7581EA030C0CF0BD
S31508003D80004C15EA11541DBF15EA1357AC42AF4251
S31508003D90E5E0BC41C1F31301C3F31303801A99414B
S31508003DA043F4801304D2641E4000494180185941E7
S31508003DB0C90241EA5051B1FBF3F603FB1611A2FB07
S31508003DC00675D7EBC020A94102D2761E8018594144
S31508003DD0C90241EA5051B1FBF3FE03FB1E11A2FBD7
S31508003DE00E75D7EBC020A94103D2AEF1010E80189B
S31508003DF05941890241EA9051760546EA8E2EB1FB71
S31508003E00F3F603FB1611A2FB0675D7EB8020A94132
S31508003E1002D2761E80185941C90241EA50514EEA2B
S31508003E20060EB1FBF3F603FB1611A2FB0675D7EBDC
S31508003E30C020A94102D2761E80185941C90241EA1A
S31508003E405051B1FBF3F703FB1711A2FB0735D3EB70
S31508003E50C020A94167F100070CBF004247F00107DF
S31508003E6066F3D5274FEA1E31B80814F5806412DDCB
S31508003E70BD0775F1004250EB0E5051EB045111F598
S31508003E80801F5CBF41EA0C01F0BD4CF07F6141F038
S31508003E90E0410020F0BDBD076D0840EA0E5041F430
S31508003EA08011D4F10104B4F120060ADAC4F120061F
S31508003EB00200E04001FA06F3E1401843B240154318
S31508003EC00EE0342C13DCC6F1200445EA40056D08E3
S31508003ED020FA06F2154321FA06F0A1400D43002107
S31508003EE075F1004250F1000051EB0C01F0BD0020C5
S31508003EF05FEA0C01F0BDCFB992185B41B3FA83F7BC
S31508003F0004BFB2FA82F6BF190B3FB7F120062FBFDE
S31508003F1002FA06F3BB40C7F1200622FA06F638BFB6
S31508003F203343BA401CB1E419641E33E77F4231F0CB
S31508003F300041B1FA81F404BFB0FA80F6A4190B3C2B
S31508003F40B4F120062FBF00FA06F1A140C4F12006FD
S31508003F5020FA06F638BF3143A0403C1B1AE7AC42AC
S31508003F601ABF05EA1357AF4212E050EA41061CBFD2
S31508003F7052EA4306BFE750EA4107304661461CBF8E
S31508003F8041EA0551F0BD52EA430C08BFC143F0BDF2
S31508003F9000204FF4001616EB410F98BF16EB430F9F
S31508003FA008BF16EB410F24BFC14305E016EB430FCC
S31508003FB00CBF61464CEA0551F0BD0000B0B581EA78
S31508003FC0030C0CF0004C40F2FF7515EA11541DBFA6
S31508003FD015EA1357AC42AF423AE0E41923EA4553CF
S31508003FE043F48013C90241F0004141EA50574FEAB1
S31508003FF0C02E1100AEFB020200284FF00000E7FBBE
S3150800400001204FF00001E3FB0E2118BF42F0010228
S31508004010401800214941E3FB0701A4F580640F031A
S3150800402002D252004041494154F101046BDD470870
S3150800403072F1004250F1000051EB0451A1F58011D4
S315080040405CBF41EA0C01B0BD4CEA05510020B0BD89
S3150800405005EA1357AC4214BFAF4240E050EA410E9E
S315080040601CBF52EA430E02E061460020B0BD24425E
S315080040703C441AD13F42F7D0090302BF014600204B
S31508004080143FB1FA81FEA7EB0E0401FA0EF70EF102
S315080040900C0ECEF1200100FA0EFEC84047EA0007D2
S315080040A023EA455343F48013A3E733F00043B3FAF6
S315080040B083F704BFB2FA82FE77440B3FE41BB7F1DD
S315080040C0200E2FBF02FA0EF3BB40C7F1200E22FACC
S315080040D00EFE38BF43EA0E03BA40641C82E750EA74
S315080040E0410E14BF52EA430E6FF000014FF4001759
S315080040F017EB430F8ABF194617EB410FB6E74CEA91
S3150800410005510020B0BDD4F10104B4F120070FDA3F
S31508004110C4F12007520828BF42F0010210FA07F539
S3150800412001FA07F7E1BF2A43E0403843E1400FE0D0
S31508004130352C99DCC7F1200452EA400220FA07F22E
S3150800414018BF42F0010231FA07F0A1400A430021E4
S3150800415072F1004250F1000051EB0C01B0BD0000B5
S3150800416070B44FF0004591EA030F44BF6B4000F06E
S315080041704EBA841A71EB030604D26E40001BB14195
S31508004180121973414FF4001C1CEB410F34BF7CEB32
S31508004190430684E00C0DA4EB1356362E7DDC012E67
S315080041A043DC45EAC32343EA525312BFD2029202C2
S315080041B05B08240545EAC12141EA5051D2EBC020EB
S315080041C0994125D407D1B0FA80F610FA06F164D0E1
S315080041D00020203608E0B1FA81F6B140C6F1200287
S315080041E020FA02F21143B0404FEAF474B4EB465495
S315080041F034F001064FEA74040AD8D6F50016760D8F
S3150800420004F00044F04061FA06F25040F14048409C
S31508004210C00A40EA415021F0004128BF5FEA500534
S3150800422050F1000044EBD12137E045EAC323DB0A0D
S3150800423045EAC121C90AB6F120050EDD42EA024265
S31508004240120CC5F1200603FA06F6EB4042EA06050B
S315080042506D42984161F100010DE062FA06F5F240FF
S31508004260554063FA06FC82EA0C02F3405A406D4256
S31508004270904161EB030111F4801F05D1641E6205AC
S3150800428002D06D004041494121F48011430875F17F
S31508004290004350F1000041EB045170BC70471CEB21
S315080042A0410F15D223F0004352EA43060BD04FEADA
S315080042B04C0CBCEB410F04D80C0D661E342EB7DD32
S315080042C0EBE7801A994150EA410608BF0021E4E766
S315080042D008BF1CEB430F28BF6FF00001DDE70000A5
S315080042E0010040F10880F446404200F004F851F01D
S315080042F000416047010009D0B0FA80F18840C91C26
S31508004300C1F58461090501EBD0214005704700001D
S3150800431013F0004C03D55B42524263F100039CEA5A
S31508004320210C15D11B4229D109424CD12AB1844608
S31508004330B0FBF2F002FB10C2704700F0D3B9FCD311
S315080043400022002370470B0002000021002070475E
S3150800435010B5644603D34942404261F10001FFF7B4
S31508004360E1FF640004D34942404261F1000124425E
S3150800437003D55B42524263F1000310BD904271EBD4
S31508004380030CE0D370B5B1FA81F4B3FA83F52C1BAC
S31508004390A340C4F1200532FA05F63343A2405FF084
S315080043A00046E64002E05B085FEA3202841A71EBD7
S315080043B0030524BF204629467641F4D302000B00A4
S315080043C03000002170BD012AB9D970B5140C20D06F
S315080043D0B1FA81F4B2FA82F5C4F120046419B4F191
S315080043E02006D6D3B2405FF00044F440002502E030
S315080043F052085FEA3303C61A71EB020E24BF304631
S31508004400714664416D41F3D302000B002000290078
S3150800441070BD0C46B1FBF2F102FB11452D0445EACD
S315080044201045B5FBF2F402FB145580B240EA054587
S31508004430B5FBF2F002FB105240EA044070BD0000E2
S3150800444070B504460D46E088C0F30A1040F2FF76C0
S31508004450B04210D1A0790F21084208D1A0880028BF
S3150800446005D16088002802D12088002801D00220C2
S3150800447070BD012070BD30B9204600F0F0F9012862
S3150800448001DB002070BD4519B54209DBE088000450
S3150800449047BF00202A4900202A49C4E90001E8E765
S315080044A0012DE08805DB48F20F01084040EA0510B7
S315080044B041E000F40040A17901F00F0141F010013C
S315080044C0E1806D1E15F1340F05DAE0800020A0802A
S315080044D06080208070BD2DB26FF00E018D420BDA20
S315080044E062882280A2886280E288A2800022E28016
S315080044F010352DB28D42F3DB694209B20A0018D095
S31508004500C1F1100223880B41658895402B4323800F
S3150800451063880B41A58895402B436380A3880B418C
S31508004520E58805FA02F21A43A280E28822FA01F126
S31508004530E180E1880843E0804FF0FF3070BD00BF9E
S315080045400000F0FF0000F07FC9B2830706D0521EB4
S3150800455022D310F8013B9942F7D11FE0083A13D34A
S3150800456002F1040241EA012141EA014150F8043B03
S31508004570121F21BF4B40A3F1013C2CEA030C1CF08F
S31508004580803FF3D0C9B2001F083210F8013B521E13
S3150800459028BF91EA030FF8D818BF0120401E7047BC
S315080045A00278C9B28A421AB11CBF10F8012FF9E77E
S315080045B018BF00207047000000F10103810704D0EE
S315080045C010F8011B89B18107FAD10268B2F10131ED
S315080045D0914311F0803F04BF50F8042FF6E710F816
S315080045E0011B11B110F8011BFBE7C01A7047000048
S315080045F001491820ABBEFBE72600020070B44FF055
S31508004600004591EA030C44BF6B40FFF7B2BD841A1C
S3150800461071EB030603D2001BB141121973414FF423
S31508004620001C1CEB410F34BF7CEB430443E00C0D2C
S31508004630A4EB1356352E50DC45EAC323DB0A45EABC
S31508004640C121C912B6F120050DDD63FA05F6EB4066
S3150800465086EA0305124218BF45F00105C01851F154
S3150800466000010CD213E062FA06F5F2405540F34118
S315080046705A40B340F3405A408018594107D3490875
S315080046805FEA30005FEA350528BF45F0010501F508
S315080046908011420875F1004250F1000041EB0451C7
S315080046A070BC4FF4001C1CEB410F38BF704700204C
S315080046B0090D090570471CEB410F10D252EA430653
S315080046C00BD0BCEB410F05D80C0DAB43661E342E40
S315080046D0B5DD02E0AB438018594170BC704770BC29
S315080046E0704700007047AA07BE07D207DC07DE0737
S315080046F03C08EE080080FEE770B504460E46002525
S3150800470000F03BF850B1207902466178A36800FBB7
S3150800471001313046FEF7B6FB00F002F8284670BDB8
S3150800472001256078401C217890FBF1F201FB12000C
S3150800473060700020E070704770B50446E07870B984
S31508004740012520790246A378A66800FB0360FEF7D8
S3150800475099FB00F006F808BFE570284670BD0025ED
S31508004760FBE7A078401C217890FBF1F201FB1200D0
S31508004770A070A078617888427047C17809B100783E
S3150800478007E0417882788A422FBF501A0078401A8B
S315080047901018C0B270470170027183600021417021
S315080047A08170C170704710B50023002814BF1C46DD
S315080047B0C3F10304E4B26254120A5B1C042BF4DB53
S315080047C010BD30B54A788B78CC78097818B1204670
S315080047D01D460C4602E0084615461A4645EA0020DC
S315080047E044EA022141EA004030BD704770B584B002
S315080047F0034608460A2100248DF80A400DF10904EB
S315080048000A25491EC9B292FBF5F605FB1622303277
S3150800481004F801293246012AA8BF0129F1DA002243
S3150800482000AC0919FFF715FA08B900F014B804B076
S3150800483070BD002848BF4042704780B5FFF738BAB8
S3150800484038B504460D46284600F073F8A84218BF46
S315080048500024204632BD80B50120FFF7C9BE70B4DA
S31508004860C18801F400420121837913F00F03C38044
S3150800487012D1838823B9438813B90388002B4BD0F8
S315080048808388C38044888480048844800024048004
S31508004890103909B2002BF3D0C388102B16D283889F
S315080048A0C488DD0B45EA4404C4804588EE0B46EA15
S315080048B0430383800388DE0B46EA450545805B0093
S315080048C00380491E09B2A4B2102CE8D3C388202B52
S315080048D01ED303884488C4F30004E40344EA53035C
S315080048E0038043888488C4F30004E40344EA53033A
S315080048F043808388C488C4F30004E40344EA53036A
S315080049008380C3885B08C380491C09B2202BE0D288
S31508004910837903F00F03C380C3881A43C28008460D
S3150800492070BC704791FBF2F303FB1211C0E900312A
S31508004930704710B582B0044614F1010F0AD08DF8FD
S315080049400000012200A90120FCF7B7FF012801D1C8
S31508004950204616BD4FF0FF3016BD002305E050F87F
S31508004960041B41F8043B121FFBD150F8042B002A04
S31508004970F5D17047F0B500F10801026801EBC202F3
S31508004980406802EBC000002300241D4601260CE007
S3150800499013F8017BF44506D00CF8017B6D1C2DB28B
S315080049A0002DF7D40126F44509D1824200D1F0BD85
S315080049B052F804CB52F8047B07EB0C0EF3E7A3423C
S315080049C006D151F8043B51F8044BE418A342F8D039
S315080049D05EB113F9015B0026A34206D151F8043BE8
S315080049E051F8044BE418A342F8D0002DD0D4002D7A
S315080049F0D8D4F44518BFA3421FBF13F8017B0CF89F
S31508004A00017B6D1E2DB2F2D1CDE707010104030526
S31508004A10010000FCFF08031800001316191C1FFCF0
S31508004A200000808100F5000001F5000EFFFFEFBED3
S31508004A30CEFA01000101B5000001FEFDFF020B01DF
S30608004A400166
S70508002E19AB
