:020000040800F2
:1000000000D800208D030008512200085522000866
:10001000692200086D22000871220008000000001B
:100020000000000000000000000000007522000831
:10003000752200080000000075220008090500086C
:100040007522000875220008752200087522000834
:100050007522000875220008752200087522000824
:100060007522000875220008752200087522000814
:100070007522000875220008752200087522000804
:1000800075220008752200087522000885230008E3
:100090006D230008752200087522000875220008EB
:1000A00075220008752200087522000875220008D4
:1000B000C59307080000000000000000752200083A
:1000C00075220008752200087522000875220008B4
:1000D0000000000075220008752200087522000843
:1000E0007522000875220008752200080000000033
:1000F0000000000000000000000000000000000000
:1001000000F00508FC5F0008070003000000000085
:0401100000000000EB
:1001140070B414460F2C06460D4604D945EA06036E
:1001240013F0030F0DD04AB14FF0000C11F80C304E
:1001340000F80C300CF1010C9445F7D1304670BC3A
:100144007047A4460B68ACF1100C03604A68426027
:100154008B688360CA681031C2601030BCF10F0F25
:10016400F0D8A4F1100303F00F0223F00F031033AF
:10017400EC18F118032A13D94FF0000C54F80C3082
:1001840041F80C300CF1040CCCEB0203032BF5D832
:10019400131F03F0030223F003030433E418C91804
:1001A40008462146BFE7C04610F0030F10B50446C9
:1001B40018BF00460BD12046236801E050F8043FE5
:1001C400A3F10132DB431A4012F0803FF6D00378EA
:1001D4001BB110F8013F002BFBD100F02BF8204697
:1001E40010BDC04641EA0003024613F0030F04D1D8
:1001F40002680B689A4212D00246107820B917E0C0
:1002040012F8010F013198B10B788342F8D0C01A6B
:10021400704750F8042F51F8043F9A42ECD1A2F1F0
:100224000133D243134013F0803FF2D00020EFE7B4
:100234000B78ECE741EA0003844613F0030F10B493
:1002440018BF04460FD104460846096803E044F881
:10025400041B50F8041FCB43A1F10132134013F0E7
:10026400803FF4D0014600228B5CA3540132002B62
:10027400FAD1604610BC704710B4044614F0030F62
:100284008C46104618BF21460BD12146236801E055
:1002940051F8043FA3F10132DB431A4012F0803FCE
:1002A400F6D00B781BB111F8013F002BFBD10022D3
:1002B40058B11CF802308B543BB110F1FF3001D11E
:1002C4008B18587001320028F3D1204610BC7047B7
:1002D40070B404461046F2B141EA040313F0030F6C
:1002E4001ED1032A25460E4618D922680B689A4265
:1002F4000FD013E0A2F10133D243134013F0803F37
:1003040009D10435043603281DD92A6833689A4272
:1003140004D10438EED1002070BC70472C4631461D
:10032400421E23780878984213D1002AF3D000287B
:10033400F1D014F8013F11F8010F984209D112F1DC
:10034400FF32F4D1E7E72C4631460028E8D12B7878
:100354003078181AE0E7C04630B40178054681B118
:100364004EF2A824C2F2000423685B185A7812F0F3
:10037400020F1CBFA1F12003037010F8011F002914
:10038400F2D1284630BC7047684620F007018D46FC
:1003940001B5002103E00B4B5B58435004310A487C
:1003A4000A4B42189A42F6D3094A02E0002342F863
:1003B400043B084B9A42F9D300F010F8BDE8014021
:1003C4008546704710DA070800D80020ACE2002008
:1003D400ACE2002028FC00207047C0461FB5434B08
:1003E40000211970424B01221A700C46A0B204F08D
:1003F40057F918B13E4B00221A7002E001340A2C5E
:10040400F4D1642001F0FCFA77F048F977F00EF9A2
:1004140077F014F978F09AFE78F08CFF78F0AAFE61
:1004240077F098FA78F0FCFC77F054FA78F0A4FFAF
:1004340077F0CEFA77F066F97BF012FD79F092FE50
:1004440077F01CF94FF400730124ADF80A304FF033
:1004540080404FF000030DF10601ADF80C30ADF80B
:100464000830ADF8064005F087FA4FF08040214689
:1004740005F004FB22464FF080404FF4807105F0F4
:1004840017FB4FF08040214605F01EFB2246214613
:100494004FF0804005F000FB04F0F8F804F0A4F9F4
:1004A40077F0CCF978F0D8FF1249902004F01CF9C9
:1004B4007AF046F87AF03AF879F02EFF7AF07AFD7D
:1004C40079F0FAFF79F01AFF0B49802004F00CF957
:1004D40079F0F6FEF020094904F006F9F420084901
:1004E40004F002F9014B1C7030BFFDE7B0E20020BC
:1004F4005CDA0020F1B107080DA2070899A20708E9
:10050400F55B0008684620F007018D4631B50821E7
:100514000B48002204F01CFF00240A4B1B59B3F1C2
:10052400FF3F04D003B198470434442CF5D1044868
:100534000821012204F00CFFBDE8314085467047D4
:100544000008014060DA0020F92805D803024FF4BE
:100554007A7293FBF2F321E040F2ED23984206D83D
:10056400C3014FF47A7293FBF2F3203316E040F2A6
:10057400D563984206D883014FF47A7293FBF2F361
:1005840050330BE040F68763984201D9FF2006E020
:1005940043014FF47A7293FBF2F3883398B2064B1B
:1005A400C2B25A739A73054A1378FF2B0CBF0D23FA
:1005B400162313707047C04608E80020A4DA002010
:1005C400084A18B1937943F0010302E0937903F0E8
:1005D400FE039371044A1378FF2B0CBF06231623E2
:1005E4001370704708E80020A4DA0020094B0A4978
:1005F4001A7853B202335B00D2B2142BA8BF14236F
:10060400CA71DBB2054A0B724B721378162313704E
:100614007047C046B4E2002008E80020A4DA0020B5
:10062400014B58787047C046B4E20020014B9878DB
:100634007047C046B4E2002020B1044A537823EA4C
:1006440000035370014B58787047C046A4DA002069
:1006540020B1044AD37823EA0003D370014BD8783D
:100664007047C046B4E20020014B18797047C04679
:10067400B4E2002010B50B4A0B4C30B1937943F02F
:10068400100393710123636004E0937903F0EF0393
:1006940093716060044A1378FF2B0CBF0623162362
:1006A400137010BD08E80020A4DA002010B50B4A2E
:1006B4000B4C30B1937943F0200393710123A36071
:1006C40004E0937903F0DF039371A060054A137883
:1006D400FF2B0CBF06231623137010BD08E800205F
:1006E400B4E20020A4DA0020034B9868012814BF68
:1006F400002001207047C046B4E2002010B5084A2B
:10070400012898BF02201378A3EB5003DBB21370C7
:100714005BB2032B01DC04231370FFF767FF10BDEA
:10072400B4E2002010B5084A012898BF02201378CB
:1007340003EB5003DBB213705BB20F2B01DD0F230D
:100744001370FFF753FF10BDB4E20020152808D83A
:10075400044B054A19541378FF2B0CBF0346162388
:100764001370704708E80020A4DA0020022390FBED
:10077400F3F07F2801DC802004E0B0F5806FA8BF8F
:100784004FF48060014B98607047C046A4DA0020A3
:1007940010B50648002104F02DFD00220448012173
:1007A40005F07AF8034B00221A7110BD4400024090
:1007B40000380040B4E200200B4B70B518600B4BBE
:1007C40005468AB20A489A8101240022DA811C7102
:1007D400DA70C5604160214604F00CFD05482146ED
:1007E400224605F059F870BD04E80020B4E2002068
:1007F400440002400038004013B50F48002104F0C3
:10080400F9FC0E480221002205F046F80C4B0024A6
:100814009C7015206021FFF799FF019402E0019B71
:1008240001330193019A42F20F739A42F7DD1520C6
:100834006121FFF78BFF1CBD1C040240003C0040FB
:10084400B4E20020844B73B51A699B8A9BB29A4226
:1008540001DDFFF7D1FF814B1E7816F0010F66D042
:100864007D4B7F499B7D012B7E4B2CD14FF00002A9
:100874009B68ADF80620042293FBF2F303F1FF3CDE
:100884000D681AE07448784A0369BDF80610EC5AFA
:10089400BDF8063089B29BB222F8134032F8133007
:1008A40001319BB222F81130036902330361BDF8B0
:1008B400063002339BB2ADF80630BDF806309BB269
:1008C4006345DFDB2FE04FF000029B68ADF80620A4
:1008D400042293FBF2F303F1FF3C0D681EE05E4C2F
:1008E40061492369BDF80600EA56BDF8063082F076
:1008F400800212029BB292B221F8132031F8133015
:1009040080B29BB2013021F8103023690133236196
:10091400BDF8063002339BB2ADF80630BDF80630A0
:100924009BB26345DBDB4D4B26F001021A704B4B47
:100934001E7816F0020F68D0474B49499B7D012B66
:10094400484B2CD19B68042293FBF2F292B2ADF88F
:100954000620022293FBF2FC0D681AE03E48424A4C
:100964000369BDF80610EC5ABDF8063089B29BB293
:1009740022F8134032F8133001319BB222F81130BF
:10098400036902330361BDF8063002339BB2ADF84C
:100994000630BDF806309BB26345DFDB31E09B686F
:1009A400042293FBF2F292B2ADF80620022293FBEA
:1009B400F2F303F1FF3C0D681EE0274C2A4923693A
:1009C400BDF80600EA56BDF8063082F08002120235
:1009D4009BB292B221F8132031F8133080B29BB24B
:1009E400013021F81030236901332361BDF806304A
:1009F40002339BB2ADF80630BDF806309BB26345B6
:100A0400DBDB164B26F002021A70134B1A699B8A21
:100A1400C3F34E039A420AD1124B5A7842F00102B0
:100A24005A705B7813F0020F01D0FFF7E5FE0A4914
:100A34000A698B8A9BB29A420CDB0A4A537843F0C8
:100A44000203537000230B61537813F0010F01D09C
:100A5400FFF7D2FE7CBDC046B4E200201EF00020A9
:100A640000E80020A4DA00201EE80020184B03222E
:100A74005A70184B10B51A70174AD37D012B03D145
:100A8400164BD860596015E0937D134A012B144B23
:100A940008BF49001860002313618BB29382FFF7EB
:100AA400D1FE0E490F4B0222CB60094B9B6893FB8E
:100AB400F2F34B600948012104F09CFB01220A482F
:100AC400022104F0E9FE044B01229A7010BDC046D5
:100AD400A4DA00201EF00020B4E200201C0402402E
:100AE40000E800201EE80020003C0040F7B5064660
:100AF4000D4620480121174604F03EFC06E0A38A77
:100B040013F0400F02D0238A9BB20193194C1A4967
:100B1400204604F069FC0028F1D02046E22100229E
:100B240004F05AFC1348154904F05EFC0028F9D07F
:100B34001048314604F04AFC0E48114904F054FCB4
:100B44000028F9D0002412E00A48395D04F03EFC84
:100B540008480B4904F048FC0028F9D0012D03D1C2
:100B64000448294604F016FC6B1EDDB20134002D46
:100B7400EAD1FEBD005800400100030082000700D6
:100B84008400070007B5022302AA02F8013D1520DC
:100B94000121FFF7ABFF0EBDF7B506460D46314800
:100BA4000121174604F0E8FB06E0A38A13F0400F86
:100BB40002D0238A9BB201932A4C2B49204604F08D
:100BC40013FC0028F1D02046E221002204F004FCAA
:100BD4002448264904F008FC0028F9D021480121C2
:100BE40004F0BCFB1F48314604F0F0FB1D482049CB
:100BF40004F0FAFB0028F9D01A48012104F0BCFBE8
:100C04001848194904F0F0FB0028F9D01548E321ED
:100C1400012204F0E1FB1348164904F0E5FB002827
:100C2400F9D0002416E0012D07D10E48002104F06C
:100C3400BFFB0C48294604F0ADFB0A480E4904F0FA
:100C4400D3FB0028EFD0074804F0C2FB6B1E3855D5
:100C5400DDB20134002DE6D10248012104F0A8FBE5
:100C6400FEBDC0460058004001000300820007009A
:100C740084000700020003004000030013B50023B2
:100C8400152804468DF8073008D80DF10702012114
:100C9400FFF782FF9DF80720024B1A559DF80700C5
:100CA4001CBDC04608E80020002110B5044804F02B
:100CB400E5FDFFF767FF0348002104F04FFB10BD7B
:100CC400003C00400058004070B5012190B0064639
:100CD4004FF4804004F094FC0021584804F0CEFD09
:100CE400574A20231370142353705B331371132357
:100CF400537100239371534B0EA89B68012B0BBFB8
:100D04009379937943F0200303F0DF0393714D4B00
:100D14004B4A197800254BB202335B00142BA8BF51
:100D24001423C9B2DBB2D171137253721573957364
:100D3400937B0124537360239374434B547516229D
:100D44001A700E238DF8383002238DF839308DF85F
:100D54003A508DF83B4004F055FB2046214604F000
:100D640033FC3A4804F0B4F9032E02D1202308934B
:100D740000E008954FF400530993A3F5E05307935B
:100D8400A3F54073069380230593314B10A90024E7
:100D940041F8403D2D4869460A940494029404F0B5
:100DA4000BFA01220621294804F02EFA0FAD48F26D
:100DB40000030326ADF83C3029461C2325488DF852
:100DC4003F308DF83E6004F065FA4FF44053ADF8BF
:100DD4003C30294618231F488DF83F308DF83E607B
:100DE40004F058FA4FF03003ADF82E304FF47A5334
:100DF40010A9ADF834304FF4407321F8143D0125A7
:100E04000E48ADF83050ADF83240ADF8364004F03D
:100E14005BFD052003F0E8FC03F038FC03F0E4FC80
:100E2400084A094BD481147195751E73D47503480F
:100E3400294604F023FD10B070BDC04600380040C0
:100E440008E80020B4E20020A4DA002044000240B4
:100E54000C380040000C0140012810B5044601D0B4
:100E6400032802D12046FFF72FFF014B5C7010BD11
:100E7400B4E2002070B5074C074D6268AB699A4232
:100E840007D06068C0B2FFF7F5FB6368AB6103F09D
:100E9400EFFF70BDA4DA0020B4E20020014B93F907
:100EA40000007047B4DA0020074B1B780BB1FF2019
:100EB40008E0064B5878012804D193F90030012B3F
:100EC40008BF022040B27047D0E20020B4DA00200C
:100ED400014B01221A707047D0E20020044B5B786A
:100EE4000BB1FF2001E0034B987840B27047C04635
:100EF400D0E20020B4DA0020014B01225A7070477E
:100F0400D0E2002010B510211A4804F017FA082185
:100F1400002814BF03240024164804F00FFA2021EB
:100F2400002818BF0124134804F008FA40210028BF
:100F340018BF02240F4804F001FA08B1042400E0A9
:100F4400B4B100F02DFD032812D8DFE800F002044C
:100F5400060F631C02E0A31C00E0E31CD8B243B2FA
:100F6400042B01DD031FD8B240B210BDE0B2FBE791
:100F74000020F9E70018014070B5154DAC78FFF773
:100F8400C1FF144AC0B2516819B9844201D0A87093
:100F940013E0114B114A1B7852F82330D268DB005E
:100FA400B3FBF2F3994204D20A4A53780BB14B1CB7
:100FB40004E0084A53781BB110B10123536005E0E3
:100FC400044A002353605370014B987070BDC046AF
:100FD400B4DA0020D0E20020ACFA0020A4730608A2
:100FE400084B012810B51870074C07D12368B3F1DA
:100FF400FF3F06D100F09CFF206002E04FF0FF337A
:10100400236010BDB4DA002028DC00202DE9F34170
:101014003B4B3C4E93F80180B3680A27013393FBA2
:10102400F7F207FB1234B360002C67D136484FF453
:10103400807104F083F9012814BF002501255DB3F4
:10104400324B33481B78F16850F82320C8235343AC
:10105400C2680131B3FBF2F39942F1601DD98422D5
:10106400134621462046009400F0EAFB204601F096
:10107400B1F94FF6FF7001F0A1F938464621254A2F
:10108400112301F057FA20463221234A142301F098
:1010940051FA00F085FFFCE7F56019490B78012B44
:1010A4002AD8184A2C46106930B94FFA88F39D4261
:1010B40002D04D7001230FE0144B15491B7851F8F1
:1010C400232019235343CA68B3FBF2F3984205D291
:1010D4000C4A137813B1431C13610DE0094A1378C9
:1010E4001BB163B20BB1136108E00649044B002243
:1010F4000A610A705C704A61FFF73EFFBDE8FC813B
:10110400B4DA0020D0E2002000080140ACFA00204C
:10111400A4730608B5710708C7710708014B93F952
:1011240000007047B8DA002010B5FFF70DFA10BDC3
:1011340010B5464B93F801E001E04B1C2360444C8E
:1011440021680A78202AF8D0A2F13103DBB2072BF8
:1011540014D8481C2060A2F130034A785FFA83FE59
:10116400A2F13103DBB2072B08D8A2F130030A2223
:1011740002FB0E32431C02F0FF0E2360334B20228D
:101184005B8892FBFEF2520392FBF3F2314B42F680
:10119400E0611B682E48B3FBF1F3534304684FF43A
:1011A4007A72B3FBF2F34360224612F8011BA1F1F9
:1011B4006103DBB2192B9CBFA1F12003D9B25029E2
:1011C400026003D1244B00221A7012E0A1F1410302
:1011D400DBB2062B0DD8A1F140031F48D9B2017030
:1011E4006378232B05D141F008030370184B0132B7
:1011F4001A60164B16491B7918480A68037013784D
:10120400353BDBB2032B02D80370531C0B60124B2B
:101214001A780E4B03EB4203D888104B1B78984086
:1012240080B2FFF781FF01E02C2807D0084A11683B
:101234000B4613F8010B13600028F5D10A780AB99C
:10124400034B1A6008B900F00BF810BDB8DA00209F
:10125400E8E20020B0FA00201FF0002020F0002077
:101264000B4B002218700B4B10B55A6004280ED893
:10127400DFE800F00A08080803000120FFF7A0F9DE
:10128400FFF756FF012000E00020FFF799F910BD99
:10129400B8DA0020E8E200203B4A012310B51371BC
:1012A400033353704FF03F035380384B18609860FA
:1012B40003E0002A67D001330B6034490B681A78C5
:1012C4003A2AF6D1013300200B60844653E013B967
:1012D40059E0631C13602D4A146821782029F8D042
:1012E4003A294DD0A1F16103DBB2192B9CBFA1F1C6
:1012F4002003D9B2A1F14103DBB2192B01D808466E
:1013040036E0A1F13003DBB2092B31D80A2303FB09
:101314000CF3303B5B181FFA83FC6378303BDBB281
:10132400092B25D9442806D1174B83F801C04FF067
:10133400000C60461CE04F280AD1ACF10503DBB277
:101344001149042B0B7111D900230B7118460EE0BF
:1013540042280BD10CF1FF339BB20B49B3F5FA7F52
:1013640028BF3F23A1F802C028BF4B800020844639
:10137400064B621C1A60054B1B681B783A2BA6D1DE
:101384000420FFF76DFF10BDB8DA0020E8E200206A
:10139400184B10B593F90030032B16D0042B02D050
:1013A400022B26D108E0144A536813B9FFF7C0FE94
:1013B4001FE0013B53601CE0104B0F481B781049A1
:1013C400446851F82320642308E00C4B0A481B7836
:1013D4000B49446851F823204FF47A735343CA6885
:1013E400B3FBF2F3621C9C42426002D30020FFF77D
:1013F40037FF10BDB8DA0020E8E20020ACFA002084
:10140400A47306087047C0467047C046004870473A
:101414003AF200200048704714F30020014B18688A
:101424007047C04604E3002007B54FF4C0607AF06B
:101434003FFD31238DF8043002238DF8053000235D
:101444008DF8063001A801338DF8073003F0DAFF78
:101454000EBDC04610B5044C18B1FEF77DFF2060E8
:1014640000E0206010BDC04604E3002010B50C4627
:1014740013460249224677F093FA10BD08E3002090
:10148400024B10B5936076F09BFE10BD08E300207C
:1014940010B576F01DFE10BD10B5024A77F02EFA95
:1014A40010BDC04608E3002010B5024A76F0CAFC1D
:1014B40010BDC04608E3002037B50C46154600931E
:1014C400024922462B4676F09DFF3EBD08E30020EC
:1014D40037B50C4615460093024922462B4676F052
:1014E4002DFD3EBD08E3002007B50093014B77F0C6
:1014F400C7F80EBD08E3002010B50446FFF794FFBB
:10150400204677F01FFB10BD10B5034C2060034844
:1015140062600160436010BD14E5002010DC00200F
:1015240000014FF0D04318807047C046014B0001C2
:101534001880704700000268024B1888C0F30B1033
:101544007047C046000002682DE9F047DFF8888044
:1015540005462A200C4692469946FFF7E1FF0020F3
:10156400FFF7E4FF1B4E98F80030E4B256F823006E
:10157400EDB22018C0B2FFF7D9FF0020FFF7D6FF65
:1015840098F8003056F82330013BE4184C44E0B29C
:10159400FFF7CCFF2B20FFF7C3FF0020FFF7C6FFA8
:1015A40098F8003006EB830358692818C0B2FFF797
:1015B400BDFF0020FFF7BAFF98F8003006EB830662
:1015C4007369ED18013D5544E8B2FFF7AFFFBDE87C
:1015D400F087C046A81A0708F3E500202DE9F04F6C
:1015E4008BB08B468246BDF850100E2042430191C9
:1015F400644902938B68644CA2F5E0729B180393D0
:101604002368BDF854909A45ACBF56461E4663689D
:1016140000FB09F09B45ACBF5F461F46072303FB55
:1016240009F20B689B1B9A42A8BF1A464B68A2603A
:10163400DB1B9842A8BF18465F45E06003DDC7EB9B
:101644000B031B18E360564504DDC6EB0A039B1825
:101654004D4A9360DFF83081D8F80850002D40F3EC
:101664008D80D8F80C40002C40F388802AB223B235
:1016740039B230B2FFF768FF2C20FFF751FFCAEBF5
:101684000603029A93FBF9F30693120A019B07924D
:101694000399069ACBEB070B1B0A5C4495FBF9F5FF
:1016A400099301EB42030595C8F810B00894C8F8F3
:1016B400144003F1010A5AE05C4515DB089B9C4287
:1016C40012DA1AF8013C1E4215BF0299019AC8B2F7
:1016D400D0B2FFF72BFF1AF8013C07981E42099B72
:1016E40008BF1846FFF722FF013501344D45E3DBFF
:1016F400761017F1FF37C84402D18026062723E06D
:1017040044460025D8E75C4515DB08998C4212DA7B
:101714009AF800301E420BBF019B029AD8B2D0B295
:10172400FFF704FF9AF80030079809991E4208BF92
:101734000846FFF7FBFE013501344D45E3DB761027
:1017440017F1FF37C84402D044460025DBE7049A6A
:1017540001320492049B4B4504DA4FF000088026C2
:101764000827CDE706990AF1020A01310691069A83
:10177400059B9A4202DA00210491EBE70BB0BDE825
:10178400F08FC04610DC002014E500202DE9F04164
:10179400540009B212B200B203FB04F71BB2DDF825
:1017A4001880FFF7D1FE3A20FFF7BAFE6620FFF754
:1017B400BDFE2E20FFF7B4FE0026FFF7BDFE18E0A5
:1017C400FFF7BAFE0546FFF7B7FE84B2C4F342132F
:1017D40005F0F8052B4308F80630FFF7ADFEE400EA
:1017E40024F01F04C0F3C40008EB060304435C7038
:1017F4000236BE42E4DB3A20FFF792FE5520FFF7A3
:1018040095FEBDE8F081C0461FB501220DF10E031F
:1018140000931346FFF7BAFFBDF80E0005B000BDF4
:1018240010B5144601221346FFF78EFE2C20FFF755
:1018340077FEE0B2FFF77AFE200AFFF777FE10BDCD
:101844002DE9F04700B2BDF8206009B291469846F0
:1018540012B21BB2FFF778FE2C20FFF761FE370AA5
:1018640000250BE0F0B2FFF761FE3846FFF75EFE9D
:10187400631CDCB24445F5D36B1CDDB24D4501D28B
:101884000024F7E7BDE8F08713B5802828BF80203F
:101894009E461318802BC4BFC0F180039AB28029DE
:1018A40028BF80210EEB0103802BC8BFC1F1800348
:1018B400BDF81040C8BF1FFA83FE73460094FFF7BB
:1018C400BFFF1CBD2DE97343BDF8205088469946DF
:1018D4000123044616460095FFF7D6FF08F1FF31B1
:1018E400494420463246012389B20095FFF7CCFFD4
:1018F4002046013C414601224B4636190095FFF72C
:10190400C3FFB0B2414601224B460095FFF7BCFF2E
:10191400BDE87C83B0F5805F034A36BF4FF40043D3
:10192400D060D3607047C04610DC0020014B002219
:10193400DA60704710DC0020024B4FF40042DA609A
:101944007047C04610DC0020014BD8687047C04681
:1019540010DC0020014B18607047C0464CDC0020AE
:10196400014B18787047C0464CDC00200B4B10B577
:10197400187004463620FFF7D3FD022C05D0032C43
:1019840005D0012C05D1102004E0B02002E0D020C5
:1019940000E07020FFF7CAFD10BDC046F3E500204B
:1019A400014B18787047C046F3E50020014B98605E
:1019B4007047C04610DC0020014A024B9A60704711
:1019C400D01A070810DC002010B50A4C4FF4FA7145
:1019D400A369013393FBF1F201FB1232A3613AB91B
:1019E400054B06489B8904F11C01638403F0E6FF60
:1019F40010BDC04614E5002010DC002000080040A3
:101A040070B50646002508E00024FEF7E5FC013425
:101A140040F214539C42F8D10135B542F4DB70BD59
:101A2400034610B9034B197003E0012804BF014BAE
:101A3400597070474CE5002070B52F4B054610B91E
:101A44005C681E7801E09C685E7873B2032B44D80E
:101A5400DFE803F002022B2535B9284B72B293F963
:101A64000030934209D146E0012D41D1234B72B29B
:101A740093F9013093420AD13DE021480121003A13
:101A840018BF012203F064FC4FF0FF3426E01C4829
:101A94000221003A18BF012203F05AFC28E0013465
:101AA400322C05D0632C18D90EE00134C82C08D18F
:101AB4001348012D0CBF02210121012203F048FC2F
:101AC4000BE0B4F5C87F08D30D48012D0CBF0221EB
:101AD4000121002203F03CFC002425B9064B5C6084
:101AE400064B1E7007E0044B9C60044B5E7002E0E2
:101AF4004FF0FF34F7E770BD4CE5002020DC0020F8
:101B040000180140002010B5FFF796FF0120FFF7F1
:101B140093FF10BD10B5054C228F23889B1A0380B8
:101B2400238A628F9B1A0B8010BDC04658E50020A3
:101B3400204BB3F800C0198A0FFA8CF212F5FA7F21
:101B44000ADC0BB2002B02DC9A4205DC02E05B42A9
:101B54009A4221DC03232BE00AB212F5FA7F0BDC54
:101B64000FFA8CF3002B02DC9A4215DC02E05B4294
:101B74009A4201DC00231BE00FFA8CF2B2F5FA7FE3
:101B84000ADB0BB2002B03DC5B429A4211DB01E05F
:101B94009A4201DB01230BE00AB2B2F5FA7F08DBBB
:101BA4000FFA8CF3002BD8BF5B429A4201DB02236D
:101BB4000370704758E50020034910B501F138005F
:101BC4003A31FFF7A7FF10BD58E5002000487047E1
:101BD40058E5002010B504460A48022103F06EFEC1
:101BE4000028F9D00748214603F062FE0548012188
:101BF40003F064FE0028F9D0024803F05BFEC0B293
:101C040010BDC04600300140024610B50248042110
:101C140003F09EFB10BDC0460018014010B5002023
:101C2400FFF7F2FF8F20FFF7D5FFA520FFF7D2FFC4
:101C340004460120FFF7E8FF204610BD00202DE9EF
:101C4400F047FFF7E1FF4E4A137813F0800F0BD1F2
:101C540013785BB2152B07DC10781378494A5BB212
:101C640040B20121D21807E0454B1B785BB2152B1B
:101C740004DD444A00201621FEF738FF404B4FF0A4
:101C8400FF321A70E820FFF7A5FFA520FFF7A2FF97
:101C94000646A520FFF79EFF8146A520FFF79AFF81
:101CA4000546A520FFF796FF8046A520FFF792FF83
:101CB4000446A520FFF78EFF334F04EB002406EB08
:101CC400092605EB082501203E803D823C84FFF770
:101CD4009BFFB7F800C07A881FFA8CF5AB183E8AD0
:101CE40042F38D029B1A7A8AB0B23C8C7B808318B3
:101CF40042F38D029B1A7A8CA1B27B828B1842F339
:101D04008D029B1A7B84BB88BA68ED1843F30B13CE
:101D1400ED1ABB8A36B2C01843F30B13C01ABB8C3E
:101D240024B2C91843F30B13C91AB9840FFA8CF1FE
:101D34008B18A3EBA213BA69BB60B318A3EBA2136D
:101D4400BA6ABB61A318A3EBA213FA68BB628B182F
:101D5400A3EB2223FA69FB60B318A3EB2223FB61F4
:101D6400FB6ABD80E418A4EB2324FB6BB882FF2B31
:101D7400FC6201D80133FB6301EB0640BDE8F08748
:101D8400A4DA002008E8002058E50020534A6846F9
:101D940020F0070113688D46F1B50BB1013B1360C8
:101DA4004F4C236C01332364FFF748FFB4F904203C
:101DB400B4F900304B49C3EB2216B4F91420B4F93A
:101DC40010306664C3EB2210B4F92030B4F9242037
:101DD400A064C3EB22150B68E56473B906F10F0325
:101DE4001E2B0CD9404A0A2396FBF3F313601423E9
:101DF4000B603E4B01221A6001E0013B0B603C4941
:101E04000B6873B900F10F031E2B0CD9394A0A234E
:101E140090FBF3F3136014230B60374B01221A6019
:101E240001E0013B0B60354A136883B90F2D02DCD6
:101E340010F10F0F0DDA324A0A2395FBF3F3136006
:101E44002E4B14221A602F4B01221A6001E0013B31
:101E5400136006FB06F200FB00222B4E05FB052255
:101E640033782A4D55F823305343EA68B3FBF2F331
:101E7400274A1360274A93422CD9FFF74FF910F0F1
:101E8400FF0F27D1154C206820BB15490B8E0A6D16
:101E940001330B860B6C9B1A4FF47A725A433378D6
:101EA40055F82330B2FBF3F2C82A4A6512DDB2F5C5
:101EB400487F0ADACB8E02300133CB86FFF7D0F9A4
:101EC400337855F82330236001E048652060044AE4
:101ED400136C1365BDE8F1408546704724DC00208F
:101EE40058E500208CF3002078F300207CF30020D8
:101EF4006CF3002074F3002084F3002088F30020A6
:101F040080F3002068F30020ACFA0020A4730608D4
:101F140070F30020305705003C2303FB01224FF4EB
:101F2400616303FB002010B5800203F0DDFB10BDEC
:101F340010B503F0CFFB800A10BDC04610B5FFF703
:101F4400F7FF074A1368834209D0064B00211B6838
:101F54001060012B516002D1062000F06FFB10BD10
:101F6400B8E50020E4E5002070B50D4616460446A9
:101F7400FFF7DEFF4FF46162B0FBF2F21821B2FB0F
:101F8400F1F301FB13232431B0FBF1F22360B2FB24
:101F9400F1F301FB132301FB12022B60326070BDCD
:101FA40070B502F073FB234B00F007011E68224B4F
:101FB400002E14BF082600261D68204B002D14BFD8
:101FC400402500251C681E4B002C14BF102400243F
:101FD4001A681C4B002A14BF2022002293F90030F7
:101FE400022041EA0321314329432143114389B2A9
:101FF40002F06AFBFFF7A8FC81B2032002F064FB45
:1020040000224FF08040012103F046FDFEF74CFE14
:102014000D494FF400530B8003238B700D33CB70A9
:102024000A4803F037F909484FF40051012203F03C
:102034008FF9FEE7A8DA0020BCE2002008DF0020C8
:102044000CDF0020B4E2002052E700200010014021
:10205400F7B5FFF76DFF774C0746236813B902F015
:1020640095FAA080734C23689F4200F0E18002F04F
:102074008DFAA388072202FB0303DB10A3802368E5
:102084000322B7FBF2F1B3FBF2F3994200F0B28002
:102094004021694803F052F980210446664803F060
:1020A4004DF9012C14BF00240124012814BF002081
:1020B400012004EB4004614B032C03D8DFE804F057
:1020C4001104090E01251CE04FF064029A800425D6
:1020D40017E04FF032029A80032512E04FF03202EB
:1020E4000DE0544B9A8840F6B7339A42534B04D8C8
:1020F4004FF064029A80022503E04FF000029A80B8
:1021040005254E4A9379AB420CD1D3799D4209D02F
:10211400053B022B01D8052D04D0484BDD71454BFE
:102124009A88DA804549CB79062B0BD0072B35D01A
:10213400052B5DD13F4BDA8840F6A5639A4201D85E
:102144000623CB713B498A88CB889A4202D29B18DA
:102154005B10CB80374BD98840F6AB53994202D8F9
:10216400364B0722DA71642000FB01F3A3F5AA239E
:102174004FF42F72A3F5E66393FBF2F32F4A9BB25D
:1021840093801BB2834201DD908003E0002BBCBF2F
:1021940000239380274B00229A6029E0254EF268A1
:1021A400531C2D2AF36023DD254B00248422214671
:1021B4001C60204613460094FFF742FB204600F0C3
:1021C40009F94FF6FF7000F0F9F80A205A2111239B
:1021D4001C4A00F0AFF911230A2046211A4A00F0E4
:1021E400A9F9B268531C042AB36001DDFFF7D8FED5
:1021F400124B9D710F4B114C1F602368B3F1FF3FCD
:1022040016D0FB1AB3F5967F12DDE379023BDBB2FD
:10221400012B02D9FFF7C4FE0AE04FF0FF3323601D
:10222400FEF73CFE40B2012802D1FFF781FE206098
:10223400FEBDC046C0E500200010014028DC00209F
:102244002CE6002028720708B57107087047C046BD
:10225400684620F007018D4601B5BDE8014085467A
:102264007047C0467047C0467047C0467047C04676
:102274007047C046684620F007018D4601B54FF40B
:10228400804002F0EBFF40B14FF4A04002F0F6FFB3
:102294000B4A137843F0010313704FF4005002F01B
:1022A400DDFF40B14FF4405002F0E8FF044A1378D8
:1022B40043F002031370BDE8014085467047C046F1
:1022C400B7E20020684620F007018D4601B51948A1
:1022D40002F0C4FF90B1184802F0D0FF174A1378F7
:1022E40043F001031370164B1B7813B9FEF7AAFAD7
:1022F40004E0144A137843F001031370124802F007
:10230400ADFF90B1114802F0B9FF0C4A137843F0C5
:10231400020313700A4B1B7813B9FEF793FA04E017
:10232400084A137843F002031370BDE80140854660
:102334007047C04640000010500000101EF00020FE
:10234400CBE20020A5DA00202000001030000010AD
:10235400684620F007018D4601B57AF01FFEBDE8FE
:10236400014085467047C046684620F007018D4607
:1023740001B578F03BFFBDE8014085467047C04693
:10238400684620F007018D4601B578F02FFEBDE8C0
:10239400014085467047C046014B18807047C046CF
:1023A40038DC0020014B18887047C04638DC002018
:1023B400014B18887047C046D8E50020014B1880AF
:1023C4007047C046D8E50020014B58887047C04686
:1023D40038DC0020014B58807047C04638DC0020B0
:1023E400044B4FF0FF325A80034B4FF000021A8027
:1023F4007047C04638DC0020D8E5002070B50D4E8B
:102404000D4A736814889842B8BF18465368956893
:102414009942B8BF19466FF00D0303FB0454D36807
:10242400A142D4BF116114619842D4BFB060B360BB
:1024340070BDC046D8E5002038DC0020034B1A6983
:10244400034B986840EA02207047C04638DC0020FD
:10245400D8E5002020EAE0708029A8BF80218842C6
:1024640010B51C46084BC8BF481E022CB8BF022436
:10247400802AA8BF802294425860044BC8BF541ECF
:10248400D9609A605C6010BDD8E5002038DC00207B
:1024940030B514461D4610B9074B5B68036011B98B
:1024A400064BDB680B6014B9044B9B68236015B9B9
:1024B400024B5B682B6030BDD8E5002038DC00207F
:1024C4002DE9F74389461746122B34BF98464FF03F
:1024D4001208064600251FE03A780AB9203200E0C7
:1024E40001370A980E490F4B18B1B1F802E01B8866
:1024F40002E0B3F800E04B88094C0093238830468F
:10250400019349467346FFF769F82388072202FBC3
:102514000363DEB26B1CDDB24545DDD3BDE8FE834B
:1025240038DC0020D8E5002013B501240094FFF71F
:10253400C7FF1CBD13B500240094FFF7C1FF1CBDE9
:102544002DE9F34735490A2881460E88344C0BD1CE
:1025540063680A69A3604B689A425DDB6FF00D0300
:1025640003FB06230B6157E0A368072202FB063234
:10257400CB689A4206DD63680A69A3600E2303FBF5
:1025840016230B61254D264C29696B68994205DB9E
:102594006A88207A23880092019631E000F0B4FC26
:1025A4002A696B6800279B1A022293FBF2FAEA68F5
:1025B4006368C3EB020817E0A3689E1E1D460EE085
:1025C400174CB1B2A0881FFA88F2022300F06AFC0B
:1025D4002079E9B25FFA88F2022300F035FC023D6B
:1025E400023E012DECDC013757450C4CE4DB6168FD
:1025F40062880B4B2161187A1B8800922288019211
:10260400C9B24A46FEF7EAFF0548044B81681B88B5
:10261400072202FB03138360BDE8FC8738DC00203B
:10262400D8E5002070B50546002401E0FFF788FFD7
:10263400285D01340028F9D170BDC046F0B53022C0
:1026440087B0314C00238DF807208DF808208DF8D1
:1026540009208DF80B2005460E4605A804A903AAF7
:102664000393059304938DF80C30FFF77DFC0399D5
:1026740023680DF10707994211D03846022201233D
:1026840001F0F8FF214B314618882A2303FB005040
:102694003A460223C0B2FFF74DFF039B23601C4F51
:1026A40004993B68994216D00DF107042046022292
:1026B400012301F0DFFF3A238DF80930134B314633
:1026C4001888152303FB005022460323C0B2FFF7EA
:1026D40031FF049B3B600F4F05993B68994211D031
:1026E4000DF1070420460222012301F0C3FF3A231F
:1026F4008DF809302846032331462246FFF71AFF96
:10270400059B3B6007B0F0BDA0F3002038DC00203F
:102714009CF3002098F3002070B586B00E46054661
:1027240001F034FF42238DF80730013B8DF8083067
:1027340013338DF809304FF47A713D238DF80A3044
:1027440090FBF1F3DBB25943303389B28DF80B308F
:102754002E2364248DF80C30431A93FBF4F3DBB27C
:1027640003F1300204FB03139BB2C01A0A238DF851
:102774000D2090FBF3F0562230308DF80F2000220C
:102784008DF80E008DF81020284631460DF1070211
:10279400FFF7D0FE06B070BD2DE9F0419DF818504A
:1027A4001C466C430746084611461A462B46FEF75C
:1027B400CBFE2C20FEF7B4FE4FEAE408002617E017
:1027C400072557B1BB5D2B4113F0010F05D00A4C0F
:1027D4002078FEF7ABFE208804E0084CA078FEF7D2
:1027E400A5FE6088000AFEF7A1FE013DE9D201368C
:1027F4004645E5DBBDE8F081D8E5002038DC002063
:102804002DE9F0471D469DF82040BDF824A0BDF8F1
:102814002880064618B3084611461A462346FEF792
:1028240093FE05FB04F92C200025FEF779FE4FEA00
:1028340018272C4611E0305B504505D0C0B2FEF796
:1028440075FE305B000A04E05FFA88F0FEF76EFE66
:102854003846FEF76BFE013502344D45EBDBBDE82F
:10286400F087C0462DE9F0419DF818401D46074603
:10287400084611461A462346FEF766FE00262C201B
:1028840005FB04F8FEF74CFE35460FE027B1785DF2
:10289400FEF74CFE785B04E0064CA078FEF746FE9B
:1028A4006088000AFEF742FE013602354645EDDB3C
:1028B400BDE8F08138DC002007B5002180230348FF
:1028C4000A460093FFF7CEFF0EBDC046A4F30508E9
:1028D4002DE977471E4D1F4CDFF880801E4E1822CD
:1028E400082321884FF4F85A2888A8F80020338058
:1028F400CDF800A0FEF7A4FF28882188B8F80020AE
:1029040033884FF6FF790131023A023B0130CDF8AA
:102914000090FEF795FF2888218802220423891855
:102924000238A8F800203380CDF800A0FEF788FF15
:1029340028882188B8F80020338801380331013A07
:10294400023BCDF80090FEF77BFFBDE87E87C046D2
:10295400A4F3002096F30020B0F30020ACF3002091
:1029640037B501F07BFAC5B2002001F0BFFB1C4B68
:1029740000205B888022009301461346FEF760FF27
:10298400184B1B6843BB184B1B682BBBFEF786FA1E
:1029940044B2012C20D101F09FFF022802D020462E
:1029A40001F078FFFFF71CFDFFF786FFFFF790FFAC
:1029B4000E4B4FF00A021A800D4B64221A600D4B25
:1029C4001A600D4B1A600D4B4FF0FF321A600C4B1E
:1029D4000232DA6002F04CFA68B201F087FB3EBDC5
:1029E40038DC00202CE6002028E6002090F30020AC
:1029F400A0F300209CF3002098F30020A8F300200B
:102A0400D8E500202DE9F04F85B09C46BDF838305C
:102A1400904202930CD1614503DD8BB261460FFAFB
:102A240083FC029A0CF1010300925B1A01220BE071
:102A340061450CD1904202DD83B210461AB2029B6A
:102A440001320093121A0123FEF7FAFE49E0C0EBAB
:102A54000202C1EB0C0382EAE27983EAE377A9EB91
:102A6400E279A7EBE377002AB4BF4FF0FF320122EB
:102A7400002BB4BF4FF0FF3B4FF0010BB94580462C
:102A84008A46039204DA7C100BEB0106002526E04B
:102A9400039A4FEA6904161800250FE0E4194C451F
:102AA400A8BFDA44F0B25FFA8AF1029AA8BFC9EB70
:102AB4000404FEF7B5FE039B0135F6184D45EDDB26
:102AC4000FE04C44BC4202DB039AE41B9044F1B295
:102AD4005FFA88F0029AFEF7A3FE01355E44BD4218
:102AE400EFDB05B0BDE8F08F13B522EAE272BDF862
:102AF400104020EAE07021EAE17123EAE3737F28C1
:102B0400A8BF7F207F29A8BF7F217F2AA8BF7F225B
:102B14007F2BA8BF7F230094FFF774FF1CBDC04622
:102B24002DE9F34701F032FD674B1880FFF700FAF7
:102B3400664AD368012B40F08E801369834200F00B
:102B44008A80634B106193F800E00EF1FF33062B8B
:102B540012D8DFE813F0B60007000A000E001300D5
:102B640019001F004FF6F97715E04FF4F85732219A
:102B740012E04EF20707642100220EE0554B0027B5
:102B8400B3F900103A4608E0524B4EF2FF07B3F98E
:102B9400001001E0F82764210122052391FBF3F3DF
:102BA4009BB24D49142B0B8084BF14230B8042B37A
:102BB40010F0010F25D0DFF83C91DFF81CA1474D40
:102BC400B9F800004FF6FF78BEF1060F0CBF3C4683
:102BD4004446BAF800202988414E009416303C4CF3
:102BE4003388801A0231FEF72BFE2478B9F80000EE
:102BF400062C18BF47462988BAF800203388009766
:102C040023E0DFF8F080354CDFF8CC90B8F8000012
:102C1400B9F800202188324E4FF6FF751630BEF108
:102C2400060F08BF2F463388801A02310097FEF73B
:102C340007FE2188264C33882478B8F80000062C37
:102C440008BFF825B9F80020009502300231C2F11E
:102C54001402FEF7F5FD234B1B68002B31D0FEF761
:102C64007FFE00282DD0194C63690133B3F5FA7F38
:102C7400636126D104F11800FEF75AFF227E637EB9
:102C8400934217D0A07E904214D1E37E834211D0A8
:102C9400E076FEF76BFE144814494FF00002028000
:102CA4000A80FEF737FFFFF75BFE114B186808B187
:102CB40000F09AFE054B9A7E5A761A7E9A76002286
:102CC4005A61BDE8FC87C04692F30020D8E5002095
:102CD4002FDC00202CDC0020ACF3002096F3002035
:102CE400B0F300200CDF002090E5002092E50020E6
:102CF4002CE60020A4F30020134A144B30B51568C9
:102D04001C686B0093FBF4F0002807DD53689A6895
:102D1400196A9B6A521A934204D314E013D053687D
:102D24009B6A83B108494A68936A1B1893628B684B
:102D340002221B1A8B6004FB00F393FBF2F3EB1AE1
:102D44000B600023CB6030BDF4E50020E0F30020ED
:102D54002DE9F04F1D4606468946BDF824B0BDF85E
:102D640028A0BDF82C8000234FF4004402E0013376
:102D74006408DBB2AB42FAD32546002303E00133F7
:102D8400C5F34F05DBB29342F9D349460A784B7831
:102D9400002043EA022712E01CEA070F14BF5B4637
:102DA4005346B3520232B2EB480FF5D1B618CCF306
:102DB4004F0CAC4501D90022F5E7431C98B24045BD
:102DC40001D2A446F5E7023109F10E039942DDD19F
:102DD400BDE8F08F2DE9F04F87B00593BDF844307E
:102DE4009DF8407004930E2306460D46BDF848B086
:102DF400BDF84CA0122A34BF91464FF0120903FBD0
:102E040007F8002419E02B780BB9203300E00135D2
:102E14000E2159430B4B049A1B68A1F5E0710092F3
:102E2400304659183A46059BCDF804B0CDF808A0B1
:102E3400FFF78EFF631C4644DCB24C45E3D307B076
:102E4400BDE8F08F18DC002010B5FEF77DFB3A20BA
:102E5400FEF766FB6620FEF769FB2C20FEF760FB9D
:102E64000E48012102F0C6F94FF4007002F0DAF9BD
:102E74000028F9D04FF4007002F0E4F9002107486B
:102E840002F0B8F90649054802F096F93A20FEF72F
:102E940047FB5520FEF74AFB10BDC04630000240F8
:102EA400F0F9002009B210B512B21BB200B2FEF75D
:102EB4004BFB3A20FEF734FB6620FEF737FB2E204F
:102EC400FEF72EFBFEF738FB0D48012102F092F9C4
:102ED400202002F0A7F90028FAD0202002F0B2F94D
:102EE4000021074802F086F90649054802F064F912
:102EF4003A20FEF715FB5520FEF718FB10BDC0461F
:102F04001C000240B4F300202DE9F84F1F4D204F60
:102F1400284602F0DDF81F491F4B00244FF4407B84
:102F24004FF0800A4FF480794FF480684FF4804664
:102F34000B604F608C60C1F80CB00C61C1F814A038
:102F4400C1F81890C1F81C800C624C628E6228464D
:102F5400143502F031F9284602F0BAF80F490E4B45
:102F64004F600B6010238B60C1F80CB00C61C1F88A
:102F740014A0C1F81890C1F81C800C624C628E62D7
:102F8400284602F019F9BDE8F88FC0461C0002403B
:102F9400E4F30020B4F3002000000268F0F90020FC
:102FA4002DE9F74F434C884663680546D3F80C90E7
:102FB400FFF7F8F90190FFF707FA8346FFF7F8F9EE
:102FC400636882469C6A1B7813F0010F02D1B5F145
:102FD400FF3F6CD0384B1888FFF7DEF9B5F1FF3F9F
:102FE4000CBF364B364B1888FFF7F4F9B5F1FF3FA9
:102FF4000CBF344B344B1888FFF7E0F9B5F1FF3FB1
:1030040001D1002602E02B4B1B685E002F19B8F19A
:10301400000F0FD0B5F1FF3F0CBF284B2B4B188886
:10302400FFF7D8F9B5F1FF3F0CBF264B284B1888A2
:10303400FFF7C4F9B5F1FF3F09D0264B1868264BBA
:103044001968264B1A68264B1B68FEF75DFA214B5C
:10305400B5F1FF3F1868174BC0B25A68214B51694C
:103064001C6816BF02EB87035268DA6A042394FBD8
:10307400F3F3CB1A6FF00101491B04FB01318919E9
:10308400C9B25FFA89F3FFF755FAB5F1FF3F05D0EE
:103094000020802102460B46FEF736FA0198FFF71E
:1030A4007BF95846FFF796F95046FFF787F9BDE8D4
:1030B400FE8FC046F4E5002050DC002014DF002021
:1030C40064DC002018DF002024E600201CDF002040
:1030D40020DF002020FA0020E4F90020E8F9002095
:1030E4001CFA0020E0F300202DE9F04F85B00446DF
:1030F400914688461E46FFF755F90390FFF764F999
:103104008346FFF755F9634B82461888FFF762F947
:10311400614B1888FFF752F9002000F0E7FF5F4A7F
:10312400002393606362A3621360D360236A5460D4
:10313400A2689A42B8BF22620024274608E002EB44
:103144008403D86A00F018FC01348742B8BF0746EC
:10315400524B5A6893689C42F1DB137813F0010FC9
:1031640005D0506800F008FC8742B8BF07464B4BB7
:10317400072258684A4BC76019684A4B4A4392B2BF
:103184001A800E2303FB01F4474B02211C607B1CB5
:1031940002FB03F5036A94FBF1F2013304FB0322FF
:1031A4008561C2615EB1C5F1800393FBF1F30361F4
:1031B400C2F1800393FBF1F39B18436103E0C0F871
:1031C4001080C0F81490354E0423756894FBF3F313
:1031D40069690A1BD21A354B1A602B6A03FB142344
:1031E400334A13602F4B28691A88324B00EB520480
:1031F40002FB07421C60304B00241A60254AEB692D
:103204001268C91A0092AA69FEF71AFB7268938BB6
:103214005169108AC91A128B89B20094FEF752FBC5
:1032240073681B7813F0010F04D04FF0FF30214670
:10323400FFF7B6FE194B5B689B687BB1002408E07E
:10324400916820468C4214BF00210121FFF7A8FE9B
:103254000134124A53681B6A9C42F1DB174B002469
:1032640020461C60FDF7BCFE154BB3F93620154B08
:103274001A60FFF749FE0398FFF78EF85846FFF7E8
:10328400A9F85046FFF79AF8044B1C6105B0BDE855
:10329400F08FC04664DC002024E60020F4E5002022
:1032A40050DC0020ECF90020E0F300201CFA0020A0
:1032B400E8F9002020FA0020E4F90020E4E50020E9
:1032C40058E5002044E6002070B501F0FFFA30B361
:1032D40001F0E8FA4A4B00F0FF011B68994222DD35
:1032E400484B1B6899421EDA474C0212207D10B9E4
:1032F400A26105460FE0A1690223521A92FBF3F57D
:10330400002D03DDCB18A361012504E003D08B1E3F
:10331400A3614FF0FF353C4B01221A7504E03A4B90
:103324000546187500E00025384B1B68002B28D093
:10333400FDF7D4FDC0B2344A43B2022B107702D059
:10334400042B0FD106E09368002B0CDC304B9B88D8
:103354005D4208E0536892681B6A9A4203DB2C4B77
:103364009D8800E020B1284AD38B0133D38300E049
:10337400D083254BDB8B132B254B8CBF05220122DD
:103384009A805DB1234B24491B7851F82320C8232C
:103394005343CA68B3FBF2F31D4A93601C4A936813
:1033A40013B1013B936028E01C4B1B682BB325BB76
:1033B400154A92F91C3003BB137DF3B95368906826
:1033C4001B6A98420ADB164BB3F93410154BB3F958
:1033D40000206FF0F9039B1A99420ADB00280CDCE9
:1033E4000F4BB3F934200F4BB3F9003032339A4208
:1033F40003DD0B4BB3F934305D42284670BDC04643
:1034040020FA0020E4F90020F4E5002008DF002081
:1034140050DC0020ACFA0020A47306080CDF002066
:1034240058E5002088E1002070B501F04FFA064607
:1034340000282CD001F036FA10F0800F27D1C0F309
:103444000F207F2823D85F4B1B68984203DB5E4B19
:103454001B68984201DD5C4B18885B4B5B4A1B6818
:1034640012685B491B1A93FBF2F04B681A6A90428C
:1034740004DB0B68002B14BF1046501E544A20EA8C
:10348400E07593689D4204D00023D36001E04FF0BF
:10349400FF35504B1B68002B3DD0B5F1FF3F3DD1AC
:1034A400FDF71CFD4A4AC4B214772CB1D38B4FF0FC
:1034B400010E0133D38301E0D483A646444A92F833
:1034C400203063B1444B45491B78D08B51F82320FD
:1034D4003C235343CA68B3FBF2F3984218D33C4BE2
:1034E40060B24FF000020228DA830DD004280FD115
:1034F4005A689968136A99420ADA9368526A013BD6
:103504009A4205D24D1C03E09B68002BC8BF5D1E88
:103514002F4B83F820E0B5F1FF3F0CD02E4B2F4901
:103524001B7851F823204FF4C8735343CA68B3FB84
:10353400F2F32B4AD3602A4AD3680BB1013B3EE035
:10354400284B1B68002B3BD0B5F1FF3F38D1204AF4
:1035540092F91C30002B33D1002E31D1906852687F
:10356400136A984210DA9368526A013B9A420BD26A
:103574001D4BB3F934101D4BB3F900206FF0F90360
:103584009B1A9942B8BF451C00280ADD164BB3F9B3
:103594003420164BB3F9003032339A4201DD451E14
:1035A40002E0B5F1FF3F0BD00B4B0C491B7851F8EF
:1035B400232042235343CA68B3FBF2F3084AD3607F
:1035C400284670BDE8F900201CFA0020E0F3002032
:1035D400F4E5002008DF0020ACFA0020A4730608FC
:1035E40050DC00200CDF002058E5002088E100209A
:1035F4002DE9FF41984C6368002B00F0A3812369F7
:10360400964A01332361964B40F6B8301F68954BB8
:10361400D3F80080944B196807234B4313800E237F
:103624004B43924A136001F05DF9237D0BB1A0680E
:1036340001E0FFF7F9FE884BB0F1FF3F58621BD061
:103644009A68904218D0002A07DB5B681B6A9A428A
:1036540003DC10460021FFF7A3FC7F4B586A5A682D
:103664009860936AC3180028536205DB136A984272
:1036740002DC0121FFF794FCFEF792F97A4B764EB7
:103684001B69B06298422DD0794B1D68002D29D159
:10369400784A74681268E36961690092C91AA26978
:1036A4002069FEF7CDF872682C46938B5169108A15
:1036B400C91A128B89B20095FEF704F94FF0FF3056
:1036C4002946FFF76DFC08E0916820468C4214BF40
:1036D40000210121FFF764FC01345F4A53681B6A2F
:1036E4009C42F1DB5C4C604BA26A1A61FFF7ECFD73
:1036F400002800F0EB80BFB2C7EB08031FFA83F881
:103704005DDA63689B6A002B00F0DE805A4B1B680D
:1037140002339CB2A31E0FE02146384642460223E0
:10372400FFF7C0FB0223F8B229465FFA88F2FFF7DD
:103734008BFBA31C9CB2AB1CDDB2504B1B689C42A0
:10374400EADB454B1A685968541E1C608B6A002BCF
:1037540000F0BA80A3EBD47301EB8303DE6A434B1E
:103764005200186892FBF0F300FB13235D4200E063
:103774002D18002DFCDB384B9B6803EBD4731BB96D
:103784003F4B18883F4B02E03F4B1888394B1B884E
:10379400CA6802240293344B019000941B880132BE
:1037A40003933A483146D2B2EBB2FFF713FB334BE3
:1037B40036481A68F9B2023A0094D2B280E06368DB
:1037C4009A68196A9B6A521A93427DD22B4B1B68E2
:1037D400043B9CB2A31C0FE0214638464246022318
:1037E400FFF760FB0223F8B229465FFA88F2FFF77D
:1037F4002BFBA31E9CB2AB1EDDB21F4B1B689C426D
:10380400EADA154B1A685D68541C1C60AB6A2E6AB0
:10381400F218AB689A4257D2A2EBD47305EB830338
:10382400D96A124B1868C4F107035B0093FBF0F2EA
:1038340000FB123E084ABEF1000F9268B8BFCEEBFF
:10384400000E002CCCBF3346731E9A4220D10C4B81
:1038540018880C4B1FE0C046F4E50020ECF900206A
:1038640020FA0020E4F9002050DC0020E0F30020DE
:103874002CE6002064DC0020E8F900201CFA00207B
:1038840020DF00201CDF002024E60020E4F30020D9
:103894002F4B18882F4B1B88EA68022402932E4B67
:1038A400019000941B88013203932C48D2B25FFA32
:1038B4008EF3FFF78FFA2A4B28481A78F9B200944E
:1038C4005FFA88F3FEF7CEFFFFF716FA254B1B6964
:1038D4004F2B04D8244BB3F93620244B1A60FDF740
:1038E400E3FA40B2022819D0FDF7DEFA40B201280B
:1038F40014D01D4BB3F936201C4B1B6893420DD1D9
:103904001B49184CCB68E26853431A4A127851F8A1
:103914002220B3FBF2F3B3F5FA6F0AD9FDF7D8FA14
:10392400114BB3F93620114B1A600E4B5B68586A81
:103934000AE000F0CBFF10B9E060013804E0E3686E
:103944000A33E3604FF0FF3004B0BDE8F081C046B5
:1039540024E6002064DC002050DC0020E4F3002096
:10396400E8F90020F4E5002058E5002044E60020B2
:10397400A4730608ACFA00200246002000E00130DF
:10398400135C002BFBD17047014B18607047C04695
:1039940024E60020014B18687047C04624E6002046
:1039A400014B18607047C04664DC0020014B186866
:1039B4007047C04664DC0020014B00225A60704707
:1039C40024E60020014B00229A60704724E6002080
:1039D400014B58607047C04664DC0020014B6422F0
:1039E4005A60704764DC00201D4B70B51A681D4B8B
:1039F40005469A4207D100200146024601F028FA02
:103A0400002000F047FF184A2978137A284661F30A
:103A1400000313726B68AC68D36000231461946272
:103A240013631946343203E04369013142F8043C1C
:103A340010300432A142F7DB00210A460B4801236F
:103A4400FFF752FB0A4B5A689D60DA60FFF7B4FF38
:103A5400022000F04BFB0120FDF7C2FA70BDC04606
:103A6400D8E60020E0E1002064DC00206CDC0020CB
:103A740024E6002010B50248FFF7B6FF032010BD6E
:103A8400B4DC0020044B10B5C3F8E80003F1E400F3
:103A9400FFF7AAFF10BDC04664DC0020054A064BB0
:103AA400C2F87C0110B5196102F5BC70FFF79CFFE8
:103AB40010BDC04664DC002024E6002010B5034895
:103AC4000349FFF7EBFF032010BDC0463A72070815
:103AD40038E60020054B002210B59A60FEF740FF3F
:103AE400012000F003FB00F01DFA10BD24E60020C5
:103AF40010B5FDF7EDF9FEF773FC002000F032FA83
:103B0400002000F0F3FA76F00FFBFFF755FFFEF705
:103B140027FF0120FEF740FC00200146FDF780FF4F
:103B240000210120FDF77CFF0020FDF793FC01201C
:103B340000F0DCFA0120FDF70DFF0120FDF750FA3B
:103B4400002010BD10B579F055FEB0F1FF3F01D152
:103B5400023001E0FFF7CCFF10BDC046044B10B5A6
:103B64001A690AB100231360FFF7C2FF10BDC046F3
:103B740024E60020044B10B51A690AB1012313602E
:103B8400FFF7B6FF10BDC04624E6002010B5FFF7CE
:103B9400AFFF10BD844B70B51B68844C2360844B0D
:103BA4001B78002B00F0FF80824B9B68002B2FD1E9
:103BB400FDF77AF940B202282AD1FDF789F90120EC
:103BC40000F06EFD6FF003034028C8BF002043439C
:103BD40022687949D258B2F1FF3F10D022F07F42D7
:103BE40042F000621368C1F844325368C1F84832A5
:103BF4009368C1F84C32D368C1F8503205E06F4B7A
:103C0400C1F844326E4BC1F848326E48FFF7ECFEFF
:103C1400684C636933B10320FDF722FBFEF7C0F95A
:103C240000236361634B986818B95B68002B00F04C
:103C3400BA80604C0A21E369013393FBF1F201FB82
:103C44001232E361002A40F0AE80002800F08C803C
:103C54006368002B40F08880FFF7CAFCB0F1FF3F97
:103C640000F08280A268584B10621A60FDF730F9A8
:103C7400564BA168B3F936302362554B99420BD1A8
:103C8400544B1B68022B07DC096A0133994203D0A9
:103C9400012089B200F018FD4B4B464A1968086AA6
:103CA40001EB0013243301EB001153600B6B13F091
:103CB400010F01D0FFF70EFF434B3E4A1B689B6880
:103CC40013B35368DB6813F0020F0AD0FFF702FF47
:103CD400002000F00BFA0020FDF782F90020FDF728
:103CE40039FE3D4B334D4FF0FF321A606B685B6811
:103CF40098470446FFF760FE032C0DD0042C0BD02C
:103D0400314B1B68AB6007E09360FFF755FEFFF78C
:103D1400E1FEFFF7EDFE46E0052C44D8DFE804F0B1
:103D2400074316431B03234A002393601AE0214BE5
:103D34009B681A6A03EB02131B6B13F0010F01D18A
:103D4400FFF7C8FE1B4B00229A602CE0194B9868C1
:103D5400FFF74AFE27E01C4B1B681A6A03EB0213A9
:103D6400144A243353601EE0124D6B68DBB198682B
:103D7400C8B1114BE9695A6891FBF2F302FB1313C2
:103D84008BB9154B4FF0FF321A608047044630B9A7
:103D9400FFF7A0FE0120AC60FDF7DCFD03E0062880
:103DA40004BFEB686B6070BD0401000844E70020A9
:103DB400B0E2002024E6002064DC0020AE72070894
:103DC400913B000874DE002030FA002058E5002002
:103DD40030D900204CE7002028DC002010B5024830
:103DE400FFF702FE032010BDE0E00020084B012293
:103DF40010B5C3F85422FFF76DFE0020FDF7F0F86C
:103E0400002000F073F9FEF7ABFD042010BDC0469E
:103E140024DF0020014BB3F90000704788E1002043
:103E2400014B18607047C04688E10020014B988818
:103E34007047C04688E10020014B98807047C04617
:103E440088E10020034B002808BF1846024B986005
:103E54007047C0463CFA002088E10020014B93F9EA
:103E64000C00704788E10020014B93F90D00704766
:103E740088E100208C461146134A10B51C46B2F95D
:103E84000E30D0828342B8BFD0810B180E4998B24D
:103E9400B1F90E2003B29A420B4AC8BFC881B2F9E5
:103EA4001030488363450848B8BFA2F810C004EB3B
:103EB4000C0399B2A2F818C0B0F910200BB29A42C0
:103EC4008183C8BF018210BD88E100202DE97043C1
:103ED400114B124D124C002A14BF91469946638B24
:103EE4002A7806468846E08A218BD218A48B6B7800
:103EF400121A1B195B1A921BC8EB030300B209B216
:103F040012B21BB2FFF7B6FF2E7085F80180C5F818
:103F14000490BDE87083C046A6E1002068E6002056
:103F240088E1002010B5064B00201A785B78014622
:103F3400C2F18002C3F18003FFF79CFF10BDC046AD
:103F440068E60020034BB3F91020D88940EA022028
:103F540080B2704788E10020014BD88119827047F4
:103F640088E10020014B18607047C0463CE7002000
:103F7400014BD8847047C04688E10020014BD88C9F
:103F84007047C04688E100200048704796E1002051
:103F940070B50E4CA568540003FB04F6FDF7D4FA83
:103FA4002C20FDF7BDFA00240DE0084B93F90C30EA
:103FB400042B03D1FEF708FAC0B201E015F8010B97
:103FC400FDF7B4FA0134B442EFDB70BD88E10020A0
:103FD4002DE9F74F1C463A4BDDF8308093469E6836
:103FE4001E33B8F1000F08BF984623460BFB04F4B8
:103FF400FDF7AAFA00252C20FDF792FAA9460194B0
:10400400AA4657E02E4B2F4C93F90C3005EA0404D2
:10401400042B26D0082395FBF3F34B4408EB03074A
:10402400231E16F8010B05DA013B6FEA43736FEAAE
:1040340053730133C3F107043B78234113F0010F99
:104044001CBF1F4B93F82600FDF770FA3B783078BD
:10405400234113F0010F02D0194BDB8C180A0136EF
:104064001DE0FEF7B1F9082395FBF3F308EB090211
:10407400D25C231E05DA013B6FEA43736FEA537384
:104084000133C3F1070352FA03F313F0010F16BF10
:104094000B4BC4B2DC8CE0B2FDF748FA200A0135C0
:1040A400FDF744FA5D4508BF09F101090AF1010A67
:1040B40008BF0025019B9A45A4DBBDE8FE8FC046DE
:1040C40088E10020070000809446074A13B51C4687
:1040D40092F90C30042B05D0936862460093234672
:1040E400FDF754FB1CBDC04688E10020294B37B5C1
:1040F4001A7B054653B283424BD0042847D8DFE8E5
:1041040000F035283A031D00FEF75EF9224B2349DF
:104114001A7893F801E0002302FB0EF403E0013364
:1041240021F8020C9BB20231A342F8DB194B987BB5
:10413400197C194B5B680093734607E0154B987B19
:10414400197C154C2278637864680094FFF740FF6B
:104154001DE0104C0020FFF775FE0722A07B217C98
:104164001346FFF7B1FFA07B217CEAE7094B4FF030
:104174003C01D9811982012A09D10020FFF762FE8E
:10418400044B0722987B197C1346FFF701FF014B70
:104194001D733EBD88E1002068E600203CFA002043
:1041A4008D4B2DE9F74F1B788C4A8D4ED2F80CB00D
:1041B40052F8232032235343B168B3FBFBF301319C
:1041C400B1FBF3F203FB1215B160002D40F08E81B8
:1041D400844C94F90C300133012B40F287818248DE
:1041E4008249FDF797FC824BB4F80E809F88B3F8A0
:1041F40014A0804BB4F810901B68A5826582002B34
:104204003AD0FCF76BFEC0B243B2013B3073032BD0
:1042140018D8DFE803F00E0811024FF000036382A0
:10422400238D5B4203E04FF00002238D6282A38260
:1042340009E0238D5B4200E0238D4FF0000263828E
:10424400A28200E020B1664AD3890133D38101E020
:10425400634BD881624BD9895F4B1A785F4B53F813
:10426400222014235343B3FBFBF399425D492BBF34
:10427400052301220B850A855F4B1B681BB1584B34
:1042840093F90C3023B15B4B1B68002B40F09580F5
:1042940047F30B139FB24AF30B139DB2FDF780FB58
:1042A4003EB22CB24F4903287BD8DFE800F0025C11
:1042B40040200A684E4B96425F869D86494801DD40
:1042C400B31A03E053429E4201DAB31843824B4BC4
:1042D4009B1A9C4202DA02F5FA7306E0A2F5F8731F
:1042E400033BA3425DDCC2F5FA731B1957E0404A55
:1042F4006B42538697860A683A48944201DD131B41
:1043040004E053429C4202DAA3185B4243823B4BD3
:104314009B1A9E4202DA02F5FA7306E0A2F5F873DC
:10432400033BB3423DDCC2F5FA739B1937E0304BD3
:1043340009687A425A866A428E429A86294A01DD7F
:104344008B1B03E04B429E4201DA9B1B538201F517
:10435400FA72944201DD121B19E0C1F5FA739C4212
:104364001FDA1B1B1BE00968214A7B428C425586DD
:1043740093861C4A01DD631A03E04B429C4201DA36
:104384006318538201F5FA72964203DD921B154BB2
:104394009A8206E0C1F5FA739E4202DA9B1B114A27
:1043A4009382104A9188B2F9123093FBF1F353824D
:1043B400B2F9143093FBF1F393820A4C267B032E5B
:1043C40020D10F4B1B68002B00F09080B4F9120031
:1043D400B4F91410984789E0ACFA0020A4730608D5
:1043E40068E6002088E100209EFA0020A0FA002060
:1043F40058E5002008DF00200CDF00200CFEFFFF42
:104404003CE70020E389628A218AD218A38A92B207
:104414005B18E18AE2819DB212B20BB29A42B8BF34
:10442400E18133492582488BB1F90E2003B29A42C7
:10443400C8BFC8812E482AB2018B0BB29A42B8BFBA
:1044440001822B49888BB1F9102003B29A4273B2CE
:10445400C8BF0882022B23D0042B21D0244AD3893D
:10446400984502D1138A99451AD00020FFF7EAFC37
:1044740007221F4C13465FFA88F05FFA89F1FFF7B1
:1044840087FD07221346A07B217CFFF71DFE194BF5
:1044940007225B68A07B217C00931346FFF798FDFD
:1044A400134A92F90C30042B20D1D389984502D1B8
:1044B400138A99451AD00F4C0D4D0020FFF7C2FC0A
:1044C400227863785FFA88F05FFA89F1FFF760FD7C
:1044D40022786378A87B297CFFF7F6FD227863783D
:1044E4006468A87B297C0094FFF772FDBDE8FE8F09
:1044F40088E1002068E600204FF0010C2DE9F0412E
:1045040016469846624603E00A2303FB0CFC01327C
:10451400B242F9DBB8F1000F04D1002902DA4942B2
:10452400012700E0002700220D46144627E0B5FBD2
:10453400FCF3D9B2069B2BB972B921B9731E9C4204
:1045440014D100E042B9B8F1000F05D1002F14BF17
:104554002D23202300F8013B0A22B1FBF2F302FBD6
:104564001313303300F8013B012202E0202300F84A
:10457400013B0A230CFB11550134BCFBF3FCB44290
:10458400D5DB00230370BDE8F081C046002382B070
:104594000193194609E0019A0A235343114AD35A55
:1045A400CB1899B2019B01330193019B092BF2DDD6
:1045B4000A23B1FBF3F31B051B0D4FF434625A437A
:1045C4000949120BB1F900305200B3F1FF3F01D198
:1045D4000A8003E05B1003EB52030B80024B188844
:1045E40002B0704770E70020B4E10020002382B0DD
:1045F400019319460AE0019A05235343174A0133EC
:1046040032F81330C918019B01330193019B092B24
:10461400F1DD0A2391FBF3F31B051B0D4FF4346208
:104624005A430F4B1213C2F5AF6253434FF4E07277
:1046340093FBF2F303F5C2420A4BA8321B7933B160
:1046440009235343052293FBF2F303F5FA42642052
:1046540092FBF0F080B202B07047C04670E70020D1
:10466400A086010078E60020014B18717047C0460F
:1046740078E6002007B500930123FFF73DFF0EBD48
:1046840007B500930023FFF737FF0EBD014B1878E1
:104694007047C046ACFA00200048704714740708FD
:1046A4000A2804D800F1805303F5D85305E02A28DA
:1046B40001D9002004E0034BC3189B001B8898B267
:1046C4007047C046051B00100A2804D800F1805327
:1046D40003F5D85303E02A2803D8024BC3189B00E0
:1046E40019807047051B0010A0F10803B3F59C7FE7
:1046F4003CBF014B1950704700D80020A0F10803BB
:10470400B3F59C7F02D2024B1858FFE77047C046AE
:1047140000D8002010289CBF014B43F8201070479C
:1047240060DA0020102803D8024B53F82000FFE77A
:104734007047C04660DA00200D4B2DE9F0411E6839
:10474400074600257359B3F1FF3F0CD023F07F4394
:1047540043F0006420683946FBF744FD20B1043D72
:1047640015F5807FEED100242046BDE8F081C046D7
:1047740044E7002007B50820012100F033FF4FF47F
:104784008073ADF8043004238DF8073001A9013B90
:1047940007488DF8063000F07DFD4FF48071044821
:1047A40000F0CCFD01280CBF022001200EBDC04644
:1047B400000C01400A4970B504230A4C0825CB704B
:1047C400013B8B700D80204600F064FD2046294695
:1047D40000F0B4FD012814BF0020012070BDC046C4
:1047E40052E700200014014010B50446002000F0F8
:1047F40083FE002000F07AFE631EDBB2042B88BF28
:104804000324204B1C70631E042B0BD8DFE803F039
:1048140003060D1217004FF4403008E04FF48030C7
:10482400002110E0174B03221A704FF480304FF42C
:10483400802108E04FF480304FF4002103E04FF46E
:1048440080304FF4801100F047FE012000F04EFE4E
:10485400392000F0FFFE0028FAD0022000F04CFEC0
:1048640000F054FE0828FBD1074800F061FE074B16
:10487400621E33F81220064B1A8003F580631A80F7
:1048840010BDC046ACFA0020B0FA00209C1A0708FC
:104894002038004001289CBF014B58747047C04623
:1048A40080E60020034BDA68986840EA022080B270
:1048B4007047C04680E60020034B5A68186840EAF7
:1048C400022080B27047C04680E60020014B187C6D
:1048D4007047C04680E60020014B587C7047C046B4
:1048E40080E6002040F6FE739842034B8ABF40F6F0
:1048F400FF7218801A807047B8E100202DE9F0415A
:104904007F48804A002386B005935169049303933A
:10491400836C93FBF1F201FB123201338364002AAE
:1049240040F0EB807849059A8B889B180593039A8D
:10493400CB889B180393049A0B890A319B18049320
:10494400724B9942EFD1059B0A2293FBF2F3059334
:10495400039B4FF47A7C93FBF2F30393049B694F1C
:1049640093FBF2F30493049BDDF81480C3F57E609B
:10497400039B049A1F309B1A0CFB03F3039E93FBC7
:10498400F0F5059C3B88039A5D499A42ACBF00222E
:1049940001220A74002A7DD0331B0CFB03F36FF051
:1049A4000E0293FBF0F35A4340F23A2303FB052330
:1049B4000CFB08F2A3F59643C83B92FBF0F293FB81
:1049C400FCF54FF4F5735343A3F56C53353BAA221E
:1049D40002FB05324B7C92FBFCF0022B2AD04E6C7E
:1049E40046B33F28A0F140040CDCCB6B4A6BC3EB0D
:1049F4000C03C2F1400293FBF2F363435B1B03F528
:104A040091630BE00B6C8A6BC3F57A73C2F14002BD
:104A140093FBF2F303FB045303F55273BB61394B6D
:104A24004FF47A729B69434393FBF2F006FB05F360
:104A340093FBF2F520EAE07425EAE575FCF7B0FF94
:104A4400032806D8DFE800F0020C100822462946A5
:104A54000EE0002211460BE0C5F18002214607E07A
:104A6400C4F180012A4603E0C4F18002C5F180014B
:104A7400234B1C60264C5D609A60D9604FF0FF3375
:104A84002360FCF70BFA40B2012809D1FDF750FA74
:104A9400206005E04FF0FF330B604B608B60CB6010
:104AA40017494B7C012B04D0022B26D177F050F808
:104AB40023E0832D21DC0B7C13B91C461D4617E033
:104AC4008B68CA6823EAE3737F2BB4BF1D467F2536
:104AD400CB6C22EAE2727F2AB4BF14467F243BB136
:104AE40000230093086D2A46496D2346FDF78AFF8B
:104AF400034B1A7C1D655C65DA6406B0BDE8F08181
:104B040080E60020B8E1002070E70020D4E7002010
:104B140028DC0020034B4FF0FF321860024B1A6070
:104B24007047C046D8E60020DCE1002070B50120C3
:104B3400FFF7B6FD1C4B1B78002B30D01B4B4028D5
:104B4400D4BF014600211A686FF003034B43D058C9
:104B5400B0F1FF3F25D020F07F4444F00064144AB4
:104B6400236800255363636828469363A368D3636B
:104B7400E36813640F4B1D600F4B1C600F4B1D60EB
:104B8400FCF72EFA2846FFF7B1FAFDF7E9FE2846AE
:104B9400FCF7E0FE2846FFF77DFE63689847012096
:104BA40001E0FFF71BF970BDB0E2002044E70020EC
:104BB40074DE0020E4E5002028E600202CE6002036
:104BC400022010B5FBF79AFD012010BD022010B59C
:104BD400FBF7A8FD012010BD2DE9FF411E467E4BC9
:104BE40004461B680F465B689046C31803F0030530
:104BF400FCF7D6FE032800F2EC80DFE800F0023771
:104C040070AF681C744965016EB10A682023009373
:104C14000197CDF8088052F8300005F0E0018022B9
:104C2400FDF7EEFD09E00A682023009352F83000F6
:104C340005F0E0018022FDF715FE640149F6D62552
:104C44009F2122468023204604F11F060095FDF78C
:104C5400D9FE80210B46324620460095FDF7D2FE50
:104C640000953046802132469F23B0E05A49681CA3
:104C7400C4F1030376B109685A0120230093019714
:104C8400CDF8088051F8300002F0E0028021FDF7F1
:104C9400B7FD0AE009685A012023009351F8300057
:104CA40002F0E0028021FDF7DDFDC4F1030464019C
:104CB40049F6D6252146802223469F2004F11F066B
:104CC4000095FDF79FFE802021460246334600955D
:104CD400FDF798FE0095802031469F2276E03E49FC
:104CE400681CC4F1030376B10A68590120230093B8
:104CF4000197CDF8088052F8300001F0E001E0227D
:104D0400FDF77EFD0AE00A6859012023009352F85A
:104D1400300001F0E001E022FDF7A4FDC4F103043A
:104D2400640149F6D6256FF01F0122464FF0FF3388
:104D3400204604F11F060095FDF764FE4FF0FF3195
:104D44000B46324620460095FDF75CFE0095304642
:104D54004FF0FF3132466FF01F0338E0681C1E49E4
:104D640065016EB10A68202300930197CDF808808D
:104D7400E02152F8300005EA0102FDF741FD09E0A7
:104D84000A6820230093E02152F8300005EA01026A
:104D9400FDF768FD640149F6D62521464FF0FF3240
:104DA40023466FF01F0004F11F060095FDF72AFE4D
:104DB4004FF0FF302146024633460095FDF722FEB0
:104DC40000954FF0FF3031466FF01F020B46FDF7A0
:104DD40019FEBDE8FF81C046D8E6002010B50123C6
:104DE4004FF6FF7141F6F8720446FFF7F5FEFCF743
:104DF40095F910F0FF0F02D10220FCF731FA0E4BA7
:104E04001A685368E31803F0030302EBC302D06883
:104E140080B10A4C4FF0FF33236080472368B3F11D
:104E2400FF3F07D1FCF73AF840B2012802D1FDF761
:104E34007FF8206010BDC046D8E6002028DC0020A2
:104E44004FF6FF7110B50A460023FFF7C5FE10BDEB
:104E5400064B10B51B68441C43F8341003EBC40321
:104E64005A6080B2FFF7ECFF10BDC046D8E60020C0
:104E74001C491D4B0A1D1A604FF0FF330B601B4B7E
:104E840010B5186890B1002019491A4AFFF7E0FFDD
:104E940001201949194AFFF7DBFF19490220194A71
:104EA400FFF7D6FFFBF720FC174910E01049114A21
:104EB400FFF7CEFF01201549104AFFF7C9FF144937
:104EC4000220104AFFF7C4FFFBF70EFC1149A1F5BD
:104ED4000063002808BF19460F4A0320FFF7B8FFF4
:104EE40010BDC046DCE10020D8E60020A8DA00208E
:104EF40044270708314B0008442F0708D14B00080A
:104F040044370708C54B000844470708444F0708BF
:104F14004457070844670708214F000810B5FBF7FA
:104F2400E3FBD0F1010038BF0020FBF7BFFB0A4BC5
:104F34001B681BB1FBF7D8FB084902E0FBF7D4FB65
:104F44000749A1F50063002808BF1946054A032054
:104F5400FFF77EFF012010BDA8DA002044470708B0
:104F640044670708214F0008F7B52C4E2C4C316BD1
:104F74006368F76A93FBF1F201FB12320133636059
:104F8400002A49D1FFF7A8FC022845D0FFF79EFC70
:104F94000546B0B1FFF790FCC0F30F23842B0CD966
:104FA400C0F34213032BF36201DD0323F3621B4AB4
:104FB400D36A002B1EDA00231BE04FF0FF33F362A9
:104FC40018E0FCF7EDFC3368A06098420BD0019523
:104FD40006E0019880B2FFF733FF019B0133019390
:104FE400019B032BF5DD0E4B0C4A9B6813604FF0BD
:104FF400FF33D362094BDB6A9F420DD0B7F1FF3F09
:1050040002D0B8B2FFF71CFF044BD86AB0F1FF3FDF
:1050140002D080B2FFF7E2FEFEBDC046DCE1002014
:10502400D8E6002043680A6823F4702323F48073CD
:1050340013430A7910B543EA02234360CB688A68B4
:1050440084681A43084B04EA03031A434B7942EA7F
:10505400430282600B7CC26A013B22F47002DBB221
:1050640042EA0352C26210BDFDF7F1FF19B1836831
:1050740043F0010302E0836823F001038360704777
:1050840019B1836843F4807302E0836823F4807366
:1050940083607047836843F0080383607047C046A9
:1050A4008068C0F3C0007047836843F004038360E2
:1050B4007047C0468068C0F38000704719B18368A8
:1050C40043F4A00302E0836823F4A00383607047E1
:1050D400036882B023F0010303600023036043608C
:1050E4008360C3602E4B0190984233D011D83C3B6F
:1050F400984229D006D8283B984221D014339842AC
:105104004BD11FE0274B984220D01433984244D10E
:105114001EE0254B98422CD008D8A3F5677398421B
:105124001DD003F56273984237D11DE01F4B98429E
:1051340029D0143398422BD0283B98422DD11DE01E
:105144001B4A12E01A4A15E0194A18E0184A1BE0F3
:10515400174A1EE0164A536843F470031CE0144ACD
:10516400536843F0706317E0124A536843F00F0327
:1051740012E0104A536843F0F0030DE00D4A5368FF
:1051840043F4706308E00B4A536843F4704303E04C
:10519400084A536843F47023536002B07047C04612
:1051A4006C000240440002401C04024044040240DB
:1051B40000000240000402408A680B6A10B51343E1
:1051C4000A69046813434A6924F4FE4413438A6950
:1051D40024F0F0041343CA6913434A6A13438A6AE6
:1051E400134323430360CB6843600B6883604B68BD
:1051F400C36010BD19B1036843F0010302E0036802
:1052040023F00103036070471AB1036841EA030302
:1052140002E0036823EA010303607047406880B238
:105224007047C04610F0805F14BF044B044B1B68EA
:1052340003420CBF002001207047C0460004024016
:105244000000024010F0805F14BF024B024B586014
:105254007047C046000402400000024010F0805F26
:1052640014BF044B044B1B6803420CBF00200120F5
:105274007047C046000402400000024010F0805F06
:1052840014BF024B024B58607047C04600040240F2
:1052940000000240F0B5CD780E8815F0100F18BF4D
:1052A4008B7805F00F0718BF1F4316F0FF0F20D0AF
:1052B40004684FF0000C012303FA0CF303EA06011F
:1052C400994210D14FEA8C020F23934017FA02F24D
:1052D40024EA0303282D43EA020401D1416102E0D8
:1052E400482D08BF01610CF1010CBCF1080FE2D19B
:1052F4000460FF2E21D944684FF0000C01230CF107
:105304000802934003EA0601994210D14FEA8C0245
:105314000F23934017FA02F224EA0303282D43EAE9
:10532400020401D1416102E0482D08BF01610CF182
:10533400010CBCF1080FE1D14460F0BD836819424F
:105344000CBF002001207047016170474161704724
:105354000AB1016100E041617047C04621B1038890
:105364009BB243F0010304E0038823F001031B0410
:105374001B0C03807047C04621B103889BB243F4E1
:10538400807304E0038823F480731B041B0C0380E4
:105394007047C04621B103889BB243F4007304E014
:1053A400038823F400731B041B0C03807047C0465E
:1053B40021B103889BB243F4806304E0038823F49F
:1053C40080631B041B0C03807047C0460182704736
:1053D400008AC0B27047C04612B141F0010101E039
:1053E40001F0FE01018270470346808A1B8B80B264
:1053F40040EA034020F07F40884214BF002001208F
:105404007047C04630B5C37890F800C04BB31A4B10
:105414004178DA68194DD243C2F30222C2F104037F
:1054240099400F23D34082780CF0030013400B43C0
:10543400C0001B01FF22824083404FEA9C04C03419
:1054440055F82410134021EA02010B4345F8243097
:105454000CF01F02012393404FEA5C1145F8213000
:1054640009E00CF01F02012393404FEA5C11034A48
:10547400203142F8213030BD00ED00E000E100E0D1
:1054840030B5114DEB68DB43C3F30223C3F10404CD
:10549400A140FF2434FA03F31A400A43C0F38111F4
:1054A400C0F30120C000844012018240063155F847
:1054B400213023EA040345F8213055F821301A43FA
:1054C40045F8212030BDC04600ED00E0014B1860D6
:1054D4007047C04620000E42034B5A6822F47C12E7
:1054E400104308435860704700100240014B186095
:1054F4007047C04660004242034B5A6822F00302E0
:10550400104358607047C04600100240024B586870
:1055140000F00C007047C04600100240034B5A686C
:1055240022F0F002104358607047C0460010024059
:105534001F4910B54B68044603F00C03042B02D03A
:10554400082B14D101E01B4B12E04B68C3F38343D7
:105554009A1C4B6813F4803F01D1174B05E04B684C
:1055640013F4003F14BF154B124B534300E0144B8C
:105574000F48236043681349C3F30313CB5C2268C9
:10558400DA4062604368C3F30223CB5C32FA03F36C
:10559400A3604368C3F3C223CB5CDA40E260436890
:1055A400C3F38133C9180B7CB2FBF3F2226110BD43
:1055B40000100240001BB70000093D00808D5B0015
:1055C40000127A006C6F070821B1054A536940EA5A
:1055D400030303E0024A536923EA0003536170475B
:1055E4000010024021B1054A936940EA030303E035
:1055F400024A936923EA0003936170470010024052
:1056040021B1054AD36940EA030303E0024AD3699E
:1056140023EA0003D36170470010024021B1054A18
:10562400D36840EA030303E0024AD36823EA000391
:10563400D36070470010024021B1054A136940EA63
:10564400030303E0024A136923EA0003136170476A
:10565400001002404309012B02D1084B1B6805E0EE
:10566400022B0BBF054B054B1B6A5B6A00F01F0046
:1056740033FA00F000F001007047C0460010024009
:1056840007B5002301933120FFF7E4FF019B0133A9
:10569400019318B9019BB3F5A06FF4D13120FFF742
:1056A400D9FF003818BF01200EBDC046034A9388B5
:1056B4009BB243F0100393807047C046002800401B
:1056C400034A938823F010031B041B0C9380704738
:1056D40000280040034B988B1B8B80B240EA0340A8
:1056E4007047C0460028004010B50446FFF7DEFFAF
:1056F400034A230CA4B213839483FFF7E1FF10BD84
:1057040000280040064B074900221A605A609A603C
:10571400DA605A629A62DA629963DA637047C04661
:1057240000800140FF07C000C268836810B51343BE
:105734000269084C1343426861681343426921F4C7
:10574400FC41134321F0FF0102780B4313436360D0
:1057540010BDC04600800140014B18607047C04630
:10576400A0003042044A136823F003031360136853
:10577400184310607047C04600800140024B18680F
:1057840000F003007047C0460080014021B1054A83
:10579400D36B40EA030303E0024AD36B23EA00031A
:1057A400D363704700800140014B18607047C046C6
:1057B4008C053042036810B5084CA36042688368C6
:1057C400E1681343C26821F4FE611343026921F0C6
:1057D4000F0113430B43E36010BDC046008001403A
:1057E400014B1869C0B2704700800140014BC0589A
:1057F4007047C04614800140036810B5084C6362CA
:105804004368A3628268C368E16A1343026921F0B2
:10581400F7011343426913430B43E36210BDC046CF
:1058240000800140014BD3F88000704700800140A4
:10583400014BC3F88000704700800140034B5B6B51
:1058440018420CBF002001207047C0460080014070
:10585400014B98637047C04600800140034B5B6B6B
:1058640018420CBF002001207047C0460080014050
:10587400014B98637047C0460080014021B1838B7F
:105884009BB243F4806304E0838B23F480631B04A2
:105894001B0C83837047C04622B183889BB241EAC4
:1058A400030303E083889BB223EA010383807047E8
:1058B40081817047808980B27047C046038919424C
:1058C4000CBF002001207047838BF0B523F47A636A
:1058D40023F01F031B041B0C83834FF00203038478
:1058E400838B87B09FB20B890546022B0C4602D1ED
:1058F4001946002223E08B8801A8002B0CBF012647
:105904000226FFF715FEE3882289B3F5007F01998B
:1059140004D1A3F5FB734B43120203E00A235201A3
:105924004B437243B3FBF2F305339AB20A23B2FB3F
:10593400F3F303F001021202C3F34F0192B28B1E80
:105944009BB2FE2B28BF002228BF022141EA02039A
:10595400E28813439BB22B842388628847EA0303BB
:1059640043F400631343A2881343628913439BB235
:10597400AB8307B0F0BDC046038882B003F08F0349
:1059840003800388CA889BB213434A880190134357
:105994009BB203808B8883850B8803854FF00103BA
:1059A4008382054B984203D003F50063984201D1EA
:1059B4000B7A038602B07047002C0140038C73B548
:1059C40023F480731B041B0C0384038C828823F44C
:1059D400007394B2828B1B0495B20A891B0C43EAB0
:1059E40002234A889BB243EA02231FFA83FCCB8832
:1059F4000E888387164B0190984203D003F5006309
:105A040098421BD14B894FF2FF720CEA020242EA20
:105A140003224FF6FF3302EA03038A8843EA022390
:105A24001FFA83FC8A8944F6FF7304EA030343EAFA
:105A34000213CA899BB243EA02139CB24FF68F73D6
:105A440005EA0303334384808383A0F820C07CBD2C
:105A5400002C01404FF0FF33838000230380C38078
:105A6400438003727047C0460023038043808380D1
:105A7400C380038143818381C381704721B103883B
:105A84009BB243F0010304E0038823F001039B0568
:105A94009B0D03807047C04622B183899BB241EAC3
:105AA400030303E083899BB223EA010383817047E4
:105AB400018582827047C046838B23F008031B0450
:105AC4001B0C194381837047C94389B20182704713
