S015000073616D706C655F73756E2D62746C2E73333739
S315080030000004002099750008617E0008617E0008AA
S31508003010617E0008617E0008617E000800000000ED
S31508003020000000000000000000000000617E0008AB
S31508003030617E000800000000C1430008617E0008A8
S31508003040617E0008617E0008617E0008617E0008D6
S315080030505B5B0008A55F0008617E0008617E0008CA
S31508003060A5600008D1660008496E000839410008C5
S31508003070617E0008617E0008617E0008617E0008A6
S31508003080617E0008437F00080006000058040020FF
S31508003090000000005D7F000858000000F87D000869
S315080030A00004002000000000000202024B4B4647C5
S315080030B0766572696679466962282900563A5C6CB3
S315080030C0696E6B5F73746D3332775F6275696C64B2
S315080030D05C68616C5C6D6963726F5C636F72746562
S315080030E0786D335C666C6173682E6300FFFFFFFFC3
S315080030F0FFFFFFFF46414C5345000000563A5C6C03
S31508003100696E6B5F73746D3332775F6275696C6471
S315080031105C68616C5C6D6963726F5C636F72746521
S31508003120786D335C6D6963726F2D636F6D6D6F6E4D
S315080031302D696E7465726E616C2E630000B0004076
S3150800314004B0004000B4004004B4004000B8004099
S3150800315004B800400003D803284E564D5F4C454638
S31508003160545F50414745254D46425F504147455FAC
S3150800317053495A455F42293D3D300000563A5C6C3A
S31508003180696E6B5F73746D3332775F6275696C64F1
S315080031905C68616C5C6D6963726F5C636F727465A1
S315080031A0786D335C6E766D2E63000000284E564DA2
S315080031B05F52494748545F50414745254D46425F4F
S315080031C0504147455F53495A455F42293D3D3000C6
S315080031D0286F666673657426307831293D3D300060
S315080031E0286C656E67746826307831293D3D300055
S315080031F06F66667365742B6C656E6774683C4E56AD
S315080032004D5F444154415F53495A455F42000000AF
S31508003210FEFF0000000000000000000052583A209F
S31508003220416464723D3078253034582C2056444425
S315080032303D25646D562C2052785346443D307825FA
S315080032403035582C2000000054785346443D3078D9
S31508003250253035582C20000054785346443D2D2DF2
S315080032602D2D2D2D2D2C2000525353493D256464B8
S31508003270426D2C204C51493D3078253032580D0A84
S31508003280000000004A6F696E3A20506C616E6574E2
S31508003290203078253034582028696E6465782025D2
S315080032A0642920686173206A6F696E656420746892
S315080032B065206E6574776F726B0D0A004C656176D2
S315080032C0653A20506C616E65742030782530345824
S315080032D02028696E64657820256429206861732032
S315080032E06C65667420746865206E6574776F726B9A
S315080032F00D0A000046414C5345000000563A5C6CE6
S31508003300696E6B5F73746D3332775F6275696C646F
S315080033105C73696D706C656D61635C64656D6F7314
S315080033205C73616D706C655C736F6C61722D73791B
S315080033307374656D2E630000416C72656164792053
S31508003340696E206E6574776F726B0D0A0000000057
S31508003350496E616374697665206E6F646520666F71
S31508003360726D696E67206E6574776F726B20616E19
S3150800337064206265636F6D696E6720746865207383
S31508003380756E0D0A000000007374617475733D3D17
S3150800339053545F53554343455353000053656C6577
S315080033A063746564206368616E6E656C20256420AD
S315080033B07769746820656E6572677920256420646C
S315080033C0426D0D0A0000000052616E646F6D6C79E3
S315080033D02063686F73652050414E2049443A203077
S315080033E078253034580D0A00496E6163746976652C
S315080033F0206E6F6465206A6F696E696E67206E65F8
S3150800340074776F726B20616E64206265636F6D6995
S315080034106E67206120706C616E65740D0A0000008D
S31508003420547279696E67206368616E6E656C000018
S315080034304A6F696E6564206F6E206368616E6E659B
S315080034406C20256420776974682050414E204944D1
S31508003450203078253034582E20204D7920494420B4
S315080034606973206E6F77203078253034582E0D0A10
S3150800347000000000446964206E6F74206A6F696EEC
S315080034802E202052657475726E696E6720746F20DF
S31508003490696E6163746976652073746174652E0D4F
S315080034A00A0000000D0A53696D706C654D41432092
S315080034B0282573292053616D706C65204170706CE6
S315080034C069636174696F6E3A202753756E20726F4F
S315080034D06C6527210D0A0000312E302E31000000C0
S315080034E0456E746572203F20666F72206C6973742E
S315080034F0206F6620636F6D6D616E64730D0A000040
S315080035000D0A3E20000000004175746F6D617469F4
S315080035106320706F6C6C0D0A000000004175746FB3
S315080035206D617469632073656E640D0A000000009E
S31508003530506572696F646963206D61696E74656E42
S31508003540616E6365206576656E74730D0A0000000A
S31508003550456E746572696E67204F544120626F6FBD
S31508003560746C6F61646572206D6F6465202E2E2EF3
S315080035700D0A00004E6F646520646F6573206E6FD8
S315080035807420636F6E7461696E2049415020626FC2
S315080035906F746C6F616465720D0A0000456E746520
S315080035A072696E67205561727420626F6F746C6FF2
S315080035B061646572206D6F6465202E2E2E0D0A00DB
S315080035C0556E6B6E6F776E20436F6D6D616E640D11
S315080035D00A0000000000000028386269742064654B
S315080035E063696D616C206E756D293E2000000000D0
S315080035F0456E7465726564206E756D6265723A20F3
S3150800360025640D0A000000004E6574776F726B2002
S31508003610726F6C653A2073756E0D0A004E65747785
S315080036206F726B20726F6C653A20706C616E657490
S315080036300D0A00004E6574776F726B20726F6C65A9
S315080036403A203C6E6F742061637469766520696EF2
S315080036502061206E6574776F726B3E0D0A0000005C
S31508003660526164696F3A20202020202020204F666E
S31508003670660D0A00526164696F3A202020202020D6
S3150800368020204F6E0D0A0000496E206E6574776F14
S31508003690726B3A2020205965730D0A00496E206E18
S315080036A06574776F726B3A2020204E6F0D0A000002
S315080036B04368616E6E656C3A2020202020202564C0
S315080036C00D0A0000506F7765723A202020202020CE
S315080036D0202025642064426D0D0A000045554936B0
S315080036E0343A2020202020202020307800000000B6
S315080036F0253032580000000050414E2049443A20F7
S315080037002020202020203078253034580D0A00004B
S315080037104E6F64652049443A2020202020203078C6
S31508003720253034580D0A000053656E6420526174C2
S31508003730653A2020202025640D0A0000506F6C6C25
S3150800374020526174653A2020202025640D0A000065
S3150800375053656C65637420616E20656E747279209A
S315080037606E756D6265722066726F6D20746865206D
S31508003770286163746976652920706C616E657420AA
S315080037806C6973743A0D0A00456E747279207C2050
S3150800379053686F72742041646472657373207C2069
S315080037A02020204C6F6E6720416464726573730D28
S315080037B00A000000202020256420207C200000002C
S315080037C020202020307825303458202020207C20C6
S315080037D03078000043686F73656E206E756D62659C
S315080037E072206F757473696465206F6620706C61EA
S315080037F06E6574207461626C652073636F70650D05
S315080038000A00000043686F73656E206E756D626509
S3150800381072206973206E6F7420616E20616374690B
S31508003820766520706C616E65740D0A004E6F7420A3
S3150800383061637469766520696E2061206E657477A8
S315080038406F726B0D0A0000004F6E6C792074686504
S315080038502073756E2068617320616E20696E6469D5
S3150800386072656374207472616E736D697420717504
S315080038706575650D0A000000436C656172696E67BF
S3150800388020696E646972656374207472616E736D03
S3150800389069742071756575650D0A00004F6E6C793F
S315080038A0206120706C616E65742063616E20706F94
S315080038B06C6C0D0A0000000053656E64696E672023
S315080038C0706F6C6C207061636B657420746F207305
S315080038D0756E0D0A0000000053656E6420726174EF
S315080038E065206973206E6F772025642071730D0A31
S315080038F0000000005365742073656E64207261745D
S315080039006520696E20717561727465727365636F7F
S315080039106E64732E2020726174653D3020697320B1
S315080039206F66662E2020323535206D61782E0D0A99
S3150800393000000000456E7465722027732720746F97
S315080039402061646A7573742073656E64207261748D
S3150800395065206F722027702720746F2061646A754E
S31508003960737420706F6C6C20726174653A20000065
S3150800397053657420706F6C6C207261746520696E73
S3150800398020717561727465727365636F6E64732EE8
S315080039902020726174653D30206973206F66662E3B
S315080039A02020323535206D61782E0D0A0000000082
S315080039B0506F6C6C2072617465206973206E6F7726
S315080039C02025642071730D0A000000004E6F7420D4
S315080039D0612073756E0D0A00506C616E6574205413
S315080039E061626C650D0A0000416374697665207C26
S315080039F0204461746150656E64696E67207C20534B
S31508003A00686F72742041646472657373207C202029
S31508003A1020204C6F6E6720416464726573730D0ACB
S31508003A200000000020202025642020207C200000A3
S31508003A30202020202020256420202020207C2000F3
S31508003A404E6F7420696E206E6574776F726B0D0AFF
S31508003A50000000004C656176696E67206E657477B4
S31508003A606F726B20616E64206265636F6D696E6745
S31508003A7020616E20696E616374697665206E6F6475
S31508003A80650D0A0053656E64206D792056444420FE
S31508003A906D6561737572656D656E74202825642081
S31508003AA06D562920746F206120706C616E65742EC6
S31508003AB02E2E0D0A0000000053656E64696E67209D
S31508003AC0696E6469726563746C7920746F20736CAF
S31508003AD06565707920706C616E6574203078253064
S31508003AE03458202877616974696E6720666F72207A
S31508003AF0706F6C6C2E2E2E290D0A000053656E64AD
S31508003B00696E67206D7920564444206D656173752A
S31508003B1072656D656E7420282564206D562920749B
S31508003B206F2073756E2028307830303030290D0AB2
S31508003B3000000000434D4420446573637269707445
S31508003B40696F6E202028636F6D70617469626C6599
S31508003B5020726F6C6573290D0A0000006920202009
S31508003B60446973706C617920737461747573206924
S31508003B706E666F726D6174696F6E202028626F744D
S31508003B8068290D0A0000000066202020466F726D25
S31508003B902061206E6574776F726B2020286D616BCB
S31508003BA06520696E616374697665206E6F64652049
S31508003BB0612073756E290D0A000000006C20202014
S31508003BC04C656176652061206E6574776F726B202F
S31508003BD02028626F7468290D0A00000073202020CF
S31508003BE053656E642064617461202028626F74686E
S31508003BF0290D0A0063202020436C65617220696ED6
S31508003C00646972656374207472616E736D69742079
S31508003C10717565756520202873756E206F6E6C79D1
S31508003C20290D0A007220202041646A757374207376
S31508003C30656E642F706F6C6C2072617465732020DA
S31508003C4028626F7468290D0A00000000742020207D
S31508003C50446973706C61792074686520706C616E54
S31508003C606574207461626C6520202873756E206FF8
S31508003C706E6C79290D0A00006F202020456E746548
S31508003C8072204F544120626F6F746C6F6164657265
S31508003C90206D6F6465200D0A000000007520202045
S31508003CA0456E746572205561727420626F6F746C0C
S31508003CB06F61646572206D6F6465200D0A000000EF
S31508003CC03F202020446973706C6179207468697399
S31508003CD02068656C70206D656E750D0A0000000021
S31508003CE0446972656374207472616E736D69737367
S31508003CF0696F6E20696E2070726F676573732E2008
S31508003D0020747844697265637451204E4F54206359
S31508003D106C65617265642E0D0A000000496E64695F
S31508003D2072656374207472616E736D697373696FFB
S31508003D306E20696E2070726F676573732E2020740B
S31508003D4078496E64697265637451204E4F542063D6
S31508003D506C65617265642E0D0A00000073746174E7
S31508003D6075733D3D53545F535543434553530000C4
S31508003D70563A5C6C696E6B5F73746D3332775F624B
S31508003D8075696C645C73696D706C656D61635C64A0
S31508003D90656D6F735C73616D706C655C7472616E72
S31508003DA0736D69742E6300007374617475735F6351
S31508003DB06F64653D3D53545F535543434553530024
S31508003DC046414C53450000004661696C65642061B4
S31508003DD06C6C207472616E736D697420617474659D
S31508003DE06D7074732E202044726F7070696E672030
S31508003DF0746865207061636B65742E0D0A00000097
S31508003E007478446972656374512069732066756CA9
S31508003E106C21202044726F7070696E67206E65771A
S31508003E20205458207061636B65742E0D0A000000DB
S31508003E307478496E64697265637451206973206683
S31508003E40756C6C21202044726F7070696E67206EE5
S31508003E506577205458207061636B65742E0D0A00CF
S31508003E60286261756472617465203E3D2033303086
S31508003E702920262620286261756472617465203CB3
S31508003E803D3932313630302900000000563A5C6C34
S31508003E90696E6B5F73746D3332775F6275696C64D4
S31508003EA05C68616C5C6D6963726F5C636F72746584
S31508003EB0786D335C756172742E630000AA2129003F
S31508003EC05523290000252800AA262700552827005B
S31508003ED0002A2600AA2B2600552D2500002F24008F
S31508003EE0AA3024005532230000342200AA352200C5
S31508003EF05537210000392000AA3A2000D5E6ECEF14
S31508003F00F2F4F5F7F8F9FAFBFBFCFCFDFDFEFEFF03
S31508003F10FFFF000000010101020202030000000188
S31508003F20030A000030203D3D20282828446D6141C1
S31508003F306464726573735479706529627566662957
S31508003F402026203129000000737461636B5C706859
S31508003F50795C73746D3332773130387878636C6195
S31508003F6073735C7068792D636F6D6D6F6E2E630069
S31508003F7053545F53554343455353203D3D20737473
S31508003F806D526164696F5365744368616E6E656CE2
S31508003F902873746D526164696F4368616E6E656CEF
S31508003FA0290000007278446D61576F7264436F751B
S31508003FB06E74203E20340000737461636B5C706815
S31508003FC0795C73746D33327731303878785C706821
S31508003FD0792E6300626F7468546F6B2E6966666922
S31508003FE06C7465724820213D2030786666666600E6
S31508003FF0737461636B5C7068795C73746D33327764
S315080040003130387878636C6173735C616E616C6F9C
S315080040106775652D66696C7465722E63000000000D
S3150800402010F0B0C0D00000001120304060708090C1
S31508004030A0E00000626F74682E746F6B2E6269616F
S31508004040736D617374657220213D203078666666EB
S3150800405066000000737461636B5C7068795C7374E6
S315080040606D3332773130387878636C6173735C619D
S315080040706E616C6F6775652D63656C6C2D62696121
S31508004080732E6300737461636B5C7068795C737418
S315080040906D3332773130387878636C6173735C616D
S315080040A06E616C6F6775652D76636F2E6300000011
S315080040B000002115110E0D0C0B0B0A0A0909090936
S315080040C00908080808080808070707070707070769
S315080040D00707070707000000303132333435363713
S315080040E038396162636465666768696A6B6C6D6EA8
S315080040F06F707172737475767778797A000000003C
S31508004100496E2066756E6374696F6E200000000044
S31508004110202D2D2000000000202D2D2061737365B1
S315080041207274696F6E206661696C65640A000000C6
S31508004130686C747A4C00000070B52A4842782A499F
S315080041400B685B0722D5032A20DA00EB4203848832
S315080041509C810123847803FA02F222438270027852
S31508004160224C82B1002502E06D1C032D0EDA03FAFB
S3150800417005F61642F8D045707240027000EB45000D
S31508004180808A206002E02260032242704FF6FF70A8
S315080041900860BFF35F8F70BD1248002101700321CC
S315080041A041700021C17005210181002181700F49EC
S315080041B000220A604A604FF400428A601022CA60F0
S315080041C0001D4861012088610320C8600648042153
S315080041D001644FF6FF71016005484FF40061016004
S315080041E000F00ABAF809002010A8004004D00040E0
S315080041F000E100E02DE9F0410024684D2C60684E8E
S3150800420034604FF4A040706041F29A08404600F0CE
S31508004210C8FA686844F69041081A00B24FF4487123
S3150800422090FBF1F000B200F303003060404600F066
S31508004230B8FA0827404600F0B4FA686804197F1EE1
S31508004240F8D15848211DC908B0FBF1F080B270605A
S31508004250BDE8F08138B56FF00F04534D0120A86012
S315080042602C60802000F09DFAE868FF2802D8641CBC
S31508004270102CF5DB31BD4D4881684D4A13888907F6
S3150800428048BF5B1E8168C90704D4591C89B20D2929
S3150800429008D28B1C9BB2022B38BF022313801188CD
S315080042A0016070470F23F9E710B5404C4048008875
S315080042B0206040F2DC5000F074FAA06800F00100BB
S315080042C010BD70B53B4C02202061394D0020288076
S315080042D01026F605360E288830182880FFF7E4FFE2
S315080042E010B12888801B2880002EF2D12068C007CC
S315080042F002D42888401C288028880D2834BF801CB2
S315080043000F20288070BD70B500244FF6FF76284D23
S315080043102888B0420BD102237F22274801882846E5
S3150800432000F038F92888B04208BFFFF7CAFF214EC7
S3150800433002203061FFF7B8FF316811F0020118BF9B
S3150800434001212A8800B9521C21B192B2032A24BF3E
S31508004350521E01242A802A8801B918B9D11E89B2A9
S315080043600C29E7D308B1022A06D20D2A02D2901CDC
S31508004370288002E00F20FBE70CB1FFF795FF3069B4
S3150800438040F0010030610120706101F0CBFB0B4960
S3150800439011220A60BDE8704001F0C0BB1040004021
S315080043A00C0000400060E31608400040044000404E
S315080043B0340400200C4000405C7E00080080004069
S315080043C00B48007850B1EFF30880A0F1200080F385
S315080043D0088880E8F00F0749086030BF054800687C
S315080043E090E8F00F00F1200080F30888704700007D
S315080043F0280A00202C0A00200248006880F3088852
S3150800440062B670472C0A00203748018A40F6A77220
S31508004410914209D1418A4FF47F40014204D10229D1
S315080044208041C043C00F7047002070472DE9F04710
S315080044300446884601F076FB82462A4F01203870EA
S315080044402A4DFFF7E1FF40B9E82205F1140105F10D
S31508004450080003F029FD03F026FD2348D0F828902C
S3150800446041464FF480702043C8470646504601F03F
S3150800447055FB002038700EB1705D05E041464FF4DB
S3150800448000702043C847405DBDE8F0872DE9F04736
S3150800449080468946560001F045FB8246134CFFF7D5
S315080044A0B3FF48B940F2291204F1140104F10800D7
S315080044B003F0FAFC03F0F7FC0B48456A0023324682
S315080044C049464046A8470746504601F027FB0FB124
S315080044D0385D05E03346002249464046A847005D58
S315080044E0BDE8F087560A002000000408A830000836
S315080044F080B51D4840F20731016072B61B490A684B
S3150800450022F001020A601A4911220A6019491A4A58
S315080045104A601A4A8A604FF078424A61184A8A61A4
S31508004520184ACA61184A194B13604FF08033536012
S315080045309360D360E023136110220A614FF4E022EE
S315080045400A624069800609D5114800220270086887
S3150800455040F080500860FFF74FFFFEE701F0E2FAEF
S3150800456062B6012002BD00BF18000040FCED00E065
S315080045700080004004ED00E0003000080004FA0561
S31508004580F8F8F84080F8408000E400E08080408039
S31508004590280A002030B583B0044610467F2808BF95
S315080045A00020B1F5004F19D108237F2240F61201E9
S315080045B000A8FFF7EFFF08220D4900A800F0B1F99F
S315080045C030B908237F2240F2A27100A8FFF7E2FF64
S315080045D0082200A9204600F0A2F937BD1A46054D63
S315080045E0294300FB0311204600F099F937BD000066
S315080045F0EC30000800000408E0B50A237F2273485F
S31508004600018800A8FFF7C6FFBDF806004FF6FF7140
S31508004610884208D16E48372200F1080103F044FCAD
S3150800462003F041FC07BD6B494A68002AFBD1C0224A
S315080046308A6001220A6000220A604A68002AFCD1C0
S315080046400A69C860022008600020086048680028D7
S31508004650FCD107BD6048016821F00101016070477F
S31508004660F8B516461F46069C5C4D286C20F00800D7
S31508004670286401F057FA390341EAC61141EA840170
S3150800468041F00101544A11600821296001F046FAF7
S315080046900020F2BD514802681207FCD508220260C4
S315080046A04F48006808800020704730B583B0022361
S315080046B07F224C48018801A8FFF76CFF0020009074
S315080046C0022303220021FFF7CBFF00F035F8BDF8DF
S315080046D0064000200090022301220146FFF7C0FF92
S315080046E000F02AF8BDF80650002000900223024682
S315080046F00146FFF7B5FF00F01FF83748016821F0BB
S3150800470001010160BDF804004FF6FF7188420EBF33
S315080047104FF4E1600A2190FBF1F0ADF80400BDF812
S315080047200600001B0004291BB0FBF1F0BDF80410BD
S3150800473048434000000C3EBD0DF106010020A9E7E4
S3150800474010B5294CFFF7B1FF40F68C218842206846
S3150800475034BF40F0080020F00800206010BD10B5F6
S3150800476082B0044602237F222048018800A8FFF76A
S3150800477011FF9DF801009DF80010FF2903D1FF28BD
S3150800478004BF042000210CB1801CC0B20828A8BFB1
S3150800479007200829A8BF072141EAC0101449086064
S315080047A013BD14490A68144B1B68DB0758BF400839
S315080047B0032809D34B6D43F001034B650B689B1A1D
S315080047C01B031B0B8342F9D370470000547E000875
S315080047D0F4300008E81000400470004018A00040BB
S315080047E000700040587E000800BC0040567E000855
S315080047F018000040382000401C40004010B5040056
S3150800480004D110BD4FF47A70FFF7CBFF2046441E43
S3150800481080B20028F6D110BD164801210160704704
S3150800482010B58208144B53F82220136800F00300D1
S3150800483080000F248440A34301FA00F01843106057
S3150800484010BD80B50D48102101600D480221016098
S315080048500C484FF400610160FFF7CCFC0A480721B9
S31508004860016000210164094810210160002002BD91
S3150800487000000000086000403C31000880E100E0CC
S31508004880080000400C60004014A0004000E100E071
S3150800489080B54248016821F0100101600020FFF749
S315080048A05EFF00F011F8FFF7D5FCBDE80140FFF701
S315080048B0C8BF80B501F036F939480021016041606A
S315080048C038483949016001BD80B5FFF765FCFFF737
S315080048D037FFBDE80140FFF716BD81B209B94BF6AF
S315080048E0EF61324A1180000C08BF4FF6CE20508087
S315080048F070470288130448BF4A405100018090B2AD
S31508004900704738B5294C62212046FFF7F2FF054665
S3150800491041F20B01A01CFFF7ECFF684032BD02F024
S3150800492047BE80B502F0B0FE40B202BD38B5204B96
S315080049301B68204CA3422DD102282BD24FF00053DE
S31508004940D0B91D4909781D4A148A40F6A775AC42A4
S3150800495010D1528A4FF47F4422420BD1032A09D13F
S315080049608A1E022A06D2164A02EB410131F8041CB5
S31508004970D98009E0012032BDA1F10B04E4B2102C64
S3150800498028BF0F215971DA800E4919601871FFF78F
S3150800499090FFEFE70228EDD3022032BD00BC0040AD
S315080049A01C4000400CED00E00400FA053604002027
S315080049B008ED00E000300008980704080000040825
S315080049C0543100084D2001B0DFF884030068DFF891
S315080049D0841309686FF0FF02DFF87C33984213D11D
S315080049E011F1010F01D1042070476FF47F00814255
S315080049F001D10220704711F1807F01D10320704751
S31508004A0091421ED10520704710F1807F03D1914253
S31508004A1008D10620704710F1010F07D1994210D12D
S31508004A200820704799420CD107207047904208D158
S31508004A30994201D10920704711F1807F01D10A20DE
S31508004A407047002070472DE9F04780460F46144608
S31508004A50DFF8089340F2FF3ADFF8F45215EA0A0F36
S31508004A6007D0532209F12401484603F01DFA03F042
S31508004A701AFADFF8E06216EA0A0F08D0542209F19A
S31508004A80240109F1540003F00FFA03F00CFAF807B1
S31508004A9008D5562209F1240109F1780003F004FA31
S31508004AA003F001FAE00708D5582209F1240109F1B3
S31508004AB0880003F0F9F903F0F6F9E019B0F5806F0C
S31508004AC008D35A2209F1240109F1980003F0ECF9F8
S31508004AD003F0E9F96408FFF777FF401E032805D9B4
S31508004AE0001F03280DD9001F012815D878190021A1
S31508004AF0A142BEBF30F8112028F81120491CF7DB67
S31508004B0015E0B8190021A142BEBF30F8112028F8D7
S31508004B101120491CF7DB0AE000214FF6FF7002E07E
S31508004B2028F81100491CA142FADB012000E0002008
S31508004B30BDE8F087F8B5044601256D1E04EB852609
S31508004B40374600203978FF2906D031460220FFF77C
S31508004B506DFC48B94FF48060401C7F1CB0F5806F2F
S31508004B60F0D3002DE9D10020F2BD00002DE9F54F64
S31508004B7083B00E46794D40F2FF34DFF8D48118EA47
S31508004B80040F08D040F20B1205F12401284603F061
S31508004B908BF903F088F9DFF8BCA11AEA040F09D0EB
S31508004BA04FF4867205F1240105F1540003F07CF9EF
S31508004BB003F079F9F00709D54FF4877205F1240156
S31508004BC005F1780003F070F903F06DF9BDF81000EF
S31508004BD0C00709D54FF4887205F1240105F188004C
S31508004BE003F062F903F05FF9BDF81040A019B0F5BB
S31508004BF0806F09D34FF4897205F1240105F19800F5
S31508004C0003F052F903F04FF9FFF7DEFEBDF8101076
S31508004C10C1F58061891B091F4FEA510B3419311FF1
S31508004C2049080191411E032905D9091F032918D9E5
S31508004C30091F01291AD8474655464FF007090A2879
S31508004C40FDD8DFE800F0072D31353F515D61697BFE
S31508004C507F00F4E73846FFF76DFF60B105B0BDE8A1
S31508004C60F08F574645464FF00309E8E7574645464D
S31508004C704FF00309EEE72846FFF75CFF0028EDD161
S31508004C8000F073F80028E9D100F07EF80028E5D195
S31508004C9000F066F80028E1D100F085F80028DDD19B
S31508004CA000F068F80028D9D100F075F80028D5D1A9
S31508004CB0B9F1030F01D10020D0E72846FFF73AFFE4
S31508004CC00028CBD100F051F80028C7D100F05CF8D5
S31508004CD00028C3D100F044F80028BFD14FF47F4024
S31508004CE000F05AF80028B9D14FF47F40ADF800001B
S31508004CF0012200A908F10200FFF7C8FB0028ADD180
S31508004D0000F049F80028A9D1B9F1070FD3D02846F1
S31508004D10FFF710FF0028A1D100F027F800289DD141
S31508004D2000F032F8002899D100F01AF8002895D139
S31508004D304FF47F4000F037F800288FD100F01AF8BA
S31508004D4000288BD1002000F02EF8002886D1AFE786
S31508004D5000F8010800FC01080000FFFF58310008B0
S31508004D605A4639192819FFF791BB019A391D281D8A
S31508004D70FFF78CBB4FF47F40ADF80000012200A975
S31508004D800AF10200FFF782BBBDF81000420803993A
S31508004D907019FFF77BBB0020ADF80000012200A9BF
S31508004DA05046FFF773BBADF80000012200A9404644
S31508004DB0FFF76CBB38B5DFF8B44A00206070E070C6
S31508004DC02071FFF79EFD60710020A071E071DFF889
S31508004DD0A00A00210170DFF89C0A01700024DFF8A0
S31508004DE0985A0C20604300214155401941800821FA
S31508004DF0001D02F07BFC641C052CF2DB4FF6FF70ED
S31508004E0001F041F94FF6FE7001F039F900F0B2FEF3
S31508004E10BDE8314000F0C7BE8001B0FBF1F0FF28C5
S31508004E2088BFFF20C0F1FF00C0B27047F0B59DF9FA
S31508004E301440DFF8385A6D78C5B1DFF8405A2E7835
S31508004E40A6B906E0771916F800C087F801C0761CDF
S31508004E50F6B20778B742F5DA85F88110C5F88420E6
S31508004E6005F284008380847101202870F0BD2DE945
S31508004E70F04FA3B0002500274FF6FF78AA46DFF8C3
S31508004E80009A01A809F104010CC90CC0DFF8EC6905
S31508004E903078002800F0758170780A2806D3B07833
S31508004EA000F00701012902D0032978D067E1102113
S31508004EB08DF8021040065CBF0125022707F1100491
S31508004EC0E4B2B819B919F278882A06D08C2A70D0B3
S31508004ED0C82A66D0CC2A75D051E1817A407A40EA50
S31508004EE0012A07F10A04E4B21DB1B07A717A41EADF
S31508004EF000287178A142EFDBDFF870596879401C09
S31508004F0004EB060BDFF8704903AF9DF802209BF807
S31508004F1001301A43102A14D0112A6AD0122A00F036
S31508004F209580132A00F0B480142A00F0F780152A19
S31508004F3000F0FF80162A00F00A81342A00F0FE806D
S31508004F401DE106F28404C91CC9B2A088FFF764FFF4
S31508004F50E071D6F884309BF802009BF8031040EA0B
S31508004F600122514609F10C0002F068FC9BF8060084
S31508004F70000632D59BF8060000F07F008BF8060085
S31508004F809BF804009BF8051040EA01209BF80610E0
S31508004F9040EA014109F1380002F050FC21E03021D5
S31508004FA086E70822093101A802F002FB002D9CD1F0
S31508004FB09FE7017CC07B40EA012A002D99D0307C0E
S31508004FC0F17B94E708220F3101A802F0F1FA07F104
S31508004FD01604E4B2002DF2D18BE709F1480002F07D
S31508004FE02DFCE27994F9061009F1580002F026FC26
S31508004FF0C5E04FF0000802E000F0CCF8F8DA0C2122
S3150800500001FB084109780029F6D11A218DF80C1000
S31508005010012100F0B9F8FF20387100F0C7F801F057
S3150800502034F8B87301F031F8000AF87301F02FF874
S315080050300146082207A802F0BBFA022038760023A8
S3150800504003AA4FF6FF7100F021FA98E0A878002825
S3150800505040F097800120A870404601F014F8182007
S315080050608DF80C0061207870CC20B8706879401CE7
S315080050706871F87001F009F8387101F006F800F067
S3150800508094F801F004F800F08AF80320B875D6E71A
S315080050904FF0050A00A9B9F800200A801A218DF8F0
S315080050A00C10612100F070F800F0EFFF387100F085
S315080050B0ECFF00F07AF800F0EAFF00F070F84FF025
S315080050C000080C2000FB08F0015DD1B9012101554B
S315080050D02979491C29710019C9B24180082201A9F8
S315080050E0001D02F065FA4FF0040A29798DF80010C0
S315080050F000208DF80100424609F1740002F09EFB7B
S3150800510002E000F047F8DCDB87F816A09DF80000FF
S315080051108DF823009DF80100387690E79BF8020089
S315080051209BF8031040EA012000F0A9FF0120E8706F
S3150800513025E04FF6FF7000F0A6FF20E096F8810004
S31508005140E8B10120FFF75AFB00F0B4FD17E04FF075
S31508005150000802E000F01EF811DA0C2000FB08F542
S31508005160285D0028F6D0281940885045F2D14246D5
S31508005170514609F1AC0002F061FB002028550020D9
S31508005180307023B0BDE8F08F7970CC21B9706871A2
S31508005190F870704708F10108B8F1050F7047082242
S315080051A001460DF11A0002F003BA000A78710822C6
S315080051B001A90DF1120002F0FBB980B5DFF820094C
S315080051C04FF40A7200F1080102F06EFEBDE80140D4
S315080051D002F069BE2DE9F04182B0DFF8084900A85F
S315080051E0216801600025201D02F028FB02F00EFB55
S315080051F002F00CFB80A60FF20428FFF70DFBFFF761
S3150800520036FE00F048FD02F001FB0746002F0FD4DA
S315080052100D2F01D00A2F03D1304602F00FFB03E011
S315080052203946404602F00AFB00A82F546D1CEDB221
S315080052300D2F18BF0A2F01D0042DDED300208DF8BC
S3150800524003000A22002100A802F054FAC5B2294632
S3150800525004F11C0002F0F2FA2846BDE8F6812DE9B1
S31508005260F04100F014FF064663A7384602F0E6FA56
S31508005270DFF87488DFF87458687838B100F001FFF1
S31508005280002814BF08F11400404601E008F12C007C
S3150800529002F0D4FA287801280CBF08F1580008F162
S315080052A06C0002F0CBFA6878002814BF08F1800079
S315080052B008F1940002F0C2FA00F0D3FE014608F1A4
S315080052C0A80002F0BBFA00F0D8FE014608F1BC00BF
S315080052D002F0B4FA08F1D40002F0B0FA082404E0A7
S315080052E0A15D08F1E80002F0A9FA2046411ECCB2F9
S315080052F00028F5D1384602F0A1FA00F0C6FE0146AC
S3150800530008F1F00002F09AFA00F0BBFE014608F236
S31508005310081002F093FAA97908F2201002F08EFA22
S31508005320E97908F23410BDE8F04102F087BA2DE9B0
S31508005330F84F0B264FF07F0B00F099F9DFF8A0879E
S31508005340DFF8A857687820B108F1440002F076FA29
S315080053504BE008F15C0002F071FAFFF72BFD00F054
S315080053607AFE002028700B2408F2940A6FF07F0951
S31508005370E0B200F074FE28B140F2E52200F037F8FA
S3150800538002F091FD20274FF48070FFF70AFA00F02B
S3150800539083FE8145B8BF81467F1EF4D1D945BCBF7F
S315080053A0CB462646641C1B2CE0DBF0B200F057FE09
S315080053B028B140F2F92200F01AF802F074FD5A46B4
S315080053C0314608F1A80002F039FAFFF79AFA00F018
S315080053D05AFE00F05AFE014608F1D40002F02EFAF1
S315080053E0287900F04CFE01206870BDE8F18F08F1BD
S315080053F00801504602F058BD0D0A0000256300005A
S3150800540030B5A1B000F033F9DFF8E406DFF8DC4682
S31508005410617811B902F012FA31E0143002F00EFA8E
S3150800542000F02FFE28B30C208DF8000000AD4120B7
S3150800543000F055F98DF8040000F027FE000A68719F
S315080054400020E88000F01DFE287200F01AFE000A0F
S315080054508DF80900062000F014F800F078FB0546E0
S31508005460FFF705FD00F017FC00F071FB401BC8288C
S31508005470F6D3FFF79FFC00F0F0FD0120207021B065
S3150800548030BD8DF80A00002300AA0021012000F093
S315080054904FBCF0B5A1B004460D46164611208DF84E
S315080054A0000000AF6120787088208DF80200DFF8D0
S315080054B03C064179491C41718DF8031000F0E5FD61
S315080054C08DF8040000F0E1FD000A78718DF80650A9
S315080054D0280A8DF8070000F0D4FD387200F0D1FDD7
S315080054E0000A8DF8090000208DF80A008DF80B4097
S315080054F0200A8DF80C0000207873ADF80E000D23F5
S3150800550000AA2946304600F013FC21B0F0BD2DE96B
S31508005510F84F8046DFF8D0A50AF2481002F08EF957
S315080055200AF2801002F08AF900260FF2A02B0C244A
S31508005530DFF8449304FB06F515F80900D0B13146A7
S315080055400AF2AC1002F07AF94D4469880AF2B810EA
S3150800555002F074F9082705E0781901790AF1E800DC
S3150800556002F06CF93846411ECFB20028F4D15846ED
S3150800557002F064F9761C052EDCDBFFF72BFE052806
S3150800558005DB0AF2CC1002F059F900200BE0604363
S3150800559010F8091011B90AF2FC10F4E748444088DB
S315080055A0A8F800000120BDE8F28F38B5044600F0DF
S315080055B0F5FD0546AD480089ADF800007CB9DFF871
S315080055C034452946204602F039F900A8FFF79FFF1F
S315080055D058B1BDF8001004F1340002F02FF900228A
S315080055E0BDF800102846FFF754FF31BD38B504460C
S315080055F000F0D4FD054624B92946DFF8FC0402F07C
S315080056001DF9012200212846BDE8384041E710B5BA
S31508005610040007D100F02BF89448407810B9DFF859
S31508005620DC045BE100F02DFD0028204602D1BDE830
S315080056301040BAE7BDE81040D8E710B500F017F8F3
S31508005640DFF8A444DFF8A404407810B904F2242053
S3150800565044E100F016FD10B104F24020F8E704F228
S31508005660702002F0EBF8BDE8104000F09CBA57A095
S3150800567002F0E4B830B5A1B07C4CA0B9FFF7F7FF4B
S31508005680DFF86454607820B905F2242002F0D6F8D1
S3150800569023E000F0F6FC10B905F29420F6E705F2CF
S315080056A0B02002F0CBF80C208DF8000000AD632086
S315080056B000F015F8287100F0E8FC000A687100206F
S315080056C0ADF8060000F0DDFC287200F0DAFC000AEE
S315080056D08DF809000420FFF7D4FE21B030BD6870AC
S315080056E088208DF802006079401C60718DF80300EF
S315080056F000F0CBBC2DE9F84334A6304602F09EF8FC
S31508005700DFF8E493DFF8E443607820B909F224204F
S3150800571002F094F857E009F2D02509F2EC2800F0D7
S31508005720B0FCD0B9A07104F10800FFF7F0FE20B96B
S31508005730A179284602F082F845E0404602F07EF854
S31508005740FFF748FDA0710146284602F077F800F0F9
S31508005750F8F9A179401A608135E009F22C3002F097
S315080057606DF8FFF759F8FFF782FB00F094FA02F09C
S315080057704DF80746732F18BF702FF2D1304602F046
S315080057805DF8702F0CD0732F1DD10020A0712081D9
S31508005790404602F053F8FFF71DFD0146A171D3E715
S315080057A00020E07109F2683002F048F8FFF712FDB0
S315080057B0E071014609F2A83002F040F800F0C1F99C
S315080057C0E179401AA081BDE8F18300000D0A0000C6
S315080057D02DE9F84300F046F8DFF80C8323484078B3
S315080057E020B908F2242002F029F839E000F049FC33
S315080057F010B108F2C430F6E708F2D03002F01EF80D
S3150800580008F2E03002F01AF80026DFF86C900C2057
S3150800581000FB06F515F8091008F21C4002F00EF810
S315080058204D44688800F002FB014608F5856002F0E1
S3150800583005F8698808F2B81002F000F8082705E0AC
S315080058407819017908F1E80001F0F8FF3846411E99
S31508005850CFB20028F4D100F006F8761C052ED6DB68
S31508005860BDE8F1839DA4204601F0E8BF3A04002074
S315080058700B0400200D040020BC0900202808002085
S315080058801032000810B5FFF7F2FE9D4CFFF7EBFF4C
S3150800589004F1280001F0D2FF04F1540001F0CEFF14
S315080058A004F1880001F0CAFF04F1A80001F0C6FF60
S315080058B004F1C00001F0C2FF04F1F00001F0BEFFE0
S315080058C004F2181001F0BAFF04F2441001F0B6FF12
S315080058D004F2681001F0B2FF04F28C10BDE8104023
S315080058E001F0ACBF2DE9F04F83B0FEF7D1FF0123DD
S315080058F0002208214FF4E13000F0BAFA0921042009
S31508005900FEF78EFF09210520FEF78AFF7D480A214A
S3150800591001607D4C6020A06500F0D8F800F011F910
S31508005920824600F005F9DFF8B89109F2E41109F2A8
S31508005930B01001F083FF022100A800F0AFFB009829
S31508005940FEF7CBFF012000F0A5FB684E307800F08B
S3150800595077FB48B140F21C5209F1080109F194009D
S3150800596002F0A2FA02F09FFA09F2EC1001F066FFC3
S315080059704BF20B0BDFF89481654D03E0FFF76FFCE4
S3150800598000F0A4F809F20C2001F058FFFEF744FFD6
S31508005990FFF76DFA00F07FF900F0D3F80746F079C3
S315080059A060B1B189791A89B2884207D2B78109F2FA
S315080059B0142001F043FF0120FFF75CFEB07960B1C7
S315080059C07189791A89B2884207D2778109F2282023
S315080059D001F034FF0120FFF71AFE00F0B2F828782C
S315080059E048B100F0A9F8B8F80010401A80B2C928E2
S315080059F024BF00202870A7EB0A0080B2F1280FD335
S31508005A0009F23C2001F01AFF00F02DFB08B100F066
S31508005A102CFBFEF730FCFEF793FE00F092F8824668
S31508005A2001A800F0FFFA0028B0D009F280279DF8F7
S31508005A3004000A28A4D00D28A2D03F2840D0632805
S31508005A401AD066280ED0692898D06C280DD06F28F1
S31508005A501BD0722813D073280AD0742812D0752840
S31508005A6023D030E0FFF763FC8AE7FFF7C9FC87E736
S31508005A700020FFF7CCFD83E7FFF7DFFD80E7FFF7A0
S31508005A8039FE7DE7FFF7A4FE7AE709F25C2001F00C
S31508005A90D5FE012000F05DFA5A460F210120FEF7D7
S31508005AA045FF384601F0CAFE6AE709F2A82001F068
S31508005AB0C5FE012000F04DFA5A460F210020EEE7F8
S31508005AC0FFF7E0FE5CE709F2CC20EBE70820206050
S31508005AD010484FF400410160704700000D0A0000AD
S31508005AE0F4320008D4350008083600083A040020C5
S31508005AF0403A0008843A0008FC3A00082C380008A6
S31508005B00343B000818BC004014A800400E040020CE
S31508005B100D04002080E200E07047000080F3118841
S31508005B2070470000EFF31180602181F311887047F8
S31508005B30002181F31188704780B500F008F880B21B
S31508005B4002BD80B500F003F8C0F30F2002BD064879
S31508005B500168406840EA014070470448072101602F
S31508005B6003480121017070471060004014A00040EE
S31508005B70570A002010B5B348C17831B1017921B16F
S31508005B80B148BDE8104001F059BE00218170AF4A06
S31508005B900024882303FB01231C70491C0529F8DB14
S31508005BA00470447010BDA748C178002905D0017952
S31508005BB0002902D1A64801F041BE00218170A548FE
S31508005BC0017070479F480178491CC9B2052928BF4A
S31508005BD00021017070479B484178027922B1491C1F
S31508005BE0C9B2052928BF00214170704710B59948E8
S31508005BF00178E9B14178D9B1924CE178C1B900F0A0
S31508005C0043F8002121710121E1700421A17008B136
S31508005C1000F037F800F032F838B18F48802200F1EA
S31508005C20140102F041F902F03EF9A078401EA07076
S31508005C3010BD10B5834C6078882148438349425C7F
S31508005C40012A1AD1E278C2B9401800F01DF80121DC
S31508005C502171E1700421A17008B100F012F800F07A
S31508005C600DF838B17C489A2200F1140102F01CF9AB
S31508005C7002F019F9A078401EA07010BDE06800F087
S31508005C80F6B9012000F0F7B9A060011DE160D0F86F
S31508005C9084002061704710B5FFF7A8FFFFF7C9FF1A
S31508005CA0684C606928B16D4801F0C8FD6069401EFE
S31508005CB0606110BD67480121417097E738B5144601
S31508005CC0604A12788823614D03FB02552A780AB187
S31508005CD0634829E0012200F020F8002C1ABF601959
S31508005CE0001D0020C5F8840001202870BDE8314059
S31508005CF068E738B51446574D2A780AB1594813E06B
S31508005D0000F00BF8002C02D06019001D00E00020FE
S31508005D10C5F884000120287031BD6A70688008784B
S31508005D20421C281D01F044BCBDE8324001F086BD86
S31508005D3010B50C4611461A460028204602D0FFF731
S31508005D40BDFF01E0FFF7D5FFBDE81040A3E770B53A
S31508005D5015463C4CA1682269A3783F4E50B14028AD
S31508005D601AD088283ED089283FD08D282ED08F2853
S31508005D7005D03DE00870E070BDE870402BE70020D4
S31508005D800870E070FFF727FF002D3BD001206071F7
S31508005D90FFF7D2FEE08070BD9BB10AB1FFF771FF35
S31508005DA0FFF76CFF48B14FF48D7206F1140106F146
S31508005DB04C0002F079F802F076F8A078401EA07040
S31508005DC070BD6069401C60610020D3E7002BF8D0E5
S31508005DD00AB1FFF756FFFFF751FF0028EDD040F252
S31508005DE02B12E2E740F2351204E04FF49C7201E010
S31508005DF040F23B1206F1140106F1640002F054F871
S31508005E0002F051F870BD0F490A6910700A69C0F3AB
S31508005E10072353700A69C0F30740907008698178B0
S31508005E2041F080018170002000F025B909494A88AF
S31508005E30904204D10878002802D00120704700203B
S31508005E407047000008040020E03C000858040020C1
S31508005E501C3D0008B40800205C3D0008C83D000849
S31508005E60003E0008303E0008E0E7002070470000CA
S31508005E70F8B507460E4614461D46A7F596706049BE
S31508005E80884207D35F482C2200F12C0102F00CF857
S31508005E9002F009F85C4800EB5700B0FBF7F05B49E5
S31508005EA000F001028A6140084861072E0CBF0020F5
S31508005EB00220012C08BF40F0180003D0022C08BFAE
S31508005EC040F0080005F00F02022AA8BF40F00400BF
S31508005ED08860012008604E48002101804180818049
S31508005EE009210920FEF79CFC04210A20FEF798FCEC
S31508005EF048480121C164016C46F209021143016454
S31508005F004FF6FF710160444820210160F1BD10B5CC
S31508005F100023012804D0022802D04FF0FF3010BD1C
S31508005F203E48002904D1C1684906FCD5002010BDA9
S31508005F308469012CF1D106E0C4686407FCD511F820
S31508005F40014B04605B1C1446621E002CF4D11846F3
S31508005F5010BD71E02DE9F0410C46904610B14FF0A6
S31508005F60FF301DE000262E4F294D14E0FFF7DAFD1D
S31508005F706988C95D04F8011B6988491C8A1101EB07
S31508005F805262D211A1EBC2116980A988491EA98063
S31508005F90FFF7C4FD761CA88808B14645E6D3304607
S31508005FA0BDE8F08170B51B480168026C02EA01047D
S31508005FB01B49174A194B002C1AE0DC681D68EDB21C
S31508005FC0382634420ED194887F2C0BD21688755405
S31508005FD0751CAE1105EB5666F611A5EBC6151580B0
S31508005FE0641C9480DC68A407E7D40468056C2C401C
S31508005FF005D0046046F209052C42F3D1F5E770BDD9
S31508006000D50E0E00603E000800366E0154C80040EA
S31508006010400A002008A8004000E100E03CC8004013
S315080060203C09002080B5012201460020FFF792FFB7
S3150800603000B10120C0B202BD00220021012066E79E
S3150800604080B51F490978C90701D4B02002BD00F000
S31508006050C4FB002002BD00F064BC00F02DBC00F0BB
S315080060604DB900F00BBA00F093BF00F039B900F053
S31508006070DDBAFFF76CBE00F0EABC00F075BA00F0B6
S31508006080CABC00F0C5BC00F0CEBC00F0C9BC07E035
S31508006090FFF7EBBE00F0CFBC00F072BC00F030BFDB
S315080060A00848704738B5084C2068216C01EA000595
S315080060B0ADB2680748BFFFF72FFD256031BD000068
S315080060C09B070408300A002008A0004070B582B07B
S315080060D0044615460819A0F1080600F0A9FC20B1E7
S315080060E02078032824BF801E2070F07800F07CFA00
S315080060F096F90210663149B200910346707900F0AC
S315080061000F00B179090241EA0040F17941EA00023B
S3150800611029462046FEF78AFE73BD000010B500F03A
S3150800612014F81040C84010BD10B500F00EF8D4435E
S3150800613020401140084380B2D86002201860002031
S31508006140186058680028FCD110BDDFF824345C6854
S31508006150002CFCD19860012018600020186058684F
S315080061600028FCD118697047DFF80804DFF808141E
S315080061708A780AB149780FE089566FF00802914289
S31508006180B8BF302108DBC16D39B140F24A31C26D62
S31508006190B1FBF2F189B2C91E016070477CB50223D2
S315080061A07F22DFF8D803018801A8FEF7F3F901205A
S315080061B000900423032200210020FEF751FA00F084
S315080061C034F8BDF806400120009004230246002159
S315080061D00846FEF745FA00F028F8BDF806500120F3
S315080061E000900423002211460846FEF739FA00F00B
S315080061F01CF8BDF80660FEF72DFABDF804004FF648
S31508006200FF7188420EBF4FF4E1600A2190FBF1F05E
S31508006210ADF80400301B0004291BB0FBF1F0BDF8F3
S31508006220041048434000000C76BD0DF1060100201D
S31508006230FEF730BA2DE9F04182B00546DFF838435B
S31508006240A581B5F5004F19D102237F22DFF8300367
S3150800625000F086F9BDF80000000AFF2800D000B952
S3150800626018206070BDF800000006C00E10281CBF7C
S31508006270001D00F006F9BDF80000C54305F0010849
S31508006280C5F3400708EB4800BE4946184FF4F852D4
S31508006290B0780102E020FFF747FFBB48016841F4E8
S315080062A0004101604FF440527078010389B2202002
S315080062B0FFF73AFF404601F0A3F84022B901A020B3
S315080062C0FFF732FF17B915F0040000D00120A070BF
S315080062D0FFF74AFF0020BDE8F681A7488089704786
S315080062E010B5AA480078AA490A880123A0F10B0428
S315080062F0A3401A430A80BDE81040FFE72DE9FE4F88
S315080063008046A8F10B05ADB200F037FB8146A8F12F
S315080063100B00C0B2102802D38A20BDE8FE8F9D4F1D
S31508006320B868000702D43868C00701D58C20F4E79E
S31508006330964C84F80080984E30680C2801D10020CD
S31508006340EBE7607838B9706A40F400507062706A9A
S3150800635020F48050706291480078012808BF00F048
S31508006360E0FA8F48D0F800A08E484FF4C06101606B
S31508006370386A20F002003862A800001D0290042244
S31508006380014600A8FEF75FFB9DF800008DF80700A0
S315080063909DF801008DF806009DF802008DF80500AD
S315080063A09DF803008DF804007F4830F82500F06159
S315080063B048F2607B6078C0B1C6F824B0386A20F02D
S315080063C0010038620120FEF7ECF9386A40F0010056
S315080063D038626420FEF7E5F9706A20F4805070622E
S315080063E0706A40F40050706202E0404601F079F8A5
S315080063F029460DF1010000F0DDFF29460DF10200E6
S3150800640000F008FE2A4600A90DF1030000F02AFE56
S315080064109DF800009DF80710884211D19DF80100EB
S315080064209DF8061088420BD19DF802009DF80510CC
S31508006430884205D19DF803009DF80410884204D0CF
S315080064400422029900A8FEF791FB0AF4C060544999
S31508006450086000F0C9FB386A40F0020038626078CC
S3150800646020B1C6F824B06420FEF79BF9FEF7F2F8CF
S31508006470B9F1010F01D100F01FFA60E7434800782F
S3150800648070472DE9F04186B004466FF02A00844231
S3150800649001DA8B205EE014237F22444800F060F87E
S315080064A0BDF810004FF6FF71884204D00E2108424D
S315080064B018BF012606D13F220021F020FFF72EFE45
S315080064C0054600263A482C49042C0FDA0022394B97
S315080064D001E0521CD2B2D756A742FADB02600F700F
S315080064E00020002407464FF003080EE0092CD0DAF6
S315080064F0625C02600C7014237F222F4800F030F88B
S315080065000320012401274FF0280826B14FF6BF7251
S31508006510BDF8101018E04FF46052C10200F01DF8E3
S315080065204FF4E062210200F018F88022F90100F029
S3150800653014F885F0200008EB0005ADB2402DA8BF81
S315080065403F253F2285F02001A020FFF7EDFDFFF74C
S315080065500BFE002006B0BDE8F08189B2A020E3E575
S31508006560018800A8FEF716B8034890F9000070479E
S31508006570E81000406410004020040020587E0008FF
S315080065805A7E00081C3F00081C10004054040020D6
S31508006590540A002060200040AC1000404F04002040
S315080065A000E100E080E100E0BC3E0008507E000803
S315080065B0C0100040FC3E0008527E000810B5DFF807
S315080065C0D844207878B100202070DFF8D00401681C
S315080065D021F4805101600022E1684020FFF749FD5F
S315080065E0A068401CA06010BD010603D54FF67F7158
S315080065F00840C000704738B5DFF89C44DFF8A404AB
S31508006600417871B1C178E2785518ADB20079854202
S31508006610A8BF0546FEF775F90121A940491E08409D
S3150800662000E00020A080A088C0B232BD38B505467B
S31508006630C00708D5DFF87004FB2200F1240101F039
S3150800664033FC01F030FCDFF86444206DC00701D547
S315080066508C2032BD202020626560256060687F300E
S31508006660606004202062DFF8300400210170DFF842
S31508006670345429780029A16F14BF41F0010121F093
S315080066800101A167697849B10021C170206D40F008
S3150800669004002065A06F40F0080006E0206D20F099
S315080066A004002065A06F20F00800A067FFF7A3FF8D
S315080066B0A06468790028206D14BF40F0080020F017
S315080066C008002065206D40F001002065002032BDDD
S315080066D02DE9F041DFF8D8637068716C01EA0004AF
S315080066E0A4B27460DFF8C473DFF8AC536878002886
S315080066F04DD1DFF8B083E00719D53868396C7A6C64
S3150800670042EA0141E96098F8002062B140788006C3
S3150800671009D5012028704FF480503060306C40F461
S315080067208050306403E000220020FFF7A2FC200618
S315080067300CD5287830B1002028700022E96840205E
S31508006740FFF797FC306C20F480503064E00616D5CD
S31508006750E878401CE87098F80210C0B2884207D260
S31508006760FFF749FFB864386D40F00100386506E068
S3150800677000F0C3FB002201468D20FFF77AFC2007B4
S3150800678005D5386C796C41EA0040FFF73CFBA0065A
S315080067900ED5386D00F0010038652020386268781B
S315080067A030B900F0AAFB002201468820FFF761FCF9
S315080067B0600608D5687830B900F09FFB00220146CC
S315080067C08920FFF756FC687828B14FF440700442D8
S315080067D004BF0120A870BDE8F08170B50446DFF853
S315080067E0D4520020E871DFF8D00200210160DFF8FA
S315080067F0CC621521F160092101651F214160012143
S315080068000166FFF76AFDFFF715FD00F009FA00F0CB
S31508006810F5FB00F0DAF8288900F0FDF8688900F041
S3150800682002F9706840F040007060A87800F0B5F88A
S31508006830E87800F0BEF8687800F0DEF8DFF8800245
S3150800684090F90000FFF71DFE287800F00FF995F97A
S31508006850040000F017F9687900F0EDF8A87900F05F
S31508006860F6F8306840F001003060DFF8580200782A
S31508006870FFF744FD48B18C4840F2F11200F12401BB
S315080068804C3001F011FB01F00EFB8F4DF12028640E
S315080068907820E86300F0A8F98C484FF4807101600D
S315080068A0012C02D1BDE8704006E04FF6FF71296061
S315080068B04FF4C061016070BD70B5854D2E68B6B2E3
S315080068C07C4CE07901282BD0FFF72CF948F2D0014F
S315080068D029606A68520509D548F222022A606A6860
S315080068E0D205F5D529606A685207F1D42E60794930
S315080068F04FF4C0620A6078490A6A22F001020A6205
S315080069000A6822F001020A600A6842F002020A6076
S315080069104A6A42F001024A620121E171FFF7FEF874
S3150800692070BD70B5634CE07930B3FFF7FBF80546E8
S315080069306A48012101605A4E306D40F00100306509
S315080069400020E07100F050F920203060306B40F0F4
S3150800695002003063F06D40F00800F0652846FFF746
S31508006960DDF8C820FDF71DFF57484FF6FF71016097
S3150800697056484FF4C061016070BD4E48C0797047F3
S3150800698057480068C0F38F109A3800B210F1800F8C
S31508006990B8BF6FF07F0040B27047524900280A68B6
S315080069A014BF42F0120222F012020A6041498870AE
S315080069B070474C4900280A6814BF42F0800222F04A
S315080069C080020A603B49C8707047474847494A7879
S315080069D00B7803EB02220260CA788B7803EB02225B
S315080069E042604A790B7903EB02228260CA79897977
S315080069F001EB0221C16070473A4900280A6814BFB2
S31508006A0042F0200222F020020A602A4948707047A4
S31508006A102848008970472749088135490860704722
S31508006A20244840897047234948813249086070479D
S31508006A30314800787047194900280A6814BF42F49B
S31508006A40005222F400520A601A49487170471E49DA
S31508006A5028B108220A600A6C42F0080202E00A6CB1
S31508006A6022F008020A6413498871704713490028FE
S31508006A700A6814BF42F0020222F002020A600D49B7
S31508006A800870704700F19A010904890A1B4A1160C7
S31508006A900849087170470000180A002040A0004005
S31508006AA03020004000040020243F00081020004049
S31508006AB000A00040480400205C10004080200040F0
S31508006AC0200400205404002004A0004000E100E057
S31508006AD01C10004080E100E06020004028100040C3
S31508006AE00C1000408420004098200040300A002006
S31508006AF09420004090200040560400205410004086
S31508006B0038B50446274D214600F055F8E860211DA2
S31508006B1000F051F8A86004F1080100F04CF868602C
S31508006B2004F10C0100F047F8286031BD38B5044679
S31508006B301C4DEA68214600F03BF8AA68211D00F0C2
S31508006B4037F86A6804F1080100F032F82A6804F197
S31508006B500C010020BDE8384001F083B9F8B50446B9
S31508006B60114D80202860114E0620306007202860CD
S31508006B7030688007FCD5002704EB870100F01BF876
S31508006B80A8627F1C042FF7D330684007FCD500267F
S31508006B902A6B04EB860100F00BF8761C042EF7D35B
S31508006BA0F1BD0000383000400030004010A0004021
S31508006BB0002001F056B9002001F061B97FB50446FE
S31508006BC00D46FEF7AFFF064600A8FFF7AFFF2846BB
S31508006BD0FFF796FF2046FFF7C1FF00A8FFF790FFD3
S31508006BE03046FEF79BFF7FBDDFF8C803102101631F
S31508006BF0DFF8C4130A6842F001020A60DFF8BC1322
S31508006C0001F2140202600122026301F29E01816010
S31508006C1002210163DFF8A8034FF6FF710160704790
S31508006C2080B5DFF8A00345F26401C1601E21416208
S31508006C3050210162C821C1618165F021C16545F60F
S31508006C4090014166882181660621C16644F2066183
S31508006C5001604FF6FF714160DFF86C03007838B1C8
S31508006C60DFF8680348F2607101604FF4C151416072
S31508006C70D748016841F00401016000F078F9D54968
S31508006C80088001BD2DE9F8430446CC4D8A2000FB57
S31508006C90045000F215004278037803EB02239BB2F6
S31508006CA003F44042CC4E36782E709B0635D5CB4E33
S31508006CB0F36C1B0631D567194FF480684FF40069E9
S31508006CC0B2F5404F03D1C01DFFF7E2F909E0B2F56E
S31508006CD0004F16D1017AC07900EB012080B2FFF788
S31508006CE0C3F870B1706CC00606D400F018F803D06B
S31508006CF0F06A40F00100F0620120B8703068E86080
S31508006D000BE0706CC00606D500F009F803D0F06AEF
S31508006D1020F00100F0620020B870BDE8F183306B06
S31508006D2004B1C84610EA080F70472DE9F04E82B044
S31508006D300446A24E8A2000FB046000F2140BA84DFC
S31508006D40002C0CBF28686868C0B241005FFA81F958
S31508006D50052808DAA3484FF4D67200F1140101F0A9
S31508006D60A3F801F0A0F809EB0B0010F8081D42780B
S31508006D7002EB01211FFA81FAA6F806A001793181F2
S31508006D8031780170984FF86B20F48050F863686E7C
S31508006D9000060CD59BF80100800608D50AF4A04029
S31508006DA0B0F5A04F03D191480168491C01604FF422
S31508006DB0E4501AEA000F3BD1FFF73AFE10B15FEA3A
S31508006DC04A4035D59BF80000802831D2A4B93868E6
S31508006DD0400516D4686BADF80000286BADF80200C4
S31508006DE0009830617089401C7081A01982784946E4
S31508006DF05846FFF76BF920E0012CEBD138680005FF
S31508006E00E8D57B48017859B1002101709BF801004B
S31508006E10000900F00102774801688F20FFF729F979
S31508006E20002C0CBF4FF480604FF40060386004E01B
S31508006E30FFF7C4FBB088401CB080002C0CBF0120B3
S31508006E4002202861BDE8F38EF8B55D4C2068216CF8
S31508006E5001EA0005684E25E0A80645D468063BD435
S31508006E60E80416D5376D25F480554FF48050206018
S31508006E7008203065706D000509D5B06920F001005D
S31508006E80B061B06940F00100B061FFF797FBBFB28F
S31508006E903765A80406D5FEF790F925F400554FF492
S31508006EA00050206035B3280706D50020FFF7EAFE14
S31508006EB025F0080508202060E80606D50120FFF71A
S31508006EC0E1FE25F010051020206005F0600060281E
S31508006ED0C2D13068C00507D525F04005402020609E
S31508006EE00120FFF722FFD4E725F0200520202060A7
S31508006EF00020F6E700202060F1BD3848006870479A
S31508006F0070B58AB004460D4600200090002303227F
S31508006F100146FDF7A5FB1EE0002601A800F023F8B0
S31508006F2005A800F020F8B61C102EF6DB05A901A866
S31508006F30FFF744FE00202080218801AA8218527893
S31508006F4001ABC35C03EB022251402180801C102850
S31508006F50F2DB6D1EA41CEDB2002DDDD1FDF77AFB28
S31508006F6001200AB070BD31180020FDF793BB00B5AB
S31508006F7083B000200090042302220021FDF770FB55
S31508006F8001A9FFF7F1FFFDF765FBBDF804000EBD8B
S31508006F9070B50024FFF7EBFF05460E4E305F29B2A9
S31508006FA0401A00F0A4FFB0F5CD7FC4BF3580012498
S31508006FB0204670BD002000408420004000070020C5
S31508006FC000A000404C10004055040020D01000409E
S31508006FD080200040500A0020540400203820004039
S31508006FE020200040A43F000804A00040480A0020D2
S31508006FF0180A0020240A00206820004008237F225F
S31508007000024801880248FDF7C5BA00BF5E7E00083F
S31508007010300A002010B584B00A237F220C48018864
S3150800702000A8FDF7B7FA4FF6FF74BDF80000A042B6
S3150800703007D10848672200F11C0100F035FF00F06F
S3150800704032FF2246BDF800101020FFF76DF81FBD6D
S31508007050547E0008D43F00083F22410089B2202010
S31508007060FFF762B82DE9F34F97B0784C7848007867
S31508007070002814BF606A206980B2039017980078C8
S315080070804FF67F7101EA000618990978039B5B1C85
S315080070908B4203DB039B5B1E994201DA012100E068
S315080070A00021012303FA02F2ADF80A20000608D4EB
S315080070B068480088BDF80A20104202D1002900F06D
S315080070C0BC80E06C80B20690206880B20590624D64
S315080070D0E86A80B204904FF6FF7200211120FFF78C
S315080070E01DF880464FF6FF720021A020FFF716F81C
S315080070F083464FF40040206000202861686148F20A
S31508007100020000F0BDF84CF68C30E06448F2F0005E
S31508007110E8624FF4805211461120FFF705F84FF642
S31508007120FF720021A020FEF7FFFF00F0AEF802A9CB
S3150800713000F0B3F800F0B4F80DF1060100F0ADF870
S315080071404CF69C30E0640020FFF786FF0020009094
S3150800715006231A46C021FDF783FA0026B0B2FFF7C8
S315080071607BFF00F092F807A800EB460100F095F8BF
S31508007170761C202EF2DB00F08FF81020FFF76CFF4C
S3150800718000F08EF800F088F8BDF80400BDF8061087
S31508007190401ABDF83C10BDF80820891A404301FB87
S315080071A001094FF0100A112700F062F800F078F88C
S315080071B000F072F800F052F804DB8146BA467F1CEC
S315080071C0202FF1DB1FFA8AFABAF1100F0FD10F2719
S315080071D000F04EF800F064F800F05EF800F03EF8B3
S315080071E005DB8146BA46781E07B2002FF0D54FEA6E
S315080071F04A0086B20698E064059820600498E8621A
S315080072004FF6FF7241461120FEF78EFF4FF6FF72CA
S315080072105946A020FEF788FF01202861002000F0CB
S315080072202FF817980670189803990170094800886E
S31508007230BDF80A108843074908803F2231462020B6
S31508007240FEF772FF19B0BDE8F08F0000C0100040CD
S3150800725055040020520A002018100040BDF804000A
S31508007260BDF80610401A404306FB0600484570471D
S3150800727007A830F81700BDF80810461AB8B2EBE6AA
S31508007280286040F24C40FDF78CBA00200090062397
S315080072900622C021FDF7E4B901A90020FDF7FAB9D5
S315080072A00020009006230722C021FDF7D9B9000067
S315080072B04FF4FE52810189B2B020FEF735BF30B5D2
S315080072C083B0494C002060602060FDF7C3F900F0E8
S315080072D017F801A90020FDF7DDF9BDF904504FF6AE
S315080072E0FF7060602060FDF7B5F900F009F801A9A4
S315080072F00020FDF7CFF9BDF90400281A00B23EBDFB
S315080073000020009006230922C021FDF7A9B92DE91E
S31508007310F84F364CA06A00902568354E3768DFF876
S31508007320D4803548007818B148F26070C8F8000073
S315080073300220A0620120206040F24C40FDF731FA9D
S315080073400120F06030604CF24C00C8F83C00002088
S31508007350FFF7AEFFFFF7B3FF82467F20FFF7A8FFD0
S31508007360FFF7ADFF8346504600F0C1FD8146AAEB04
S315080073700B0000F0BCFD82460020C8F83C00BFB2F6
S315080073803760F06002202060ADB2256000A8008852
S31508007390A06240F24C40FDF704FAFE2000FB09F01B
S315080073A01FFA8AF1B0FBF1F080B2401CC003000C52
S315080073B0BDE8F28F70B50446012000FA01F5207881
S315080073C00E4E010602D43188294206D0FFF79FFFE8
S315080073D020703188A943318002E04FF67F7108405A
S315080073E0BDE8704064E700003810004060200040A7
S315080073F028100040D010004055040020540A0020F0
S31508007400F0B589B004460020FDF7A9F90A237F22C2
S315080074102748018800A8FDF7BDF84FF6FF75254EE9
S31508007420BDF80200A84209D140F2071206F134015C
S3150800743006F1140000F038FD00F035FD00272A4655
S3150800744017B94FF47C4203E0022F08BF4EF23F0201
S3150800745000A830F81710B85DFEF766FE7F1C052FEA
S31508007460EDD3012C02BF14237F22134802D0142324
S315080074707F221248018803A8FDF78CF800272A46C0
S31508007480012F08BF4FF6C072082F08BF002203A8B5
S3150800749030F81710B819007AFEF746FE7F1C0A2F37
S315080074A0EDD3012C04BF0120FDF759F909B0F0BD51
S315080074B0547E000820400008527E0008507E0008CE
S315080074C02F490A68920992010A600A6810430860FF
S315080074D02C484FF400410160002101606420FDF74B
S315080074E060B92DE9F84F8046274D28681FFA80F9BC
S315080074F0286840F400402860214F386820F48050FE
S315080075003860224C207870B12148A178627800EB67
S31508007510820212F82A2C891A00EB880010F82A0C25
S31508007520401886B202E02026012020703046FFF778
S31508007530C7FF0FF2480ADFF85CB003E086B23046B0
S31508007540FFF7BEFF386B042805D0386B400754BFD9
S31508007550701E701CF2E7F86A30B184F80180A670D4
S31508007560C5F80090BDE8F18F4FF48B725946504626
S3150800757000F09AFC00F097FCE4E7000030000000F9
S31508007580D0100040181000401C1000404C0A002083
S31508007590BC3E000884400008FCF7AAFF002801D07A
S315080075A000F05CF90020FEF79DF900F0A4FC00004D
S315080075B04AB38B0707D011F8013B00F8013B521E6E
S315080075C021D08B07F7D183071ED1103A07D330B4E1
S315080075D0B1E83810103AA0E83810F9D230BC530791
S315080075E024BFB1E80810A0E8081044BF51F8043BCE
S315080075F040F8043BD20724BF31F8022B20F8022BAF
S3150800760044BF0B7803707047083A07D3B1E80810EF
S31508007610083A40F8043B40F804CBF7D25307E4E7AE
S3150800762062F30F2262F31F42401810F0030308D0DA
S31508007630C91A1FD3DB0748BF00F8012D28BF20F859
S31508007640022D130030B414461546103928BF20E918
S315080076503C00FAD8490728BF20E90C0048BF40F883
S31508007660042D890028BF20F8022D48BF00F8012DF7
S3150800767030BC7047C91818BF00F8012DCB0728BFC2
S3150800768000F8012D704700000300002013F0030FD7
S3150800769009D0521E22BF13F8010B11F801CBB0EB2B
S315080076A00C00F3D07047121F22BF53F8040B51F891
S315080076B004CB6045F7D0121D0AD200BA9CFA8CFC9E
S315080076C0B0EB0C0038BF6FF0000088BF0120704790
S315080076D0521E22BF13F8010B11F801CBB0EB0C00B8
S315080076E0F6D0521C08BF1046704700000022FFF76C
S315080076F09BBF00002DE9F04F85B081460D46164622
S315080077004F4600E07F1C3878A0F109010529F9D316
S315080077102028F7D02D2801D02B2802D117F8018B65
S3150800772001E04FF02B08002E03D4012E01D0252EA0
S3150800773004DB0DB1C5F80090002062E0012E0BDBDA
S31508007740102E16D13878302813D1787840F02000DA
S3150800775078280ED1BF1C0CE03878302818BF0A26C6
S3150800776007D1787840F02000782808BF1026F1D095
S31508007770082603973878302803D117F8010F3028E0
S31508007780FBD000240297DFF880A00AF128008DF8C4
S31508007790040008E000949DF80410401A5FFA80FB84
S315080077A006FB04B47F1C3978A1F141001A2838BFBA
S315080077B0203132460AF1280000F0A4F80028E9D161
S315080077C00398B842B5D00298381A16F80A10401A23
S315080077D010D4012807DAB4EB0B0004D3B0FBF6F09B
S315080077E00099884206D000F083F8222101604FF004
S315080077F0FF3403E0B8F12D0F08BF644205B12F60CE
S31508007800204605B0BDE8F08FB040000880B50A49AB
S31508007810086810F1010F03D04FF0FF320A6002BD6D
S31508007820012200A90020FEF795FB01280CBF9DF850
S3150800783000004FF0FF3002BD300400200EB400B542
S3150800784082B003A9009100AB02460121024800F06C
S3150800785085F806BC5DF810FB057F000810B50548DD
S31508007860054CA04204D050F8041B8847A042FAD120
S3150800787010BD00BF84300008A830000810B50446C3
S3150800788003E014F8010B00F048FB20780028F8D133
S3150800789010BD2DE9F04104460D4616461F46DFF891
S315080078A04C804EB14046FFF7E9FF3046FFF7E6FF4A
S315080078B008F11000FFF7E2FF2046FFF7DFFF09A0F7
S315080078C0FFF7DCFF2846FFF7D9FF07A0FFF7D6FF2B
S315080078D03846FFF7D3FF08F11800FFF7CFFF00205F
S315080078E0BDE8F0813A0000002000000000410008D1
S315080078F010B5034C2068010018BF8047201D10BD35
S31508007900380A0020C9B2830706D0521E22D310F8BF
S31508007910013B9942F7D11FE0083A13D302F104025A
S3150800792041EA012141EA014150F8043B121F21BFF7
S315080079304B40A3F1013C2CEA030C1CF0803FF3D02A
S31508007940C9B2001F083210F8013B521E28BF91EA3F
S31508007950030FF8D818BF0120401E70472DE9F04FD5
S3150800796093B017461C46019001AD69600020E86196
S315080079700CAE6FF0004802E0E869401CE861387810
S3150800798018B9E86913B0BDE8F08F252813D100208F
S3150800799028616861A86117F8011F202908D02329E2
S315080079A01BD02B2912D02D2914D0302918D01AE033
S315080079B040F00100EFE717F8011B6868019A904745
S315080079C068600028D8D14FF0FF30DBE740F00200AE
S315080079D080B2E0E740F00400FAE740F00800F7E775
S315080079E040F01000F4E72A290DD12268111D216004
S315080079F011686962002904D54942696240F00400A9
S31508007A0080B27F1C12E00021696209E0696A41457B
S31508007A1005D001EB810302EB4301303969627F1C13
S31508007A203A78A2F13001C9B20A29EFD339782E295A
S31508007A301CBF4FF0FF3129621DD117F8011F2A29F3
S31508007A4006D12268111D2160116829627F1C12E087
S31508007A500021296209E0296A414505D001EB810325
S31508007A6002EB4301303929627F1C3A78A2F13001D2
S31508007A70C9B20A29EFD328853978874800F094F9DE
S31508007A8008B117F8010B8DF82E009DF82E0068280E
S31508007A9006D13878682803D162208DF82E007F1C1D
S31508007AA00CA8E8603A78582A46D0632A0ED0642A89
S31508007AB015D0692A13D06F2A3ED0702A71D0732A3E
S31508007AC078D0752A38D0782A36D088E02869411CBB
S31508007AD029612268111D21601168815585E0216898
S31508007AE0081D206008689DF82E10682908BF00B296
S31508007AF002D0622908BF40B2002804D529694B1C68
S31508007B002B612D230DE0298D8B0704D529694B1C84
S31508007B102B612B2305E0C90704D529694B1C2B616A
S31508007B2020238B5529690CABC918A960009011460A
S31508007B3000A800F0D2F858E09DF82E006C280FD067
S31508007B4071280BD12068C01D20F00700206003466D
S31508007B5003F108002060D3E9000105E06A28F1D0A6
S31508007B602168081D206008689DF82E10682908BF3E
S31508007B7080B202D0622908BFC0B295F8281009075A
S31508007B80D0D50028CED042F020017829CAD129695B
S31508007B904B1C2B6130238B5529694B1C2B618A554D
S31508007BA0C0E72168081D206008680CA9A960009034
S31508007BB07821BDE72168081D20600868A8602A6A40
S31508007BC0002A02D500F0FCF807E00021FFF79AFE2C
S31508007BD000281ABFA968401A286A686105E028695A
S31508007BE0411C296102B9252282557F1C686A2969C8
S31508007BF0401AA969401A6969A0EB010995F8280095
S31508007C00400707D42022494600A800F047F8002874
S31508007C103FF4D9AED5F810A00DF1300BBAF1000F2C
S31508007C200ED01BF8011B6868019A90476860002807
S31508007C303FF4C9AEE869401CE861BAF1010AF0D11F
S31508007C403022A96900A800F029F800283FF4BBAE45
S31508007C50D5F814A0D5F808B0BAF1000F0ED01BF865
S31508007C60011B6868019A9047686000283FF4ABAE2C
S31508007C70E869401CE861BAF1010AF0D195F82800D4
S31508007C8040077FF57CAE2022494600A800F006F89A
S31508007C9000287FF474AE96E6304100082DE9F641D7
S31508007CA004460D460026012D14DB01270DF10408B4
S31508007CB004E0206A401C20627F1E08D018F8011BC9
S31508007CC0A06862689047A0600028F2D103E0761C9D
S31508007CD0AE42EADB0120BDE8F681F0B402696F29FD
S31508007CE008BF082405D041F02003782B14BF0A24C6
S31508007CF01024182305682E46642901D0692902D163
S31508007D00002D48BF76420EB9456A9DB15D1E2B46C9
S31508007D10B6FBF4F704FB17663036F6B23A2E24BFE4
S31508007D20A1F1510C6644AE543E0003D0C5689F18B5
S31508007D30BD42EBD3082C09D190F82C10090705D5BC
S31508007D40995C302902D05B1E30219954C3F1180181
S31508007D5081619A18C260426A914206DA511AC16173
S31508007D60818D21F01001818510E0002A0ED590F84A
S31508007D702C2002F01402102A08D1826A4369D21A0A
S31508007D80C369D21A531A012BA8BFC361F0BC704746
S31508007D900746384600F002F8FBE7000001491820BC
S31508007DA0ABBEFBE7260002000278C9B28A421AB1C6
S31508007DB01CBF10F8012FF9E718BF00207047000014
S31508007DC000F10103810704D010F8011B89B181076E
S31508007DD0FAD10268B2F10131914311F0803F04BF34
S31508007DE050F8042FF6E710F8011B11B110F8011B23
S31508007DF0FBE7C01A704700000101040305010000F3
S31508007E00000004000100000000000000000000005F
S31508007E100000000000000000031800001316191CDB
S31508007E201F00000000800000FFFFFFFFFFFFEFBEFE
S31508007E30CEFA01000000000000000000000000006B
S31508007E4001000101B5000001FEFFFFFF0B01010063
S31508007E50AA07BE07D207DC07DE073C08EE08008043
S31508007E60FEE710B50023002814BF1C46C3F103041F
S31508007E70E4B26254120A5B1C042BF4DB10BD30B565
S31508007E804A788B78CC78097818B120461D460C4676
S31508007E9002E0084615461A4645EA002044EA022149
S31508007EA041EA004030BD704770B584B003460846C5
S31508007EB00A2100248DF80A400DF109040A25491EF5
S31508007EC0C9B292FBF5F605FB1622303204F80129F1
S31508007ED03246012AA8BF0129F1DA002200AC0919A5
S31508007EE0FFF7D7FC08B900F009B804B070BD002840
S31508007EF048BF4042704780B5FFF74ABF80B50120AA
S31508007F00FFF74CBF38B504460D46284600F005F87D
S31508007F10A84218BF0024204632BD10B582B00446D8
S31508007F2014F1010F0AD08DF80000012200A90120E2
S31508007F30FDF7EDFF012801D1204616BD4FF0FF30B1
S31508007F4016BD002305E050F8041B41F8043B121F38
S31508007F50FBD150F8042B002AF5D1704710B409E07C
S31508007F6050F8041B50F8042B51F8044B42F8044B04
S31508007F701B1FF9D150F8043B002BF1D110BC7047F8
S70508007599E4
