S015000073696D706C656D61632D746573742E73333737
S315080000005807002061550008E1120008E3120008AD
S31508000010A70B0000000000000000FFFF3C000008DE
S3150800002004070300000000000000000000000000B4
S315080000300000000000000000000000005807002033
S3150800004061550008E1120008E3120008A70A040136
S31508000050000100080407039C30420000000000006D
S315080000600000000000000000000000000000000082
S315080000700000000000000000000000000000000072
S3150800008000000000FFFFFFFFFFFFFFFFFFFFFFFF6E
S3150800009000E00108FFFFFFFFFFFFFFFFFFFFFFFF75
S315080000A0FFFFFFFFFFFFFFFFFFFFFFFFFFFFFFFF52
S315080000B0FFFFFFFFFFFFFFFFFFFFFFFFE01F00201F
S315080000C000000000F0160020DB1000205807002072
S30D080000D0F1C5000800810008D3
S315080001005807002061550008E1120008E3120008AC
S31508000110E7120008E5120008E9120008E0130008D3
S31508000120E0130008E0130008E0130008E0130008D5
S31508000130EB120008E0130008B5790008E013000880
S31508000140B5040008E0130008495D0008E01300083C
S3150800015097660008F9540008E0130008E013000841
S31508000160E76F00083F610008956C000885010008E4
S31508000170E0130008E01300080304000861040008FF
S31508000180EB5E000870B57748427877490B685B07DD
S3150800019022D5032A20DA00EB420384889C810123B6
S315080001A0847803FA02F22243827002786F4C82B195
S315080001B0002502E06D1C032D0EDA03FA05F6164239
S315080001C0F8D045707240027000EB4500808A2060C6
S315080001D002E02260032242704FF6FF700860BFF308
S315080001E05F8F70BD70B505F067FA5E490A78D2B1BF
S315080001F05E4B1C68E40716D400240125A540154269
S315080002000DD04C706A4001EB4405AD8A1D60564D11
S315080002104FF6FF762E60564D4FF400662E60641C2E
S31508000220032CEADB00E003240A7005F041FAE0B289
S3150800023070BD4C4800210170032141700021C17036
S315080002400521018100218170484900220A604A601F
S315080002504FF400428A601022CA60001D48610120DE
S3150800026088610320C8604048042101644FF6FF7185
S3150800027001603F484FF40061016005F077BA70B538
S315080002800446C02901D0012070BD364DD00040EA91
S3150800029043302989084305EB44018882012000FA86
S315080002A004F6287830420FD105F006FA297831434A
S315080002B02970A978B143A97005F0FAF9FFF792FFFA
S315080002C0A04201D1812070BD822070BD2DE9F8437E
S315080002D004468846274F264D05F0F4F948B928689C
S315080002E0000506D5386800F00400461EB641F60F2C
S315080002F000E0012605F0E0F981463EB128680005D0
S3150800030004D53868400748BFFFF73CFF1548817891
S315080003100122A2400A4208D000EB44039B89A8F8B0
S31508000320003051408170802409E00178114218BFDD
S31508000330822404D14078A0420CBF812484244846F4
S3150800034005F0B6F92046BDE8F28338B504460D46F1
S3150800035029462046FFF7BAFF842818BF8028F7D118
S3150800036032BD00004409002010A8004004D0004017
S3150800037000E100E050A800402DE9F0412F4C002094
S3150800038060652F4E4FF48045356004202060E56097
S315080003902C480721016000206065606D40F0600010
S315080003A06065DFF8A480072000F01AF888F80000D6
S315080003B00020A0654FF40047376008202060E760FA
S315080003C00020A065A06D40F06000A065002000F048
S315080003D007F888F801001D4805600760BDE8F08148
S315080003E01B49002807D0072809D108680006C00F4E
S315080003F080F001007047086800F00100F8E7002067
S31508000400704710B50D484FF48041C1600421016062
S315080004100720FFF7E5FF0C4C217881421CBF2070AE
S31508000420014607D100F016F8072003F03CFE2178B4
S3150800043000F010F8072032E00000000014A8004081
S3150800044080E100E014BC0040CE10002000E100E08E
S3150800045008B00040481E8041C00F207021787047C0
S3150800046010B505484FF40041C1600821016000201D
S31508000470FFF7B6FF014C03E014A80040CE10002099
S31508000480617881421CBF6070014607D100F00BF805
S31508000490002003F008FE617800F005F80020BDE8AA
S315080004A0104003F000BE481E8041C00F607061789E
S315080004B070470000F0B523484288511E4180234901
S315080004C0002A39D10278446815191D4E6F782FB362
S315080004D0C827135D9BB14FF00D0E0EFB03F3F362B5
S315080004E0F36AB3630023736210233362135D0F2428
S315080004F093FBF4F36C787C4394FBF3F30AE040F245
S315080005009313F3620023736233626B787B4303EBC6
S31508000510D3735B104380921C02700DE00A6C22F0C4
S3150800052001020A64084A136823F0010313600022D3
S3150800053032623260012242704FF0FF300860F0BD2F
S3150800054000E000405807002000E100E000A8004055
S315080005502DE9F8430446DFF858040068255C0026B0
S31508000560B146E80748BF002020D40027DFF84484B6
S3150800057002E04FEA00197F1CAF4212DAF9B22046B0
S3150800058001F08FFC10F8080000F00F00F907F0D50D
S3150800059049EA00023146204601F088FC761CF6B28C
S315080005A0E9E73146204601F0BBFA0120BDE8F283AF
S315080005B000F22401FF228A700022C273C28380F8E7
S315080005C0242082730068C860704700002DE9F24F46
S315080005D082B081469346002609F2240409F10405EF
S315080005E00DE0012200A9A07801F0DAFB38B102205B
S315080005F08DF800009DF80010484600F032F90027F3
S31508000600B846029890B900A95FFA8BF003F062FB2E
S31508000610C8B1262802D13046BDE8FE8F01214846DA
S3150800062000F01FF978208DF800000CE05FFA8BF3D4
S31508000630002BF0D002A80268511C016010788DF8D2
S315080006400000A3F1010BBA469DF80000672815D2F1
S31508000650DFF86013405C00F0300700F00F0A400630
S3150800066004D5607A8245B8BF4FF001089DF80000AE
S315080006700A2801D00D2804D1012603E07B2838BFBB
S3150800068010270026E87A0828B9D8DFE800F0062BF4
S31508000690629999BECA511D00B1E7102F09D1687A2F
S315080006A060720120E87249469DF8000000F0E2F801
S315080006B0A5E79DF80000232802D10820E8729EE7E6
S315080006C0202F9CD0032093E7002E98D0287B28B1B2
S315080006D04846D9F804108847002028734846FFF78B
S315080006E067FF8CE7102F06D09DF800005F2802D020
S315080006F0B8F1000F04D099F824000C28E2D2D2E70A
S31508000700202F01D0302F0ED199F82400484400211B
S315080007104174484600F0BCF828B1002089F8240046
S315080007200220E87215E00321484600F09AF8CBE764
S315080007301EB1484600F0DDF8D0E79DF800002328F2
S3150800074003D1484600F0D5F8B7E7202FC9D00420D2
S315080007504EE7687A6072B8F1000F07D02B20207236
S31508000760C4F804A0687A60720420A7E79DF8000020
S315080007702D2801D02B2806D1207200206060687AC7
S31508000780607203209AE722280AD1012001F0CDF9E8
S31508000790A070FF280BD0002101F0C2F905208DE7D3
S315080007A07B28C5D1012001F0C0F9A070FF283FF4CD
S315080007B01EAF002101F0B4F91020607206207DE713
S315080007C0B8F1000F07D06068617A01FB00A0042128
S315080007D0E972606013E79DF80000782801D0582870
S315080007E004D1606810B91020607208E7E87A032817
S315080007F003D0202F03D0302F01D00720F8E6484633
S3150800080000F0ABF8002892D08AE79DF8000022286D
S315080008101ED10021484600F0D5F80028E5D0022070
S315080008204CE79DF800007D280DD1A078FFF790FED3
S3150800083007460121484600F0C5F808B10220E872CB
S31508000840002FD2D1D9E7202FCFD0B8F1000FD4D0BE
S31508000850A07857490968405CFF287FF4C2AE082093
S31508000860C6E680B5027C22B90822C273017400F07C
S31508000870BBF801BD91F82420A0F14103DBB21A2B85
S3150800088038BF203053185874501C81F8240070471C
S31508000890F0B500F21101026B1346002407E016F8C2
S315080008A001CBEDB2AC4508D0641CA4B210335D6828
S315080008B0002D1CD01F680E4600E07F1C3578002DE1
S315080008C03D780BD1002DEFD1C483C18B02EB01110A
S315080008D089680162002181730120F0BDA5F1410CF0
S315080008E05FFA8CFCBCF11A0FD9D22035D7E7002065
S315080008F0F0BD10B50446206A017831B162290CBFF3
S3150800090001210221085C2A2807D12046E18B226BA7
S3150800091002EB01114968884706E004202074204646
S3150800092061688847002020742046BDE810405BE0D7
S3150800093010B5837B047BA34201D105213EE0846880
S3150800094044F82310817B491C8173016A535C2A2B66
S3150800095001D051180162012010BD10B5016A0A784C
S315080009604B7800F12004A168247B2D2C08BF49424E
S31508000970752A03D1342B0CD1022232E0732A0FD107
S31508000980312B07BF6FF07F027F230B4A47F6FF73B1
S3150800099008E00022312B14BF4FF6FF73FF2301E056
S315080009A004210BE0914201DB8B42E5DA0621F8E7E8
S315080009B0C0080020788200080080FFFFFFF751FF7B
S315080009C0002010BD10B5026A1278622A01D00421EF
S315080009D0F4E700F120029379FF249471012203EBD6
S315080009E00121BDE81040A3E7F8B5044604F108055F
S315080009F0E88AA96A01EB00108668002706E002204B
S31508000A00815D2A2918BF86197F1CFFB2A8798742FB
S31508000A100ADA30786228F2D1A06850F82700C0B206
S31508000A2001F0E8F80120EBE70020A871A87FFF286D
S31508000A3003D001F0DFF8FF20A877F1BD10B5012437
S31508000A4000F04BF804FA00F040F2A171084209D010
S31508000A50054C207800F04FFA207800F0D5FA207877
S31508000A6000F0D1FB10BD00BF700800200A0242EA60
S31508000A70112148400106090F484080EA003041012B
S31508000A80C9B20206D20E41EA0221484080B2704736
S31508000A901548006800F0DF000021002202E0521C21
S31508000AA0082A17D2012393401842F8D00F4830F885
S31508000AB0121006290ED10E4841884FF20F029142B4
S31508000AC003D101880A0A0B2A01D34FF4C0614CF2FC
S31508000AD03C32428007480180704706480088000A71
S31508000AE070470448008870472C000040E0820008E0
S31508000AF000000020B810002003460A467EA1042004
S31508000B00FFE70CB480B502AA00F00CF801BC5DF84A
S31508000B100CFB80B529B103460A4678A11120FFF7D8
S31508000B20F0FF01BD2DE9F04F85B004460F4690460B
S31508000B30002605F05CF9C0B1012000F0F6FF8246F8
S31508000B40BAF1FF0F11D0002100F0EAFF214601A8F3
S31508000B5005F04FF904468FB900F086F810B95046EB
S31508000B6005F0BBF9504601F045F805B0BDE8F08F31
S31508000B700A2101FB0600A0F130067F1C3878002800
S31508000B80EAD0A0F13001C9B20A29F1D300F06CF815
S31508000B900028E7D100243A7801A8422A0ED0442A30
S31508000BA01BD0462A28D0572A0ED0622A3DD0662A5C
S31508000BB02DD06C2A28D0702A29D052E058F8040B78
S31508000BC08DF804000124D8E758F8041B89B28DF87B
S31508000BD00410091241700224CFE758F8041B8DF857
S31508000BE00410C1F307224270C1F307428270080E4F
S31508000BF08DF807000424C0E758F8041B504601F096
S31508000C00D1F80028B9D0ADE758F8046BB5E7012349
S31508000C1058F8041B662A08BF0223F2B2504601F0B0
S31508000C20A1F8002808BF0026ECE7364800681AF83D
S31508000C30009058F8041BCDB2FF2D9ED015F800B0D1
S31508000C400BEB0901C9B2504601F0EAF8002889D130
S31508000C50CDF800B000232A464946504601F03DF932
S31508000C608BE78DF80420ADE7224601A9504601F02E
S31508000C7097B8F0B585B00C46122809D03A281DD089
S31508000C804FF6FE71884204BF204603F00BFA31E0A6
S31508000C901C480068255C1C4E09E0204600F03AFF17
S31508000CA0F9B204F0A4FB203DEDB23068245CFF2CB9
S31508000CB020D0212DACBF20272F46EEE702F0C5FC39
S31508000CC0044605F0E8FB054604F0EBFF064604F08B
S31508000CD072FF074605F0D7FB0246049408480390BE
S31508000CE00A4800880290019500963B4608493B2031
S31508000CF0FFF707FF05B0F0BD574600006C7000000F
S31508000D00800F0020C0080020C8080020BA10002064
S31508000D10F082000842DE704738B504460D4600F0FA
S31508000D2046FE04F0C9FC29462046FFF7E5FE2B4699
S31508000D302246DFF86815012003F036F929462046D1
S31508000D40BDE83440E6E72DE9F8434FF42068DFF8BC
S31508000D5050150868DFF84C65371D38650A6A7A65E4
S31508000D60DFF844251268BA654A6AFA658A6A3A66F5
S31508000D70CA6A7A660A6BBA66896BF96697F8341096
S31508000D8049074CBFFD6BBD6B40F2FF14DFF81C959D
S31508000D90DFF81C25954227D3A94525D305F2180562
S31508000DA055F8041B396455F8041B79642040062855
S31508000DB01DD1386C00884DF64261884217D106F27B
S31508000DC08800716841607968816055F8040B706025
S31508000DD055F8040B786055F8040BB86055F8040B01
S31508000DE0786340F2017802E000203864786400F005
S31508000DF03BFAB8640020F864002206EB80014A67D3
S31508000E00401C0628F9DB386C00283DD00020DFF8A6
S31508000E10A424DFF8A43403E006EB800CCCF87410A5
S31508000E20A9452CD359F8041D9942F9D39142F7D212
S31508000E305FEAC17CF4D54FF0000C06EB8C0EDEF8A9
S31508000E4074E08E4504D00CF1010CBCF1060FF4DBFE
S31508000E50BCF1060FE4D100281ABF401EC0B2052017
S31508000E60DAE7396F4FF0000C06EB8C02936F536785
S31508000E700CF1010CBCF1050FF6DBC6F8881001462B
S31508000E80481EC0B20029ECD1386D204002280AD08D
S31508000E90032816D0042817D0052818D0062819D0F4
S31508000EA00C281DD01FE0DFF814040168890748BF25
S31508000EB040F602181CD40068C00719D540F202583B
S31508000EC016E040F6012813E040F6022810E040F646
S31508000ED003280DE0B8F5206F0AD140F6042807E08C
S31508000EE040F6052804E018B1212838BF40F607283F
S31508000EF04046BDE8F2832DE9F04F85B08046DFF81D
S31508000F00A453A86BDFF8B863410706D504962F6C7F
S31508000F102C6D00210391894609E006F10801049128
S31508000F20EF6BEC6CDFF888130391DFF8809300070A
S31508000F304CBF06F1100206F218020398B9EB000A34
S31508000F4007D064204FEA5A0100FB0410B0FBFAFBF5
S31508000F5001E04FF0000B0297CDF80490039800903B
S31508000F60049B06F12001404602F0C9FF1FFA8AF0E9
S31508000F700190049800901FFA8BF3A2B206F1500173
S31508000F80404602F0BCFF95F83800400708D4AAF19D
S31508000F909400844204D106F18C01404602F0AFFF6A
S31508000FA04F4502D20398874205D2049A06F1B80142
S31508000FB0404602F0A4FF404602F0E5FFE86DD8B1CE
S31508000FC006F1D801404602F092FF0026A5A7BD4CBF
S31508000FD0E86D0121B140084207D054F82620107860
S31508000FE018B13946404602F082FF761C112EEFDB17
S31508000FF0404602F069FF04E006F20811404602F096
S315080010007EFF05B0BDE8F08F2DE9F84F8246DFF880
S31508001010B88208F2EC1408F20829A24F07F2440530
S31508001020AA4E4FF0010BFFF75CFD40F20151401A42
S3150800103016D0401E16D040F2FF11401A3BD04FF48E
S315080010404071401A3CD0401E58D0401E74D0401EF5
S3150800105000F0AC80401E00F0BE80401E09D0BDE006
S31508001060414645E008F1400100F0C4F800F0C5F833
S3150800107040E0A86C012806D0032807D0042807D02A
S31508001080052808D00AE008F28C0608E07FA606E0E4
S3150800109008F2940603E008F29C0600E07CA608F134
S315080010A0A40100F0A7F8EB6C324608F1CC015046D3
S315080010B002F025FF1EE0EB6CAA6C08F1E401F6E7E6
S315080010C008F2001100F096F895F82000800703D57D
S315080010D008F2181100F08EF8286A400003D508F2C5
S315080010E0541100F087F8286A002803D508F28811F9
S315080010F000F080F8504602F046FF6FE008F2C4118F
S3150800110000F078F8287F0321084201D000F075F82E
S31508001110287F000601D500F068F8002400F060F882
S3150800112006D056F82420107810B1494600F05FF82A
S31508001130641C082CF2DBDDE708F2102100F05AF8EF
S3150800114000F05BF8E869400503D508F2282100F0AD
S3150800115051F8E869000401D500F047F8082400F0C2
S315080011603FF806D056F82420107810B1494600F00A
S315080011703EF8641C102CF2DBE869C0B218B908F214
S31508001180702100F037F80124E86A0BFA04F10842E6
S3150800119008D006EB8400826E107818B108F2A021F8
S315080011A000F025F8641C042CEEDBA3E708F2A8215E
S315080011B000F020F800F021F8102400F011F806D00D
S315080011C056F82420107810B1494600F010F8641C2F
S315080011D01A2CF2DB8EE708F2C42145E7BDE8F18F49
S315080011E0E8690BFA04F108427047AA6A2146504694
S315080011F002F085BE504602F082BE7A6C08F1700194
S31508001200504602F07CBE2DE9F0478046DFF8C090D4
S31508001210DFF8C0A00AF20C0700261EA41EA508E0E7
S315080012202146404602F063FE404602F0ACFE701CC2
S31508001230C6B2387898B159F8043B3A465146404602
S3150800124002F055FE17F8010B0028FBD13878002864
S31508001250E6D006F003000328E2D02946E1E7BDE818
S31508001260F0870000202570001B480068C00654BFA0
S315080012700F481A4800E0001D0C4A904203D2036842
S31508001280B3F1CD3FF7D0101A704700004144430030
S315080012903F3F00000D0A00002C200000F0870008E0
S315080012A004ED00E00000002000E300E058070020FD
S315080012B00000002000810008840100081CA00040EE
S315080012C004880008000800202489000888070020F0
S315080012D0040000200C8C00082C000040940000201C
S315080012E005E004E003E002E001E000E0FFE772B693
S315080012F01EF0080F08D01EF0040F0BD0DFF848E0E8
S31508001300AEE8FF1F11480AE0DFF83CE0AEE8FF1F31
S315080013100F4804E0DFF830E0AEE8FF1F0D486946E5
S31508001320EFF309828EE8070086460B48854502D307
S315080013300A4CA54501D384F30888FFF704FD84F316
S31508001340088804F0E1FC000004000020FDFFFFFF10
S31508001350F1FFFFFFF9FFFFFFD40000205807002028
S3150800136038B50C210F4A01FB002000F2E804208959
S315080013700E4901EB80050C48008805F0CAF920687B
S315080013800068A188C840E188084007E0C10702D57F
S315080013902968491C29602D1DC003000C0028F5D1B9
S315080013A031BD0000CC8C0008640900206C090020BF
S315080013B008480068C0B2084951F820F00548006896
S315080013C0C0B201B5FFF7CCFFBDE80140034951F8AB
S315080013D020F0000004ED00E0680900200000000885
S315080013E038B5634D2870634CF0B16349634800789B
S315080013F002F07DFD2878002816D0206820F0F0003D
S3150800140040F090002060206820F4706040F410607E
S3150800141020605B48002181654FF40041594A1160FC
S3150800142008220260C16031BDA06840F02000A060BB
S31508001430A06840F04000A060206820F0F00040F06E
S3150800144010002060206820F4706040F4006020607E
S31508001450BDE83140FEF790BF70B582B000208DF828
S315080014600000464C4849207802F041FD0D250CE065
S315080014700E2D08BF0D25284600F08AF8322642F2BE
S31508001480107005F046F9761EF9D19DF8000065281A
S315080014900AD000A9207802F01DFC284600F085F83D
S315080014A00D2DE5D10E25E6E7284600F07EF873BD3A
S315080014B010B500F035F81BB11368022B00D136E0E1
S315080014C012681AB1022A01D00AD30BE00D2422466B
S315080014D04C3102F00CFD2046BDE8104000F058B82B
S315080014E00E24F4E73C31EAE710B500F019F81BB111
S315080014F01368022B00D11AE012681AB1022A01D029
S315080015000AD30BE00D2422465C3102F0F0FC20469B
S31508001510BDE8104000F049B80E24F4E73C31EAE78C
S315080015208268164800781949114B1B787047BDE840
S31508001530104002F0DCBC10B5FFF7F2FF1BB11368D0
S31508001540022B00D1F3E712681AB1022A01D00AD396
S315080015500BE00D2422466C3102F0C9FC2046BDE89A
S31508001560104000F02FB80E24F4E73C31EAE70000FB
S31508001570D010002004B80040448F000870080020EE
S3150800158014A8004080E100E0908F0008A48F0008AE
S31508001590C108032908D2C1108902154A012300F09F
S315080015A0070003FA00F050507047C108032908D213
S315080015B0C11089020F4A012300F0070003FA00F060
S315080015C05050704710B5044604F076F8E108032930
S315080015D00AD2E110084A02EB81210A68012304F0C5
S315080015E00704A3405A400A60BDE8104004F060B8FA
S315080015F014B0004010B000400CB000402DE9F04592
S3150800160083B081680C684D68DFF81CA30AF13401C1
S3150800161001910AF12C01009129194B1E224600F16D
S315080016201101504602F01CFADFF80073D7F8008063
S31508001630386820F00100386004F050F8002606E00B
S31508001640325D31190AF13C0002F019FA761CAE42F5
S31508001650F6D3C7F80080BDE8F74504F03FB82DE992
S31508001660F04B806801684C08640000F057F804EBFA
S31508001670480000F04DF809F1240100F03DF800F0AB
S315080016803EF84FF0000B09E034F81B3004EB4B0230
S3150800169009F13C0100F02BF80BF1010BC345F3D31C
S315080016A020E02DE9F04B806801688C08A40000F062
S315080016B035F804EB880000F02BF809F14C0100F02E
S315080016C01BF800F01CF84FF0000B09E054F82B301B
S315080016D004EB8B0209F1680100F009F80BF1010B24
S315080016E0C345F3D32F60BDE8F04B03F0F7BF30785E
S315080016F002F0FDBB09F16801307802F0F8BBDFF8AB
S315080017002C522F68286820F00100286003F0E6BFF5
S31508001710431E22464946307802F0E9BBD0F80480D9
S31508001720DFF80C62DFF80C9270472DE9F84F8068F5
S3150800173005784468D0F80880DFF8F4613078DFF877
S31508001740F4B1082D08D0102D06D0202D04D00BF1A9
S31508001750780102F0CCFB37E008EB04014B1E224669
S31508001760594602F0C4FB00F0CAF8082D0AD1002732
S31508001770474525D23B5D3A190BF1A801FFF7B7FF9C
S315080017807F1CF5E7102D0CD10027474518D234F8F1
S31508001790173004EB47020BF13C01FFF7A8FF7F1C4B
S315080017A0F3E7202D0CD1002708E054F8273004EB86
S315080017B087020BF16801FFF79AFF7F1C4745F4D3B0
S315080017C0C9F800A003F08AFFBDE8F18F2DE9F843B8
S315080017D080680468057900F029F800F030F825706B
S315080017E000F04BF8247800F01DF8224608F1D801DD
S315080017F013E02DE9F843806801684C086400858881
S3150800180000F014F800F01BF8258000F036F824885C
S3150800181000F008F8224608F1E0013078BDE8F84300
S3150800182002F065BBC7F8009003F058BF404EDFF8DA
S315080018300481224608F1B801307802F058BB3B4FC4
S31508001840D7F80090386820F00100386003F046BFEA
S315080018502DE9F843806801688C08A4004568FFF7FD
S31508001860E5FFFFF7ECFF256000F007F82468FFF7AF
S31508001870D9FF224608F1E801CFE7642004F049BF02
S315080018802DE9F0478068057846688768284C2078EF
S31508001890DFF8A080082D08D0102D06D0202D04D002
S315080018A008F1780102F023FB27E0324608F1B80177
S315080018B002F01DFB00F023F8082D06D13770FFF75C
S315080018C0DCFF327808F1D80110E0102D06D13780F8
S315080018D0FFF7D3FF328808F1E00107E0202D08D191
S315080018E03760FFF7CAFF326808F1E801207802F08E
S315080018F0FEFAC9F800A003F0F1FEBDE8F087DFF8AC
S315080019002C90D9F800A0D9F8000020F00100C9F8F9
S31508001910000003F0E3BE4FF0402002680649044881
S31508001920007802F0E4BA00002490000894ED00E084
S3150800193070080020709000086091000830B583B0E8
S31508001940044610467F2808BF0020B1F5004F19D17C
S3150800195008237F2240F6120100A8FFF7EFFF0822AE
S315080019600D4900A806F085FB30B908237F2240F20E
S31508001970A27100A8FFF7E2FF082200A9204606F098
S315080019802DFB37BD1A46054D294300FB031120469A
S3150800199006F024FB37BD0000749100080000040817
S315080019A01548012181604EF6BE21416000E01348CA
S315080019B0012101607047A52805D10F484DF6AD6194
S315080019C0416002210160704780B50D481021016011
S315080019D00C48022101600C484FF40061016004F0D4
S315080019E049FF0A48072101600021016408481021BF
S315080019F00160002002BD0000006000400860004051
S31508001A0080E100E0080000400C60004014A000409F
S31508001A1000E100E010B5002004F059FE274C2068CC
S31508001A2040F00800206004F095FF04F053FFFFF72C
S31508001A30B7FFFFF7C9FF04F03BFE00F010F8206877
S31508001A4020F010002060FEF7F4FB03F054FDBDE81B
S31508001A501040FEF791BC40F2016004F055B91848F1
S31508001A60E921C16017497922CA60174AE723D3607A
S31508001A7049F6D953036048F69913436049F29940E9
S31508001A80086040F21910486044F69910106049F64B
S31508001A9094105060704780B5FFF71FF80B4901EBAB
S31508001AA0800002BD80B5FFF71CF8C1B20004000E25
S31508001AB0074A52F8200000EB810002BD00BC004036
S31508001AC000B0004000B4004000B800407C91000817
S31508001AD08C9200080D4838B5044603F0EDFD05461E
S31508001AE00B4800210160082154F8042B826054F841
S31508001AF0042BC260491EF7D10121016003F0EEFDF7
S31508001B002846BDE8324003F0D3BD0000B89200086D
S31508001B1094ED00E0DFF85014096801EB40107047B7
S31508001B20DFF848241268815470472DE9F041040013
S31508001B3001D1FF204EE003F0BFFDDFF83414FF2289
S31508001B40DFF83054DFF830341E78FE2E1DD100261B
S31508001B501E70DFF8286437782F700027DFF820C456
S31508001B6009E007F1010E07F808E0DCF8008007F83D
S31508001B7008205FFA8EF796F800E0D1F800807745DE
S31508001B80EFDB0EEB080606F8012C2E78A64202D2E9
S31508001B9003F08EFDCDE7361B2E701D78DFF8E46363
S31508001BA01F78D6F800C04FF0010E07F80CE0D1F800
S31508001BB000C017F80CE083F800E0641EE4B2002CBD
S31508001BC0EED107F80C2000F095F800226A5403F0CD
S31508001BD06FFD2846BDE8F08110B5044603F06CFD9C
S31508001BE0DFF8A0130968625C521C6254BDE8104015
S31508001BF003F05EBD2DE9F041054600F030F8804659
S31508001C0003F05AFDDFF87013DFF86823DFF8603356
S31508001C10DFF87063FF2D1ED03768EC5D641EEC5547
S31508001C20376815F807C07F241CEA040F13D11C680F
S31508001C3015F804C00024EC5517787F1C17701F6828
S31508001C400C78EC550D70BCF1FF0F06BF45464FF0FA
S31508001C50FF086546DEE7BDE8F04103F029BD80B51B
S31508001C60DFF820130968415C090603D5FFF752FF20
S31508001C70007802BDFF2002BD70B582B004460D464D
S31508001C8005F11F000004400DC0B2FFF74EFF0646DF
S31508001C90FF2E0DD0DFF8D402006835543CB1012080
S31508001CA000902B4600223146204600F003F83046C5
S31508001CB076BD0000F2B582B0054616461F46089C5A
S31508001CC0084600F017F8405CB919884204DA07B5E7
S31508001CD04FF4A57100F0D6F85FB1314602A800F0BE
S31508001CE0D4F800943B4602469DF80810284600F0B2
S31508001CF005F8F7BDDFF87412096870472DE9F8434F
S31508001D000546894616461F46089CDFF864820BE09E
S31508001D104A5D0A54491CB142FADBBF1B7519D8F84B
S31508001D20000019F800900026FFB2CFB14846FFF729
S31508001D30F1FE3018F11989B2202932BF3E46C6F1A4
S31508001D402006F6B22CB932460146284606F046F970
S31508001D50E3E7012C04BF32462946F7D00021DAE72B
S31508001D60BDE8F1832DE9F04182B00446884616465F
S31508001D701F46DFF8F8010068255C76B17119C9B20B
S31508001D80204600F04DF808B1182007E000973346C2
S31508001D902A4621464046FFF78DFF0020BDE8F6811A
S31508001DA00123DFE70A4600E0521C1378002BFBD11B
S31508001DB00223521AD2B2D5E7F8B5044601F11F003C
S31508001DC04511EDB202F11F00C004000E05B9012548
S31508001DD000B90120854221D0654E10DA401BC0B2F9
S31508001DE0FFF7A3FE0746FF2F01D10020F2BD691EAB
S31508001DF0C9B2204600F025F8316847540EE08A42F9
S31508001E000CD2411EC9B2204600F01BF804463068C1
S31508001E10205CFFF7EFFE3068FF2121540120F2BD58
S31508001E2070B504460D46514E2A463068215C204658
S31508001E30FFF7C2FF18B130682554002070BD18207E
S31508001E4070BD03E0491E4A4A1268805CC9B200297F
S31508001E50F8D1704711B581B00C46FFF74BFF405CCF
S31508001E60844204D307B540F2D11100F00BF821469D
S31508001E7001A800F00AF804469DF80400FFF74AFE98
S31508001E80201816BD4048FEF747BF38B504460D462C
S31508001E90C5F347112078FFF7D4FF207005F01F001F
S31508001EA032BD80B5FFF7D6FF007802BD10B51446DF
S31508001EB0FFF7D0FF047010BD70B504460D46691CC7
S31508001EC0C9B2FFF7C7FF067829462046FFF7C2FFC3
S31508001ED0007800EB062080B270BD2DE9F5411D465D
S31508001EE0089CA4B244B3264689B200A8FFF7CDFFE2
S31508001EF00746A9B201A8FFF7C8FF0546AF4228BFA3
S31508001F003846C0F12000C0B2B042B8BF06469DF8B8
S31508001F100400FFF7FFFD80469DF80000FFF7FAFD75
S31508001F20F2B205EB0801381806F058F8A41BF119A7
S31508001F307519A4B2002CD6D1BDE8F38170B5044654
S31508001F400D4603F0B9FB0E4A12682378FF2B08BF2B
S31508001F50AD5403D09B181E78AE541D702570BDE88D
S31508001F60704003F0A5BB0000BC080020C008002094
S31508001F70C80800203D090020360900203C09002039
S31508001F80CC080020C4080020F89200080021DFF8D9
S31508001F90FC2332F82130834206D102EB81039B7879
S31508001FA0002B01D001207047491C0829F1DB0020CD
S31508001FB0704770B50446002505EBC500DFF8D01359
S31508001FC0461808222146304606F053F820B9307ADA
S31508001FD0002801D0012070BD6D1C042DECDB00200B
S31508001FE070BD2DE9F74F1C469DF9309001260778FC
S31508001FF0DFF8A083B8F800B0DFF89C53697811B110
S31508002000A978002952D1DFF894A3802F05DA7A1C23
S31508002010D2B20146504605F0E1FF0BF4B84BDFF8A3
S31508002020800390F82C108F420FD10026002101E082
S315080020300126491CB94208DA01EB0A0252780B1844
S3150800204093F82D309A42F4D0F2E75FEA4B4102D476
S315080020508168491C8160DFF84C1309786971B8F802
S3150800206000202A819DF80430AB71029B6B6185F8CC
S315080020700490EC70C368EC78E318C36003694B44BA
S315080020800361C369C918C1610168491C0160016A15
S315080020905118016216B14168491C4160286901005E
S315080020A018BF8047A87808B101206870BDE8F78F87
S315080020B0DFF8EC02416A491C4162DFF8DC0241891B
S315080020C0491C418170472DE9F04F8DB000208DF8ED
S315080020D0300004F084F98046DFF8CC02D0F8A093EB
S315080020E0DFF8C8B249460BF1F80001F0C8FC9DA21A
S315080020F09DA09EA19EA39FA40FF27C2C0FF27C2E7E
S31508002100DFF894522E785EB10BF174060B960BF13C
S315080021106C060A96CDF824E000F0C0F8584608E0A8
S315080021200BF16C060A96CDF824E000F0B7F80BF12F
S315080021307C0001F095FC002068700120A87004F06E
S3150800214022F90020E871A881E881DFF8646230800E
S315080021506881DFF848A21AE017F80A1088A001F08B
S315080021608EFC781CC7B2BC42F6DA86A001F087FC62
S315080021700BF1F00001F083FC00206870DFF83402F0
S31508002180007820B104F05AFE08B101F08DFF9DF8E1
S315080021903000652873D0DFF82002007801F091FD41
S315080021A028B10CA9DFF81002007801F093FD6878D1
S315080021B00028E3D09AF8004014F80A0004EB0A0154
S315080021C011F8011C41EA0020A9894118EA89891AEF
S315080021D04B1EAB81E88131885A1892B29BB203B183
S315080021E069BB6420C0F16400E87195F9040003F046
S315080021F02DFF07462146E87803F01DFF0994A979C3
S315080022000891696907912989069169790591049761
S3150800221095F9041003910290E8780190E879009006
S31508002220EB896A8931880BF1BC0001F028FC287813
S3150800223000289DD054A001F022FC012793E7EB89E2
S31508002240984201DA0020CDE70120642340F28A276C
S31508002250B9423CBF6420012305D341F66417B9424D
S315080022603CBF0A200A2392FBF3F2002AEAD048432D
S3150800227090FBF2F0C0B26528B4D30020B4E7B8F1F9
S31508002280010F08BF04F04AF80020A87049460BF26F
S31508002290141001F0F4FB0DB0BDE8F08F0BF16406E5
S315080022A008960BF15C0607960BF154060696CDF8D0
S315080022B014C00BF14C060496039402930191009006
S315080022C00BF14403494670478068006800B1012055
S315080022D031490870704780680068C0B204F08FB84A
S315080022E080680068C0B204F099B880680068C0B217
S315080022F004F0BAB880680068C0B204F0D4B8806840
S315080023000068C0B204F039B92DE9F04188B08046BA
S3150800231004F0CCF8054604F03CF9064604F0B0F89B
S31508002320074604F087F8044604F075F80346234880
S31508002330079500F164010691059600F15401049190
S31508002340039700F144010291019400F134010091D0
S3150800235000F1240208F1110101F091FB08B0BDE873
S31508002360F08100006E756D0073657100706572000E
S31508002370657272006C716900656400006670000021
S31508002380202568007D0000007B0000007C0C0020F2
S315080023909C0C00208E0F0020EC0A0020B40B0020B5
S315080023A0040B0020900F002014B3000808930008BF
S315080023B0920F002037090020700800202C9400088E
S315080023C080B5002004F01BF8002004F027F801204F
S315080023D003F03AFF03F002FB10F0060018BF0120D5
S315080023E0BDE80240FEF7FCBF80B5022100A804F054
S315080023F0D8FC009801F02CF901BD8068006800B18E
S315080024000120A5490870A5480978002914BF00F2DB
S315080024101C0300F2240300F10C02A149D1F8601252
S3150800242001F02DBB01468868006800B101209D4A6D
S3150800243010709A481278002A14BF00F21C0300F2A2
S31508002440240300F13002113101F019BB10B5964C86
S3150800245003F0C5FF002814BF04F22C0304F234036A
S3150800246004F120028E48D0F890122DE070B504468B
S31508002470A06805788D4E8A48D0F8A012304601F03B
S31508002480FEFA15B1012D07D00CE006F1080001F09F
S31508002490F6FA03F043FF05E006F11C0001F0EFFA37
S315080024A003F071FF06F12C0001F0E9FA2046BDE8B9
S315080024B07040CBE710B503F07EFB7D4C034604F174
S315080024C01C027748D0F870122046BDE8104001F08B
S315080024D0D6BA70B500F04EF80546764E7048D0F874
S315080024E08012304601F0CBFA03F04DFFA068006871
S315080024F0C0B203F0A0FA024606F13C0106F1340028
S3150800250001F0BDFA012D08BF03F008FF2046BDE81B
S315080025107040CFE738B500F02DF8054603F033FFD5
S3150800252042F2107004F0F5F804F00CF8034658A2CD
S3150800253004F11101604801F0A2FA012D08BF03F069
S31508002540EDFE31BD38B500F015F8054603F01BFF62
S31508002550802004F0DEF803F045FF0346574800F1F3
S31508002560140204F1110101F08AFA012D08BF03F0E3
S31508002570D5FE31BD044603F032BF38B5FFF7FAFF82
S31508002580054603F000FF802004F0C3F803F02AFF95
S3150800259003F05CFD03463FA204F11101484801F02F
S315080025A06EFA012D08BF03F0B9FE31BD80680068D8
S315080025B080B203F073BF38B5054603F06CFF414C93
S315080025C092E08068006880B203F060BF38B50546BF
S315080025D003F059FF3B4C034604F1140287E0000060
S315080025E080B5394AF02902D10011805C02BD0F2955
S315080025F008BF00F00F00F8D007B540F2AB1102F1A2
S315080026001000FEF789FB002002BD2DE9F04186B0D7
S315080026108046002500262D4F00ACF021F05DFFF71F
S31508002620DFFF28556D1CEDB20F21F05DFFF7D8FFCF
S3150800263028556D1CEDB2761C082EEEDB00208DF8B1
S315080026401000164800AB00F1440208F1110101F030
S3150800265016FA06B0BDE8F08110B503F0C7FF1C4CAA
S31508002660034604F110020E48D0F840132CE710B5C3
S3150800267004460B48D0F85013164801F000FAA06833
S31508002680006840B203F0A9FF2046BDE81040E3E722
S315080026904343410045440000D1100020A09400089F
S315080026A014B3000837090020EC94000828950008A0
S315080026B05C95000880950008C4950008DC9500081C
S315080026C0F89500081496000834960008800F002034
S315080026D0589600087896000838B5054603F07AFF3C
S315080026E0004C01E0C4950008034604F10C0205F10C
S315080026F01101204601B0BDE8304001F0C0B980683C
S315080027000068C0B203F05ABFDFF8A01401228A702D
S3150800271003F0C6BC2DE9F04105460E461746DFF81C
S315080027208C44DFF88C84280008D0402D16D0892DDB
S3150800273024D08D2D1AD08F2D08D024E0A068401CF7
S31508002740A060207850B307B57A2124E02069401CA0
S315080027502061207810B307B57E211CE06069401C13
S3150800276060612078D0B107B5822114E0E068401C8A
S31508002770E060207890B107B586210CE007B58B217B
S315080027804046FEF7C9FA2A4608F11801012001F069
S315080027900BFC07B58F214046FEF7BEFA6770E66167
S315080027A0402D10D1A078401EA070C0B258B1E08864
S315080027B0401CE080DFF8FC0304210160016B41F056
S315080027C00101016301E001202070BDE8F081DFF816
S315080027D0DC130A7802B98861704710B503F061FA0C
S315080027E0DFF8D443034604F10C02DFF8D003D0F82F
S315080027F030142046BDE8104001F041B930B583B029
S315080028000446A06890F90050284603F0D7F9014617
S31508002810DFF8AC03019100F1200100912B4600F18D
S315080028201002DFF89813D1F8401401F028F9C1A076
S3150800283001F025F92046BDE83E40CEE700B583B055
S315080028400146DFF868038388DFF87803019300F10F
S315080028502C02009200F11402113101F010F907BDA3
S3150800286081680968D14A9180E8E72DE9FE4F01247D
S31508002870806800880090401E8041C00F019003F0D8
S31508002880AEFD82464FF00009C84ECF4FDFF83C83B5
S315080028900098012818D04146387801F028FB387886
S315080028A0019921B108F1080101F021FB03E0009A22
S315080028B0A9A101F01CFBB28808F1140100F08DF8FB
S315080028C0316A387801F013FB03F05DFDCB46C04D45
S315080028D0019810B90098834549DA0BF101001FFAEF
S315080028E080FB02A9387801F0F5F99DF808006528FB
S315080028F03DD0B848007820B104F0A0FA08B101F03C
S31508002900D3FBB08803F005FFB348007860B1B3483D
S315080029100078B249401800F8034C0878401821128C
S3150800292000F8021C641CA4B200203070AB48FFF704
S31508002930EBFE8146B9F1000F16D1296C89B22A6CD3
S3150800294022F001022A6401222A6032785AB92A68DA
S31508002950D207FAD501222A600246501C92B2022AF0
S31508002960F3D34FF001092964B9F1000FB0D05A46E4
S3150800297008F12C0100F031F84A4608F1480100F048
S315080029802CF89748028808F1640100F026F808F147
S315080029908401387801F0ABFA38787178002914BFC9
S315080029A008F1A00108F1A80101F0A1FA03F003FE5D
S315080029B020B1B26908F1B00100F00FF8F26908F128
S315080029C0DC0100F00AF8642003F0A3FEBAF1010F57
S315080029D008BF03F0A3FCBDE8F78F387801F087BA83
S315080029E038B500F02FF800F032F803F0CCFC03F00D
S315080029F060FD03E000A9287801F06CF99DF8000055
S31508002A006528F7D103F05DFD012C08BF03F086FCAD
S31508002A1031BD38B500F016F800F019F803F0B3FC2C
S31508002A2003F059FD03E000A9287801F053F99DF851
S31508002A3000006528F7D103F06FFD012C08BF03F0ED
S31508002A406DFC31BD00208DF8000003F0C8BC0446BB
S31508002A505D4D5648016A287801F049BAF8B55A4CCE
S31508002A60604D2946207801F042FA00265B4F17E0B0
S31508002A70F25D05F10801207801F039FA701006EBCD
S31508002A8090708010B6EB800008D13878864205DA57
S31508002A90324605F11001207801F029FA761CF6B2C3
S31508002AA03878401C8642E3DBF1BD806800684B49F4
S31508002AB0087070472DE9F8430446A0680778002592
S31508002AC0464EDFF80491DFF82081781CC7B2802FC4
S31508002AD005D2A06800EB85004068B85506E06B1C77
S31508002AE07A1E414699F8000001F001FA6D1C042D82
S31508002AF0EBDBBDE8F1833948142100F8011B0021FE
S31508002B0000F8011B491C1429FADB70478068006825
S31508002B1000B101203549087070478068006800B127
S31508002B200120324948707047806800682F498870CC
S31508002B30704700000D0A0000806800682B49C870BD
S31508002B40704780680068294908717047806800687E
S31508002B5026494871704700002575000010B58AB0EF
S31508002B60234C22494A79099204F1740208920A7997
S31508002B70079204F160020692CA78059204F14C02A3
S31508002B8004928A78039204F13C0202924A780192EE
S31508002B9004F1300200920B7804F1240200F11101CD
S31508002BA0204600F06CFF0AB010BD00004408002063
S31508002BB08C96000830200040D896000814B3000808
S31508002BC0F096000818970008700800205C9700081F
S31508002BD008A0004037090020D1100020C00C0020B2
S31508002BE0700F00206898000884980008680800207C
S31508002BF0C498000880680068C0B203F0CDBC000025
S31508002C007FB500A804F06EF90024494D494E00F03E
S31508002C1049F804D122463146287801F068F900A817
S31508002C20225C06F10C01287801F061F9641C102C6D
S31508002C30EDDB7FBD1FB5044600A804F053F9A06874
S31508002C4001784A1001EB92729210A1EB8202042AD3
S31508002C5011DA00AA40688854481CC0B2A16889687D
S31508002C608154411CC9B2A068C0688854481CC0B2C7
S31508002C70A1680969815400A804F01EF91FBDF8B5BA
S31508002C8000242D4D2A4E2B4F00F00CF803D1224676
S31508002C90394600F055F8625D00F050F8641C102CB7
S31508002CA0F2DBF1BD601004EB90708010B4EB80008D
S31508002CB0704781680A78531002EB93739B10A2EB56
S31508002CC08303042B11DA1C4B4968D154511CC9B231
S31508002CD082689268CA544A1CD2B28168C968D154BB
S31508002CE0511CC9B280680069C8547047F8B5124CBF
S31508002CF004F110002ECC2EC0103C04F1100004F094
S31508002D0009F900250A4E0B4F681005EB90708010E4
S31508002D10B5EB800003D12A46394600F011F8281988
S31508002D20027C00F00BF86D1C102DEDDBF1BD0000E8
S31508002D307008002044990008400D002007F10C0196
S31508002D40307801F0D4B800001CB5002000900423A8
S31508002D500222002103F0FAFF01A9002004F010F86E
S31508002D604FF6FF70BDF80410441A04F014F8292031
S31508002D7094FBF0F03A3040B216BD000010B5304C66
S31508002D80207820B903F0DFFF60600120207010BDB5
S31508002D9010B504F009F92B4C034604F10C022A4835
S31508002DA0D0F8B0152046BDE8104000F068BE2DE901
S31508002DB0F84300218DF800100024806805786E1EFF
S31508002DC0B641F60F1E4F3970DFF88080DFF8809025
S31508002DD00EE0397861B1641CA4B22EB17B68224634
S31508002DE0414601F084F801E0AC420CDA0020387064
S31508002DF000A999F8000000F06DFF99F800009DF809
S31508002E0000106529E5D1224608F1200101F06FF886
S31508002E10BDE8F18330B583B0044604F0DEF8054614
S31508002E2004F0CEF803460B48019500F134010091F1
S31508002E3000F1180204F1110100F021FE37BD00006F
S31508002E40600D00205899000814B30008709900080E
S31508002E5070080020B899000810B50446A0680068F4
S31508002E60C0B204F0A3F805E010B50446A0680068EF
S31508002E7004F0ADF82046BDE81040CBE738B5044667
S31508002E80DFF8E451DFF8E401D0F86015284600F0D1
S31508002E90F6FDA0680068C0B202F0B1FD024605F171
S31508002EA0400105F1380000F0EAFD2046BDE8324051
S31508002EB0FFF700BB38B502F091FD0446DFF8B051C4
S31508002EC002F08CFD80074CBF05F23C0305F248036F
S31508002ED0E0074CBF05F22C0205F23402294600F041
S31508002EE04CF801B0BDE8304001F001B870B50446B1
S31508002EF0A06805780679022D01DA022E04DBDFF8D0
S31508002F00741100F00CF806E03046FEF769FA45EA57
S31508002F10460002F010FD2046BDE87040CAE7DFF81B
S31508002F204401007800F0E3BF70B582B0DFF84801CD
S31508002F30016809044EBF4469006800F03F044FF475
S31508002F40FE520621B02002F0D1FB05463F220021A1
S31508002F50202002F0CBFB0646FFF7F6FE0146F6B246
S31508002F600096EBB2E2B2DFF8140100F088FD00F03B
S31508002F7004F8BDE8764001F006B8DFF8E800007806
S31508002F8070472DE9FC4100218DF80410806804681B
S31508002F9004B10124DFF8E87003F021FA002814BF11
S31508002FA007F1100207F21802DFF8B85039462878F8
S31508002FB000F09DFF002C14BF25A229A207F12001CD
S31508002FC0287800F094FFDFF8BC603078002814BF3A
S31508002FD007F2500207F2580207F13801287800F084
S31508002FE086FF07F16401287800F081FF19A0009098
S31508002FF019A31AA207F1940107F1800000F030FD29
S31508003000FFF792FFDFF8807001203870DFF87C80C8
S3150800301018E0287800F055FE18B101A9287800F0C4
S3150800302059FE34B1387820B14046FFF76DFB0020D1
S31508003030387003F003FF28B1307808B101F034F88E
S31508003040FFF772FF9DF804006528E2D1BDE8F38119
S31508003050796573006C6E61006D6F640076636F004E
S315080030606E6F000070080020049A000814B3000868
S315080030704C9A0008A09A0008D0100040BC9A000894
S31508003080D09A00083709002044080020C00C002008
S3150800309070472DE9F04704460026DFF85855DFF853
S315080030A05895494600F0CEFADFF850A50FF2C02829
S315080030B004E0414600F01BFF701C86B23701216808
S315080030C07A1828785368B3B1534505D17A5809F167
S315080030D0740100F00CFFEFE793687A5809F1840150
S315080030E000F005FF206839182878CA68002AE0D059
S315080030F009F18C01EDE709F1940100F0F8FE09F1F8
S31508003100BC0100F09FFA09F1EC0100F09BFA09F204
S31508003110181100F097FA41462878BDE8F04700F004
S31508003120E6BEA0F14101C9B21A293CBF2030C0B29F
S3150800313070472DE9F84F04460025A0680078DFF8A7
S31508003140C014096810F801B00026DFF8A874DFF883
S31508003150A884BBF1210F06DB08F24411387800F089
S31508003160C6FEBDE8F18FFEF7D5FC8146B24607E0FC
S315080031701AF80900FFF7D5FF0AF809000AF1010A4B
S31508003180DA45F5DB5A4608F28011484604F07DFF19
S3150800319038B9012605E0024608F28811387800F0A9
S315080031A0A6FE2801216842185368002BD9D06A1C4C
S315080031B095B2DFF848A45345F3D14058002EEAD11A
S315080031C05A46494604F055FF0028EAD10FF2A01BDB
S315080031D004E0594600F08BFE681C85B22E01206873
S315080031E031184A68002A18BF5245BAD08B68325837
S315080031F008F29011387800F07AFE2068311838788D
S31508003200CA68002AE5D008F18C0100F070FEE3E7F1
S31508003210F0B589B00446DFF8EC53A068006828705A
S31508003220DFF8E463A06840683070DFF8E07338467A
S3150800323000F025FCDFF8D803A168C9680170DFF83B
S31508003240D413A26812690A700978079107F17C01FC
S3150800325006910078059007F1740004900120039008
S3150800326044A002903078019007F16C0000902B780A
S3150800327007F1640204F1110107F1280000F0FFFBD1
S3150800328009B0F0BD007CE44951F82020E349D9484B
S31508003290007800F02CBE70B5D64C35A500F018F8AD
S315080032A0DF4E314600F015F800F012F806F1240159
S315080032B000F00FF8CBA100F00CF806F1300100F091
S315080032C008F806F13C012078BDE8704000F00FBE12
S315080032D02946207800F00BBE2DE9F74F0446276BE8
S315080032E00026DFF8108305E021A100F000FE761C19
S315080032F0B6B210377868C0B33D68DDF804904FF071
S31508003300000A0CE019F8010BFFF70BFF834615F8C6
S31508003310010BFFF706FF8345E9D10AF1010A9DF87B
S3150800332008008245EEDB350121686A1898F8000026
S31508003330DFF8C4925368DFF8C4C2634505D16A58FA
S3150800334009F1740100F0D3FDD1E793686A5809F1D1
S31508003350840100F0CCFD2068291898F80000CA6896
S31508003360002AC1D009F18C01ECE7BDE8F78F00000F
S315080033700D0A0000746167002DE9F0479CB0DFF87C
S31508003380A4820EA84146342204F0FDFD4FF0000940
S315080033908DF80190FEF73EFBA520FEF70CFB02F028
S315080033A0F9FC012300220F21104600F05BFC050002
S315080033B006D0012300220A21104600F053FC0546D8
S315080033C0012300220F21184600F04CFC060006D007
S315080033D0012300220A21184600F044FC064602F0A2
S315080033E079F9002D6DD036B107B540F29F1108F175
S315080033F08800FDF791FC01207E4D2870281DFDF7F9
S31508003400D7F8281DFFF747FF08F29806314600F05F
S3150800341019F908F1340100F015F973A700F011F94C
S31508003420281DFEF778FA314600F00CF908F13C0140
S3150800343000F008F900F005F9281DFDF7FFFA3146F6
S3150800344000F000F908F1480100F0FCF800F0F9F87E
S31508003450281D00F039F9314600F0F4F808F1540156
S3150800346000F0F0F800F0EDF8281D01F0F2F831460A
S3150800347000F0E8F808F1600100F0E4F800F0E1F87F
S31508003480281DFEF79DFF314600F0DCF808F16C01B7
S3150800349000F0D8F800F0D5F8281DFEF7A5FF31464C
S315080034A000F0D0F808F1780100F0CCF800F0C9F87F
S315080034B0281DFFF720FB4DA64DA701AC08F2A00A70
S315080034C03FE00EB1002097E700A9002000F002FCBB
S315080034D038B99DF800000D2818BF0A2818BF2A28F1
S315080034E0F0D000A9012000F0F5FB0028ECD19DF8EA
S315080034F000000D2803D00A2801D02A28E4D17AE74B
S315080035008DF800009DF800100A5D481C0A2A18BFAD
S315080035100D2A18BF002AF3D10D220A558DF800008E
S315080035209DF8002001A9281DFDF750F89DF80020F8
S3150800353001A90EA804F052FD9DF8009000208DF810
S315080035400100514600F07EF80DF10103322201A96F
S31508003550287800F003FC0028D2D0FEF728FA9DF858
S31508003560010018B301A9401810F8010C09281DD14B
S3150800357000F067F89DF80100401E8DF801009DF8DF
S31508003580012001A9281DFFF7A7FE9DF801000021CB
S315080035900155514600F056F8002004E000F04CF8BA
S315080035A09DF80000401C00F03FF8F7D39DF8040092
S315080035B02128C9D100F045F84A460EA901A804F009
S315080035C00DFD4846401E8DF80100514600F03AF8B8
S315080035D0002000F029F8B7D200F02EF89DF8000078
S315080035E0401CF6E72C2000005D0D0A00256300004C
S315080035F00D0A000070080020A4B0000891300008E9
S31508003600C008002038090020390900203CB200080B
S315080036103A0900203B09002060070020C0B20008D4
S31508003620D0B20008DC9D00088DF800009DF8000067
S315080036309DF8011088427047025D3146287800F0EF
S3150800364056BC3946287800F052BC00207047000066
S3150800365081B209B94BF6EF610E4A1180000C08BF1A
S315080036604FF6CE20508070470288130448BF4A4060
S315080036705100018090B2704738B5064C6221204649
S31508003680FFF7F2FF054641F20B01A01CFFF7ECFF1E
S31508003690684032BD2409002007B521211248FDF7EC
S315080036A03BBBFEF7D8B98068006880B202F02CBB35
S315080036B010B50E4C0E49207800F019FC207800F061
S315080036C062FCFEF76DF9FEE710B5FEF7EBF9044666
S315080036D0FEF7E1F923460246064904480078BDE8A4
S315080036E0104000F004BC000084B9000870080020EF
S315080036F094B90008C8B9000838B50446206A611D9F
S31508003700451AEDB22A46207923689847002801D041
S31508003710002032BD00F01AF804F2050020620120EC
S3150800372032BD38B50446002501E06D1CEDB2685C73
S315080037300028FAD12A46207923689847002803D119
S3150800374000F004F8012032BD002032BD94F82900AB
S31508003750281884F8290070472DE9FE4F04460D46BF
S31508003760924604F20500206204F1200604F21500D0
S315080037707060002070724FF00A0BDFF8308349E161
S3150800378098F80110252811D026280FD07B2803D0B9
S315080037907D2801D0232806D1002903D03268511C80
S315080037A0316010702DE198F80210F5E715F8012F31
S315080037B0252A01D0262A03D100F03DF928781FE1F1
S315080037C0262809D141B14FF001096E2A06D04E2AA2
S315080037D004D000F034F901E04FF000090020297800
S315080037E04E2907D0542924D06E2900F00381742964
S315080037F01FD030E05AF8047B98F800000028D1D092
S31508003800B9F1000F05D000F01AF900F014F92820D4
S31508003810087000F00EF900280ED000F005F900280F
S315080038200AD0B9F1000FBDD000F005F929200870BB
S31508003830E3E000F0FCF8002872D000F0F5F8002864
S315080038406ED000F0F6F800286AD000F0F4F83A20B6
S31508003850087001206D1C29783039C9B295F801E045
S315080038608A1E052A31D2BEF1640F02D0BEF1750F49
S315080038702BD100235AF8042B97B200970122BEF1E8
S31508003880640F08D15FEA074C05D501236FEA070CD8
S315080038900CF10107BFB237B15B1C97FBFBF7BFB250
S315080038A0002FF9D10AE05B1C08E0376807F1010C24
S315080038B0C6F800C04FF0200C87F800C01F467B1CD6
S315080038C0FFB28F42F1DB6D1C00E000226B1E2978E7
S315080038D0002900F08980322964D0342962D0482929
S315080038E055D0582955D063290CD064291BD068298E
S315080038F04DD070290CD073290BD0752913D078298F
S3150800390047D072E0206A411C21625AF8041B0170F4
S3150800391070E000F08CF818B100F086F8002869D13C
S315080039200020BDE8FE8F002A19BF00A802885AF8B1
S31508003930042B92B222B900F07EF83020087059E0C4
S31508003940002064290CD111040AD53368591C31604A
S315080039502D211970B2F5004F02D0524292B24AB1E7
S3150800396092FBFBF10BFB112201ABC254401CC0B207
S315080039708AB2F4E70146481EC0B200293AD001A926
S31508003980415C303133685A1C32601970F2E700F036
S315080039905CF85AF8041B0222C9B2206A00F08EF8B5
S315080039A0206227E015F8010F682801D048280BD1B6
S315080039B000F04BF8206A15F8011C32290AD15AF88A
S315080039C0041B042289B2E9E77828F3D05828F1D0F5
S315080039D06D1E0FE05AF8047B0422390C00F06EF8CD
S315080039E020620422B9B2D9E718B118B104F2050069
S315080039F020621D46B9F1000F03D000F01CF87D20A7
S31508003A000870206A7168884203D300F012F800280B
S31508003A1086D06D1C287800287FF4B2AE00F009F82D
S31508003A200028F5D0707A7CE73946204679E65AF8B8
S31508003A30047B204660E63168481C30607047316870
S31508003A40481C30607B20087070473168481C30601D
S31508003A50302008703168481C30607820087070473C
S31508003A600EB410B58BB000241149097809B90020A5
S31508003A7004E000F011F800B90124204608E00EB46D
S31508003A8010B58BB0002400F007F800B901242046D1
S31508003A900BB010BC5DF810FB064900910649097881
S31508003AA08DF804100DAA014600A855E6390900202C
S31508003AB038090020173F00087008002070B5134623
S31508003AC0101803E0A4192C705B1EDBB24BB101F091
S31508003AD00F060909451E28460A2EB4BF3024372486
S31508003AE0F0E7101870BD2DE9F04F89B08046894679
S31508003AF014469B4603AD002703A88DF8000010E086
S31508003B0005F8010B07A885420AD39DF80000281A74
S31508003B10C6B200F0A3F800282ED1F719FFB203ADFC
S31508003B20641C9DF80000281AC6B22078002804D024
S31508003B302528E5D114F8010F002800F085802528EE
S31508003B40DED0322863D0342861D0582856D063286E
S31508003B500AD0642825D0702809D0732807D075287C
S31508003B601FD078284AD0CDE75BF8040BC8E75BF886
S31508003B7004AB00F073F800286CD1F719FFB203AD57
S31508003B80002601E0701CC6B216F80A000028F9D112
S31508003B90324651464846C04700285BD1F719FFB25E
S31508003BA0B0E75BF8041B89B209B93020A8E7002002
S31508003BB02278642A0AD10A0408D52D2205F8012B91
S31508003BC0B1F5004F02D0494289B259B10A2291FB98
S31508003BD0F2F20A2303FB121101ABC154401CC0B216
S31508003BE091B2F2E70146481EC0B200291FBF01A9DB
S31508003BF0415C303105F8011BF4D183E75BF8041BFF
S31508003C000222C9B22846FFF759FF05467AE714F893
S31508003C10010F782803D0582818BF641EF6D114F867
S31508003C20010C322802BF5BF8041B042289B2E9D0D2
S31508003C305BF804AB04224FEA1A412846FFF73EFF19
S31508003C4004221FFA8AF1DEE700F008F810B9F01925
S31508003C50C0B200E0002009B0BDE8F08F324603A9E3
S31508003C60484640472DE9F04E0446894692469B460B
S31508003C70022C23D2DFF874032018807901281DD17D
S31508003C80DFF86C5305EB8406776801F015FD002113
S31508003C90B9703970797001F00BFDF66801F00CFD0A
S31508003CA00021B17031707170615501F001FD5B46FC
S31508003CB052464946204601F0FFFA00E02120BDE8B9
S31508003CC0F08E10B5044601F0FDFB00F0F9F8C06867
S31508003CD0807810BD2DE9F84389460446DFF810536D
S31508003CE005EB8401CF68DFF8041304EB010898F8A4
S31508003CF0061009B901202FE06619615D61B1B17836
S31508003D007A78914208D101F0D7FC665D00216155A9
S31508003D1001F0CEFC30461FE001F0D4FBB878D0B1F4
S31508003D2001F0CAFC7978C919C97889F80010797838
S31508003D30491C98F8042011407970B978491EB97061
S31508003D4001F0B6FC605D20B1B078FF2804BF387872
S31508003D50B070002000E02620BDE8F283F8B50446DE
S31508003D600F4616461D46287808B1B04208D30020EB
S31508003D70387005E02878411C29709DF80010C15557
S31508003D8000A92046FFF7A6FF002852D19DF800009B
S31508003D908028F5D2287828B99DF800100A29EFD08E
S31508003DA00029EDD0B04207D3002028709DF8000006
S31508003DB00D28E5D00028E3D028789DF800100829BA
S31508003DC00BD10028DCD0401E2870C0B20021C15596
S31508003DD084A1204600F046F8D2E7801C8642BCBF84
S31508003DE00D208DF800009DF8000000F023F89DF8DE
S31508003DF000006138C0B21A2804D29DF800002038A5
S31508003E008DF800009DF800000D2818BF0A28B1D1CA
S31508003E1028780021C1559DF800000D2804D10A20F4
S31508003E2000F008F8002602E00D2000F003F82E70D6
S31508003E300020F2BD8DF8010001220DF10101204696
S31508003E4069E010B5694BCC5CA21AC918097A11B198
S31508003E5081789142FCDA8078904201DA012010BD1F
S31508003E60002010BDF8B504460D4600F087F825D1A8
S31508003E7000F026F8466811E001F01EFC317831445E
S31508003E8015F8012BCA703178491CBA1CA25C11407E
S31508003E903170B178491CB17001F00AFC287840B13C
S31508003EA0002221463046FFF7CCFF0028E4D1222025
S31508003EB0F2BD204601F040FA0020F2BD0120F2BD15
S31508003EC04B4800EB8400704747A110E010B500246A
S31508003ED0464BC3189B79012B07D113460A46014660
S31508003EE04448FFF700FE00B90124204610BD0CB473
S31508003EF080B502AAFFF7EAFF02BC5DF80CFB0CB41A
S31508003F0038B5044604AAFFF7E1FF05462046FFF741
S31508003F10DBFF284663E02DE9F0420446894616464B
S31508003F2000F02CF827D1FFF7CBFF456811E001F028
S31508003F30C3FB2978491919F8012BCA702978491C35
S31508003F40BA1CA25C11402970A978491CA97001F015
S31508003F50AFFB3046461EC0B240B100222146284675
S31508003F60FFF76FFF0028E2D1222005E0204601F086
S31508003F70E3F9002000E00120BDE8F0821B4FE019BC
S31508003F8080790128704780B5184A82189279012AE3
S31508003F9006D1174A02EB800149688A78002AFCD1C3
S31508003FA001F01AFA002002BD0CB438B504460D46D5
S31508003FB001F0EAF904AB2A4621460F48FFF793FDBC
S31508003FC00A4961188979012908D1094901EB840050
S31508003FD04068807810B1204601F0AEF9002032BC66
S31508003FE05DF80CFB082008000D0A0000E6C300086F
S31508003FF0A8080020173F0008995300082DE9F9473B
S3150800400084B01022FF2100A804F02BF8DFF8809076
S315080040104C22FF21484604F024F820254FF0100AC8
S315080040200027DFF870801C48385C411C01EBD17111
S315080040304C101A497E5CFF2804D107B56C2140460E
S31508004040FCF76AFE7F2E04D307B56D214046FCF7C0
S3150800405063FE1348385C00B11934601C00FB065532
S31508004060012E1CBF29F817A0B2447F1C102FDADBDB
S31508004070B5F5806F04D307B57A214046FCF74CFEA8
S3150800408000A99DF8100003F086F806B0BDE8F08791
S31508004090200F0020D8B90008B8BC0008C8BC000822
S315080040A0A8BC00087047704701F09BBC38B50446A9
S315080040B0432C2CD0442C03D1BDE8314003F010BC6E
S315080040C0452C06D103F00CFC03F00AFC03F008FCAF
S315080040D0F2E7462C01D0472C13D10D4D287800283D
S315080040E015D1012028700020FFF788FF472C0CBF48
S315080040F040F6010040F6020001F006FE0020287096
S3150800410031BD07B540F22E210248FCF705FE31BD48
S31508004110D2100020F8B9000870B5DFF82C44DFF893
S315080041202C5400F009FA05F1180100F00AFADFF834
S315080041302034DFF8202400F0F5F94CF2443205F17A
S315080041407C0100F071FA05F1840100F0F2F9F4A699
S3150800415000F0F6F9DFF80034DFF8002400F0E2F9A1
S315080041604FF2640205F17C0100F05EFA05F1940154
S3150800417000F0DFF900F0E4F9DFF8E433DFF8E423D0
S3150800418000F0D0F94FF2644205F17C0100F04CFAD8
S3150800419005F1A40100F0CDF900F0D2F9DFF8C83333
S315080041A0DFF8C82300F0BEF94EF2455205F17C014E
S315080041B000F03AFA05F1B40100F0BBF900F0C0F9D5
S315080041C0DFF8AC33DFF8AC2300F0ACF94FF26E42FF
S315080041D005F17C0100F028FA05F1C40100F0A9F9FF
S315080041E000F0AEF9DFF89033DFF8902300F09AF983
S315080041F04FF2424205F17C0100F016FA05F1DC01A6
S3150800420000F097F900F09CF9DFF87433DFF87423AF
S3150800421000F088F94FF2624205F17C0100F004FAD9
S3150800422000F085F900F08CF9DFF85C33DFF85C23E1
S3150800423000F078F94FF2742205F17C0100F0F4F9E8
S3150800424005F20C1100F075F900F07AF9DFF8403341
S31508004250DFF8402300F066F94FF2762205F17C017B
S3150800426000F0E2F905F21C1100F063F900F068F9B4
S31508004270DFF82433DFF8242300F054F94FF276628E
S3150800428005F17C0100F0D0F905F2301100F051F982
S3150800429000F056F9DFF80833DFF8082300F042F992
S315080042A04FF2634205F17C0100F0BEF905F24411B4
S315080042B000F03FF900F044F9DFF8EC32DFF8EC22C1
S315080042C000F030F94FF6097205F17C0100F0ACF9FF
S315080042D005F2541100F02DF900F032F9DFF8D0326A
S315080042E0DFF8D02200F01EF94EF2636205F17C0178
S315080042F000F09AF905F2641100F01BF900F020F9B4
S31508004300DFF8B432DFF8B42200F00CF94EF26F622F
S3150800431005F17C0100F088F905F2781100F009F939
S3150800432000F00EF9DFF89832DFF8982200F0FAF874
S315080043304EF26F3205F17C0100F076F905F2841130
S3150800434000F0F7F800F0FCF8DFF87C32DFF87C22A2
S3150800435000F0E8F84CF2563205F17C0100F064F9F9
S3150800436005F2901100F0E5F800F0EAF8DFF860329F
S31508004370DFF8602200F0D6F84EF2453205F17C01EE
S3150800438000F052F905F2A41100F0D3F800F0D8F8BD
S31508004390DFF84432DFF8442200F0C4F84EF67352D0
S315080043A005F17C0100F040F905F2B81100F0C1F8FA
S315080043B000F0C6F8DFF82832DFF8282200F0B2F855
S315080043C04CF24E2205F17C0100F02EF905F2C411DB
S315080043D000F0AFF800F0B4F8DFF80C32DFF80C2282
S315080043E000F0A0F84CF6441205F17C0100F01CF927
S315080043F005F2D41100F09DF800F0A2F8DFF8F031CC
S31508004400DFF8F02100F08EF84DF2430205F17C0149
S3150800441000F00AF905F2E41100F08BF800F090F8C4
S31508004420DFF8D431DFF8D42100F07CF84CF24B22C7
S3150800443005F17C0100F0F8F805F2F41100F079F8BE
S3150800444000F07EF8DFF8B831DFF8B82100F06AF836
S315080044504CF6535205F17C0100F0E6F805F20C2102
S3150800446000F067F800F06CF8DFF89C31DFF89C2163
S3150800447000F058F84CF2431205F17C0100F0D4F82C
S3150800448005F2202100F055F800F05AF8DFF88031DF
S31508004490DFF8802100F046F84CF2423205F17C0143
S315080044A000F0C2F805F2302100F043F800F048F8B1
S315080044B0DFF86431DFF8642100F034F84CF6431273
S315080044C005F17C0100F0B0F805F2402100F031F862
S315080044D000F036F8DFF84831DFF8542100F022F80A
S315080044E04BF2542205F17C0100F09EF805F25821A2
S315080044F000F01FF800F024F805F1480100F021F853
S315080045004BF2346205F17C0100F08EF805F2702159
S3150800451000F00FF831462078BDE87040FFF7E7BC99
S315080045200D0A000005F168012078FFF7E0BC05F1E7
S31508004530F4012078FFF796BC29462078FFF7D7BC08
S3150800454031462078FFF7D3BC700800200CBA000863
S31508004550950704087E0704089B07040896070408BD
S31508004560A10704089C070408A9070408A207040869
S31508004570BD070408AA070408D1070408BE070408EB
S31508004580DB070408D2070408DD070408DC0704086B
S31508004590DF070408DE070408E1070408E007040843
S315080045A0E3070408E2070408F5070408F407040803
S315080045B0F7070408F6070408FF070408F8070408BD
S315080045C00F0804080008040811080408100804085D
S315080045D01908040812080408290804081A0804080F
S315080045E0390804082A0804083B0804083A08040895
S315080045F03D0804083C0804084D0804083E08040859
S31508004600550804084E0804087D08040856080408D6
S31508004610D90804087E080408ED080408DA0804081E
S31508004620EF080408012231462078FFF760BC000035
S31508004630EE08040838B5DFF84846DFF84856294634
S3150800464000F02BF805F110012078BDE83440FFF79B
S315080046504EBC38B500F076FB02001CD0DFF82046C9
S315080046602078DFF82456042A03D12946FFF73FFCB1
S315080046700DE0062A08BF05F14801F7D0072A02D13E
S3150800468005F18801F2E705F1CC01FFF730FC05F1E9
S31508004690FC0100F002F831BD39462078FFF727BC47
S315080046A02DE9F04FA1B080680588FFF7C3FF2846BB
S315080046B000F0E0FC0446284600F0B1FB8046284698
S315080046C000F073FD8346DFF8B8753878DFF8BC1557
S315080046D07CB34FF6FF7290452BD023462A460C3101
S315080046E0FFF705FC00250FF254090FF2540A09E0FA
S315080046F000A8325C49463878FFF7F9FB761CA642D3
S31508004700F6DB6D1C5D4512DABBF1010F234604D1B9
S315080047107F22414600F004FB07E0EAB2414600F07A
S31508004720FFFA51463878FFF7E2FB0026E7E75146DD
S315080047303878FFF7DCFB21B0BDE8F08F202558005C
S315080047400D0A00002DE9F043B7B0FFF773FFDFF855
S315080047503045DFF83C554CF2443200F0EEFA05F1EC
S31508004760080100F0E7FA18237F22DFF828050188F8
S315080047701AA800F01DFB00270FF208381AA83A5CA1
S3150800478000F0D4FA7F1C182FF8D3BFA7FFF784FFD1
S315080047904FF2640200F0D1FA05F1180100F0CAFAE6
S315080047A006237F22DFF8F00400F0B5FA002601A8F8
S315080047B000F0BBFA761C062EF9D3FFF76DFF4FF211
S315080047C0644200F0BAFA05F1280100F0B3FA0623AC
S315080047D07F22DFF8C804018807A800F0E9FA002656
S315080047E007A800F0A2FA761C062EF9D3FFF754FFA5
S315080047F04EF2455200F0A1FA05F1380100F09AFA96
S3150800480008237F22DFF8980400F085FA002601A81D
S3150800481000F08BFA761C082EF9D3FFF73DFF4FF20E
S315080048206E4200F08AFA05F1480100F083FA142373
S315080048307F22DFF87004018815A800F0B9FA00266F
S3150800484015A800F072FA761C142EF9D3FFF724FF88
S315080048504FF2424200F071FA05F1600100F06AFA7F
S3150800486014237F22DFF84004018809A800F0A0FA83
S31508004870002609A800F059FA761C142EF9D3FFF77A
S315080048800BFF4FF2624200F058FA05F1780100F08A
S3150800489051FA0A237F22DFF8140401880EA800F0D3
S315080048A087FA00260EA800F040FA761C0A2EF9D3DD
S315080048B0FFF7F2FE4FF2742200F03FFA05F190017D
S315080048C000F038FA02237F22DFF8E40300F01EFA2C
S315080048D0002600F028FA761C022EFAD3FFF7DCFE33
S315080048E04FF2762200F029FA05F1A00100F022FA2B
S315080048F002237F22DFF8BC0300F011FA002600A885
S3150800490000F013FA761C022EF9D3FFF7C5FE4FF214
S31508004910766200F012FA05F1B40100F00BFA0223F0
S315080049207F22E54800F0F2F9002600F0FCF9761C33
S31508004930022EFAD3FFF7B0FE4FF2634200F0FDF9FC
S3150800494005F1C80100F0F6F902237F22DB4800F0E2
S31508004950E6F9002600A800F0E8F9761C022EF9D33D
S31508004960FFF79AFE4FF6097200F0E7F905F1D8014C
S3150800497000F0E0F902237F22D14800F0C7F90026AB
S3150800498000F0D1F9761C022EFAD3FFF785FE4EF217
S31508004990636200F0D2F905F1E80100F0CBF90223D1
S315080049A07F22C84800F0BBF9002600A800F0BDF930
S315080049B0761C022EF9D3FFF76FFE4EF26F6200F0F7
S315080049C0BCF905F1FC0100F0B5F908237F22BE48C1
S315080049D000F0A1F9002601A800F0A7F9761C082E18
S315080049E0F9D3FFF759FE4EF26F3200F0A6F905F239
S315080049F0081100F09FF910237F22B44800F082F9CD
S31508004A00002603A800F091F9761C102EF9D3FFF7BB
S31508004A1043FE4CF2563200F090F905F2141100F0FC
S31508004A2089F902237F22AA4800F079F9002600A80E
S31508004A3000F07BF9761C022EF9D3FFF72DFE4EF215
S31508004A40453200F07AF905F2281100F073F90823C7
S31508004A507F22A04800F05FF9002601A800F065F95A
S31508004A60761C082EF9D3FFF717FE4EF6735200F0A0
S31508004A7064F905F23C1100F05DF910237F2296488F
S31508004A8004E000BF202558000D0A000000F03AF99E
S31508004A90002603A800F049F9761C102EF9D3FFF773
S31508004AA0FBFD4CF24E2200F048F905F2481100F0E1
S31508004AB041F910237F228948018811A800F078F966
S31508004AC0002611A800F031F9761C102EF9D3FFF74D
S31508004AD0E3FD4CF6441200F030F905F2581100F0E7
S31508004AE029F902237F227E4800F019F9002600A83A
S31508004AF000F01BF9761C022EF9D3FFF7CDFD4DF217
S31508004B00430200F01AF905F2681100F013F90223BE
S31508004B107F22744800F0FAF8002600F004F9761CA3
S31508004B20022EFAD3FFF7B8FD4CF24B2200F005F936
S31508004B3005F2781100F0FEF810237F226A4800F08B
S31508004B40E1F8002603A800F0F0F8761C102EF9D339
S31508004B50FFF7A2FD4CF6535200F0EFF805F290115C
S31508004B6000F0E8F808237F22604800F0D4F8002611
S31508004B7001A800F0DAF8761C082EF9D3FFF78CFDA9
S31508004B804CF2431200F0D9F805F2A41100F0D2F85D
S31508004B9000260223F2B2564800F0C1F84FF0000989
S31508004BA000A819F8002000F0C1F809F10109B9F1C7
S31508004BB0020FF5D3761C142EEBDBFFF76DFD4CF2D6
S31508004BC0423200F0BAF805F2B41100F0B3F85C23EB
S31508004BD07F224848018820A800F0EAF8002620A885
S31508004BE000F0A3F8761C5C2EF9D3FFF755FD4CF6BA
S31508004BF0431200F0A2F805F2C41100F09BF8142342
S31508004C007F223D48018809A800F0D2F8002609A8A5
S31508004C1000F08BF8761C142EF9D3FFF73DFD4BF206
S31508004C20542200F08AF805F2DC1100F083F802231A
S31508004C307F22324800F073F8002600A800F075F8C5
S31508004C40761C022EF9D3FFF727FD4BF2346200F0EB
S31508004C5074F805F2F41100F06DF808237F2228484D
S31508004C6000F059F8002501A82A5C00F05FF86D1CD1
S31508004C70082DF8D3FFF710FD37B0BDE8F083000024
S31508004C8070080020F0BD000828BE00085CBF0008B8
S31508004C908CBF0008ACC30008AEC30008B0C3000848
S31508004CA0B2C30008B4C30008B6C30008B8C30008F6
S31508004CB0BAC30008BCC30008BEC30008C0C30008C6
S31508004CC0C2C30008C4C30008C6C30008C8C3000896
S31508004CD0CAC30008CCC30008CEC30008D0C3000866
S31508004CE0D2C30008D4C30008D6C30008D8C3000836
S31508004CF0DAC30008DCC30008DEC30008E0C3000806
S31508004D00E2C30008018803A800F052B801880DF133
S31508004D10020000F04DB8018801A800F049B80188E2
S31508004D2000A800F045B80DF10200325C4146207833
S31508004D30FFF7DDB82078FFF795B829462078FFF702
S31508004D40D6B8000010B582B0AC4C01202070002007
S31508004D50FFF754F940B10020FFF750F9002803D0B7
S31508004D6000202070492016BD02237F22A44801880E
S31508004D700DF1020000F01CF802237F22002100A892
S31508004D8000F016F8BDF80200B0F5FF7FBDF8000088
S31508004D904FF47F7103D1884206D1002016BD8842A0
S31508004DA00CBF0620042000E007200121217016BD53
S31508004DB010B54FF48074A14208D2904C2478002C88
S31508004DC006D0C9B2BDE8104002F06EBBFCF7B6FDCE
S31508004DD010BD00002DE9F04104460D4616469846DA
S31508004DE088484FF480718C4213D2844F3978A1B128
S31508004DF0797819B107B59721FBF78EFF01207870EE
S31508004E0043462A463146E0B202F0AAFC00207870F2
S31508004E1003E007B5A221FBF77FFFBDE8F0814BF25F
S31508004E205421401A00F0C2804FF47871401A00F0FD
S31508004E30BF8040F60F31401A00F0B2804FF48471FB
S31508004E40401A00F0A980C01E00F0A080F43800F0D7
S31508004E50A980801E75D0123800F0928040F2ED517C
S31508004E60401A00F0A180401E00F0928040F20F41E7
S31508004E70401A00F093804FF43C71401A00F08A8083
S31508004E804FF40071401A00F0AB804FF46E61401A7F
S31508004E9000F09280401E00F09F80401E00F09E8029
S31508004EA03D3800F0918040F20111401A00F08880E8
S31508004EB0113800F09780D13864D01F3800F08A8006
S31508004EC00B385BD0E73800F091801F3876D08B38E6
S31508004ED000F08E8045383BD01E3873D04FF4807171
S31508004EE0401A47D00C3847D040F20A51401A6DD0C4
S31508004EF04FF4FD71401A47D0F13869D04FF400716C
S31508004F00401A20D04FF40471401A29D0801E29D0A7
S31508004F104FF4E671401A1FD020381FD0401E25D006
S31508004F20401E12D00A3815D04FF40271401A1BD011
S31508004F3040F68B01401A3DD0083819D0001F53D0CF
S31508004F4058E0314802E0314800E0314800887047AF
S31508004F503048FBE73048F9E73048F7E73048F5E7E7
S31508004F603048F3E73048F1E73048EFE73048EDE7F7
S31508004F702348EBE72F48E9E72F48E7E72F48E5E717
S31508004F802F48E3E72F48E1E72F48DFE72F48DDE71B
S31508004F902F48DBE72F48D9E72F48D7E72F48D5E72B
S31508004FA02F48D3E72F48D1E72F48CFE72F48CDE73B
S31508004FB02F48CBE700207047012070470220704732
S31508004FC00320704704207047052070470620704765
S31508004FD00720704708207047092070470A20704745
S31508004FE00B2070470C2070470D2070470E20704725
S31508004FF00F2070474FF6FF7070470000D31000204F
S31508005000C2C300088CC10008ACC30008AEC30008C0
S31508005010B0C30008B2C30008B4C30008B6C300088A
S31508005020B8C30008BAC30008BCC30008BEC300085A
S31508005030C0C30008C4C30008C6C30008C8C3000824
S31508005040CAC30008CCC30008CEC30008D0C30008F2
S31508005050D2C30008D4C30008D6C30008D8C30008C2
S31508005060DAC30008DCC30008DEC30008E0C3000892
S31508005070E2C300084BF25421401A06D04FF4787167
S31508005080401A18D040F60F31401A78D04FF4847180
S31508005090401A78D0C01E76D0F43830D0801E66D03C
S315080050A012386CD040F2ED51401A64D0401E66D0DA
S315080050B040F20F41401A64D04FF43C71401A5ED05A
S315080050C04FF40071401A60D04FF46E61401A5CD0FC
S315080050D0401E5ED0401E54D03D3850D040F20111DB
S315080050E0401A4CD0113856D0D1384AD01F3850D033
S315080050F00B3848D0E73852D01F3848D08B3850D0B4
S3150800510045383ED01E3840D04FF48071401A36D00C
S315080051100C3836D040F20A51401A38D04FF4FD7197
S31508005120401A30D0F1382ED04FF40071401A20D0F2
S315080051304FF40471401A22D0801E20D04FF4E67135
S31508005140401A18D0203818D0401E18D0401E10D04B
S315080051500A3810D04FF40271401A10D040F68B016D
S31508005160401A0CD008380AD0001F16D01BE01820A9
S31508005170704706207047142070470A20704702209F
S315080051807047082070471020704704207047112088
S3150800519070471A2070470D2070470B20704719205A
S315080051A070475C207047002070474BF25421401A24
S315080051B078D04FF47871401A74D040F60F31401AFF
S315080051C072D04FF48471401A6CD0C01E6AD0F4387D
S315080051D068D0801E66D0123864D040F2ED51401A6D
S315080051E060D0401E5ED040F20F41401A5AD04FF4AC
S315080051F03C71401A56D04FF40071401A56D04FF4FD
S315080052006E61401A4ED0401E4CD0401E4AD03D38E2
S3150800521048D040F20111401A44D011384AD0D1384A
S3150800522040D01F383ED00B383CD0E73842D01F3824
S3150800523038D08B383ED0453834D01E3832D04FF46B
S315080052408071401A2ED00C382CD040F20A51401AE0
S3150800525028D04FF4FD71401A24D0F13822D04FF4EB
S315080052600071401A1ED04FF40471401A1AD0801EDD
S3150800527018D04FF4E671401A14D0203812D0401EC8
S3150800528010D0401E0ED00A380CD04FF40271401AC6
S3150800529008D040F68B01401A04D0083802D0001F07
S315080052A006D007E001207047142070471020704789
S315080052B0062070470020704700283BD0012838D1C7
S315080052C0132905D2984850F8210010F1010F01D191
S315080052D0202070479549002842BF40424861012076
S315080052E05CBF486100208861180907280CBF0020A8
S315080052F00220012A08BF40F0180003D0022A08BF7E
S3150800530040F0080003F00F02022AA8BF40F004008C
S315080053108860012008608648016C46F2090211433C
S3150800532001644FF6FF710160824820210160002068
S31508005330704721207047000010B588B97E48046878
S31508005340607828B107B540F24F117C48FBF7E4FCBA
S31508005350A178E01CFBF7DDFB0020A070207010BDD3
S31508005360012810D17148006801280CD100F0A4F971
S3150800537004467348016841F00601016000F0A3F88D
S31508005380204600F095F910BD012804D16C48016843
S3150800539021F006010160704780B50B46114620B919
S315080053A01846FBF7B6FB002002BD012803D1654865
S315080053B08269012A07D0212002BDC2685207FCD59E
S315080053C013F8012B02600A46511ED2B2002AF4D104
S315080053D0C1684906FCD5E6E710B50446FCF7E7FAC6
S315080053E0012C03D15A4800684006FBD510BD30B5DC
S315080053F0554A1268554B1B780BE01478A41810F818
S31508005400015BE5701478641C1C4014709478641C65
S3150800541094700C46611EE4B2002C15D094789C4218
S31508005420EBD34C484C490C78002C04D11278027006
S315080054302320087030BD007810702320087010787B
S315080054405178401A1840907030BD70B53E48406893
S315080054503E49404A404B3B4C0DE086783F2E19D2D8
S3150800546006783618F57005786D1C4E783540057047
S3150800547085786D1C8570E568AD0722D5E56815F059
S3150800548038062568EDB2E8D0350705D4F50605D502
S31508005490242607E0232605E0272603E0B5064CBFA9
S315080054A0252601265D781DB9057855705E70E2E7F8
S315080054B0557805705E7005784678AD1B4E78354090
S315080054C0D8E770BD704710B51B48406823491D4A88
S315080054D00BE043781B18DB78136043785B1C4C7829
S315080054E02340437083785B1E8370837813B1D36837
S315080054F05B07EED410BD704738B50D4C0DE025603E
S3150800550046F2297005421CBFA8B2FFF79EFF41F676
S31508005510D600054218BFFFF7D6FF2068216C11EAAE
S315080055200005ECD131BD00009CC1000854C80040FC
