S00B000074616C6B2E7333373D
S315080000000004002059280008FB2E0008FB2E0008D3
S31508000010FB2E0008FB2E0008FB2E0008000000003F
S31508000020000000000000000000000000FB2E000891
S31508000030FB2E00080000000069070008FB2E0008D8
S31508000040FB2E0008FB2E0008FB2E0008FB2E0008DE
S31508000050FB2E0008BB130008FB2E0008FB2E000829
S315080000607F140008E11900082D2100081105000871
S31508000070FB2E0008FB2E0008FB2E0008FB2E0008AE
S31508000080FB2E0008DD2F000888020000F40400207B
S3150800009000000000F72F0008010000000100000022
S315080000A08C3000083C00000000040020F40000002A
S315080000B0000202024B4B46477665726966794669C5
S315080000C062282900563A5C6C696E6B5F73746D33EF
S315080000D032775F6275696C645C68616C5C6D6963D4
S315080000E0726F5C636F727465786D335C666C61738E
S315080000F0682E6300FFFFFFFFFFFFFFFF46414C53DB
S3150800010045000000563A5C6C696E6B5F73746D331C
S3150800011032775F6275696C645C68616C5C6D696393
S31508000120726F5C636F727465786D335C6D69637248
S315080001306F2D636F6D6D6F6E2D696E7465726E616E
S315080001406C2E630000B0004004B0004000B40040CC
S3150800015004B4004000B8004004B80040284E564D8C
S315080001605F4C4546545F50414745254D46425F50D2
S315080001704147455F53495A455F42293D3D30000096
S31508000180563A5C6C696E6B5F73746D3332775F6277
S3150800019075696C645C68616C5C6D6963726F5C63DD
S315080001A06F727465786D335C6E766D2E6300000031
S315080001B0284E564D5F52494748545F50414745259A
S315080001C04D46425F504147455F53495A455F42296C
S315080001D03D3D3000286F6666736574263078312990
S315080001E03D3D3000286C656E677468263078312985
S315080001F03D3D30006F66667365742B6C656E67747B
S31508000200683C4E564D5F444154415F53495A455FD9
S31508000210420000007374617475733D3D53545F5317
S315080002205543434553530000563A5C6C696E6B5F01
S3150800023073746D3332775F6275696C645C73696D6C
S31508000240706C656D61635C64656D6F735C74616C1D
S315080002506B5C74616C6B2E63000000000D0A5369B9
S315080002606D706C654D414320282573292054616CB7
S315080002706B204170706C69636174696F6E0D0A005A
S31508000280312E302E31000000286261756472617467
S3150800029065203E3D203330302920262620286261FD
S315080002A0756472617465203C3D39323136303029C7
S315080002B000000000563A5C6C696E6B5F73746D33B0
S315080002C032775F6275696C645C68616C5C6D6963E2
S315080002D0726F5C636F727465786D335C7561727486
S315080002E02E630000AA21290055232900002528008D
S315080002F0AA26270055282700002A2600AA2B26000A
S31508000300552D2500002F2400AA302400553223003D
S3150800031000342200AA352200553721000039200072
S31508000320AA3A2000D5E6ECEFF2F4F5F7F8F9FAFB6D
S31508000330FBFCFCFDFDFEFEFFFFFF000000010101C6
S315080003400202020300000001030A000030203D3DBE
S3150800035020282828446D6141646472657373547952
S3150800036070652962756666292026203129000000F5
S31508000370737461636B5C7068795C73746D33327720
S315080003803130387878636C6173735C7068792D6383
S315080003906F6D6D6F6E2E630053545F53554343451F
S315080003A05353203D3D2073746D526164696F5365E4
S315080003B0744368616E6E656C2873746D5261646906
S315080003C06F4368616E6E656C290000007278446D33
S315080003D061576F7264436F756E74203E2034000057
S315080003E0737461636B5C7068795C73746D333277B0
S315080003F031303878785C7068792E6300626F74687B
S31508000400546F6B2E696666696C7465724820213D67
S315080004102030786666666600737461636B5C706824
S31508000420795C73746D3332773130387878636C6100
S3150800043073735C616E616C6F6775652D66696C7444
S3150800044065722E630000000010F0B0C0D0000000F6
S315080004501120304060708090A0E00000626F7468E0
S315080004602E746F6B2E626961736D61737465722089
S31508000470213D203078666666660000007374616305
S315080004806B5C7068795C73746D33327731303878A9
S3150800049078636C6173735C616E616C6F6775652DEB
S315080004A063656C6C2D626961732E63007374616396
S315080004B06B5C7068795C73746D3332773130387879
S315080004C078636C6173735C616E616C6F6775652DBB
S315080004D076636F2E63000000496E2066756E63743E
S315080004E0696F6E2000000000202D2D2000000000FE
S315080004F0202D2D20617373657274696F6E20666195
S31508000500696C65640A000000686C747A4C00000027
S3150800051070B52A4842782A490B685B0722D5032A10
S3150800052020DA00EB420384889C810123847803FA4D
S3150800053002F2224382700278224C82B1002502E040
S315080005406D1C032D0EDA03FA05F61642F8D045702F
S315080005507240027000EB4500808A206002E022604B
S31508000560032242704FF6FF700860BFF35F8F70BDBD
S31508000570124800210170032141700021C170052134
S315080005800181002181700F4900220A604A604FF4F8
S3150800059000428A601022CA60001D486101208861F5
S315080005A00320C8600648042101644FF6FF71016004
S315080005B005484FF40061016000F02ABA1C070020C4
S315080005C010A8004004D0004000E100E02DE9F04109
S315080005D000245C4D2C605C4E34604FF4A040706083
S315080005E041F29A08404600F0E8FA686844F69041F5
S315080005F0081A00B24FF4487190FBF1F000B200F30C
S3150800060003003060404600F0D8FA0827404600F05C
S31508000610D4FA686804197F1EF8D14C48211DC90808
S31508000620B0FBF1F080B27060BDE8F08138B56FF0CC
S315080006300F04474D0120A8602C60802000F0BDFA09
S31508000640E868FF2802D8641C102CF5DB31BD10B50C
S31508000650404C41480088206040F2DC5000F0ADFA7A
S31508000660A06800F0010010BD70B53C4C0220206166
S31508000670394D002028801026F605360E28883018B1
S315080006802880FFF7E4FF10B12888801B2880002EF9
S31508000690F2D12068C00702D42888401C2880288800
S315080006A00D2834BF801C0F20288070BD70B500242B
S315080006B04FF6FF76284D2888B0420BD102237F22B9
S315080006C027480188284600F071F92888B04208BFF3
S315080006D0FFF7CAFF214E02203061FFF7B8FF3168E5
S315080006E011F0020118BF01212A8800B9521C21B154
S315080006F092B2032A24BF521E01242A802A8801B9ED
S3150800070018B9D11E89B20C29E7D308B1022A06D234
S315080007100D2A02D2901C288002E00F20FBE70CB1BC
S31508000720FFF795FF306940F00100306101207061E4
S3150800073000F0E8FC0B4911220A60BDE8704000F0A1
S31508000740DDBC0000104000400C0000400060E316CD
S3150800075008400040044000405E0400200C40004071
S31508000760F62E0008008000400B48007850B1EFF3E1
S315080007700880A0F1200080F3088880E8F00F074978
S31508000780086030BF0548006890E8F00F00F12000C7
S3150800079080F30888704700004C07002050070020A7
S315080007A00248006880F3088862B670475007002040
S315080007B03748018A40F6A772914209D1418A4FF417
S315080007C07F40014204D102298041C043C00F7047CF
S315080007D0002070472DE9F0470446884600F092FC51
S315080007E082462A4F012038702A4DFFF7E1FF40B9AB
S315080007F0E82205F1140105F1080002F0A2FB02F057
S315080008009FFB2348D0F8289041464FF48070204338
S31508000810C8470646504600F071FC002038700EB1F5
S31508000820705D05E041464FF400702043C847405DBF
S31508000830BDE8F0872DE9F04780468946560000F066
S3150800084061FC8246134CFFF7B3FF48B940F2291200
S3150800085004F1140104F1080002F073FB02F070FBC6
S315080008600B48456A0023324649464046A84707468C
S31508000870504600F043FC0FB1385D05E033460022D0
S3150800088049464046A847005DBDE8F0877A0700203C
S3150800089000000408B000000880B501210E2000F011
S315080008A0B9F901210D2000F0B5F90E2000F004F881
S315080008B00D20BDE80240FFE7C108032908D2C11090
S315080008C089020F4A012300F0070003FA00F050508E
S315080008D0704710B5044600F015FCE10803290AD252
S315080008E0E110084A02EB81210A68012304F0070493
S315080008F0A3405A400A60BDE8104000F0FFBB000064
S3150800090010B000400CB0004080B51D4840F20731D9
S31508000910016072B61B490A6822F001020A601A4988
S3150800092011220A6019491A4A4A601A4A8A604FF01F
S3150800093078424A61184A8A61184ACA61184A194BA4
S3150800094013604FF0803353609360D360E0231361E4
S3150800095010220A614FF4E0220A624069800609D52E
S31508000960114800220270086840F080500860FFF7BE
S3150800097017FFFEE700F0C6FB62B6012002BD00BF06
S3150800098018000040FCED00E00080004004ED00E0A7
S31508000990000000080004FA05F8F8F84080F84080DE
S315080009A000E400E0808040804C07002030B583B02A
S315080009B0044610467F2808BF0020B1F5004F19D11C
S315080009C008237F2240F6120100A8FFF7EFFF08224E
S315080009D00D4900A800F092F930B908237F2240F2A9
S315080009E0A27100A8FFF7E2FF082200A9204600F03E
S315080009F083F937BD1A46054D294300FB03112046E6
S31508000A0000F07AF937BD0000F40000080000040879
S31508000A10E0B50A237F227348018800A8FFF7C6FFBE
S31508000A20BDF806004FF6FF71884208D16E48372296
S31508000A3000F1080102F085FA02F082FA07BD6B4957
S31508000A404A68002AFBD1C0228A6001220A60002275
S31508000A500A604A68002AFCD10A69C8600220086050
S31508000A600020086048680028FCD107BD6048016876
S31508000A7021F0010101607047F8B516461F46069C2D
S31508000A805C4D286C20F00800286400F03BFB390315
S31508000A9041EAC61141EA840141F00101544A116054
S31508000AA00821296000F02AFB0020F2BD514802689F
S31508000AB01207FCD5082202604F480068088000200B
S31508000AC0704730B583B002237F224C48018801A8BD
S31508000AD0FFF76CFF00200090022303220021FFF796
S31508000AE0CBFF00F035F8BDF8064000200090022341
S31508000AF001220146FFF7C0FF00F02AF8BDF80650AC
S31508000B0000200090022302460146FFF7B5FF00F0D9
S31508000B101FF83748016821F001010160BDF804009B
S31508000B204FF6FF7188420EBF4FF4E1600A2190FB31
S31508000B30F1F0ADF80400BDF80600001B0004291BFF
S31508000B40B0FBF1F0BDF8041048434000000C3EBD70
S31508000B500DF106010020A9E710B5294CFFF7B1FFF2
S31508000B6040F68C218842206834BF40F0080020F007
S31508000B700800206010BD10B582B0044602237F220B
S31508000B802048018800A8FFF711FF9DF801009DF88D
S31508000B900010FF2903D1FF2804BF042000210CB14F
S31508000BA0801CC0B20828A8BF07200829A8BF0721AB
S31508000BB041EAC0101449086013BD14490A68144B69
S31508000BC01B68DB0758BF4008032809D34B6D43F061
S31508000BD001034B650B689B1A1B031B0B8342F9D356
S31508000BE070470000EE2E0008FC000008E8100040E0
S31508000BF00470004018A0004000700040F22E000863
S31508000C0000BC0040F02E00081800004038200040C4
S31508000C101C40004010B58208134B53F82220136875
S31508000C2000F0030080000F248440A34301FA00F07B
S31508000C301843106010BD80B50C48102101600C489F
S31508000C40022101600B484FF400610160FFF7BEFC0A
S31508000C500948072101600021016408481021016044
S31508000C60002002BD000000004401000880E100E009
S31508000C70080000400C60004014A0004000E100E0BD
S31508000C8080B52148016821F0100101600020FFF7B6
S31508000C9072FF00F006F8FFF7C9FCBDE80140FFF750
S31508000CA0CABF80B5FFF764FCFFF756FFBDE80140F1
S31508000CB0FFF7FCBC81B209B94BF6EF61134A118004
S31508000CC0000C08BF4FF6CE205080704702881304E8
S31508000CD048BF4A405100018090B2704738B50B4C66
S31508000CE062212046FFF7F2FF054641F20B01A01CE0
S31508000CF0FFF7ECFF684032BD01F0BABD80B501F0E0
S31508000D00EFFD40B202BD000000BC004060040020B8
S31508000D10DFF884030068DFF8841309686FF0FF02C0
S31508000D20DFF87C33984213D111F1010F01D1042069
S31508000D3070476FF47F00814201D10220704711F19C
S31508000D40807F01D10320704791421ED1052070474C
S31508000D5010F1807F03D1914208D10620704710F127
S31508000D60010F07D1994210D10820704799420CD13A
S31508000D7007207047904208D1994201D1092070474F
S31508000D8011F1807F01D10A207047002070472DE9B4
S31508000D90F04780460F461446DFF8089340F2FF3ABC
S31508000DA0DFF8F45215EA0A0F07D0532209F1240195
S31508000DB0484602F0C6F802F0C3F8DFF8E06216EA21
S31508000DC00A0F08D0542209F1240109F1540002F04F
S31508000DD0B8F802F0B5F8F80708D5562209F1240143
S31508000DE009F1780002F0ADF802F0AAF8E00708D594
S31508000DF0582209F1240109F1880002F0A2F802F04C
S31508000E009FF8E019B0F5806F08D35A2209F124013A
S31508000E1009F1980002F095F802F092F86408FFF7D5
S31508000E2077FF401E032805D9001F03280DD9001F88
S31508000E30012815D878190021A142BEBF30F8112023
S31508000E4028F81120491CF7DB15E0B8190021A14242
S31508000E50BEBF30F8112028F81120491CF7DB0AE03C
S31508000E6000214FF6FF7002E028F81100491CA14244
S31508000E70FADB012000E00020BDE8F087F8B504465B
S31508000E8001256D1E04EB8526374600203978FF2993
S31508000E9006D031460220FFF79DFC48B94FF4806022
S31508000EA0401C7F1CB0F5806FF0D3002DE9D10020DF
S31508000EB0F2BD00002DE9F54F83B00E46794D40F29C
S31508000EC0FF34DFF8D48118EA040F08D040F20B1279
S31508000ED005F12401284602F034F802F031F8DFF86B
S31508000EE0BCA11AEA040F09D04FF4867205F1240151
S31508000EF005F1540002F025F802F022F8F00709D5AA
S31508000F004FF4877205F1240105F1780002F019F80B
S31508000F1002F016F8BDF81000C00709D54FF488721C
S31508000F2005F1240105F1880002F00BF802F008F833
S31508000F30BDF81040A019B0F5806F09D34FF4897237
S31508000F4005F1240105F1980001F0FBFF01F0F8FF17
S31508000F50FFF7DEFEBDF81010C1F58061891B091F79
S31508000F604FEA510B3419311F49080191411E0329D3
S31508000F7005D9091F032918D9091F01291AD847466F
S31508000F8055464FF007090A28FDD8DFE800F0072D77
S31508000F9031353F515D61697B7F00F4E73846FFF7DD
S31508000FA06DFF60B105B0BDE8F08F574645464FF076
S31508000FB00309E8E7574645464FF00309EEE7284692
S31508000FC0FFF75CFF0028EDD100F073F80028E9D19F
S31508000FD000F07EF80028E5D100F066F80028E1D197
S31508000FE000F085F80028DDD100F068F80028D9D18E
S31508000FF000F075F80028D5D1B9F1030F01D100200A
S31508001000D0E72846FFF73AFF0028CBD100F051F881
S315080010100028C7D100F05CF80028C3D100F044F8D6
S315080010200028BFD14FF47F4000F05AF80028B9D104
S315080010304FF47F40ADF80000012200A908F1020034
S31508001040FFF7F8FB0028ADD100F049F80028A9D130
S31508001050B9F1070FD3D02846FFF710FF0028A1D112
S3150800106000F027F800289DD100F032F8002899D121
S3150800107000F01AF8002895D14FF47F4000F037F8B1
S3150800108000288FD100F01AF800288BD1002000F034
S315080010902EF8002886D1AFE700F8010800FC010801
S315080010A00000FFFF5C0100085A4639192819FFF7A6
S315080010B0C1BB019A391D281DFFF7BCBB4FF47F4001
S315080010C0ADF80000012200A90AF10200FFF7B2BB41
S315080010D0BDF81000420803997019FFF7ABBB002052
S315080010E0ADF80000012200A95046FFF7A3BBADF8F2
S315080010F00000012200A94046FFF79CBB80F3118837
S3150800110070470000EFF31180602181F31188704762
S31508001110002181F31188704770B50446544D28782C
S315080011200028FDD0534E224606F10800FFF7E4FDDD
S3150800113004F109003070F078401CF0700020287027
S315080011403046BDE8704000F08EB910B54A4C20789C
S3150800115008B9642161600019083000F06FF910B110
S315080011602078401C20706068411E6160207802D09B
S31508001170402807D100E028B104F10801FFF7CCFFA9
S315080011800020207010BD10B53C490A7852B93C4B76
S3150800119003E0145CD454521CD2B204789442F8DAB0
S315080011A00120087010BD40B1402803D08D2801D019
S315080011B08F2802D12E480121017070470020704700
S315080011C00020704770477047704770B582B0FFF7C8
S315080011D057FD022100A800F050F90098FFF76AFDB4
S315080011E00123002208214FF4E13000F04DF8FFF703
S315080011F08FFFFFF751FB234C002000F029F940B17F
S315080012004FF4877204F11401204601F09AFE01F0AA
S3150800121097FE41F20465284600F029F9284600F0B1
S3150800122028F904F16C0104F1480001F08BFB144C19
S31508001230124D15E0305D01F0A7FE761CF6B2207857
S31508001240B042F7DA002028706868401C686044F6E7
S315080012502161884204D30E20FFF73BFB002068601B
S31508001260FFF773FF28780128EED10826E7E7000084
S31508001270F00400206404002008040020540700201D
S315080012801C06002014020008F8B507460E46144648
S315080012901D46A7F596706049884207D35F482C22F9
S315080012A000F12C0101F04DFE01F04AFE5C4800EB0E
S315080012B05700B0FBF7F05B4900F001028A6140086D
S315080012C04861072E0CBF00200220012C08BF40F001
S315080012D0180003D0022C08BF40F0080005F00F02E2
S315080012E0022AA8BF40F004008860012008604E4822
S315080012F0002101804180818009210920FFF78AFCAD
S3150800130004210A20FFF786FC48480121C164016CC4
S3150800131046F20902114301644FF6FF710160444821
S3150800132020210160F1BD10B50023012804D0022850
S3150800133002D04FF0FF3010BD3E48002904D1C168E5
S315080013404906FCD5002010BD8469012CF1D106E0C0
S31508001350C4686407FCD511F8014B04605B1C14468D
S31508001360621E002CF4D1184610BD2DE9F0410C463A
S31508001370904610B14FF0FF301DE000262E4F2A4D43
S3150800138014E0FFF7BFFE6988C95D04F8011B698888
S31508001390491C8A1101EB5262D211A1EBC211698074
S315080013A0A988491EA980FFF7A9FE761CA88808B156
S315080013B04645E6D33046BDE8F08170B51B4801685E
S315080013C0026C02EA01041C49174A1A4B002C1AE05F
S315080013D0DC681D68EDB2382634420ED194887F2C1D
S315080013E00BD216887554751CAE1105EB5666F611A8
S315080013F0A5EBC6151580641C9480DC68A407E7D4A1
S315080014000468056C2C4005D0046046F209052C4298
S31508001410F3D1F5E770BD0000D50E0E00880200086E
S3150800142000366E0154C800406407002008A8004032
S3150800143000E100E03CC800409C06002080B501227F
S3150800144001460020FFF791FF00B10120C0B202BD9E
S3150800145080B512490978C90701D4B02002BD00F049
S3150800146044FB002002BD00F069BAFFF79CBE00F0FD
S315080014704ABC00F04DBCFFF7A3BE00F0B3BE38B5BA
S31508001480074C2068216C01EA0005ADB2680748BF21
S31508001490FFF79AFE256031BD000000009B0704088F
S315080014A008A0004070B582B0044615460819A0F198
S315080014B0080600F032FC20B12078032824BF801EDD
S315080014C02070F07800F018FA96F90210663149B2E1
S315080014D000910346707900F00F00B179090241EADC
S315080014E00040F17941EA000229462046FFF74BFE03
S315080014F073BD000010B500F014F81040C84010BDC8
S3150800150010B500F00EF8D44320401140084380B2CD
S31508001510D860022018600020186058680028FCD19E
S3150800152010BDDFF864335C68002CFCD1986001209C
S3150800153018600020186058680028FCD118697047A0
S31508001540DFF84803DFF848138A780AB149780FE0CC
S3150800155089566FF008029142B8BF302108DBC16D89
S3150800156039B140F24A31C26DB1FBF2F189B2C91EF6
S31508001570016070472DE9F04182B00546DFF8104357
S31508001580A581B5F5004F19D102237F22DFF80403A0
S3150800159000F075F9BDF80000000AFF2800D000B970
S315080015A018206070BDF800000006C00E10281CBF89
S315080015B0001D00F0F5F8BDF80000C54305F0010868
S315080015C0C5F3400708EB4800B34946184FF4F852EC
S315080015D0B0780102E020FFF793FFB048016841F4B4
S315080015E0004101604FF440527078010389B220200F
S315080015F0FFF786FF404601F063F84022B901A020B4
S31508001600FFF77EFF17B915F0040000D00120A0707F
S31508001610FFF796FF0020BDE8F6819D488089704750
S315080016202DE9FE4F8046A8F10B05ADB200F02DFB63
S315080016308146A8F10B00C0B2102802D38A20BDE863
S31508001640FE8F984FB868000702D43868C00701D5DE
S315080016508C20F4E7924C84F80080934E30680C286E
S3150800166001D10020EBE7607838B9706A40F4005081
S315080016707062706A20F4805070628C480078012885
S3150800168008BF00F0D6FA8A48D0F800A089484FF477
S31508001690C0610160386A20F002003862A800001DA7
S315080016A002900422014600A8FFF771FB9DF800008E
S315080016B08DF807009DF801008DF806009DF80200D8
S315080016C08DF805009DF803008DF804007A4830F877
S315080016D02500F06148F2607B6078C0B1C6F824B096
S315080016E0386A20F0010038620120FFF766FA386A86
S315080016F040F0010038626420FFF75FFA706A20F450
S3150800170080507062706A40F40050706202E0404691
S3150800171001F047F829460DF1010000F0ABFF294614
S315080017200DF1020000F0D6FD2A4600A90DF10300CE
S3150800173000F0F8FD9DF800009DF80710884211D1C9
S315080017409DF801009DF8061088420BD19DF802000D
S315080017509DF80510884205D19DF803009DF80410F0
S31508001760884204D00422029900A8FFF7A3FB0AF4D2
S31508001770C0604F49086000F0A9FB386A40F00200D3
S315080017803862607820B1C6F824B06420FFF715FAED
S31508001790FFF76CF9B9F1010F01D100F015FA60E70E
S315080017A02DE9F04186B004466FF02A00844201DA3A
S315080017B08B205EE014237F22404800F060F8BDF8D5
S315080017C010004FF6FF71884204D00E21084218BF58
S315080017D0012606D13F220021F020FFF78BFE0546A1
S315080017E0002637482A49042C0FDA0022354B01E037
S315080017F0521CD2B2D756A742FADB02600F700020FD
S31508001800002407464FF003080EE0092CD0DA625C84
S3150800181002600C7014237F222B4800F030F8032056
S31508001820012401274FF0280826B14FF6BF72BDF8EC
S31508001830101018E04FF46052C10200F01DF84FF482
S31508001840E062210200F018F88022F90100F014F88D
S3150800185085F0200008EB0005ADB2402DA8BF3F2556
S315080018603F2285F02001A020FFF74AFEFFF768FE19
S31508001870002006B0BDE8F08189B2A02040E60188C4
S3150800188000A8FFF793B80000E81000406410004075
S3150800189050040020F42E0008440300081C100040E1
S315080018A0F104002060200040AC100040EB0400204A
S315080018B000E100E080E100E0E4020008EA2E00080A
S315080018C0C010004024030008EC2E000810B5DFF80D
S315080018D0B044207878B100202070DFF8A8040168A9
S315080018E021F4805101600022E1684020FFF7BDFD28
S315080018F0A068401CA06010BD010603D54FF67F7195
S315080019000840C000704738B5DFF87444DFF87C0437
S31508001910417871B1C178E2785518ADB2007985423F
S31508001920A8BF0546FFF7DAF90121A940491E084074
S3150800193000E00020A080A088C0B232BD38B50546B8
S31508001940C00708D5DFF84804FB2200F1240101F09E
S31508001950F8FA01F0F5FADFF83C44206DC00701D526
S315080019608C2032BD202020626560256060687F304B
S31508001970606004202062DFF8080400210170DFF8A7
S315080019800C5429780029A16F14BF41F0010121F0F8
S315080019900101A167697849B10021C170206D40F045
S315080019A004002065A06F40F0080006E0206D20F0D6
S315080019B004002065A06F20F00800A067FFF7A3FFCA
S315080019C0A06468790028206D14BF40F0080020F054
S315080019D008002065206D40F001002065002032BD1A
S315080019E02DE9F041DFF8B0637068716C01EA000414
S315080019F0A4B27460DFF89C73DFF884536878002813
S31508001A004DD1DFF88883E00719D53868396C7A6CC8
S31508001A1042EA0141E96098F8002062B14078800600
S31508001A2009D5012028704FF480503060306C40F49E
S31508001A308050306403E000220020FFF716FD2006E0
S31508001A400CD5287830B1002028700022E96840209B
S31508001A50FFF70BFD306C20F480503064E00616D595
S31508001A60E878401CE87098F80210C0B2884207D29D
S31508001A70FFF749FFB864386D40F00100386506E0A5
S31508001A8000F0ADFB002201468D20FFF7EEFC200793
S31508001A9005D5386C796C41EA0040FFF794FBA0063F
S31508001AA00ED5386D00F00100386520203862687858
S31508001AB030B900F094FB002201468820FFF7D5FCD8
S31508001AC0600608D5687830B900F089FB002201461F
S31508001AD08920FFF7CAFC687828B14FF440700442A1
S31508001AE004BF0120A870BDE8F08170B50446DFF890
S31508001AF0AC520020E871DFF8A80200210160DFF887
S31508001B00A4621521F160092101651F2141600121A7
S31508001B100166FFF782FDFFF72DFD00F0F3F900F0EF
S31508001B20CDFB00F0CDF8288900F0EDF8688900F0C3
S31508001B30EFF8706840F040007060A87800F0A8F8E8
S31508001B40E87800F0B1F8687800F0D1F8DFF85802C4
S31508001B5090F90000FFF724FE287800F0FCF895F9C4
S31508001B60040000F004F9687900F0DAF8A87900F0C2
S31508001B70E3F8306840F001003060DFF830020078A2
S31508001B80FFF74EFD48B1824840F2F11200F12401F8
S31508001B904C3001F0D6F901F0D3F9854DF1202864CF
S31508001BA07820E86300F092F982484FF4807101606A
S31508001BB0012C02D1BDE8704006E04FF6FF7129609E
S31508001BC04FF4C061016070BD70B57B4D2E68B6B22A
S31508001BD0724CE07901282BD0FFF794FA48F2D0012D
S31508001BE029606A68520509D548F222022A606A689D
S31508001BF0D205F5D529606A685207F1D42E606F4977
S31508001C004FF4C0620A606E490A6A22F001020A624B
S31508001C100A6822F001020A600A6842F002020A60B3
S31508001C204A6A42F001024A620121E171FFF766FA47
S31508001C3070BD70B5594CE07930B3FFF763FA0546C5
S31508001C40604801210160504E306D40F0010030655A
S31508001C500020E07100F03AF920203060306B40F047
S31508001C6002003063F06D40F00800F0652846FFF783
S31508001C7045FAC820FEF7A1FF4D484FF6FF710160EF
S31508001C804C484FF4C061016070BD4448C079704744
S31508001C904D4900280A6814BF42F0120222F01202C7
S31508001CA00A603E4988707047474900280A6814BF89
S31508001CB042F0800222F080020A603849C8707047F4
S31508001CC0424843494A780B7803EB02220260CA78F5
S31508001CD08B7803EB022242604A790B7903EB0222E6
S31508001CE08260CA79897901EB0221C1607047364959
S31508001CF000280A6814BF42F0200222F020020A6077
S31508001D002649487070472549088132490860704756
S31508001D102249488130490860704730480078704742
S31508001D20184900280A6814BF42F4005222F40052E7
S31508001D300A601A49487170471D4928B108220A6085
S31508001D400A6C42F0080202E00A6C22F008020A64F1
S31508001D50124988717047134900280A6814BF42F06F
S31508001D60020222F002020A600C490870704700F16C
S31508001D709A010904890A1A4A1160084908717047C4
S31508001D803C07002040A0004030200040000400200E
S31508001D904C0300081020004000A00040E404002086
S31508001DA05C1000408020004050040020F104002010
S31508001DB004A0004000E100E01C10004080E100E0C3
S31508001DC060200040281000408420004098200040F1
S31508001DD05C0700209420004090200040F304002077
S31508001DE05410004038B50446274D214600F055F8F2
S31508001DF0E860211D00F051F8A86004F1080100F020
S31508001E004CF8686004F10C0100F047F8286031BD11
S31508001E1038B504461C4DEA68214600F03BF8AA6826
S31508001E20211D00F037F86A6804F1080100F032F85D
S31508001E302A6804F10C010020BDE8384001F05EB8BC
S31508001E40F8B50446114D80202860114E06203060F2
S31508001E500720286030688007FCD5002704EB870137
S31508001E6000F01BF8A8627F1C042FF7D330684007E0
S31508001E70FCD500262A6B04EB860100F00BF8761CCD
S31508001E80042EF7D3F1BD0000383000400030004082
S31508001E9010A00040002001F031B8002001F03CB845
S31508001EA07FB504460D46FFF72DF9064600A8FFF74D
S31508001EB0AFFF2846FFF796FF2046FFF7C1FF00A8A9
S31508001EC0FFF790FF3046FFF719F97FBDDFF8A40347
S31508001ED010210163DFF8A0130A6842F001020A60C4
S31508001EE0DFF8981301F2140202600122026301F27C
S31508001EF09E01816002210163DFF884034FF6FF71BA
S31508001F000160704780B5DFF87C0345F26401C16063
S31508001F101E21416250210162C821C1618165F021FB
S31508001F20C16545F690014166882181660621C1662C
S31508001F3044F2066101604FF6FF714160DFF848031D
S31508001F40007838B1DFF8440348F2607101604FF455
S31508001F50C1514160CE48016841F00401016000F0BA
S31508001F6078F9CC49088001BD2DE9F8430446C34DEC
S31508001F708A2000FB045000F215004278037803EB30
S31508001F8002239BB203F44042C34E36782E709B065A
S31508001F9035D5C24EF36C1B0631D567194FF48068E8
S31508001FA04FF40069B2F5404F03D1C01DFFF763FA3D
S31508001FB009E0B2F5004F16D1017AC07900EB01208D
S31508001FC080B2FFF7FBF870B1706CC00606D400F05B
S31508001FD018F803D0F06A40F00100F0620120B870EA
S31508001FE03068E8600BE0706CC00606D500F009F8AA
S31508001FF003D0F06A20F00100F0620020B870BDE856
S31508002000F183306B04B1C84610EA080F70472DE912
S31508002010F04E82B00446994E8A2000FB046000F216
S31508002020140B9F4D002C0CBF28686868C0B241008D
S315080020305FFA81F9052808DA9A484FF4D67200F152
S31508002040140100F07EFF00F07BFF09EB0B0010F88F
S31508002050081D427802EB01211FFA81FAA6F806A0AC
S3150800206001793181317801708F4FF86B20F48050F7
S31508002070F863686E00060CD59BF80100800608D543
S315080020800AF4A040B0F5A04F03D188480168491C5E
S3150800209001604FF4E4501AEA000F3BD1FFF73DFE0A
S315080020A010B15FEA4A4035D59BF80000802831D246
S315080020B0A4B93868400516D4686BADF80000286BDB
S315080020C0ADF80200009830617089401C7081A01933
S315080020D0827849465846FFF7E5F920E0012CEBD10E
S315080020E038680005E8D57248017859B100210170B1
S315080020F09BF80100000900F001026E4801688F2074
S31508002100FFF7B3F9002C0CBF4FF480604FF4006062
S31508002110386004E0FFF7DAFBB088401CB080002C7A
S315080021200CBF012002202861BDE8F38EF8B5544C97
S315080021302068216C01EA00055F4E25E0A80645D413
S3150800214068063BD4E80416D5376D25F480554FF458
S315080021508050206008203065706D000509D5B0698B
S3150800216020F00100B061B06940F00100B061FFF7EE
S31508002170ADFBBFB23765A80406D5FFF723F825F4EB
S3150800218000554FF40050206035B3280706D50020C7
S31508002190FFF7EAFE25F0080508202060E80606D5C0
S315080021A00120FFF7E1FE25F010051020206005F05C
S315080021B060006028C2D13068C00507D525F0400503
S315080021C0402020600120FFF722FFD4E725F02005F4
S315080021D0202020600020F6E700202060F1BD2F486F
S315080021E00068704770B58AB004460D460020009016
S315080021F0002303220146FEF73FFC1EE0002601A845
S3150800220000F023F805A800F020F8B61C102EF6DB1F
S3150800221005A901A8FFF744FE00202080218801AA0D
S315080022208218527801ABC35C03EB0222514021802D
S31508002230801C1028F2DB6D1EA41CEDB2002DDDD12A
S31508002240FEF714FC01200AB070BD31180020FEF715
S315080022502DBC00B583B00020009004230222002183
S31508002260FEF70AFC01A9FFF7F1FFFEF7FFFBBDF831
S3150800227004000EBD0020004084200040F404002025
S3150800228000A000404C100040F2040020D01000408E
S315080022908020004074070020F10400203820004008
S315080022A020200040CC03000804A000406C07002052
S315080022B03C070020480700206820004008237F22AA
S315080022C0024801880248FEF771BB00BFF82E0008D5
S315080022D05C07002010B584B00A237F220C480188C9
S315080022E000A8FEF763FB4FF6FF74BDF80000A04296
S315080022F007D10848672200F11C0100F022FE00F011
S315080023001FFE2246BDF800101020FFF7F9F81FBD82
S31508002310EE2E0008FC0300083F22410089B2202067
S31508002320FFF7EEB82DE9F34F97B0784C7848007868
S31508002330002814BF606A206980B203901798007855
S315080023404FF67F7101EA000618990978039B5B1C12
S315080023508B4203DB039B5B1E994201DA012100E0F5
S315080023600021012303FA02F2ADF80A20000608D478
S3150800237068480088BDF80A20104202D1002900F0FA
S31508002380BC80E06C80B20690206880B20590624DF1
S31508002390E86A80B204904FF6FF7200211120FFF719
S315080023A0A9F880464FF6FF720021A020FFF7A2F891
S315080023B083464FF40040206000202861686148F297
S315080023C0020000F0BDF84CF68C30E06448F2F000EC
S315080023D0E8624FF4805211461120FFF791F84FF644
S315080023E0FF720021A020FFF78BF800F0AEF802A9D3
S315080023F000F0B3F800F0B4F80DF1060100F0ADF8FE
S315080024004CF69C30E0640020FFF786FF0020009021
S3150800241006231A46C021FEF72FFB0026B0B2FFF7A7
S315080024207BFF00F092F807A800EB460100F095F84C
S31508002430761C202EF2DB00F08FF81020FFF76CFFD9
S3150800244000F08EF800F088F8BDF80400BDF8061014
S31508002450401ABDF83C10BDF80820891A404301FB14
S3150800246001094FF0100A112700F062F800F078F819
S3150800247000F072F800F052F804DB8146BA467F1C79
S31508002480202FF1DB1FFA8AFABAF1100F0FD10F27A6
S3150800249000F04EF800F064F800F05EF800F03EF840
S315080024A005DB8146BA46781E07B2002FF0D54FEAFB
S315080024B04A0086B20698E064059820600498E862A7
S315080024C04FF6FF7241461120FFF71AF84FF6FF72D2
S315080024D05946A020FFF714F801202861002000F0D3
S315080024E02FF81798067018980399017009480088FC
S315080024F0BDF80A108843074908803F223146202044
S31508002500FEF7FEFF19B0BDE8F08F0000C0100040CE
S31508002510F20400207607002018100040BDF80400D9
S31508002520BDF80610401A404306FB060048457047AA
S3150800253007A830F81700BDF80810461AB8B2EBE637
S31508002540286040F24C40FEF738BB00200090062376
S315080025500622C021FEF790BA01A90020FEF7A6BA06
S315080025600020009006230722C021FEF785BA000046
S315080025704FF4FE52810189B2B020FEF7C1BF30B5D3
S3150800258083B0494C002060602060FEF76FFA00F0C7
S3150800259017F801A90020FEF789FABDF904504FF68D
S315080025A0FF7060602060FEF761FA00F009F801A983
S315080025B00020FEF77BFABDF90400281A00B23EBDDA
S315080025C00020009006230922C021FEF755BA2DE9FE
S315080025D0F84F364CA06A00902568354E3768DFF804
S315080025E0D4803548007818B148F26070C8F8000001
S315080025F00220A0620120206040F24C40FEF7DDFA7E
S315080026000120F06030604CF24C00C8F83C00002015
S31508002610FFF7AEFFFFF7B3FF82467F20FFF7A8FF5D
S31508002620FFF7ADFF8346504600F0C2FC8146AAEB91
S315080026300B0000F0BDFC82460020C8F83C00BFB283
S315080026403760F06002202060ADB2256000A80088DF
S31508002650A06240F24C40FEF7B0FAFE2000FB09F0FB
S315080026601FFA8AF1B0FBF1F080B2401CC003000CDF
S31508002670BDE8F28F70B50446012000FA01F520780E
S315080026800E4E010602D43188294206D0FFF79FFF75
S3150800269020703188A943318002E04FF67F710840E7
S315080026A0BDE8704064E70000381000406020004034
S315080026B028100040D0100040F204002078070020BF
S315080026C0F0B589B004460020FEF755FA0A237F22A2
S315080026D02748018800A8FEF769F94FF6FF75254EC9
S315080026E0BDF80200A84209D140F2071206F13401EA
S315080026F006F1140000F025FC00F022FC00272A460B
S3150800270017B94FF47C4203E0022F08BF4EF23F028E
S3150800271000A830F81710B85DFEF7F2FE7F1C052FEB
S31508002720EDD3012C02BF14237F22134802D01423B1
S315080027307F221248018803A8FEF738F900272A469F
S31508002740012F08BF4FF6C072082F08BF002203A842
S3150800275030F81710B819007AFEF7D2FE7F1C0A2F38
S31508002760EDD3012C04BF0120FEF705FA09B0F0BD30
S31508002770EE2E000848040008EC2E0008EA2E000891
S315080027802F490A68920992010A600A68104308608C
S315080027902C484FF400410160002101606420FEF7D7
S315080027A00CBA2DE9F84F8046274D28681FFA80F99C
S315080027B0286840F400402860214F386820F480508B
S315080027C03860224C207870B12148A178627800EBF5
S315080027D0820212F82A2C891A00EB880010F82A0CB3
S315080027E0401886B202E02026012020703046FFF706
S315080027F0C7FF0FF2480ADFF85CB003E086B230463E
S31508002800FFF7BEFF386B042805D0386B400754BF66
S31508002810701E701CF2E7F86A30B184F80180A67061
S31508002820C5F80090BDE8F18F4FF48B7259465046B3
S3150800283000F087FB00F084FBE4E7000030000000AE
S31508002840D0100040181000401C10004070070020EF
S31508002850E4020008AC040008FEF756F8002801D088
S3150800286000F080F80020FEF7B0FC00F0A5FB0000A1
S315080028704AB38B0707D011F8013B00F8013B521EFB
S3150800288021D08B07F7D183071ED1103A07D330B46E
S31508002890B1E83810103AA0E83810F9D230BC53071E
S315080028A024BFB1E80810A0E8081044BF51F8043B5B
S315080028B040F8043BD20724BF31F8022B20F8022B3C
S315080028C044BF0B7803707047083A07D3B1E808107D
S315080028D0083A40F8043B40F804CBF7D25307E4E73C
S315080028E00300002013F0030F09D0521E22BF13F86D
S315080028F0010B11F801CBB0EB0C00F3D07047121F97
S3150800290022BF53F8040B51F804CB6045F7D0121DCB
S315080029100AD200BA9CFA8CFCB0EB0C0038BF6FF0F8
S31508002920000088BF01207047521E22BF13F8010B12
S3150800293011F801CBB0EB0C00F6D0521C08BF1046BC
S31508002940704700000EB400B582B003A9009100AB31
S3150800295002460121024800F04FF806BC5DF810FB5C
S31508002960C72F000810B50548054CA04204D050F8FA
S31508002970041B8847A042FAD110BD00BF8400000896
S31508002980B000000810B5044603E014F8010B00F087
S31508002990FBFA20780028F8D110BD2DE9F04104464D
S315080029A00D4616461F46DFF84C804EB14046FFF7E7
S315080029B0E9FF3046FFF7E6FF08F11000FFF7E2FFF0
S315080029C02046FFF7DFFF09A0FFF7DCFF2846FFF7E1
S315080029D0D9FF07A0FFF7D6FF3846FFF7D3FF08F160
S315080029E01800FFF7CFFF0020BDE8F0813A0000008D
S315080029F020000000D80400082DE9F04F93B01746D0
S31508002A001C46019001AD69600020E8610CAE6FF0CC
S31508002A10004802E0E869401CE861387818B9E869B6
S31508002A2013B0BDE8F08F252813D10020286168610E
S31508002A30A86117F8011F202908D023291BD02B29A4
S31508002A4012D02D2914D0302918D01AE040F00100F0
S31508002A50EFE717F8011B6868019A90476860002835
S31508002A60D8D14FF0FF30DBE740F0020080B2E0E754
S31508002A7040F00400FAE740F00800F7E740F01000DD
S31508002A80F4E72A290DD12268111D216011686962AF
S31508002A90002904D54942696240F0040080B27F1CCF
S31508002AA012E00021696209E0696A414505D001EB37
S31508002AB0810302EB4301303969627F1C3A78A2F13F
S31508002AC03001C9B20A29EFD339782E291CBF4FF035
S31508002AD0FF3129621DD117F8011F2A2906D122685C
S31508002AE0111D2160116829627F1C12E000212962EC
S31508002AF009E0296A414505D001EB810302EB430150
S31508002B00303929627F1C3A78A2F13001C9B20A2904
S31508002B10EFD328853978874800F0C0F908B117F847
S31508002B20010B8DF82E009DF82E00682806D13878FE
S31508002B30682803D162208DF82E007F1C0CA8E86057
S31508002B403A78582A46D0632A0ED0642A15D0692ABC
S31508002B5013D06F2A3ED0702A71D0732A78D0752A7E
S31508002B6038D0782A36D088E02869411C296122683D
S31508002B70111D21601168815585E02168081D2060B6
S31508002B8008689DF82E10682908BF00B202D062298D
S31508002B9008BF40B2002804D529694B1C2B612D2398
S31508002BA00DE0298D8B0704D529694B1C2B612B2336
S31508002BB005E0C90704D529694B1C2B6120238B55D1
S31508002BC029690CABC918A9600090114600A800F045
S31508002BD0D2F858E09DF82E006C280FD071280BD13A
S31508002BE02068C01D20F007002060034603F1080096
S31508002BF02060D3E9000105E06A28F1D02168081DA4
S31508002C00206008689DF82E10682908BF80B202D097
S31508002C10622908BFC0B295F828100907D0D5002840
S31508002C20CED042F020017829CAD129694B1C2B61E4
S31508002C3030238B5529694B1C2B618A55C0E72168BF
S31508002C40081D206008680CA9A96000907821BDE7D6
S31508002C502168081D20600868A8602A6A002A02D52B
S31508002C6000F028F907E0002100F0ECF800281ABF68
S31508002C70A968401A286A686105E02869411C296123
S31508002C8002B9252282557F1C686A2969401AA969F2
S31508002C90401A6969A0EB010995F82800400707D48E
S31508002CA02022494600A800F047F800283FF4D9AE8C
S31508002CB0D5F810A00DF1300BBAF1000F0ED01BF8A5
S31508002CC0011B6868019A9047686000283FF4C9AEFE
S31508002CD0E869401CE861BAF1010AF0D13022A96915
S31508002CE000A800F029F800283FF4BBAED5F814A0D8
S31508002CF0D5F808B0BAF1000F0ED01BF8011B6868AA
S31508002D00019A9047686000283FF4ABAEE869401C1A
S31508002D10E861BAF1010AF0D195F8280040077FF575
S31508002D207CAE2022494600A800F006F800287FF469
S31508002D3074AE96E6080500082DE9F64104460D46E8
S31508002D400026012D14DB01270DF1040804E0206A92
S31508002D50401C20627F1E08D018F8011BA068626814
S31508002D609047A0600028F2D103E0761CAE42EADB69
S31508002D700120BDE8F681F0B402696F2908BF08246E
S31508002D8005D041F02003782B14BF0A2410241823F9
S31508002D9005682E46642901D0692902D1002D48BF4D
S31508002DA076420EB9456A9DB15D1E2B46B6FBF4F711
S31508002DB004FB17663036F6B23A2E24BFA1F1510C41
S31508002DC06644AE543E0003D0C5689F18BD42EBD397
S31508002DD0082C09D190F82C10090705D5995C3029DB
S31508002DE002D05B1E30219954C3F1180181619A18EB
S31508002DF0C260426A914206DA511AC161818D21F098
S31508002E001001818510E0002A0ED590F82C2002F0DA
S31508002E101402102A08D1826A4369D21AC369D21ADF
S31508002E20531A012BA8BFC361F0BC70470746384642
S31508002E3000F002F8FBE7000001491820ABBEFBE7EB
S31508002E4026000200C9B2830706D0521E22D310F804
S31508002E50013B9942F7D11FE0083A13D302F1040265
S31508002E6041EA012141EA014150F8043B121F21BF02
S31508002E704B40A3F1013C2CEA030C1CF0803FF3D035
S31508002E80C9B2001F083210F8013B521E28BF91EA4A
S31508002E90030FF8D818BF0120401E70470278C9B240
S31508002EA08A421AB11CBF10F8012FF9E718BF002093
S31508002EB07047000000F10103810704D010F8011BD8
S31508002EC089B18107FAD10268B2F10131914311F053
S31508002ED0803F04BF50F8042FF6E710F8011B11B124
S31508002EE010F8011BFBE7C01A7047AA07BE07D207EE
S31508002EF0DC07DE073C08EE080080FEE710B5002375
S31508002F00002814BF1C46C3F10304E4B26254120A33
S31508002F105B1C042BF4DB10BD30B54A788B78CC7873
S31508002F20097818B120461D460C4602E008461546A3
S31508002F301A4645EA002044EA022141EA004030BD2B
S31508002F40704770B584B0034608460A2100248DF8F8
S31508002F500A400DF109040A25491EC9B292FBF5F685
S31508002F6005FB1622303204F801293246012AA8BF89
S31508002F700129F1DA002200AC0919FFF70EFD08B99C
S31508002F8000F01DB804B070BD10B582B0044614F147
S31508002F90010F0AD08DF80000012200A90120FEF7D2
S31508002FA0C2F9012801D1204616BD4FF0FF3016BDE3
S31508002FB0002848BF4042704780B5FFF737BF80B545
S31508002FC00120FFF739BF38B504460D462846FFF7F6
S31508002FD0DBFFA84218BF0024204632BD002305E0C7
S31508002FE050F8041B41F8043B121FFBD150F8042B80
S31508002FF0002AF5D17047F0B500F10801026801EB27
S31508003000C202406802EBC000002300241D460126C8
S315080030100CE013F8017BF44506D00CF8017B6D1C17
S315080030202DB2002DF7D40126F44509D1824200D1EC
S31508003030F0BD52F804CB52F8047B07EB0C0EF3E70D
S31508003040A34206D151F8043B51F8044BE418A342B5
S31508003050F8D05EB113F9015B0026A34206D151F8F8
S31508003060043B51F8044BE418A342F8D0002DD0D401
S31508003070002DD8D4F44518BFA3421FBF13F8017B0F
S315080030800CF8017B6D1E2DB2F2D1CDE705010004C7
S31508003090030501FA000064BD0008031800001316B2
S315080030A0191C1FFC000E80FFFFEFBECEFA0A61084E
S315080030B0000416041688000801000101B500000185
S30D080030C0FEFDFF03010B0101EF
S7050800285971
