S011000073616D706C655F73756E2E733337AC
S31508000000980400201D460008D3060008D3060008F9
S31508000010D3060008D3060008D3060008000000002F
S31508000020000000000000000000000000D3060008E1
S31508000030D306000800000000150E0008D3060008C5
S31508000040D3060008D3060008D3060008D30600081E
S3150800005047260008B10C0008D3060008D306000896
S31508000060F12000084D2D0008B53700089D0200084C
S31508000070D3060008D3060008D3060008D3060008EE
S31508000080D30600088B0700003006000098040020FD
S3150800009000000000AF0A000094000000E8440000D9
S315080000A00000002000000000AA212900552329008D
S315080000B000252800AA26270055282700002A2600FA
S315080000C0AA2B2600552D2500002F2400AA3024002F
S315080000D05532230000342200AA3522005537210064
S315080000E000392000AA3A2000D5E6ECEFF2F4F5F73D
S315080000F0F8F9FAFBFBFCFCFDFDFEFEFFFFFF000026
S31508000100000101010202020300000001030A0000C7
S3150800011030203D3D20282828446D6141646472657D
S3150800012073735479706529627566662920262031AD
S3150800013029000000737461636B5C7068795C737482
S315080001406D3332773130387878636C6173735C70ED
S3150800015068792D636F6D6D6F6E2E630053545F5310
S31508000160554343455353203D3D2073746D52616496
S31508000170696F5365744368616E6E656C2873746D38
S31508000180526164696F4368616E6E656C2900000090
S315080001907278446D61576F7264436F756E74203E52
S315080001A020340000737461636B5C7068795C7374E7
S315080001B06D33327731303878785C7068792E630021
S315080001C0626F7468546F6B2E696666696C746572C3
S315080001D04820213D20307866666666007374616340
S315080001E06B5C7068795C73746D333277313038784C
S315080001F078636C6173735C616E616C6F6775652D8E
S3150800020066696C7465722E630000000010F0B0C059
S31508000210D00000001120304060708090A0E00000FF
S31508000220626F74682E746F6B2E626961736D617389
S3150800023074657220213D2030786666666600000087
S31508000240737461636B5C7068795C73746D33327751
S315080002503130387878636C6173735C616E616C6F8A
S315080002606775652D63656C6C2D626961732E630015
S31508000270737461636B5C7068795C73746D33327721
S315080002803130387878636C6173735C616E616C6F5A
S315080002906775652D76636F2E6300000070B52B4871
S315080002A042782B490B685B0724D5032A22DA00EB30
S315080002B0420384889C810123847803FA02F222434C
S315080002C082700278234C92B10025D60708D545706E
S315080002D0AB405A40027000EB4500808A206009E076
S315080002E001259607F3D402255607F0D402E02260CA
S315080002F0032242704FF6FF700860BFF35F8F70BD30
S31508000300124800210170032141700021C1700521A6
S315080003100181002181700F4900220A604A604FF46A
S3150800032000428A601022CA60001D48610120886167
S315080003300320C8600648042101644FF6FF71016076
S3150800034005484FF40061016000F008B8740A0020FF
S3150800035010A8004004D0004000E100E0E0B50A2300
S315080003607F227348018800A800F040F9BDF806000E
S315080003704FF6FF71884209D137220FF204210FF296
S31508000380F81000F070F900F06DF907BD69494A6880
S31508000390002AFBD1C0228A6001220A6000220A6074
S315080003A04A68002AFCD10A69C86002200860002051
S315080003B0086048680028FCD107BD5F4801684908FD
S315080003C0490001607047F8B516461F46069C5B4D06
S315080003D0286C20F00800286400F072F9390341EA15
S315080003E0C61141EA840141F00101534A116008210E
S315080003F0296000F06BF90020F2BD50480268120728
S31508000400FCD5082202604E48006808800020704724
S3150800041030B583B002237F224A48018801A800F03C
S31508000420E5F800200090022303220021FFF7CBFF06
S3150800043000F035F8BDF8064000200090022301229E
S315080004400146FFF7C0FF00F02AF8BDF80650002065
S315080004500090022302460146FFF7B5FF00F01FF899
S31508000460BDF8060034490A68520852000A60BDF809
S3150800047004104FF6FF7291420EBF4FF4E1610A2253
S3150800048091FBF2F1ADF80410001B0004291BB0FB28
S31508000490F1F0BDF8041048434000000C3EBD0DF1D4
S315080004A006010020A9E710B5274CFFF7B1FF40F673
S315080004B08C218842206834BF40F0080020F00800EC
S315080004C0206010BD10B582B0044602237F221F4863
S315080004D0018800A800F08AF89DF801009DF8001030
S315080004E0FF2903D1FF2804BF0420002104B1801C82
S315080004F0C0B2082828BF0720082928BF072141EAD3
S31508000500C0101349086013BD12490A68124B1B68CC
S31508000510DB0758BF4008032809D34B6D43F0010396
S315080005204B650B689B1A1B031B0B8342F9D3704759
S3150800053050060008E81000400470004018A000406B
S31508000540007000405406000800BC0040520600082F
S3150800055018000040382000401C40004010B5040038
S3150800056004D110BD4FF47A70FFF7CEFF2046441E23
S3150800057080B20028F6D110BD46414C534500000014
S31508000580463A5C50726F6A6563742D72656C617465
S3150800059065645C53544D3332573130385C6D79435A
S315080005A06F64655CCAB5D1E934203136B5E3D7E95D
S315080005B0CDF85CB9A4B3CCD4B4B4FAC2EB5C686128
S315080005C06C5C6D6963726F5C636F727465786D33AA
S315080005D05C6D6963726F2D636F6D6D6F6E2D696EDD
S315080005E07465726E616C2E630000000030B583B0CE
S315080005F0044610467F2808BF0020B1F5004F1AD1DF
S3150800060008237F2240F6120100A8FFF7EFFF082211
S315080006100FF2480100A800F09BF830B908237F22A2
S3150800062040F2A27100A8FFF7E1FF082200A92046C0
S3150800063000F08CF837BD1A46034D294300FB031119
S31508000640204600F083F837BD00000408AA07BE0755
S31508000650D207DC07DE073C08EE080080FFFFFFFF35
S31508000660FFFFFFFF704770B584B0034608460A21AE
S3150800067000248DF80A4002AC0A25491EC9B292FB2D
S31508000680F5F605FB1622303262703246012A0DDB7A
S31508000690491EC9B292FBF5F605FB162230322270C6
S315080006A03246012AA4BFA41E0129E6DA002200ACBC
S315080006B0091900F062F808B900F0A4B804B070BDD2
S315080006C0EFF31180602181F31188704780F3118858
S315080006D07047FEE780B52148016821F010010160E6
S315080006E00020FFF7EFFE00F006F800F0D0F8BDE8AE
S315080006F0014000F07BB980B5FFF702FEFFF7D3FE95
S31508000700BDE8014000F003B981B209B94BF6EF61C3
S31508000710134A1180000C08BF4FF6CE205080704750
S315080007200288130448BF4A405100018010467047AA
S3150800073038B50B4C62212046FFF7F2FF054641F219
S315080007400B01A01CFFF7ECFF684032BD00F07CB936
S3150800075080B500F0B1F940B202BD000000BC00400F
S315080007600200002010B5044603E014F8010B00F05F
S31508000770D4F920780028F8D110BDF8B504460D46FE
S3150800078016461F4656B10FF24400FFF7EBFF3046F8
S31508000790FFF7E8FF0FF24400FFF7E4FF2046FFF7F4
S315080007A0E1FF0FF24000FFF7DDFF2846FFF7DAFF0B
S315080007B00FF23400FFF7D6FF3846FFF7D3FF0FF2E4
S315080007C02C00FFF7CFFF0020F2BD0000496E20661F
S315080007D0756E6374696F6E2000000000202D2D2051
S315080007E0000000003A00000020000000202D2D2007
S315080007F0617373657274696F6E206661696C65648E
S315080008000A00000080B5012000F0B2B900BF50F818
S31508000810041B61B150F8042BD30744BFA9F10103A7
S315080008209A18002342F8043B091FFAD1EFE77047EC
S315080008302DE9F04100245B4D2C605B4E34604FF48B
S31508000840A040706041F29A084046FFF75DFE68686E
S3150800085044F69041081A00B24FF4487190FBF1F043
S3150800086000F3030030604046FFF74EFE0827404677
S31508000870FFF74AFE686804197F1EF8D14B48211D08
S31508000880C908B0FBF1F080B27060BDE8F08138B5F8
S315080008906FF00F04464D0120A8602C608020FFF7FA
S315080008A033FEE868FF2802D8641C102CF5DB31BD3E
S315080008B010B5404C40480088206040F2DC50FFF7F5
S315080008C023FEA06800F0010010BD70B53B4C022065
S315080008D02061394D002028801026F605360E288816
S315080008E030182880FFF7E4FF10B12888801B28807D
S315080008F0002EF2D12068C00702D42888401C288020
S3150800090028880D2834BF801C0F20288070BD70B53C
S3150800091000244FF6FF76284D2888B0420BD10223D3
S315080009207F22274801882846FFF760FE2888B042BC
S3150800093008BFFFF7CAFF214E02203061FFF7B8FF54
S315080009403168490801F001012A8800B9521C21B111
S3150800095092B2032A24BF521E01242A802A8801B98A
S3150800096018B9D11E89B20C29E8D308B1022A06D2D1
S315080009700D2A02D2901C288002E00F20FBE70CB15A
S31508000980FFF796FF306940F0010030610120706181
S31508000990FFF796FE0B4911220A60BDE87040FFF783
S315080009A095BE0000104000400C0000400060E316B1
S315080009B00840004004400040000000200C40004071
S315080009C0580600080080004010B582080FF2600340
S315080009D053F82220136800F0030080000F24844097
S315080009E0A34301FA00F01843106010BD80B50B4808
S315080009F0102101600A48022101600A484FF400618B
S31508000A000160FFF715FF084807210160002101640E
S31508000A10064810210160002002BD000080E100E0C8
S31508000A20080000400C60004014A0004000E100E00F
S31508000A3000B0004004B0004000B4004004B40040D8
S31508000A4000B8004004B800404AB38B0707D0521ECE
S31508000A5011F8013B00F8013B21D08B07F7D183073A
S31508000A601ED1103A07D330B4B1E83810103AA0E8CE
S31508000A703810F9D230BC530724BFB1E80810A0E8F3
S31508000A80081044BF51F8043B40F8043BD20724BF82
S31508000A9031F8022B20F8022B44BF0B7803707047FD
S31508000AA0083A07D3B1E80810083A40F8043B40F87A
S31508000AB004CBF7D25307E4E70300002013F0030F33
S31508000AC009D0521E22BF13F8010B11F801CBB0EB67
S31508000AD00C00F3D07047121F22BF53F8040B51F8CD
S31508000AE004CB6045F7D0121D0AD200BA9CFA8CFCDA
S31508000AF0B0EB0C0038BF6FF0000088BF01207047CC
S31508000B00521E22BF13F8010B11F801CBB0EB0C00F3
S31508000B10F6D0521C08BF1046704710B582B004467E
S31508000B2014F1010F0AD08DF80000012200A9012056
S31508000B3000F074F8012801D1204616BD4FF0FF30A9
S31508000B4016BD10B450F8041B81B102681218001DB6
S31508000B5050F8043BDC0744BFA9F10104E31852F836
S31508000B60044B43F8044B091FF9D1EBE710BC704757
S31508000B7001491820ABBEFBE726000200F8B5074678
S31508000B800E4614461D46A7F596706049884208D356
S31508000B902C220FF2D8110FF2A810FFF764FDFFF709
S31508000BA061FD5B4800EB5700B0FBF7F0594900F0D0
S31508000BB001028A6140084861072E0CBF0020022006
S31508000BC0012C08BF40F0180003D0022C08BF40F0E3
S31508000BD0080005F00F02022AA8BF40F0040088604A
S31508000BE0012008604C48002101804180818009214C
S31508000BF00920FFF7E9FE04210A20FFF7E5FE47482A
S31508000C000121C164016C46F20902114301644FF6E1
S31508000C10FF710160424820210160F1BD10B5002333
S31508000C20012804D0022802D04FF0FF3010BD3D48FD
S31508000C30002904D1C1684906FCD5002010BD846985
S31508000C40012CF1D106E0C4686407FCD511F8014B04
S31508000C5004605B1C1446621E002CF4D1184610BDB5
S31508000C602DE9F0410C46904610B14FF0FF301DE0DB
S31508000C7000262D4F284D14E0FFF722FD6988C95D2F
S31508000C8004F8011B6988491C8A1101EB5262D211CA
S31508000C90A1EBC2116980A988491EA980FFF716FD34
S31508000CA0761CA88808B14645E6D33046BDE8F081EB
S31508000CB070B51A480168026C02EA01041A49164A14
S31508000CC0184B002C19E0DC681D6814F038040ED1A6
S31508000CD094887F2C0BD216887554751CAE1105EBBB
S31508000CE05666F611A5EBC6151580641C9480DC685B
S31508000CF0A407E8D40468056C2C4005D0046046F2C5
S31508000D0009052C42F3D1F5E770BD0000D50E0E009B
S31508000D1000366E0154C80040920A002008A8004018
S31508000D2000E100E03CC800407C09002080B50122B3
S31508000D3001460020FFF794FF00B10120C0B202BDB2
S31508000D40286261756472617465203E3D20333030D7
S31508000D502920262620286261756472617465203C04
S31508000D603D3932313630302900000000463A5C50B1
S31508000D70726F6A6563742D72656C617465645C5321
S31508000D80544D3332573130385C6D79436F64655C46
S31508000D90CAB5D1E934203136B5E3D7E9CDF85CB91F
S31508000DA0A4B3CCD4B4B4FAC2EB5C68616C5C6D696C
S31508000DB063726F5C636F727465786D335C756172AC
S31508000DC0742E630080B508211020FFF7FDFD082169
S31508000DD01320FFF7F9FD08210E20FFF7F5FD08217E
S31508000DE00820FFF7F1FD0948016841F0010101609B
S31508000DF0016841F0080101600548016841F04001B9
S31508000E000160016841F00101016001BD0CB80040B4
S31508000E100CB400400B48007850B1EFF30880A0F1FD
S31508000E20200080F3088880E8F00F0749086030BF83
S31508000E300548006890E8F00F00F1200080F3088864
S31508000E4070470000A80A0020AC0A00200248006883
S31508000E5080F3088862B67047AC0A00203748018AD2
S31508000E6040F6A772914209D1418A4FF47F40014268
S31508000E7004D102298041C043C00F70470020704743
S31508000E802DE9F84304468946FFF71AFC06462A4F19
S31508000E9001203870FFF7E2FF20B9E82200F046F893
S31508000EA0FFF7E0FB2548D0F8288049464FF48070C4
S31508000EB02043C04705463046FFF708FC0020387037
S31508000EC00FF2E4060DB1A85D05E049464FF400703F
S31508000ED02043C047805DBDE8F2832DE9F84380468C
S31508000EE089465600FFF7ECFB0746FFF7B7FF28B918
S31508000EF040F2291200F01AF8FFF7B4FB0F48446ACB
S31508000F000023324649464046A04705463846FFF77D
S31508000F10DDFB0FF294070DB1E85D05E033460022CC
S31508000F2049464046A047C05DBDE8F2830FF21C0162
S31508000F300FF20C00FFF797BBBF0A00200000040859
S31508000F40766572696679466962282900463A5C5070
S31508000F50726F6A6563742D72656C617465645C533F
S31508000F60544D3332573130385C6D79436F64655C64
S31508000F70CAB5D1E934203136B5E3D7E9CDF85CB93D
S31508000F80A4B3CCD4B4B4FAC2EB5C68616C5C6D698A
S31508000F9063726F5C636F727465786D335C666C61DF
S31508000FA073682E6300000000000202024B4B46479E
S31508000FB080B501210320FFF707FD01211220FFF765
S31508000FC003FD032000F004F81220BDE80240FFE705
S31508000FD0C108032908D2C11089020F4A012300F06B
S31508000FE0070003FA00F05050704710B50446FFF7A3
S31508000FF067FBE10803290AD2E110084A02EB8121BE
S315080010000A68012304F00704A3405A400A60BDE8B1
S315080010101040FFF75BBB000010B000400CB000406A
S3150800102080B51D4840F20731016072B61B490A684F
S31508001030520852000A601A4911220A6019491A4AC6
S315080010404A601A4A8A604FF078424A61184A8A61A9
S31508001050184ACA61184A194B13604FF08033536017
S315080010609360D360E023136110220A614FF4E022F3
S315080010700A624069800609D511480022027008688C
S3150800108040F080500860FFF7E1FEFEE7FFF718FB27
S3150800109062B6012002BD00BF18000040FCED00E06A
S315080010A00080004004ED00E0000000080004FA0596
S315080010B0F8F8F84080F8408000E400E0808040803E
S315080010C0A80A0020DFF878030068DFF878130968B3
S315080010D06FF0FF02DFF87033984213D111F1010F58
S315080010E001D1042070476FF47F00814201D10220AC
S315080010F0704711F1807F01D10320704791421ED1BC
S315080011000520704710F1807F03D1914208D106204F
S31508001110704710F1010F07D1994210D10820704786
S3150800112099420CD107207047904208D1994201D1C3
S315080011300920704711F1807F01D10A2070470020ED
S3150800114070472DE9F04781460D4617460FF2743869
S3150800115040F2FF3ADFF8E86216EA0A0F05D0532292
S31508001160414600F068F8FFF77DFADFF8D84214EA3E
S315080011700A0F05D05422414600F058F8FFF772FAD4
S31508001180E80705D55622414600F04BF8FFF76AFAFC
S31508001190F80707D5582241460FF2B430FFF763FA2D
S315080011A0FFF760FA7819B0F5806F07D35A224146DF
S315080011B00FF2AC30FFF757FAFFF754FAFFF782FF42
S315080011C0401E032805D9001F03280ED9001F012831
S315080011D017D8A8190021B1EB570FBEBF30F8112058
S315080011E029F81120491CF6DB17E028190021B1EB74
S315080011F0570FBEBF30F8112029F81120491CF6DB1D
S315080012000BE000214FF6FF7002E029F81100491C97
S31508001210B1EB570FF9DB012000E00020BDE8F087AD
S3150800122029460FF21C30FFF71EBA29460FF2EC20AA
S31508001230FFF719BA29460FF26820FFF714BAF8B56E
S31508001240044601256D1E04EB8526374600203978AD
S31508001250FF2906D031460220FFF712FE48B94FF49F
S315080012608060401C7F1CB0F5806FF0D3002DE9D15B
S315080012700020F2BD2DE9F54F83B00E460FF2442546
S3150800128040F2FF34DFF8B88118EA040F05D040F2BF
S315080012900B12FFF7CFFFFFF7E5F9DFF8A8A11AEA67
S315080012A0040F05D04FF48672FFF7BFFFFFF7DAF990
S315080012B0F00705D54FF48772FFF7B2FFFFF7D2F9AB
S315080012C0BDF81000C00708D54FF4887229460FF2FA
S315080012D08020FFF7C8F9FFF7C5F9BDF81040A01937
S315080012E0B0F5806F08D34FF4897229460FF2702043
S315080012F0FFF7B9F9FFF7B6F9FFF7E4FEBDF81010E6
S31508001300C1F58061891B091F4FEA510B3419311F3A
S3150800131049080191411E032905D9091F032918D92E
S31508001320091F01291AD8474655464FF007090A28C2
S31508001330FDD8DFE800F0072D31353F515D61697B47
S315080013407F00F4E73846FFF77AFF60B105B0BDE8DD
S31508001350F08F574645464FF00309E8E75746454696
S315080013604FF00309EEE72846FFF769FF0028EDD19D
S3150800137000F071F80028E9D100F07CF80028E5D1E2
S3150800138000F064F80028E1D100F083F80028DDD1E8
S3150800139000F066F80028D9D100F073F80028D5D1F6
S315080013A0B9F1030F01D10020D0E72846FFF747FF20
S315080013B00028CBD100F04FF80028C7D100F05AF822
S315080013C00028C3D100F042F80028BFD14FF47F406F
S315080013D000F058F80028B9D14FF47F40ADF8000066
S315080013E0012200A908F10200FFF777FD0028ADD118
S315080013F000F047F80028A9D1B9F1070FD3D028463D
S31508001400FFF71DFF0028A1D100F025F800289DD17F
S3150800141000F030F8002899D100F018F8002895D186
S315080014204FF47F4000F035F800288FD100F018F807
S3150800143000288BD1002000F02CF8002886D1AFE7D1
S3150800144000F8010800FC01080000FFFF5A46391998
S315080014502819FFF742BD019A391D281DFFF73DBD22
S315080014604FF47F40ADF80000012200A90AF10200FE
S31508001470FFF733BDBDF81000420803997019FFF74E
S315080014802CBD0020ADF80000012200A95046FFF748
S3150800149024BDADF80000012200A94046FFF71DBD96
S315080014A0284E564D5F4C4546545F50414745254D9D
S315080014B046425F504147455F53495A455F42293D79
S315080014C03D300000463A5C50726F6A6563742D724F
S315080014D0656C617465645C53544D333257313038EA
S315080014E05C6D79436F64655CCAB5D1E934203136E1
S315080014F0B5E3D7E9CDF85CB9A4B3CCD4B4B4FAC291
S31508001500EB5C68616C5C6D6963726F5C636F7274C7
S3150800151065786D335C6E766D2E630000284E564DE9
S315080015205F52494748545F50414745254D46425FFB
S31508001530504147455F53495A455F42293D3D300072
S31508001540286F666673657426307831293D3D30000C
S31508001550286C656E67746826307831293D3D300001
S315080015606F66667365742B6C656E6774683C4E5659
S315080015704D5F444154415F53495A455F420000005C
S3150800158038B5DFF8BC4800206070E0702071FFF7BE
S31508001590CFF860710020A071E071DFF8A80800217B
S315080015A00170DFF8A40801700024DFF8A0580C20A9
S315080015B0604300214155401941800821001D00F073
S315080015C06BFD641C0A2CF2DB4FF6FF7000F081FD00
S315080015D04FF6FE7000F079FD00F0C6FDBDE831401B
S315080015E000F0DDBD8001B0FBF1F0FF2888BFFF20C9
S315080015F0C0F1FF00C0B27047F0B59DF91440DFF89E
S3150800160040586D78C5B1DFF848582E78A6B906E077
S31508001610771916F800C087F801C0761CF6B2077865
S31508001620B742F5DA85F88110C5F88420A5F8883020
S3150800163085F88A4001202870F0BD00002DE9F04F9A
S31508001640ABB000200190029006A80021002206C037
S31508001650DFF8FC673078002800F04282DFF8E07790
S31508001660B07B722807D1F07B702804D1307C3028F3
S3150800167001D1707C792840F0FF803889411C398176
S3150800168089B20FF6080000F0BBFF00F0D0FF044651
S315080016907C64707D317D41EA0020F17C41EA0020BE
S315080016A0B17C41EA0025FD63BD64707E317E41EA66
S315080016B00020F17D41EA0020B17D41EA0028C7F803
S315080016C04080B86B00F0D6FFC7E90401284600F051
S315080016D0D1FFC7E90601404600F0CCFF804689469F
S315080016E0C7E90889204600F0C5FF04468A46C7E9C7
S315080016F00A4AD7E90601D7E9042300F0C9FF0546D7
S315080017008B46404649462246534600F0C1FF2A46C4
S315080017105B4601F07DF8C7E90C010022002301F0C1
S31508001720EBF806D281F00041C7E90C0158A000F099
S3150800173067FFD7E90C45204629460022DFF814370B
S3150800174001F0F2F801F014FA80B20590DFF80817F4
S31508001750484300F085FF00F0DCF900F0E0F9DFF817
S31508001760FC3601F0E1F801F003FA80B20490DFF8E4
S31508001770F016484300F074FF00F0CBF900F0CFF9FB
S31508001780DFF8E03601F0D0F801F0F2F980B2039004
S31508001790DFF8D416484300F063FF00F0BAF900F00A
S315080017A0BEF9DFF8C83601F0BFF801F0E1F91FFA13
S315080017B080F942F2107000FB09F000F051FF00F0CA
S315080017C0A8F900F0ACF9DFF8A83601F0ADF801F099
S315080017D0CFF91FFA80F84FF47A7000FB08F000F092
S315080017E03FFF00F096F905468B460022DFF884365F
S315080017F001F09AF801F0BCF984B26420604300F065
S315080018002FFF02460B462846594600F041FFCDE910
S315080018100801DDE908010022DFF85C3601F084F8EA
S3150800182001F0A6F91FFA80FAAFA5059900F07BF931
S31508001830049900F078F9039900F075F9494600F023
S3150800184072F9414600F06FF9214600F06CF95146ED
S3150800185000F069F90A2000FB0AF000F001FF0246D1
S315080018600B46DDE9080100F013FF01F081F981B2AA
S315080018700FF2206000F0C4FE70780A2806D3B0780C
S3150800188000F00701012905D0032905D026E100BF8C
S315080018902D000000102400E0302440065CBF022022
S315080018A00190019800F11005801901998919F278BB
S315080018B0882A06D08C2A13D0C82A0AD0CC2A15D052
S315080018C00CE1817A407A40EA0120029001980A30B8
S315080018D013E00822093106A8FFF7B6F828460CE0F7
S315080018E0017CC07B40EA01200290F7E708220F310D
S315080018F006A8FFF7A9F8019816307178C0B2814298
S3150800190019D37979491C4FF6FF7A4FF00C08DFF89E
S315080019103C950AAD80194078204310280CD0112830
S3150800192022D0132849D0162800F0BB801A2815D0D3
S31508001930342800F0AD80D1E00320FFF756FB00F015
S31508001940C1F90320FFF744FB7078C11CC9B2B6F889
S315080019508800FFF747FE86F88B00BFE001220121C9
S31508001960002000F097F9B9E0002008FB00921278F1
S31508001970FAB91A208DF82800012000F0BDF8FF20DA
S31508001980287100F0BFF800F0A6FBA87300F0A3FBCF
S31508001990000AE87300F0A1FB082201460EA8FFF72B
S315080019A053F80220287600230AAA514600F032F995
S315080019B094E0401C0A28D8DB90E0052400A80FF222
S315080019C0DC42138803801A208DF82800612000F075
S315080019D093F800F080FB287100F07DFB000A00F008
S315080019E091F800F07AFB082201460DF13600FFF760
S315080019F02BF80022002108FB02F303EB090001EB98
S31508001A00000C9CF804C001EB060E9EF80FE0F445A6
S31508001A1002D1491C0829F2DB08290FD1012103F854
S31508001A2009103979491C3971C9B24180042400F07A
S31508001A305DF80FF26C4000F0E3FD22E0521C0A2A22
S31508001A40D8DB4FF0000B08FB0BF010F8091099B91A
S31508001A50012100F809103979491C39714844C9B27D
S31508001A604180082206A9001DFEF7EEFF04243979F5
S31508001A7000F03CF85A46DCE70BF1010BBBF10A0F04
S31508001A80E1DBAC759DF80000E8759DF8010089E773
S31508001A9096F8810010B30120FEF760FD00F009FCFE
S31508001AA01CE0002208FB02F414F8090098B104EBC4
S31508001AB009056888029988420DD10FF21C4000F08A
S31508001AC09FFD002004F80900688008220021281DCF
S31508001AD0FEF7BAFF02E0521C0A2AE3DB0020307048
S31508001AE02BB0BDE8F08F0000256400008DF80010CB
S31508001AF000208DF8010070476870CC20A8707971B5
S31508001B00E97070476871082206A90DF12E00FEF7E4
S31508001B109BBF02460B462046294600F0B9BD04463F
S31508001B200D4600227047284600F06ABD80B540F28F
S31508001B3099320FF2E4310FF2D830FEF794FDBDE882
S31508001B400140FEF78FBD2DE9F84F0B244FF07F0BB0
S31508001B5071A000F055FDDFF8E862707820B10FF249
S31508001B601C4000F04DFD4AE00FF2284000F048FD09
S31508001B70FFF706FD00F09FFA0020307000F041F8EC
S31508001B806FF07F0A384600F098FA28B140F2B7326B
S31508001B9000F043F8FEF766FD20254FF48070FEF747
S31508001BA0B3FC00F09FFA8245B8BF82466D1EF4D199
S31508001BB0DA45BCBFD3463C467F1C1B2FE0D3E0B2B8
S31508001BC000F07BFA28B140F2CB3200F026F8FEF797
S31508001BD049FD5A4621460FF2084000F011FD40F231
S31508001BE0011000F076FA00F076FA01460FF21C4072
S31508001BF000F006FD307900F068FA01207070BDE843
S31508001C00F18F0B270FF2C4380FF20C39704700AA70
S31508001C104FF6FF71012000F08CBB49464046FEF79F
S31508001C2022BD30B5A1B015208DF8000000AC6120AA
S31508001C30607088208DF80200814D6879401C6871B3
S31508001C408DF8030000F047FA00F034F8000A6071D6
S31508001C50FF208DF806008DF8070000F038FA20728C
S31508001C6000F035FA00F02AF80020ADF80A008DF8E1
S31508001C700C0053208DF80D000020ADF80E000490DE
S31508001C808DF8140000F0D3FCA8631223FFF7BFFFFA
S31508001C9021B030BDF0B5A1B000F029F800F00AF87F
S31508001CA000F03FF800F03AF800F008F800208DF848
S31508001CB00A003FE08DF8040000F00DBA000A8DF81E
S31508001CC0090070474FF4FA70FEF748BC8DF80A0011
S31508001CD08DF80B40200A8DF80C0000207873ADF8BB
S31508001CE00E000D2300AA2946304600F022BB044602
S31508001CF00D46164611208DF8000000AF6120787059
S31508001D0088208DF802004E484179491C41718DF8AA
S31508001D10031000F0E0B900000D0A0000387200F068
S31508001D20D6B9000A78718DF80650280A8DF807008A
S31508001D3000F0CDB9FFF7CCFF21B0F0BD2DE9F04397
S31508001D4083B0FEF7C7FC0123002208214FF4E130D7
S31508001D50FEF714FF09210420FEF736FE09210520A7
S31508001D60FEF732FE45480A210160454C6020A06511
S31508001D7008202060434D4FF400462E6000F024FFF3
S31508001D8000F055FC0027FFF713F9FFF71BF80FF2D1
S31508001D90D0210FF2982000F033FC022100A800F0B1
S31508001DA0A3F90098FEF7B0FC012000F099F9244841
S31508001DB0007800F075F948B140F2D3520FF2581185
S31508001DC00FF20820FEF74FFCFEF74CFC0FF29820A6
S31508001DD000F016FC0FF2B02000F012FCFFF7B3FE7D
S31508001DE04FF4FA78FFF72AFC0A20FEF7B7FB01A89A
S31508001DF0FEF79CFFA8F1010810B9B8F1000FF1D160
S31508001E00002000F01AFC0FF2882841F2883900F009
S31508001E100EFCB0FBF9F109FB110060B9FFF701FFF1
S31508001E207F1CBFB23946404600F0EAFB3220FEF777
S31508001E3095FBFFF703FC082020602E60E7E700000B
S31508001E40100000205F00002061000020FC0900202F
S31508001E5068080020D01263418096980080842E413D
S31508001E6040420F00006AF840A08601000088C3407F
S31508001E7000408F40000059400000244018BC004034
S31508001E8014A8004080E200E0704700002564202086
S31508001E902000000025640D0A00000000FEFF000077
S31508001EA04A6F696E3A20506C616E657420307825E9
S31508001EB03034582028696E6465782025642920689E
S31508001EC06173206A6F696E656420746865206E6543
S31508001ED074776F726B0D0A004C656176653A20500F
S31508001EE06C616E6574203078253034582028696E08
S31508001EF06465782025642920686173206C6566749A
S31508001F0020746865206E6574776F726B0D0A000021
S31508001F1046414C5345000000463A5C50726F6A656C
S31508001F2063742D72656C617465645C53544D333209
S31508001F30573130385C6D79436F64655CCAB5D1E951
S31508001F4034203136B5E3D7E9CDF85CB9A4B3CCD49F
S31508001F50B4B4FAC2EB5C73696D706C656D61635CF1
S31508001F6064656D6F735C73616D706C655C736F6CC3
S31508001F7061722D73797374656D2E6300416C726599
S31508001F8061647920696E206E6574776F726B0D0ACD
S31508001F9000000000496E616374697665206E6F649F
S31508001FA06520666F726D696E67206E6574776F72ED
S31508001FB06B20616E64206265636F6D696E6720745D
S31508001FC068652073756E0D0A0000000073746174ED
S31508001FD075733D3D53545F53554343455353000072
S31508001FE053656C6563746564206368616E6E656CC1
S31508001FF0202564207769746820656E657267792084
S3150800200025642064426D0D0A0000000052616E646A
S315080020106F6D6C792063686F73652050414E204957
S31508002020443A203078253034580D0A000D0A536991
S315080020306D706C654D414320282573292053616DC9
S31508002040706C65204170706C69636174696F6E3A73
S31508002050202753756E20726F6C6527210D0A0000C4
S31508002060312E302E31000000456E746572203F20F7
S31508002070666F72206C697374206F6620636F6D6D6E
S31508002080616E64730D0A00000D0A3E200000000010
S315080020904125640D0A000000002200F09DBD0000E5
S315080020A080B51A490978C90701D4B02002BD00F0E5
S315080020B0D2FE002002BD00F072BF01F0F5B800F0B4
S315080020C0F3BD00F045B901F000B800F0E2BF00F03A
S315080020D0DDBF00F0E6BF00F0E1BF07E000F0B9B9E8
S315080020E000F0E7BF00F08ABF01F0C0BB08487047A0
S315080020F038B5084C2068216C01EA0005ADB26807BE
S3150800210048BFFFF7C1FE256031BD00009B070408E4
S31508002110B00A002008A0004070B582B004461546F3
S315080021200819A0F1080600F0C1FF20B1207803289D
S3150800213024BF801E2070F07800F094FD96F90210F6
S31508002140663149B200910346707900F00F00B17903
S31508002150090241EA0040F17941EA0002294620468F
S31508002160FFF74AFA73BD0000B648C178002906D0C1
S315080021700179002903D00FF2E02000F041BA0021CE
S315080021808170B14900220A7081F8882081F81021EF
S3150800219081F8982181F82022027042707047A94878
S315080021A0C178002906D00179002903D10FF2E4206D
S315080021B000F026BA00218170A44801707047A14832
S315080021C00178491CC9B2052928BF0021017070474A
S315080021D09C484178027922B1491CC9B2052928BF11
S315080021E00021417070479948017801B9704710B5C8
S315080021F04178C1B1934CE178A9B900F03DF80021C6
S3150800220021710121E1700421A17008B100F031F8B3
S3150800221000F02CF820B1802200F035F8FEF722FAFB
S31508002220A078401EA07010BD10B5864C6078882135
S3150800223048438549425C012A17D1E278AAB9401871
S3150800224000F01AF801212171E1700421A17008B18A
S3150800225000F00FF800F00AF820B19A2200F013F8FF
S31508002260FEF700FAA078401EA07010BDE068FFF7E0
S3150800227026BF0120FFF727BFA060011DE160D0F847
S315080022808400206170470FF260210FF24820FEF7A4
S31508002290EAB910B5FFF7A7FFFFF7C6FF694C6069F3
S315080022A030B10FF2A42000F0ABF96069401E6061FE
S315080022B010BD66480121417095E738B51446614A54
S315080022C012788823604D03FB02552A7812B10FF263
S315080022D0B0202AE0012200F021F8002C1ABF60196C
S315080022E0001D0020C5F8840001202870BDE8314093
S315080022F065E738B51446554D2A7812B10FF2B02065
S3150800230013E000F00BF8002C02D06019001D00E065
S315080023100020C5F884000120287031BD6A706880E5
S315080023200878421C281DFEF78FBBBDE8324000F036
S3150800233067B910B50C4611461A460028204602D041
S31508002340FFF7BBFF01E0FFF7D4FFBDE81040A0E7A9
S315080023502DE9F041014615463A4CA2682369A6784C
S315080023600FF27C270FF290200FF27C1851B140290A
S3150800237015D0882936D0892937D08D2926D08F2996
S3150800238003D035E000F03DF839E000F03AF8002DCA
S3150800239035D00120607100F045F9E0802FE08EB15C
S315080023A00BB1FFF766FFFFF761FF38B140F21B126A
S315080023B041463846FEF757F9FEF754F9A078401E0D
S315080023C0A0701CE06069401C6061DBE7002EF9D054
S315080023D00BB1FFF74EFFFFF749FF0028EED04FF489
S315080023E09672E5E74FF49B7204E040F2391201E079
S315080023F04FF49E724146FEF736F9FEF733F9BDE80B
S31508002400F08100201070E070E2E60E490A6910704B
S315080024100A69030A53700A69000C90700869817882
S3150800242041F0800181700020FFF74DBE07494A88B8
S31508002430904204D10878002802D001207047002075
S31508002440704700005C00002098040020F408002073
S31508002450ECE70020704700004469726563742074D5
S3150800246072616E736D697373696F6E20696E207021
S31508002470726F676573732E2020747844697265637A
S315080024807451204E4F5420636C65617265642E0D3D
S315080024900A000000496E646972656374207472618B
S315080024A06E736D697373696F6E20696E2070726FD3
S315080024B0676573732E20207478496E646972656344
S315080024C07451204E4F5420636C65617265642E0DFD
S315080024D00A0000007374617475733D3D53545F536D
S315080024E05543434553530000463A5C50726F6A653C
S315080024F063742D72656C617465645C53544D333234
S31508002500573130385C6D79436F64655CCAB5D1E97B
S3150800251034203136B5E3D7E9CDF85CB9A4B3CCD4C9
S31508002520B4B4FAC2EB5C73696D706C656D61635C1B
S3150800253064656D6F735C73616D706C655C747261F4
S315080025406E736D69742E63004661696C65642061FB
S315080025506C6C207472616E736D6974206174746535
S315080025606D7074732E202044726F7070696E6720C8
S31508002570746865207061636B65742E0D0A0000002F
S315080025807478446972656374512069732066756C42
S315080025906C21202044726F7070696E67206E6577B3
S315080025A0205458207061636B65742E0D0A00000074
S315080025B07478496E6469726563745120697320661C
S315080025C0756C6C21202044726F7070696E67206E7E
S315080025D06577205458207061636B65742E0D0A0068
S315080025E07374617475735F636F64653D3D53545FBF
S315080025F0535543434553530046414C534500000049
S315080026000EB400B582B003A9009100AB02460121C1
S31508002610034878440A3001F095F906BC5DF810FBCA
S315080026200920000080B500F002F880B202BD094812
S315080026300168406840EA01407047064982B24A602C
S31508002640000C08607047044807210160034801210F
S31508002650017070471060004014A00040C60A0020B0
S31508002660010040F10880F446404200F004F851F0B9
S3150800267000416047010009D0B0FA80F18840C91CC2
S31508002680C1F58461090501EBD021400570470000BA
S3150800269070B44FF0004591EA030F44BF6B4000F059
S315080026A0C0B8841A71EB030604D26E40001BB14110
S315080026B0121973414FF4001C1CEB410F34BF7CEB1D
S315080026C0430684E00C0DA4EB1356362E7DDC012E52
S315080026D043DC45EAC32343EA525312BFD2029202AD
S315080026E05B08240545EAC12141EA5051D2EBC020D6
S315080026F0994125D407D1B0FA80F610FA06F164D0CC
S315080027000020203608E0B1FA81F6B140C6F1200271
S3150800271020FA02F21143B0404FEAF474B4EB46547F
S3150800272034F001064FEA74040AD8D6F50016760D79
S3150800273004F00044F04061FA06F25040F140484087
S31508002740C00A40EA415021F0004128BF5FEA50051F
S3150800275050F1000044EBD12137E045EAC323DB0AF8
S3150800276045EAC121C90AB6F120050EDD42EA024250
S31508002770120CC5F1200603FA06F6EB4042EA0605F6
S315080027806D42984161F100010DE062FA06F5F240EA
S31508002790554063FA06FC82EA0C02F3405A406D4241
S315080027A0904161EB030111F4801F05D1641E620597
S315080027B002D06D004041494121F48011430875F16A
S315080027C0004350F1000041EB045170BC70471CEB0C
S315080027D0410F15D223F0004352EA43060BD04FEAC5
S315080027E04C0CBCEB410F04D80C0D661E342EB7DD1D
S315080027F0EBE7801A994150EA410608BF0021E4E751
S3150800280008BF1CEB430F28BF6FF00001DDE700008F
S3150800281070B44FF0004591EA030C44BF6B40FFF7D4
S3150800282040BF841A71EB030603D2001BB14112198B
S3150800283073414FF4001C1CEB410F34BF7CEB43047F
S3150800284043E00C0DA4EB1356352E50DC45EAC323A2
S31508002850DB0A45EAC121C912B6F120050DDD63FA86
S3150800286005F6EB4086EA0305124218BF45F0010556
S31508002870C01851F100010CD213E062FA06F5F240D5
S315080028805540F3415A40B340F3405A4080185941E5
S3150800289007D349085FEA30005FEA350528BF45F0E7
S315080028A0010501F58011420875F1004250F100005A
S315080028B041EB045170BC4FF4001C1CEB410F38BFB0
S315080028C070470020090D090570471CEB410F10D20F
S315080028D052EA43060BD0BCEB410F05D80C0DAB43AF
S315080028E0661E342EB5DD02E0AB438018594170BC34
S315080028F0704770BC704700004FF4001C1CEB410F7A
S3150800290094BF1CEB430F09E041EA030C50EA4C0C58
S3150800291052EA0C0C03D2994208BF9042704714BF82
S315080029208B42824270470000F0B540F2FF7581EA9B
S31508002930030C0CF0004C15EA11541DBF15EA135789
S31508002940AC42AF42E5E0BC41C1F31301C3F3130344
S31508002950801A994143F4801304D2641E4000494109
S3150800296080185941C90241EA5051B1FBF3F603FBFD
S315080029701611A2FB0675D7EBC020A94102D2761E16
S3150800298080185941C90241EA5051B1FBF3FE03FBD5
S315080029901E11A2FB0E75D7EBC020A94103D2AEF1DA
S315080029A0010E80185941890241EA9051760546EA96
S315080029B08E2EB1FBF3F603FB1611A2FB0675D7EBB9
S315080029C08020A94102D2761E80185941C90241EADF
S315080029D050514EEA060EB1FBF3F603FB1611A2FBA5
S315080029E00675D7EBC020A94102D2761E8018594138
S315080029F0C90241EA5051B1FBF3F703FB1711A2FBD9
S31508002A000735D3EBC020A94167F100070CBF004288
S31508002A1047F0010766F3D5274FEA1E31B80814F5C3
S31508002A20806412DDBD0775F1004250EB0E5051EB84
S31508002A30045111F5801F5CBF41EA0C01F0BD4CF052
S31508002A407F6141F0E0410020F0BDBD076D0840EA16
S31508002A500E5041F48011D4F10104B4F120060ADACB
S31508002A60C4F120060200E04001FA06F3E1401843EB
S31508002A70B24015430EE0342C13DCC6F1200445EAB7
S31508002A8040056D0820FA06F2154321FA06F0A14022
S31508002A900D43002175F1004250F1000051EB0C0185
S31508002AA0F0BD00205FEA0C01F0BDCFB992185B417A
S31508002AB0B3FA83F704BFB2FA82F6BF190B3FB7F130
S31508002AC020062FBF02FA06F3BB40C7F1200622FAFA
S31508002AD006F638BF3343BA401CB1E419641E33E71F
S31508002AE07F4231F00041B1FA81F404BFB0FA80F6B2
S31508002AF0A4190B3CB4F120062FBF00FA06F1A14039
S31508002B00C4F1200620FA06F638BF3143A0403C1B24
S31508002B101AE7AC421ABF05EA1357AF4212E050EA69
S31508002B2041061CBF52EA4306BFE750EA4107304652
S31508002B3061461CBF41EA0551F0BD52EA430C08BF85
S31508002B40C143F0BD00204FF4001616EB410F98BFA5
S31508002B5016EB430F08BF16EB410F24BFC14305E030
S31508002B6016EB430F0CBF61464CEA0551F0BD000059
S31508002B70F446400D40EAC120490006D200F013F899
S31508002B80004248BF6FF00040604700F00CF84FF075
S31508002B90004188428CBF084640426047400D40EAE3
S31508002BA0C12049000CD240F00040490DA1F58061D2
S31508002BB0491C05D4D1F11F0154BFC840C01770473E
S31508002BC04FF0000070470000002181F3118870471C
S31508002BD062F30F2262F31F42401810F0030308D075
S31508002BE0C91A1FD3DB0748BF00F8012D28BF20F8F4
S31508002BF0022D130030B414461546103928BF20E9B3
S31508002C003C00FAD8490728BF20E90C0048BF40F81D
S31508002C10042D890028BF20F8022D48BF00F8012D91
S31508002C2030BC7047C91818BF00F8012DCB0728BF5C
S31508002C3000F8012D7047000010B5DFF8D844207859
S31508002C4078B100202070DFF8D004016821F48051A3
S31508002C5001600022E1684020FFF733FAA068401CB3
S31508002C60A06010BD010603D54FF67F710840C0006D
S31508002C70704738B5DFF89C44DFF8A404417871B191
S31508002C80C178E2785518ADB200798542A8BF0546E5
S31508002C90FDF74EFD0121A940491E084000E000202D
S31508002CA0A080A088C0B232BD38B50546C00708D591
S31508002CB0DFF87004FB2200F12401FDF7D4FCFDF7D0
S31508002CC0D1FCDFF86444206DC00701D58C2032BDE5
S31508002CD0202020626560256060687F30606004207F
S31508002CE02062DFF8300400210170DFF834542978B7
S31508002CF00029A16F14BF41F0010121F00101A1676C
S31508002D00697849B10021C170206D40F00400206542
S31508002D10A06F40F0080006E0206D20F00400206552
S31508002D20A06F20F00800A067FFF7A3FFA0646879EA
S31508002D300028206D14BF40F0080020F00800206528
S31508002D40206D40F001002065002032BD2DE9F041DC
S31508002D50DFF8D8637068716C01EA0004A4B2746085
S31508002D60DFF8C473DFF8AC53687800284DD1DFF874
S31508002D70B083E00719D53868396C7A6C42EA0141A4
S31508002D80E96098F8002062B14078800609D50120EC
S31508002D9028704FF480503060306C40F480503064B6
S31508002DA003E000220020FFF78CF920060CD52878CE
S31508002DB030B1002028700022E9684020FFF781F929
S31508002DC0306C20F480503064E00616D5E878401C54
S31508002DD0E87098F80210C0B2884207D2FFF749FF98
S31508002DE0B864386D40F00100386506E000F03BFD38
S31508002DF0002201468D20FFF764F9200705D5386CB7
S31508002E00796C41EA0040FFF700FBA0060ED5386D45
S31508002E1000F00100386520203862687830B900F083
S31508002E2022FD002201468820FFF74BF9600608D5E7
S31508002E30687830B900F017FD002201468920FFF7AF
S31508002E4040F9687828B14FF44070044204BF012065
S31508002E50A870BDE8F08170B50446DFF8D4520020AA
S31508002E60E871DFF8D00200210160DFF8CC62152195
S31508002E70F160092101651F2141600121016600F009
S31508002E8010FA00F0BBF900F081FB00F093FF00F0A8
S31508002E90DAF8288900F0FDF8688900F002F9706808
S31508002EA040F040007060A87800F0B5F8E87800F0C7
S31508002EB0BEF8687800F0DEF8DFF8800290F90000C6
S31508002EC000F0B2FA287800F00FF995F9040000F03E
S31508002ED017F9687900F0EDF8A87900F0F6F8306887
S31508002EE040F001003060DFF85802007800F0DCF9A5
S31508002EF048B18C4840F2F11200F124014C30FDF73C
S31508002F00B2FBFDF7AFFB8F4DF12028647820E8630C
S31508002F1000F020FB8C484FF480710160012C02D12F
S31508002F20BDE8704006E04FF6FF7129604FF4C061B6
S31508002F30016070BD70B5854D2E68B6B27C4CE079DF
S31508002F4001282BD0FDF7BCFB48F2D00129606A683E
S31508002F50520509D548F222022A606A68D205F5D5D3
S31508002F6029606A685207F1D42E6079494FF4C06225
S31508002F700A6078490A6A22F001020A620A6822F09F
S31508002F8001020A600A6842F002020A604A6A42F0CE
S31508002F9001024A620121E171FDF798FB70BD70B527
S31508002FA0634CE07930B3FDF78BFB05466A4801218F
S31508002FB001605A4E306D40F0010030650020E07126
S31508002FC000F0C8FA20203060306B40F00200306311
S31508002FD0F06D40F00800F0652846FDF777FBC8203D
S31508002FE0FDF792FA57484FF6FF71016056484FF4BD
S31508002FF0C061016070BD4E48C07970475748006887
S31508003000C0F38F109A3800B210F1800FB8BF6FF076
S315080030107F0040B27047524900280A6814BF42F040
S31508003020120222F012020A604149887070474C4920
S3150800303000280A6814BF42F0800222F080020A6063
S315080030403B49C8707047474847494A780B7803EBAD
S3150800305002220260CA788B7803EB022242604A7920
S315080030600B7903EB02228260CA79897901EB022186
S31508003070C16070473A4900280A6814BF42F0200226
S3150800308022F020020A602A494870704728480089B9
S3150800309070472749088135490860704724484089A0
S315080030A0704723494881324908607047314800789B
S315080030B07047194900280A6814BF42F4005222F4DE
S315080030C000520A601A49487170471E4928B10822F9
S315080030D00A600A6C42F0080202E00A6C22F0080252
S315080030E00A64134988717047134900280A6814BF8F
S315080030F042F0020222F002020A600D490870704787
S3150800310000F19A010904890A1B4A116008490871E5
S3150800311070470000980A002040A000403020004078
S3150800312008000020100100081020004000A0004000
S31508003130880000205C1000408020004078000020B5
S315080031407400002004A0004000E100E01C100040CC
S3150800315080E100E060200040281000400C1000408C
S315080031608420004098200040B00A002094200040A7
S3150800317090200040860000205410004010B500F052
S3150800318014F81040C84010BD10B500F00EF8D4432E
S3150800319020401140084380B2D86002201860002001
S315080031A0186058680028FCD110BDDFF864335C68E5
S315080031B0002CFCD19860012018600020186058681F
S315080031C00028FCD118697047DFF84803DFF8481370
S315080031D08A780AB149780FE089566FF00802914259
S315080031E0B8BF302108DBC16D39B140F24A31C26D32
S315080031F0B1FBF2F189B2C91E016070472DE9F041B1
S3150800320082B00546DFF81043A581B5F5004F19D100
S3150800321002237F22DFF8040300F075F9BDF80000E9
S31508003220000AFF2800D000B918206070BDF8000019
S315080032300006C00E10281CBF001D00F0F5F8BDF8EA
S315080032400000C54305F00108C5F3400708EB480030
S31508003250B34946184FF4F852B0780102E020FFF758
S3150800326093FFB048016841F4004101604FF44052B1
S315080032707078010389B22020FFF786FF404600F0E8
S31508003280A5FD4022B901A020FFF77EFF17B915F06A
S31508003290040000D00120A070FFF796FF0020BDE8CB
S315080032A0F6819D48808970472DE9FE4F8046A8F132
S315080032B00B05ADB2FFF79FFE8146A8F10B00C0B221
S315080032C0102802D38A20BDE8FE8F984FB8680007F9
S315080032D002D43868C00701D58C20F4E7924C84F8EC
S315080032E00080934E30680C2801D10020EBE7607807
S315080032F038B9706A40F400507062706A20F48050E1
S3150800330070628C480078012808BFFFF748FE8A4893
S31508003310D0F800A089484FF4C0610160386A20F0EF
S3150800332002003862A800001D02900422014600A887
S31508003330FDF707FF9DF800008DF807009DF80100CE
S315080033408DF806009DF802008DF805009DF803002B
S315080033508DF804007A4830F82500F06148F2607B61
S315080033606078C0B1C6F824B0386A20F00100386227
S315080033700120FDF7C9F8386A40F001003862642078
S31508003380FDF7C2F8706A20F480507062706A40F4E3
S315080033900050706202E0404600F089FD29460DF1B2
S315080033A0010000F061FE29460DF1020000F082FEE0
S315080033B02A4600A90DF1030000F0A4FE9DF80000BE
S315080033C09DF80710884211D19DF801009DF8061056
S315080033D088420BD19DF802009DF80510884205D158
S315080033E09DF803009DF80410884204D0042202992F
S315080033F000A8FDF73FFF0AF4C0604F49086000F0D7
S31508003400A9F8386A40F002003862607820B1C6F838
S3150800341024B06420FDF778F8FCF7CFFFB9F1010F67
S3150800342001D1FFF787FD60E72DE9F04186B0044634
S315080034306FF02A00844201DA8B205EE014237F2293
S31508003440404800F060F8BDF810004FF6FF7188425A
S3150800345004D00E21084218BF012606D13F220021BA
S31508003460F020FFF78BFE0546002637482A49042C2C
S315080034700FDA0022354B01E0521CD2B2D756A742CA
S31508003480FADB02600F700020002407464FF003089D
S315080034900EE0092CD0DA625C02600C7014237F22DD
S315080034A02B4800F030F80320012401274FF02808A4
S315080034B026B14FF6BF72BDF8101018E04FF46052EF
S315080034C0C10200F01DF84FF4E062210200F018F87E
S315080034D08022F90100F014F885F0200008EB0005B9
S315080034E0ADB2402DA8BF3F253F2285F02001A02080
S315080034F0FFF74AFEFFF768FE002006B0BDE8F08138
S3150800350089B2A02040E6018800A8FDF76FB8000040
S31508003510E8100040641000407800002056060008B5
S31508003520080100081C1000407400002060200040BC
S31508003530AC1000408F00002000E100E080E100E0D0
S31508003540A80000084C060008C0100040E800000863
S315080035504E060008DFF8A40310210163DFF8A01364
S315080035600A6842F001020A60DFF8981301F21402B1
S3150800357002600122026301F29E0181600221016359
S31508003580DFF884034FF6FF710160704780B5DFF8F6
S315080035907C0345F26401C1601E214162502101622B
S315080035A0C821C1618165F021C16545F69001416672
S315080035B0882181660621C16644F2066101604FF6DC
S315080035C0FF714160DFF84803007838B1DFF844033B
S315080035D048F2607101604FF4C1514160CE480168FC
S315080035E041F00401016000F078F9CC49088001BD7A
S315080035F02DE9F8430446C34D8A2000FB045000F227
S3150800360015004278037803EB02239BB203F4404289
S31508003610C34E36782E709B0635D5C24EF36C1B0604
S3150800362031D567194FF480684FF40069B2F5404FF9
S3150800363003D1C01DFEF752FD09E0B2F5004F16D1C1
S31508003640017AC07900EB012080B2FEF701FF70B164
S31508003650706CC00606D400F018F803D0F06A40F083
S315080036600100F0620120B8703068E8600BE0706C09
S31508003670C00606D500F009F803D0F06A20F001006C
S31508003680F0620020B870BDE8F183306B04B1C8461B
S3150800369010EA080F70472DE9F04E82B00446994E9D
S315080036A08A2000FB046000F2140B9F4D002C0CBF0F
S315080036B028686868C0B241005FFA81F9052808DA07
S315080036C09A484FF4D67200F11401FCF7CCFFFCF7C8
S315080036D0C9FF09EB0B0010F8081D427802EB01211F
S315080036E01FFA81FAA6F806A00179318131780170AE
S315080036F08F4FF86B20F48050F863686E00060CD57F
S315080037009BF80100800608D50AF4A040B0F5A04F42
S3150800371003D188480168491C01604FF4E4501AEA4D
S31508003720000F3BD1FFF7C2FC10B15FEA4A4035D51E
S315080037309BF80000802831D2A4B93868400516D411
S31508003740686BADF80000286BADF802000098306190
S315080037507089401C7081A019827849465846FEF740
S31508003760DBFC20E0012CEBD138680005E8D572486F
S31508003770017859B1002101709BF80100000900F099
S3150800378001026E4801688F20FEF79BFC002C0CBFD7
S315080037904FF480604FF40060386004E0FFF74CFA9D
S315080037A0B088401CB080002C0CBF01200220286184
S315080037B0BDE8F38EF8B5544C2068216C01EA000583
S315080037C05F4E25E0A80645D468063BD4E80416D51E
S315080037D0376D25F480554FF48050206008203065F9
S315080037E0706D000509D5B06920F00100B061B069B7
S315080037F040F00100B061FFF71FFABFB23765A804B1
S3150800380006D5FEF793F925F400554FF400502060CD
S3150800381035B3280706D50020FFF7EAFE25F0080588
S3150800382008202060E80606D50120FFF7E1FE25F00E
S3150800383010051020206005F060006028C2D13068AD
S31508003840C00507D525F04005402020600120FFF778
S3150800385022FFD4E725F02005202020600020F6E787
S3150800386000202060F1BD2F480068704770B58AB007
S3150800387004460D4600200090002303220146FCF76B
S31508003880A2FD1EE0002601A800F023F805A800F016
S3150800389020F8B61C102EF6DB05A901A800F0B6FD27
S315080038A000202080218801AA8218527801ABC35CC7
S315080038B003EB022251402180801C1028F2DB6D1E8A
S315080038C0A41CEDB2002DDDD1FCF777FD01200AB06E
S315080038D070BD31180020FCF790BD00B583B00020FC
S315080038E00090042302220021FCF76DFD01A9FFF7D1
S315080038F0F1FFFCF762FDBDF804000EBD0020004094
S31508003900842000404007002000A000404C100040E2
S3150800391075000020D010004080200040C00A00201A
S315080039207400002038200040202000409001000844
S3150800393004A00040B80A0020980A0020A40A002023
S31508003940682000402DE9F04F93B017461C460190B9
S3150800395001AD69600020E8610CAE6FF0004802E036
S31508003960E869401CE861387818B9E86913B0BDE819
S31508003970F08F252804D1002028616861A8610CE031
S3150800398017F8011B6868019A904768600028E7D114
S315080039904FF0FF30EAE740F0010017F8011F202931
S315080039A0F9D023290DD02B2904D02D2906D030296A
S315080039B00AD00CE040F0020080B2EEE740F00400C6
S315080039C0FAE740F00800F7E740F01000F4E72A2984
S315080039D00DD12268111D216011686962002904D57C
S315080039E04942696240F0040080B27F1C12E000215F
S315080039F0696209E0696A414505D001EB810302EB7A
S31508003A004301303969627F1C3A78A2F13001C9B2A4
S31508003A100A29EFD339782E291CBF4FF0FF312962C6
S31508003A201DD117F8011F2A2906D12268111D216008
S31508003A30116829627F1C12E00021296209E0296ABF
S31508003A40414505D001EB810302EB43013039296278
S31508003A507F1C3A78A2F13001C9B20A29EFD328852A
S31508003A6039780FF2483000F0E7FC08B117F8010B77
S31508003A708DF82E009DF82E00682806D1387868281B
S31508003A8003D162208DF82E007F1C0CA8E8603A78D6
S31508003A90252A13D0582A38D0632A00F0A480642A2D
S31508003AA06DD0692A6BD06F2A2FD0702A21D0732A3D
S31508003AB00AD0752A29D0782A27D09CE02869411C83
S31508003AC0296125218155A0E02168081D2060086824
S31508003AD0A8602A6A002A08D4002100F0B9FC002848
S31508003AE01ABFA968401A286A01E000F0DDFC68617F
S31508003AF08BE02168081D2060086800900CA8A86063
S31508003B00782100A800F0EFF87FE09DF82E006C28D9
S31508003B100FD0712801D06A280BD12068C01D20F06B
S31508003B2007002060034603F108002060D3E900017E
S31508003B3003E02168081D2060086800909DF82E00A3
S31508003B40682804D0622805D100A8007801E000A8FA
S31508003B500088009095F8280000073ED500980028B0
S31508003B603BD042F02000782837D12869411C2961CA
S31508003B70302181552869411C296182552DE09DF81F
S31508003B802E00622802D0682806D00BE02168081D9E
S31508003B90206091F9000009E02168081D2060B1F94C
S31508003BA0000003E02168081D2060086800900028CE
S31508003BB00ED4288D810704D52869411C29612B213B
S31508003BC00AE0C00709D52869411C2961202103E0BC
S31508003BD02869411C29612D21815528690CA940189D
S31508003BE0A86011468DE72869411C29612268111DC4
S31508003BF02160116866E72869411C296125218155DC
S31508003C001AB12869411C296182557F1C686A29698D
S31508003C10401AA969401A6969A0EB010995F82800B4
S31508003C20400707D42022494600A800F045F8002896
S31508003C303FF4AEAED5F810A00DF1300BBAF1000F77
S31508003C400ED01BF8011B6868019A90476860002827
S31508003C503FF49EAEE869401CE861BAF1010AF0D16A
S31508003C603022A96900A800F027F800283FF490AE92
S31508003C70D5F814A0D5F808B0BAF1000F0ED01BF885
S31508003C80011B6868019A9047686000283FF480AE77
S31508003C90E869401CE861BAF1010AF0D195F82800F4
S31508003CA040077FF560AE2022494600A800F004F8D8
S31508003CB000287FF458AE6BE6F4B504460D46012D90
S31508003CC00FDB012600AF17F8011BA0686268904752
S31508003CD0A06038B1206A401C2062761EF3D16D1EA2
S31508003CE0EFD10120F2BDF0B402696F2908BF08249C
S31508003CF005D041F02003782B14BF0A24102418237A
S31508003D0005682E46642901D0692902D1002D48BFCD
S31508003D1076425EB9456A4DB9082C24D190F82C1024
S31508003D20090720D55B1E302199541CE05D1E2B46E1
S31508003D30B6FBF4F704FB17663036F6B23A2E24BF04
S31508003D40A1F1510C6644AE543E0003D0C5689F18D5
S31508003D50BD42EBD3082C06D190F82C10090702D5E2
S31508003D60995C3029DED1C3F1180181619A18C260C5
S31508003D70426A914207DA511AC161818D4FF6EF7294
S31508003D801140818510E0002A0ED590F82C2002F00B
S31508003D901402102A08D1826A4369D21AC369D21A50
S31508003DA0531A012BA8BFC361F0BC7047686C747ABC
S31508003DB04C00000008237F22024801880248FCF7CD
S31508003DC015BC00BF5A060008B00A0020F0B589B035
S31508003DD004460020FCF776FB0A237F222748018841
S31508003DE000A8FCF703FC4FF6FF75254EBDF8020048
S31508003DF0A84209D140F2071206F1340106F114006F
S31508003E00FCF731FCFCF72EFC00272A4617B94FF4BD
S31508003E107C4203E0022F08BF4EF23F0200A830F8AA
S31508003E201710B85DFFF7B0F97F1C052FEDD3012CED
S31508003E3002BF14237F22134802D014237F2212487C
S31508003E40018803A8FCF7D2FB00272A46012F08BFE2
S31508003E504FF6C072082F08BF002203A830F81710C3
S31508003E60B819007AFFF790F97F1C0A2FEDD3012CB9
S31508003E7004BF0120FCF726FB09B0F0BD5006000878
S31508003E800C0200084E0600084C0600082F490A686E
S31508003E90920992010A600A68104308602C484FF498
S31508003EA000410160002101606420FCF72DBB2DE96B
S31508003EB0F84F8046274D28681FFA80F9286840F48D
S31508003EC000402860214F386820F480503860224C22
S31508003ED0207870B12148A178627800EB820212F846
S31508003EE02A2C891A00EB880010F82A0C401886B28A
S31508003EF002E02026012020703046FFF7C7FF0FF2A8
S31508003F00480ADFF85CB003E086B23046FFF7BEFF2A
S31508003F10386B042805D0386B400754BF701E701CD8
S31508003F20F2E7F86A30B184F80180A670C5F8009007
S31508003F30BDE8F18F4FF48B7259465046FCF793FB58
S31508003F40FCF790FBE4E7000030000000D0100040CA
S31508003F50181000401C100040BC0A0020A8000008E9
S31508003F60700200084FF4FE52810189B2B020FFF7B3
S31508003F700BB930B583B0494C002060602060FCF76F
S31508003F801CFA00F017F801A90020FCF736FABDF96B
S31508003F9004504FF6FF7060602060FCF70EFA00F0E0
S31508003FA009F801A90020FCF728FABDF90400281A27
S31508003FB000B23EBD0020009006230922C021FCF76E
S31508003FC002BA2DE9F84F364CA06A00902568354E9E
S31508003FD03768DFF8D4803548007818B148F2607041
S31508003FE0C8F800000220A0620120206040F24C4080
S31508003FF0FCF78AFA0120F06030604CF24C00C8F8F1
S315080040003C000020FFF7AEFFFFF7B3FF82467F2094
S31508004010FFF7A8FFFFF7ADFF8346504600F05FFAAB
S315080040208146AAEB0B0000F05AFA82460020C8F82F
S315080040303C00BFB23760F06002202060ADB2256058
S3150800404000A80088A06240F24C40FCF75DFAFE200A
S3150800405000FB09F01FFA8AF1B0FBF1F080B2401CB0
S31508004060C003000CBDE8F28F70B50446012000FAC3
S3150800407001F520780E4E010602D43188294206D071
S31508004080FFF79FFF20703188A943318002E04FF681
S315080040907F710840BDE8704064E7000038100040B2
S315080040A06020004028100040D01000407500002015
S315080040B0C40A002010B584B00A237F220C48018860
S315080040C000A8FCF793FA4FF6FF74BDF80000A0426B
S315080040D007D10848672200F11C01FCF7C4FAFCF76F
S315080040E0C1FA2246BDF800101020FFF74DF81FBD93
S315080040F050060008C00100083F22410089B220206E
S31508004100FFF742B82DE9F34F97B0784C7848007816
S31508004110002814BF606A206980B203901798007857
S315080041204FF67F7101EA000618990978039B5B1C14
S315080041308B4203DB039B5B1E994201DA012100E0F7
S315080041400021012303FA02F2ADF80A20000608D47A
S3150800415068480088BDF80A20104202D1002900F0FC
S31508004160BC80E06C80B20690206880B20590624DF3
S31508004170E86A80B204904FF6FF7200211120FEF71C
S31508004180FDFF80464FF6FF720021A020FEF7F6FFDE
S3150800419083464FF40040206000202861686148F299
S315080041A0020000F0BDF84CF68C30E06448F2F000EE
S315080041B0E8624FF4805211461120FEF7E5FF4FF6EC
S315080041C0FF720021A020FEF7DFFF00F0AEF802A97B
S315080041D000F0B3F800F0B4F80DF1060100F0ADF800
S315080041E04CF69C30E0640020FFF786FF0020009024
S315080041F006231A46C021FCF7E6F80026B0B2FFF7F8
S315080042007BFF00F092F807A800EB460100F095F84E
S31508004210761C202EF2DB00F08FF81020FFF76CFFDB
S3150800422000F08EF800F088F8BDF80400BDF8061016
S31508004230401ABDF83C10BDF80820891A404301FB16
S3150800424001094FF0100A112700F062F800F078F81B
S3150800425000F072F800F052F804DB8146BA467F1C7B
S31508004260202FF1DB1FFA8AFABAF1100F0FD10F27A8
S3150800427000F04EF800F064F800F05EF800F03EF842
S3150800428005DB8146BA46781E07B2002FF0D54FEAFD
S315080042904A0086B20698E064059820600498E862A9
S315080042A04FF6FF7241461120FEF76EFF4FF6FF727A
S315080042B05946A020FEF768FF01202861002000F07B
S315080042C02FF81798067018980399017009480088FE
S315080042D0BDF80A108843074908803F223146202046
S315080042E0FEF752FF19B0BDE8F08F0000C01000407D
S315080042F075000020C20A002018100040BDF804000E
S31508004300BDF80610401A404306FB060048457047AC
S3150800431007A830F81700BDF80810461AB8B2EBE639
S31508004320286040F24C40FCF7EFB8002000900623C6
S315080043300622C021FCF747B801A90020FCF75DB8A2
S315080043400020009006230722C021FCF73CB8000095
S3150800435038B50446274D214600F055F8E860211D7A
S3150800436000F051F8A86004F1080100F04CF8686004
S3150800437004F10C0100F047F8286031BD38B5044651
S315080043801C4DEA68214600F03BF8AA68211D00F09A
S3150800439037F86A6804F1080100F032F82A6804F16F
S315080043A00C010020BDE8384000F09DB8F8B5044679
S315080043B0114D80202860114E0620306007202860A5
S315080043C030688007FCD5002704EB870100F01BF84E
S315080043D0A8627F1C042FF7D330684007FCD5002657
S315080043E02A6B04EB860100F00BF8761C042EF7D333
S315080043F0F1BD0000383000400030004010A00040F9
S31508004400002000F070B8002000F07BB87FB50446A5
S315080044100D46FCF755F9064600A8FFF7AFFF2846F4
S31508004420FFF796FF2046FFF7C1FF00A8FFF790FFAA
S315080044303046FCF74BF97FBD0278C9B28A421AB1F9
S315080044401CBF10F8012FF9E718BF002070470000BD
S31508004450C9B2830706D0521E22D310F8013B9942EF
S31508004460F7D11FE0083A13D302F1040241EA012109
S3150800447041EA014150F8043B121F21BF4B40A3F10A
S31508004480013C2CEA030C1CF0803FF3D0C9B2001F94
S31508004490083210F8013B521E28BF91EA030FF8D8DC
S315080044A018BF0120401E704700F10103810704D0A0
S315080044B010F8011B89B18107FAD10268B2F10131FE
S315080044C0914311F0803F04BF50F8042FF6E710F827
S315080044D0011B11B110F8011BFBE7C01A7047002831
S315080044E048BF4042704710B50023002814BF1C4639
S315080044F0C3F10304E4B26254120A5B1C042BF4DB16
S3150800450010BD30B54A788B78CC78097818B1204632
S315080045101D460C4602E0084615461A4645EA00209E
S3150800452044EA022141EA004030BD0000FCF778FD6C
S31508004530002801D000F006F80020FDF7FFFB00F088
S3150800454017F8000010B5084979441C31074C7C441B
S315080045501A34A14206D0081D0A6851188847014630
S31508004560A142F8D110BD00BF1CBBFFFF3CBBFFFF3B
S3150800457080B500F001B800BF07463846FCF7F8FAE0
S31508004580FBE70000FFFFEFBECEFA000001010403BF
S315080045900501000001000000000000000000000006
S315080045A000000000000000000000000000000000FD
S315080045B000000000000000000000000000000000ED
S315080045C0000000000000000000000000FFFFFFFFE1
S315080045D0FFFFFFFFFFFFFFFFFFFFFFFFFFFFFFFFDD
S315080045E000000400010000000000000000000000B8
S315080045F000000000000000000B0100000318000086
S315080046001316191C1F00000000800100010001019B
S31508004610B5000001FEFFFFFF00000000C046C046CF
S31508004620C046C046FFF782FF38B504460D46284601
S31508004630FCF773FAA84218BF0024204632BD0000D2
S7050800461D8F
