S014000073616D706C655F706C616E65742E7333377B
S3150800000058040020893C0008AF060008AF0600081F
S31508000010AF060008AF060008AF060008000000009B
S31508000020000000000000000000000000AF06000805
S31508000030AF06000800000000450D0008AF060008DE
S31508000040AF060008AF060008AF060008AF060008AE
S3150800005053220008490C0008AF060008AF0600083E
S31508000060491D000815240008612E00089D02000895
S31508000070AF060008AF060008AF060008AF0600087E
S31508000080AF06000867070000300600005804002085
S3150800009000000000970A000058000000943B00008A
S315080000A00000002000000000AA212900552329008D
S315080000B000252800AA26270055282700002A2600FA
S315080000C0AA2B2600552D2500002F2400AA3024002F
S315080000D05532230000342200AA3522005537210064
S315080000E000392000AA3A2000D5E6ECEFF2F4F5F73D
S315080000F0F8F9FAFBFBFCFCFDFDFEFEFFFFFF000026
S31508000100000101010202020300000001030A0000C7
S3150800011030203D3D20282828446D6141646472657D
S3150800012073735479706529627566662920262031AD
S3150800013029000000737461636B5C7068795C737482
S315080001406D3332773130387878636C6173735C70ED
S3150800015068792D636F6D6D6F6E2E630053545F5310
S31508000160554343455353203D3D2073746D52616496
S31508000170696F5365744368616E6E656C2873746D38
S31508000180526164696F4368616E6E656C2900000090
S315080001907278446D61576F7264436F756E74203E52
S315080001A020340000737461636B5C7068795C7374E7
S315080001B06D33327731303878785C7068792E630021
S315080001C0626F7468546F6B2E696666696C746572C3
S315080001D04820213D20307866666666007374616340
S315080001E06B5C7068795C73746D333277313038784C
S315080001F078636C6173735C616E616C6F6775652D8E
S3150800020066696C7465722E630000000010F0B0C059
S31508000210D00000001120304060708090A0E00000FF
S31508000220626F74682E746F6B2E626961736D617389
S3150800023074657220213D2030786666666600000087
S31508000240737461636B5C7068795C73746D33327751
S315080002503130387878636C6173735C616E616C6F8A
S315080002606775652D63656C6C2D626961732E630015
S31508000270737461636B5C7068795C73746D33327721
S315080002803130387878636C6173735C616E616C6F5A
S315080002906775652D76636F2E6300000070B52B4871
S315080002A042782B490B685B0724D5032A22DA00EB30
S315080002B0420384889C810123847803FA02F222434C
S315080002C082700278234C92B10025D60708D545706E
S315080002D0AB405A40027000EB4500808A206009E076
S315080002E001259607F3D402255607F0D402E02260CA
S315080002F0032242704FF6FF700860BFF35F8F70BD30
S31508000300124800210170032141700021C1700521A6
S315080003100181002181700F4900220A604A604FF46A
S3150800032000428A601022CA60001D48610120886167
S315080003300320C8600648042101644FF6FF71016076
S3150800034005484FF40061016000F008B8340A00203F
S3150800035010A8004004D0004000E100E0E0B50A2300
S315080003607F227348018800A800F02EF9BDF8060020
S315080003704FF6FF71884209D137220FF204210FF296
S31508000380F81000F05EF900F05BF907BD69494A68A4
S31508000390002AFBD1C0228A6001220A6000220A6074
S315080003A04A68002AFCD10A69C86002200860002051
S315080003B0086048680028FCD107BD5F4801684908FD
S315080003C0490001607047F8B516461F46069C5B4D06
S315080003D0286C20F00800286400F060F9390341EA27
S315080003E0C61141EA840141F00101534A116008210E
S315080003F0296000F059F90020F2BD5048026812073A
S31508000400FCD5082202604E48006808800020704724
S3150800041030B583B002237F224A48018801A800F03C
S31508000420D3F800200090022303220021FFF7CBFF18
S3150800043000F035F8BDF8064000200090022301229E
S315080004400146FFF7C0FF00F02AF8BDF80650002065
S315080004500090022302460146FFF7B5FF00F01FF899
S31508000460BDF8060034490A68520852000A60BDF809
S3150800047004104FF6FF7291420EBF4FF4E1610A2253
S3150800048091FBF2F1ADF80410001B0004291BB0FB28
S31508000490F1F0BDF8041048434000000C3EBD0DF1D4
S315080004A006010020A9E710B5274CFFF7B1FF40F673
S315080004B08C218842206834BF40F0080020F00800EC
S315080004C0206010BD10B582B0044602237F221F4863
S315080004D0018800A800F078F89DF801009DF8001042
S315080004E0FF2903D1FF2804BF0420002104B1801C82
S315080004F0C0B2082828BF0720082928BF072141EAD3
S31508000500C0101349086013BD12490A68124B1B68CC
S31508000510DB0758BF4008032809D34B6D43F0010396
S315080005204B650B689B1A1B031B0B8342F9D3704759
S315080005302C060008E81000400470004018A000408F
S31508000540007000403006000800BC00402E06000877
S3150800055018000040382000401C40004010B5040038
S3150800056004D110BD4FF47A70FFF7CEFF2046441E23
S3150800057080B20028F6D110BD46414C534500000014
S31508000580453A5CCAB5D1E934203136B5E3D7E9CD69
S31508000590F85CB9A4B3CCD4B4B4FAC2EB5C68616CA9
S315080005A05C6D6963726F5C636F727465786D335CDA
S315080005B06D6963726F2D636F6D6D6F6E2D696E74E5
S315080005C065726E616C2E630030B583B004461046C2
S315080005D07F2808BF0020B1F5004F1AD108237F22D3
S315080005E040F6120100A8FFF7EFFF08220FF24801B4
S315080005F000A800F09BF830B908237F2240F2A271C8
S3150800060000A8FFF7E1FF082200A9204600F08CF8B1
S3150800061037BD1A46034D294300FB0311204600F057
S3150800062083F837BD00000408AA07BE07D207DC070F
S31508000630DE073C08EE080080FFFFFFFFFFFFFFFF15
S31508000640704770B584B0034608460A2100248DF821
S315080006500A4002AC0A25491EC9B292FBF5F605FB0B
S315080006601622303262703246012A0DDB491EC9B2A3
S3150800067092FBF5F605FB1622303222703246012A25
S31508000680A4BFA41E0129E6DA002200AC091900F06D
S3150800069062F808B900F0A4B804B070BDEFF3118091
S315080006A0602181F31188704780F311887047FEE74F
S315080006B080B52148016821F0100101600020FFF78C
S315080006C001FF00F006F800F0D0F8BDE8014000F0A0
S315080006D07FB980B5FFF714FEFFF7E5FEBDE80140D8
S315080006E000F003B981B209B94BF6EF61134A1180DC
S315080006F0000C08BF4FF6CE205080704702881304BE
S3150800070048BF4A40510001801046704738B50B4C27
S3150800071062212046FFF7F2FF054641F20B01A01CB5
S31508000720FFF7ECFF684032BD00F082B980B500F0F3
S31508000730B7F940B202BD000000BC0040020000202C
S3150800074010B5044603E014F8010B00F0DAF9207836
S315080007500028F8D110BDF8B504460D4616461F46C2
S3150800076056B10FF24400FFF7EBFF3046FFF7E8FFFC
S315080007700FF24400FFF7E4FF2046FFF7E1FF0FF210
S315080007804000FFF7DDFF2846FFF7DAFF0FF23400D7
S31508000790FFF7D6FF3846FFF7D3FF0FF22C00FFF717
S315080007A0CFFF0020F2BD0000496E2066756E6374A7
S315080007B0696F6E2000000000202D2D20000000002B
S315080007C03A00000020000000202D2D20617373657B
S315080007D07274696F6E206661696C65640A00000050
S315080007E080B5012000F0B8B900BF50F8041B61B10C
S315080007F050F8042BD30744BFA9F101039A18002324
S3150800080042F8043B091FFAD1EFE770472DE9F0419A
S3150800081000245B4D2C605B4E34604FF4A040706042
S3150800082041F29A084046FFF76FFE686844F6904121
S31508000830081A00B24FF4487190FBF1F000F3030078
S3150800084030604046FFF760FE08274046FFF75CFE2B
S31508000850686804197F1EF8D14B48211DC908B0FBEA
S31508000860F1F080B27060BDE8F08138B56FF00F0422
S31508000870464D0120A8602C608020FFF745FEE868F9
S31508000880FF2802D8641C102CF5DB31BD10B5404C8E
S3150800089040480088206040F2DC50FFF735FEA0682B
S315080008A000F0010010BD70B53B4C02202061394DA7
S315080008B0002028801026F605360E2888301828804D
S315080008C0FFF7E4FF10B12888801B2880002EF2D19C
S315080008D02068C00702D42888401C288028880D284C
S315080008E034BF801C0F20288070BD70B500244FF6D9
S315080008F0FF76284D2888B0420BD102237F2227484D
S3150800090001882846FFF760FE2888B04208BFFFF72F
S31508000910CAFF214E02203061FFF7B8FF3168490847
S3150800092001F001012A8800B9521C21B192B2032AAA
S3150800093024BF521E01242A802A8801B918B9D11E5B
S3150800094089B20C29E8D308B1022A06D20D2A02D2A6
S31508000950901C288002E00F20FBE70CB1FFF796FFFA
S31508000960306940F00100306101207061FFF796FEA2
S315080009700B4911220A60BDE87040FFF795BE0000DA
S31508000980104000400C0000400060E316084000409C
S3150800099004400040000000200C40004034060008D7
S315080009A000800040164801210160704710B5820892
S315080009B00FF2640353F82220136800F00300800046
S315080009C00F248440A34301FA00F01843106010BDB9
S315080009D080B50C48102101600B48022101600B48C4
S315080009E04FF400610160FFF711FF09480721016014
S315080009F000210164074810210160002002BD0000A3
S31508000A000860004080E100E0080000400C600040FB
S31508000A1014A0004000E100E000B0004004B000402F
S31508000A2000B4004004B4004000B8004004B80040D8
S31508000A304AB38B0707D0521E11F8013B00F8013B59
S31508000A4021D08B07F7D183071ED1103A07D330B4CC
S31508000A50B1E83810103AA0E83810F9D230BC53077C
S31508000A6024BFB1E80810A0E8081044BF51F8043BB9
S31508000A7040F8043BD20724BF31F8022B20F8022B9A
S31508000A8044BF0B7803707047083A07D3B1E80810DB
S31508000A90083A40F8043B40F804CBF7D25307E4E79A
S31508000AA00300002013F0030F09D0521E22BF13F8CB
S31508000AB0010B11F801CBB0EB0C00F3D07047121FF5
S31508000AC022BF53F8040B51F804CB6045F7D0121D2A
S31508000AD00AD200BA9CFA8CFCB0EB0C0038BF6FF057
S31508000AE0000088BF01207047521E22BF13F8010B71
S31508000AF011F801CBB0EB0C00F6D0521C08BF10461B
S31508000B00704710B582B0044614F1010F0AD08DF86B
S31508000B100000012200A9012000F074F8012801D183
S31508000B20204616BD4FF0FF3016BD10B450F8041B12
S31508000B3081B102681218001D50F8043BDC0744BF57
S31508000B40A9F10104E31852F8044B43F8044B091FB2
S31508000B50F9D1EBE710BC704701491820ABBEFBE79B
S31508000B6026000200F8B507460E4614461D46A7F5A8
S31508000B7096704C49884208D32C220FF274110FF252
S31508000B804410FFF75EFDFFF75BFD474800EB570093
S31508000B90B0FBF7F0454900F001028A614008486158
S31508000BA0072E0CBF00200220012C08BF40F01800B9
S31508000BB003D0022C08BF40F0080005F00F02022AF5
S31508000BC0A8BF40F00400886001200860384800216A
S31508000BD001804180818009210920FFF7E7FE042171
S31508000BE00A20FFF7E3FE33480121C164016C46F28F
S31508000BF00902114301644FF6FF7101602E48202156
S31508000C000160F1BD10B50023012804D0022802D0E6
S31508000C104FF0FF3010BD2948002904D1C1684906A4
S31508000C20FCD5002010BD8469012CF1D106E0C4680A
S31508000C306407FCD511F8014B04605B1C1446621E60
S31508000C40002CF4D1184610BD70B51A480168026C1C
S31508000C5002EA01041A49164A184B002C19E0DC6806
S31508000C601D6814F038040ED194887F2C0BD2168890
S31508000C707554751CAE1105EB5666F611A5EBC6152F
S31508000C801580641C9480DC68A407E8D40468056CA5
S31508000C902C4005D0046046F209052C42F3D1F5E74D
S31508000CA070BD0000D50E0E0000366E0154C8004017
S31508000CB0520A002008A8004000E100E03CC80040B5
S31508000CC03C090020286261756472617465203E3DA6
S31508000CD02033303029202626202862617564726107
S31508000CE07465203C3D393231363030290000000029
S31508000CF0453A5CCAB5D1E934203136B5E3D7E9CDF2
S31508000D00F85CB9A4B3CCD4B4B4FAC2EB5C68616C31
S31508000D105C6D6963726F5C636F727465786D335C62
S31508000D20756172742E63000080B508210620FFF7EE
S31508000D303DFE0348016841F04001016001BD000025
S31508000D400CB000400B48007850B1EFF30880A0F1D2
S31508000D50200080F3088880E8F00F0749086030BF54
S31508000D600548006890E8F00F00F1200080F3088835
S31508000D7070470000680A00206C0A002002480068D4
S31508000D8080F3088862B670476C0A00203748018AE3
S31508000D9040F6A772914209D1418A4FF47F40014239
S31508000DA004D102298041C043C00F70470020704714
S31508000DB02DE9F84304468946FFF770FC06462A4F94
S31508000DC001203870FFF7E2FF20B9E82200F046F864
S31508000DD0FFF736FC2548D0F8288049464FF480703E
S31508000DE02043C04705463046FFF75EFC00203870B2
S31508000DF00FF2C0060DB1A85D05E049464FF4007034
S31508000E002043C047805DBDE8F2832DE9F84380465C
S31508000E1089465600FFF742FC0746FFF7B7FF28B991
S31508000E2040F2291200F01AF8FFF70AFC0F48446A44
S31508000E300023324649464046A04705463846FFF74E
S31508000E4033FC0FF270070DB1E85D05E0334600226A
S31508000E5049464046A047C05DBDE8F2830FF21C0133
S31508000E600FF20C00FFF7EDBB7F0A00200000040814
S31508000E70766572696679466962282900453A5CCAC8
S31508000E80B5D1E934203136B5E3D7E9CDF85CB9A454
S31508000E90B3CCD4B4B4FAC2EB5C68616C5C6D6963BC
S31508000EA0726F5C636F727465786D335C666C6173C0
S31508000EB0682E6300000202024B4B464780B50121AB
S31508000EC00D20FFF773FD01210E20FFF76FFD0D20A2
S31508000ED000F011F80E20BDE802400CE0C108032915
S31508000EE008D2C1108902154A012300F0070003FA47
S31508000EF000F050507047C108032908D2C110890272
S31508000F000F4A012300F0070003FA00F0505070471B
S31508000F1010B50446FFF7C2FBE10803290AD2E1101F
S31508000F20084A02EB81210A68012304F00704A3405A
S31508000F305A400A60BDE81040FFF7B6BB14B000403F
S31508000F4010B000400CB0004080B51D4840F2073193
S31508000F50016072B61B490A68520852000A601A49AB
S31508000F6011220A6019491A4A4A601A4A8A604FF0D9
S31508000F7078424A61184A8A61184ACA61184A194B5E
S31508000F8013604FF0803353609360D360E02313619E
S31508000F9010220A614FF4E0220A624069800609D5E8
S31508000FA0114800220270086840F080500860FFF778
S31508000FB0E5FEFEE7FFF772FB62B6012002BD00BF41
S31508000FC018000040FCED00E00080004004ED00E061
S31508000FD0000000080004FA05F8F8F84080F8408098
S31508000FE000E400E080804080680A0020DFF878038B
S31508000FF00068DFF8781309686FF0FF02DFF87033CE
S31508001000984213D111F1010F01D1042070476FF4F2
S315080010107F00814201D10220704711F1807F01D102
S315080010200320704791421ED10520704710F1807F3A
S3150800103003D1914208D10620704710F1010F07D15C
S31508001040994210D10820704799420CD10720704761
S31508001050904208D1994201D10920704711F1807F49
S3150800106001D10A207047002070472DE9F0478146D4
S315080010700D4617460FF2743840F2FF3ADFF8E86279
S3150800108016EA0A0F05D05322414600F068F8FFF722
S31508001090D7FADFF8D84214EA0A0F05D05422414697
S315080010A000F058F8FFF7CCFAE80705D5562241466E
S315080010B000F04BF8FFF7C4FAF80707D5582241465F
S315080010C00FF29430FFF7BDFAFFF7BAFA7819B0F5C0
S315080010D0806F07D35A2241460FF28C30FFF7B1FAD8
S315080010E0FFF7AEFAFFF782FF401E032805D9001F57
S315080010F003280ED9001F012817D8A8190021B1EB1B
S31508001100570FBEBF30F8112029F81120491CF6DB0D
S3150800111017E028190021B1EB570FBEBF30F8112090
S3150800112029F81120491CF6DB0BE000214FF6FF7069
S3150800113002E029F81100491CB1EB570FF9DB012031
S3150800114000E00020BDE8F08729460FF2FC20FFF7F3
S3150800115078BA29460FF2CC20FFF773BA29460FF260
S315080011606820FFF76EBAF8B5044601256D1E04EB34
S315080011708526374600203978FF2906D031460220D1
S31508001180FFF716FE48B94FF48060401C7F1CB0F587
S31508001190806FF0D3002DE9D10020F2BD2DE9F54F7F
S315080011A083B00E460FF2442540F2FF34DFF8B881CB
S315080011B018EA040F05D040F20B12FFF7CFFFFFF72E
S315080011C03FFADFF8A8A11AEA040F05D04FF4867291
S315080011D0FFF7BFFFFFF734FAF00705D54FF487721C
S315080011E0FFF7B2FFFFF72CFABDF81000C00708D5C5
S315080011F04FF4887229460FF26020FFF722FAFFF7AC
S315080012001FFABDF81040A019B0F5806F08D34FF447
S31508001210897229460FF25020FFF713FAFFF710FAE2
S31508001220FFF7E4FEBDF81010C1F58061891B091FA0
S315080012304FEA510B3419311F49080191411E032900
S3150800124005D9091F032918D9091F01291AD847469C
S3150800125055464FF007090A28FDD8DFE800F0072DA4
S3150800126031353F515D61697B7F00F4E73846FFF70A
S315080012707AFF60B105B0BDE8F08F574645464FF096
S315080012800309E8E7574645464FF00309EEE72846BF
S31508001290FFF769FF0028EDD100F071F80028E9D1C1
S315080012A000F07CF80028E5D100F064F80028E1D1C8
S315080012B000F083F80028DDD100F066F80028D9D1BF
S315080012C000F073F80028D5D1B9F1030F01D1002039
S315080012D0D0E72846FFF747FF0028CBD100F04FF8A4
S315080012E00028C7D100F05AF80028C3D100F042F808
S315080012F00028BFD14FF47F4000F058F80028B9D134
S315080013004FF47F40ADF80000012200A908F1020061
S31508001310FFF77BFD0028ADD100F047F80028A9D1DA
S31508001320B9F1070FD3D02846FFF71DFF0028A1D132
S3150800133000F025F800289DD100F030F8002899D152
S3150800134000F018F8002895D14FF47F4000F035F8E2
S3150800135000288FD100F018F800288BD1002000F063
S315080013602CF8002886D1AFE700F8010800FC010830
S315080013700000FFFF5A4639192819FFF746BD019A9A
S31508001380391D281DFFF741BD4FF47F40ADF8000019
S31508001390012200A90AF10200FFF737BDBDF81000C7
S315080013A0420803997019FFF730BD0020ADF8000018
S315080013B0012200A95046FFF728BDADF8000001221A
S315080013C000A94046FFF721BD284E564D5F4C4546BD
S315080013D0545F50414745254D46425F504147455F5A
S315080013E053495A455F42293D3D300000453A5CCA9B
S315080013F0B5D1E934203136B5E3D7E9CDF85CB9A4DF
S31508001400B3CCD4B4B4FAC2EB5C68616C5C6D696346
S31508001410726F5C636F727465786D335C6E766D2E71
S3150800142063000000284E564D5F52494748545F50A6
S31508001430414745254D46425F504147455F53495A06
S31508001440455F42293D3D3000286F66667365742600
S31508001450307831293D3D3000286C656E6774682602
S31508001460307831293D3D30006F66667365742B6CA4
S31508001470656E6774683C4E564D5F444154415F53F0
S31508001480495A455F4200000038B5DFF8604600203B
S315080014906070E0702071FFF739F960710020A07163
S315080014A0E071DFF84C0600210170DFF8480601708C
S315080014B00024DFF844560C206043002141554019AA
S315080014C041800821001D00F013FC641C0A2CF2DB85
S315080014D04FF6FF7000F02BFC4FF6FE7000F023FC71
S315080014E000F06EFCBDE8314000F085BC8001B0FB21
S315080014F0F1F0FF2888BFFF20C0F1FF00C0B2704797
S31508001500F0B59DF91440DFF8E4556D78C5B1DFF8FC
S31508001510EC552E78A6B906E0771916F800C087F8B4
S3150800152001C0761CF6B20778B742F5DA85F881105D
S31508001530C5F88420A5F8883085F88A4001202870E7
S31508001540F0BD2DE9F04FA3B00026B3464FF6FF785D
S31508001550C14600A800210A4606C0DFF8A05528782B
S31508001560002800F0E480DFF88475A87B532804D1AE
S3150800157000F063FEB86000F08AF968780A2806D396
S31508001580A87800F00701012902D0032903D0CCE08E
S315080015904FF0100A01E04FF0300A40065CBF012602
S315080015A04FF0020B0BF110040BEB0500E9788829C4
S315080015B006D08C2915D0C8290AD0CC2915D0B4E074
S315080015C00BF10A04DEB1A87A697A41EA002916E025
S315080015D0082200F1090100A8FFF72AFA002EF2D125
S315080015E00DE066B1287CE97BEFE7082200F10F01E0
S315080015F000A8FFF71DFA0BF11604002EF2D1687841
S31508001600E4B2A04212D36019417841EA0A011029CE
S315080016100DD0122947D014297BD0152900F08280D5
S31508001620182914D019291FD01A2936D07DE000F0C0
S31508001630D1F900F0D2F900F07DF86878C11CC9B27A
S31508001640B5F88800FFF752FF85F88B006DE00FF2BA
S31508001650C04000F00BFE00F0BDF94FF47A70FEF7BB
S315080016607DFF00F067F860E00FF2BC4000F0FEFD79
S3150800167000F0B0F900F0B1F900F05CF800F0ADF94F
S3150800168000F0A8F900F0A9F900F054F800F0A5F95F
S3150800169000F0A0F94FF4FA70E1E7012201210020D9
S315080016A000F051F941E0B878002840D140F2011025
S315080016B081453AD10121B97000F039FB18208DF81F
S315080016C0080002AC61206070CC20A0707879401CBC
S315080016D07871E07000F02DFB8DF80C0000F029FB06
S315080016E0000A6071082200A90DF10E00FFF7A0F9A3
S315080016F000F021FB014608220DF11600FFF798F9C4
S315080017000320A075002302AA4146012000F039FCF7
S315080017100BE08178C07841EA002000F004FB012044
S31508001720F87002E0404600F002FB0020287023B063
S31508001730BDE8F08F0E20FFF7DEBB80B540F2993288
S315080017400FF200410FF2F430FEF77BFFBDE80140CF
S31508001750FEF776BF2DE9F04FA1B000F042F9DFF8A9
S315080017608C53687820B10FF2204000F07FFD81E0AD
S315080017700FF2404000F07AFDFFF786FE00F0C7FA48
S31508001780002028700120687014208DF8000000AE33
S3150800179001207070C820B070FF208DF804007071A9
S315080017A0B0718DF8070030728DF8090000F0C3FAA1
S315080017B0082201460DF10A00FFF73AF901208DF8D3
S315080017C012000FF2284000F051FD00F056F80FF213
S315080017D01C2AFFF7E7F83946504600F047FD384619
S315080017E000F097FA28B140F2164200F04CF8FEF7DE
S315080017F027FF6879401C6871F0700020A8700023E4
S3150800180000AA4FF6FF71012000F0BBFB00F015FDA2
S315080018108346FFF796FE00F068FB00F00EFDA0EB8E
S315080018200B00C828F5D3E878C0B100F0DBF800F063
S315080018307CFA044600F07DFA064600F06CFA01468A
S31508001840234632460FF2B43000F010FD01206870CE
S315080018503C20A8710D20FFF741FB0BE07F1CFFB26F
S315080018601B2FB6D300F0BEF80FF2D43000F0FEFC02
S315080018700020687021B0BDE8F08F0B270FF22038E2
S315080018800FF2C029704749464046FEF7DABE30B522
S31508001890A1B072208DF8000000A870214170302197
S315080018A081707921C1701D208DF8040001AC61207A
S315080018B060708820A0708D4D6879401C6871E07052
S315080018C000F037FA207100F034FA000A607100203F
S315080018D0ADF80A0000F029FA207200F026FA000A8C
S315080018E08DF80D000A20A072FF208DF80F002073D6
S315080018F0042200A90DF11100FFF79AF8A8688DF8DF
S315080019001500010A8DF81610010C8DF81710000E37
S315080019108DF8180000F091FCE8608DF81900010AAE
S315080019208DF81A10010C8DF81B10000E2076002079
S315080019306076ADF81E00192301AA0021012000F0E7
S3150800194020FB21B030BDF0B5A1B000F02FF800F0B3
S3150800195020F800F022F800F019F8000A8DF80900BE
S31508001960002000F002F821B0F0BD8DF80A008DF8CD
S315080019700B40200A8DF80C0000207873ADF80E0095
S315080019800D2300AA2946304600F0FBBA387200F04B
S31508001990CCB98DF8040000F0CCB9000A78718DF83E
S315080019A00650280A8DF8070000F0BFB904460D4610
S315080019B0164611208DF8000000AF61207870882047
S315080019C08DF8020049484179491C41718DF8031088
S315080019D000F0AFB90E20FFF79BBA4FF4FA70FEF786
S315080019E0BDBD41A4204600F041BC0000202564008E
S315080019F02DE9F04782B0FEF75BFE0123002208219D
S31508001A004FF4E130FFF7AEF809210420FEF7CEFFC8
S31508001A1009210520FEF7CAFF39480A210160394C19
S31508001A206020A06508202060DFF8DC804FF40049BC
S31508001A30C8F8009000F02CFC00F0FFFB0027FFF729
S31508001A403DFAFFF771F90FF260210FF2242000F03A
S31508001A500DFC022100A800F073F90098FEF742FE7B
S31508001A60012000F06BF9214D287800F045F948B1BE
S31508001A7040F2D3520FF2CC010FF22410FEF7E1FD2B
S31508001A80FEF7DEFD0FF2282000F0F0FB0FF24020F3
S31508001A9000F0ECFB6F700FF2402000F0E7FBFFF759
S31508001AA059FE68780028FAD00026384600F0CBFBA5
S31508001AB00FF2342500F0C1FB41F28831B0FBF1FA90
S31508001AC0B0B2504505D2BFB23946284600F0CEFB23
S31508001AD07F1C5646FFF735FD0A20FEF73FFD082016
S31508001AE02060C8F80090E5E70D0A00001000002005
S31508001AF02300002025000020BC090020280800201B
S31508001B0018BC004014A8004080E200E070470000BE
S31508001B1053594E5F534C454550494E475F574149C7
S31508001B205454494D450D0A0053594E5F4C45445F80
S31508001B305741495454494D450D0A000046414C53F6
S31508001B4045000000453A5CCAB5D1E934203136B5BE
S31508001B50E3D7E9CDF85CB9A4B3CCD4B4B4FAC2EBF4
S31508001B605C73696D706C656D61635C64656D6F73DC
S31508001B705C73616D706C655C736F6C61722D7379E3
S31508001B807374656D2E630000416C7265616479201B
S31508001B90696E206E6574776F726B0D0A000000001F
S31508001BA07374617475733D3D53545F535543434590
S31508001BB053530000496E616374697665206E6F64DD
S31508001BC065206A6F696E696E67206E6574776F72D5
S31508001BD06B20616E64206265636F6D696E67206154
S31508001BE020706C616E65740D0A0000005472796984
S31508001BF06E67206368616E6E656C00004A6F696E79
S31508001C006564206F6E206368616E6E656C2025645E
S31508001C1020776974682050414E2049442030782541
S31508001C203034582E20204D79204944206973206E7F
S31508001C306F77203078253034582E0D0A00000000C2
S31508001C40446964206E6F74206A6F696E2E20205274
S31508001C50657475726E696E6720746F20696E61634C
S31508001C60746976652073746174652E0D0A00000028
S31508001C700D0A53696D706C654D41432028257329FB
S31508001C802053616D706C65204170706C6963617476
S31508001C90696F6E3A2027506C616E657420726F6C9E
S31508001CA06527210D0A000000312E302E3100000074
S31508001CB0456E746572203F20666F72206C69737476
S31508001CC0206F6620636F6D6D616E64730D0A000088
S31508001CD00D0A3E2000000000706C206861732073B6
S31508001CE0746172740D0A00004225640D0A00000032
S31508001CF0002200F0D5BA000080B51A490978C9074C
S31508001D0001D4B02002BD00F00AFC002002BD00F09C
S31508001D10AABC00F01DBE00F0DBBE00F029BB00F037
S31508001D203FB900F029BD00F00BBD00F006BD00F07C
S31508001D300FBD00F00ABD05E000F0B3B900F010BD14
S31508001D4001F0EAB80848704738B5084C2068216C95
S31508001D5001EA0005ADB2680748BFFFF7D7FE256060
S31508001D6031BD00009B070408700A002008A0004047
S31508001D7070B582B0044615460819A0F1080600F0A9
S31508001D80ECFC20B12078032824BF801E2070F07850
S31508001D9000F0CCFA96F90210663149B20091034672
S31508001DA0707900F00F00B179090241EA0040F17933
S31508001DB041EA000229462046FFF7A2FB73BD000050
S31508001DC0B448C178002906D00179002903D00FF25A
S31508001DD0D82000F04BBA00218170AF4900220A7062
S31508001DE081F8882081F8102181F8982181F820222D
S31508001DF0027042707047A748C178002906D0017959
S31508001E00002903D10FF2DC2000F030BA00218170DE
S31508001E10A248017070479F480178491CC9B2052934
S31508001E2028BF0021017070479A484178027922B18B
S31508001E30491CC9B2052928BF002141707047974837
S31508001E40017801B9704710B54178C1B1914CE17874
S31508001E50A9B900F03DF8002121710121E1700421A2
S31508001E60A17008B100F031F800F02CF820B18022FA
S31508001E7000F035F8FEF7E4FBA078401EA07010BD10
S31508001E8010B5844C6078882148438349425C012A0E
S31508001E9017D1E278AAB9401800F01AF80121217181
S31508001EA0E1700421A17008B100F00FF800F00AF8FB
S31508001EB020B19A2200F013F8FEF7C2FBA078401E64
S31508001EC0A07010BDE068FFF728BF0120FFF729BF03
S31508001ED0A060011DE160D0F88400206170470FF210
S31508001EE058210FF24020FEF7ACBB10B5FFF7A7FF4D
S31508001EF0FFF7C6FF674C606930B10FF27C2000F02F
S31508001F00B5F96069401E606110BD38B51446614A6E
S31508001F1012788823604D03FB02552A7812B10FF216
S31508001F2090202AE0012200F021F8002C1ABF60193F
S31508001F30001D0020C5F8840001202870BDE8314046
S31508001F4069E738B51446554D2A7812B10FF2902034
S31508001F5013E000F00BF8002C02D06019001D00E019
S31508001F600020C5F884000120287031BD6A70688099
S31508001F700878421C281DFEF75BBDBDE8324000F01C
S31508001F8075B910B50C4611461A460028204602D0E7
S31508001F90FFF7BBFF01E0FFF7D4FFBDE81040A4E759
S31508001FA02DE9F041014615463A4CA2682369A67800
S31508001FB00FF25C270FF270200FF27C1851B14029FE
S31508001FC015D0882936D0892937D08D2926D08F294A
S31508001FD003D035E000F03DF839E000F03AF8002D7E
S31508001FE035D00120607100F023F9E0802FE08EB132
S31508001FF00BB1FFF76AFFFFF765FF38B140F21B1216
S3150800200041463846FEF71DFBFEF71AFBA078401E30
S31508002010A0701CE06069401C6061DBE7002EF9D007
S315080020200BB1FFF752FFFFF74DFF0028EED04FF434
S315080020309672E5E74FF49B7204E040F2391201E02C
S315080020404FF49E724146FEF7FCFAFEF7F9FABDE830
S31508002050F08100201070E070E6E60E490A691070FB
S315080020600A69030A53700A69000C90700869817836
S3150800207041F0800181700020FFF753BE07494A8866
S31508002080904204D10878002802D001207047002029
S31508002090704700002000002058040020B4080020E3
S315080020A0ECE7002070470000446972656374207489
S315080020B072616E736D697373696F6E20696E2070D5
S315080020C0726F676573732E2020747844697265632E
S315080020D07451204E4F5420636C65617265642E0DF1
S315080020E00A000000496E646972656374207472613F
S315080020F06E736D697373696F6E20696E2070726F87
S31508002100676573732E20207478496E6469726563F7
S315080021107451204E4F5420636C65617265642E0DB0
S315080021200A0000007374617475733D3D53545F5320
S315080021305543434553530000453A5CCAB5D1E93483
S31508002140203136B5E3D7E9CDF85CB9A4B3CCD4B41D
S31508002150B4FAC2EB5C73696D706C656D61635C643F
S31508002160656D6F735C73616D706C655C7472616EBE
S31508002170736D69742E6300004661696C656420613D
S315080021806C6C207472616E736D6974206174746509
S315080021906D7074732E202044726F7070696E67209C
S315080021A0746865207061636B65742E0D0A00000003
S315080021B07478446972656374512069732066756C16
S315080021C06C21202044726F7070696E67206E657787
S315080021D0205458207061636B65742E0D0A00000048
S315080021E07478496E646972656374512069732066F0
S315080021F0756C6C21202044726F7070696E67206E52
S315080022006577205458207061636B65742E0D0A003B
S315080022107374617475735F636F64653D3D53545F92
S31508002220535543434553530046414C53450000001C
S3150800223080B500F002F880B202BD0948016840681E
S3150800224040EA01407047064982B24A60000C0860BD
S31508002250704704480721016003480121017070474F
S315080022601060004014A00040860A00200EB400B595
S3150800227082B003A9009100AB0246012103487844C5
S315080022800A3000F0B5FE06BC5DF810FB091A00001E
S31508002290002181F31188704762F30F2262F31F420F
S315080022A0401810F0030308D0C91A1FD3DB0748BF2C
S315080022B000F8012D28BF20F8022D130030B414466B
S315080022C01546103928BF20E93C00FAD8490728BF27
S315080022D020E90C0048BF40F8042D890028BF20F8E3
S315080022E0022D48BF00F8012D30BC7047C91818BF29
S315080022F000F8012DCB0728BF00F8012D7047000014
S3150800230010B5DFF8BC44207878B100202070DFF8DB
S31508002310B404016821F4805101600022E16840207C
S31508002320FFF7FDFCA068401CA06010BD010603D5A0
S315080023304FF67F710840C000704738B5DFF8804413
S31508002340DFF88804417871B1C178E2785518ADB2E2
S3150800235000798542A8BF0546FEF7D8F90121A940AC
S31508002360491E084000E00020A080A088C0B232BD07
S3150800237038B50546C00708D5DFF85404FB2200F136
S315080023802401FEF75EF9FEF75BF9DFF84844206D95
S31508002390C00701D58C2032BD2020206265602560EB
S315080023A060687F30606004202062DFF81404002132
S315080023B00170DFF8185429780029A16F14BF41F07D
S315080023C0010121F00101A167697849B10021C170B5
S315080023D0206D40F004002065A06F40F0080006E07C
S315080023E0206D20F004002065A06F20F00800A0678B
S315080023F0FFF7A3FFA06468790028206D14BF40F09A
S31508002400080020F008002065206D40F001002065D6
S31508002410002032BD2DE9F041DFF8BC637068716CAD
S3150800242001EA0004A4B27460DFF8A873DFF89053D9
S31508002430687800284DD1DFF89483E00719D5386805
S31508002440396C7A6C42EA0141E96098F8002062B179
S315080024504078800609D5012028704FF480503060F6
S31508002460306C40F48050306403E000220020FFF70F
S3150800247056FC20060CD5287830B10020287000229A
S31508002480E9684020FFF74BFC306C20F4805030643C
S31508002490E00616D5E878401CE87098F80210C0B235
S315080024A0884207D2FFF749FFB864386D40F001004B
S315080024B0386506E000F02DFD002201468D20FFF765
S315080024C02EFC200705D5386C796C41EA0040FFF7E9
S315080024D0C4FDA0060ED5386D00F001003865202031
S315080024E03862687830B900F014FD00220146882069
S315080024F0FFF715FC600608D5687830B900F009FDC5
S31508002500002201468920FFF70AFC687828B14FF4B3
S315080025104070044204BF0120A870BDE8F08170B580
S315080025200446DFF8B8520020E871DFF8B40200214B
S315080025300160DFF8B0621521F160092101651F21EC
S3150800254041600121016600F000FA00F0ABF900F0E5
S3150800255073FB00F085FF00F0CDF8288900F0F0F84D
S31508002560688900F0F5F8706840F040007060A87857
S3150800257000F0A8F8E87800F0B1F8687800F0D1F82B
S31508002580DFF8640290F9000000F0A5FA287800F058
S3150800259002F995F9040000F00AF9687900F0E0F804
S315080025A0A87900F0E9F8306840F001003060DFF8FB
S315080025B03C02007800F0CCF948B1854840F2F112A7
S315080025C000F124014C30FEF73CF8FEF739F8884D47
S315080025D0F12028647820E86300F012FB85484FF460
S315080025E080710160012C02D1BDE8704006E04FF60B
S315080025F0FF7129604FF4C061016070BD70B57E4DF2
S315080026002E68B6B2754CE07901282BD0FEF746F84D
S3150800261048F2D00129606A68520509D548F22202B3
S315080026202A606A68D205F5D529606A685207F1D426
S315080026302E6072494FF4C0620A6071490A6A22F034
S3150800264001020A620A6822F001020A600A6842F078
S3150800265002020A604A6A42F001024A620121E171F5
S31508002660FEF722F870BD70B55C4CE07930B3FEF722
S3150800267015F80546634801210160534E306D40F058
S31508002680010030650020E07100F0BAFA20203060C1
S31508002690306B40F002003063F06D40F00800F065E2
S315080026A02846FEF701F8C820FDF72EFF50484FF6DA
S315080026B0FF7101604F484FF4C061016070BD474823
S315080026C0C0797047504900280A6814BF42F01202C0
S315080026D022F012020A604149887070474A49002868
S315080026E00A6814BF42F0800222F080020A603B4961
S315080026F0C8707047454846494A780B7803EB02226A
S315080027000260CA788B7803EB022242604A790B7919
S3150800271003EB02228260CA79897901EB0221C16042
S315080027207047394900280A6814BF42F0200222F08F
S3150800273020020A602949487070472848008970476E
S3150800274026490881334908607047244840897047FC
S3150800275022494881304908607047304800787047F8
S31508002760184900280A6814BF42F4005222F400529D
S315080027700A601A49487170471D4928B108220A603B
S315080027800A6C42F0080202E00A6C22F008020A64A7
S31508002790124988717047134900280A6814BF42F025
S315080027A0020222F002020A600C490870704700F122
S315080027B09A010904890A1A4A11600849087170477A
S315080027C0580A002040A000403020004008000020A1
S315080027D0100100081020004000A000404C00002016
S315080027E05C100040802000403C000020380000209B
S315080027F004A0004000E100E01C10004080E100E079
S3150800280060200040281000408420004098200040A6
S31508002810700A002094200040902000404A000020C2
S315080028205410004010B500F014F81040C84010BD10
S3150800283010B500F00EF8D44320401140084380B28A
S31508002840D860022018600020186058680028FCD15B
S3150800285010BDDFF868335C68002CFCD19860012055
S3150800286018600020186058680028FCD1186970475D
S31508002870DFF84C03DFF84C138A780AB149780FE081
S3150800288089566FF008029142B8BF302108DBC16D46
S3150800289039B140F24A31C26DB1FBF2F189B2C91EB3
S315080028A0016070472DE9F04182B00546DFF8144310
S315080028B0A581B5F5004F19D102237F22DFF8080359
S315080028C000F078F9BDF80000000AFF2800D000B92A
S315080028D018206070BDF800000006C00E10281CBF46
S315080028E0001D00F0F8F8BDF80000C54305F0010822
S315080028F0C5F3400708EB4800B44946184FF4F852A8
S31508002900B0780102E020FFF793FFB148016841F46F
S31508002910004101604FF440527078010389B22020CB
S31508002920FFF786FF404600F0A7FD4022B901A02028
S31508002930FFF77EFF17B915F0040000D00120A0703C
S31508002940FFF796FF0020BDE8F6819E48808970470C
S315080029502DE9FE4F8046A8F10B05ADB2FFF7AFFE95
S315080029608146A8F10B00C0B2102802D38A20BDE820
S31508002970FE8F994FB868000702D43868C00701D59A
S315080029808C20F4E7934C84F80080944E30680C2829
S3150800299001D10020EBE7607838B9706A40F400503E
S315080029A07062706A20F4805070628D480078012841
S315080029B008BFFFF758FE8B48D0F800A08A484FF4A6
S315080029C0C0610160386A20F002003862A800001D64
S315080029D002900422014600A8FEF747FB9DF8000076
S315080029E08DF807009DF801008DF806009DF8020095
S315080029F08DF805009DF803008DF804007B4830F833
S31508002A002500F06148F2607B6078C0B1C6F824B052
S31508002A10386A20F0010038620120FDF775FD386A32
S31508002A2040F0010038626420FDF76EFD706A20F4FC
S31508002A3080507062706A40F40050706202E040464E
S31508002A4000F08BFD29460DF1010000F063FE2946D2
S31508002A500DF1020000F084FE2A4600A90DF10300DC
S31508002A6000F0A6FE9DF800009DF80710884211D1D7
S31508002A709DF801009DF8061088420BD19DF80200CA
S31508002A809DF80510884205D19DF803009DF80410AD
S31508002A90884204D00422029900A8FEF77FFB0AF4B4
S31508002AA0C0605049086000F0ABF8386A40F0020090
S31508002AB03862607820B1C6F824B06420FDF724FD9A
S31508002AC0FDF77BFCB9F1010F01D1FFF797FD60E730
S31508002AD04048007870472DE9F04186B004466FF00B
S31508002AE02A00844201DA8B205EE014237F224048C4
S31508002AF000F060F8BDF810004FF6FF71884204D068
S31508002B000E21084218BF012606D13F220021F020D7
S31508002B10FFF788FE0546002636482A49042C0FDAB0
S31508002B200022354B01E0521CD2B2D756A742FADB37
S31508002B3002600F700020002407464FF003080EE0DD
S31508002B40092CD0DA625C02600C7014237F222B48B1
S31508002B5000F030F80320012401274FF0280826B199
S31508002B604FF6BF72BDF8101018E04FF46052C1025C
S31508002B7000F01DF84FF4E062210200F018F88022F8
S31508002B80F90100F014F885F0200008EB0005ADB255
S31508002B90402DA8BF3F253F2285F02001A020FFF742
S31508002BA047FEFFF765FE002006B0BDE8F08189B252
S31508002BB0A0203DE6018800A8FDF706BDE810004004
S31508002BC0641000403C000020320600080801000896
S31508002BD01C1000403800002060200040AC10004067
S31508002BE05300002000E100E080E100E0A8000008B2
S31508002BF028060008C0100040E80000082A06000859
S31508002C00DFF8A40310210163DFF8A0130A6842F075
S31508002C1001020A60DFF8981301F214020260012229
S31508002C20026301F29E01816002210163DFF88403D9
S31508002C304FF6FF710160704780B5DFF87C0345F2F7
S31508002C406401C1601E21416250210162C821C1612F
S31508002C508165F021C16545F6900141668821816646
S31508002C600621C16644F2066101604FF6FF714160B4
S31508002C70DFF84803007838B1DFF8440348F260719A
S31508002C8001604FF4C1514160CE48016841F004012A
S31508002C90016000F078F9CC49088001BD2DE9F843B8
S31508002CA00446C34D8A2000FB045000F21500427802
S31508002CB0037803EB02239BB203F44042C34E3678F3
S31508002CC02E709B0635D5C24EF36C1B0631D5671997
S31508002CD04FF480684FF40069B2F5404F03D1C01D28
S31508002CE0FFF72AF809E0B2F5004F16D1017AC07944
S31508002CF000EB012080B2FFF7D3F970B1706CC00603
S31508002D0006D400F018F803D0F06A40F00100F0622B
S31508002D100120B8703068E8600BE0706CC00606D514
S31508002D2000F009F803D0F06A20F00100F0620020F4
S31508002D30B870BDE8F183306B04B1C84610EA080FD5
S31508002D4070472DE9F04E82B00446994E8A2000FB62
S31508002D50046000F2140B9F4D002C0CBF28686868AD
S31508002D60C0B241005FFA81F9052808DA9A484FF49B
S31508002D70D67200F11401FDF764FCFDF761FC09EB5E
S31508002D800B0010F8081D427802EB01211FFA81FAA0
S31508002D90A6F806A001793181317801708F4FF86B5A
S31508002DA020F48050F863686E00060CD59BF8010085
S31508002DB0800608D50AF4A040B0F5A04F03D188488C
S31508002DC00168491C01604FF4E4501AEA000F3BD130
S31508002DD0FFF7C3FC10B15FEA4A4035D59BF80000FF
S31508002DE0802831D2A4B93868400516D4686BADF886
S31508002DF00000286BADF80200009830617089401C0D
S31508002E007081A019827849465846FEF7B1FF20E03E
S31508002E10012CEBD138680005E8D57248017859B11C
S31508002E20002101709BF80100000900F001026E48BC
S31508002E3001688F20FEF773FF002C0CBF4FF48060EB
S31508002E404FF40060386004E0FFF75AFAB088401C77
S31508002E50B080002C0CBF012002202861BDE8F38E4B
S31508002E60F8B5544C2068216C01EA00055F4E25E050
S31508002E70A80645D468063BD4E80416D5376D25F46C
S31508002E8080554FF48050206008203065706D00052D
S31508002E9009D5B06920F00100B061B06940F00100C1
S31508002EA0B061FFF72DFABFB23765A80406D5FEF75D
S31508002EB044FC25F400554FF40050206035B328072C
S31508002EC006D50020FFF7EAFE25F008050820206051
S31508002ED0E80606D50120FFF7E1FE25F010051020CB
S31508002EE0206005F060006028C2D13068C00507D5AB
S31508002EF025F04005402020600120FFF722FFD4E797
S31508002F0025F02005202020600020F6E7002020601C
S31508002F10F1BD2F480068704770B58AB004460D4663
S31508002F2000200090002303220146FDF74CFA1EE01C
S31508002F30002601A800F023F805A800F020F8B61C22
S31508002F40102EF6DB05A901A800F0B6FD00202080AA
S31508002F50218801AA8218527801ABC35C03EB0222CE
S31508002F6051402180801C1028F2DB6D1EA41CEDB296
S31508002F70002DDDD1FDF721FA01200AB070BD311808
S31508002F800020FDF73ABA00B583B00020009004236C
S31508002F9002220021FDF717FA01A9FFF7F1FFFDF755
S31508002FA00CFABDF804000EBD002000408420004045
S31508002FB00007002000A000404C1000403900002007
S31508002FC0D010004080200040800A002038000020F1
S31508002FD038200040202000409001000804A000404E
S31508002FE0780A0020580A0020640A00206820004059
S31508002FF02DE9F04F93B017461C46019001AD696064
S315080030000020E8610CAE6FF0004802E0E869401C59
S31508003010E861387818B9E86913B0BDE8F08F252853
S3150800302004D1002028616861A8610CE017F8011B2B
S315080030306868019A904768600028E7D14FF0FF302A
S31508003040EAE740F0010017F8011F2029F9D02329E3
S315080030500DD02B2904D02D2906D030290AD00CE012
S3150800306040F0020080B2EEE740F00400FAE740F0D4
S315080030700800F7E740F01000F4E72A290DD1226886
S31508003080111D216011686962002904D549426962E7
S3150800309040F0040080B27F1C12E00021696209E05A
S315080030A0696A414505D001EB810302EB43013039DA
S315080030B069627F1C3A78A2F13001C9B20A29EFD3B6
S315080030C039782E291CBF4FF0FF3129621DD117F818
S315080030D0011F2A2906D12268111D2160116829625B
S315080030E07F1C12E00021296209E0296A414505D0C2
S315080030F001EB810302EB4301303929627F1C3A78E0
S31508003100A2F13001C9B20A29EFD3288539780FF21E
S31508003110483000F0E7FC08B117F8010B8DF82E00CF
S315080031209DF82E00682806D13878682803D16220D1
S315080031308DF82E007F1C0CA8E8603A78252A13D053
S31508003140582A38D0632A00F0A480642A6DD0692AE8
S315080031506BD06F2A2FD0702A21D0732A0AD0752AED
S3150800316029D0782A27D09CE02869411C2961252185
S315080031708155A0E02168081D20600868A8602A6AB1
S31508003180002A08D4002100F0B9FC00281ABFA96853
S31508003190401A286A01E000F0DDFC68618BE02168CE
S315080031A0081D2060086800900CA8A860782100A86F
S315080031B000F0EFF87FE09DF82E006C280FD07128FC
S315080031C001D06A280BD12068C01D20F007002060B6
S315080031D0034603F108002060D3E9000103E02168F3
S315080031E0081D2060086800909DF82E00682804D005
S315080031F0622805D100A8007801E000A800880090A0
S3150800320095F8280000073ED5009800283BD042F0E4
S315080032102000782837D12869411C29613021815539
S315080032202869411C296182552DE09DF82E006228E7
S3150800323002D0682806D00BE02168081D206091F9A5
S31508003240000009E02168081D2060B1F9000003E0CC
S315080032502168081D20600868009000280ED4288D73
S31508003260810704D52869411C29612B210AE0C0077A
S3150800327009D52869411C2961202103E02869411CD8
S3150800328029612D21815528690CA94018A860114685
S315080032908DE72869411C29612268111D2160116882
S315080032A066E72869411C2961252181551AB12869D3
S315080032B0411C296182557F1C686A2969401AA969D7
S315080032C0401A6969A0EB010995F82800400707D458
S315080032D02022494600A800F045F800283FF4AEAE83
S315080032E0D5F810A00DF1300BBAF1000F0ED01BF86F
S315080032F0011B6868019A9047686000283FF49EAEF3
S31508003300E869401CE861BAF1010AF0D13022A969DE
S3150800331000A800F027F800283FF490AED5F814A0CE
S31508003320D5F808B0BAF1000F0ED01BF8011B686873
S31508003330019A9047686000283FF480AEE869401C0F
S31508003340E861BAF1010AF0D195F8280040077FF53F
S3150800335060AE2022494600A800F004F800287FF451
S3150800336058AE6BE6F4B504460D46012D0FDB012673
S3150800337000AF17F8011BA06862689047A06038B1D3
S31508003380206A401C2062761EF3D16D1EEFD1012003
S31508003390F2BDF0B402696F2908BF082405D041F0D0
S315080033A02003782B14BF0A241024182305682E46F8
S315080033B0642901D0692902D1002D48BF76425EB939
S315080033C0456A4DB9082C24D190F82C10090720D548
S315080033D05B1E302199541CE05D1E2B46B6FBF4F7A4
S315080033E004FB17663036F6B23A2E24BFA1F1510C0B
S315080033F06644AE543E0003D0C5689F18BD42EBD361
S31508003400082C06D190F82C10090702D5995C3029AA
S31508003410DED1C3F1180181619A18C260426A9142ED
S3150800342007DA511AC161818D4FF6EF721140818515
S3150800343010E0002A0ED590F82C2002F01402102A6B
S3150800344008D1826A4369D21AC369D21A531A012B60
S31508003450A8BFC361F0BC7047686C747A4C00000062
S3150800346008237F22024801880248FDF7ADB800BF4D
S3150800347036060008700A0020F0B589B00446002018
S31508003480FDF720F80A237F222748018800A8FDF7C0
S315080034909BF84FF6FF75254EBDF80200A84209D1E4
S315080034A040F2071206F1340106F11400FDF7C9F8D7
S315080034B0FDF7C6F800272A4617B94FF47C4203E001
S315080034C0022F08BF4EF23F0200A830F81710B85D69
S315080034D0FFF7AEF97F1C052FEDD3012C02BF14238D
S315080034E07F22134802D014237F221248018803A89A
S315080034F0FDF76AF800272A46012F08BF4FF6C07263
S31508003500082F08BF002203A830F81710B819007A48
S31508003510FFF78EF97F1C0A2FEDD3012C04BF01207B
S31508003520FCF7D0FF09B0F0BD2C0600080C02000815
S315080035302A060008280600082F490A6892099201F7
S315080035400A600A68104308602C484FF4004101607D
S31508003550002101606420FCF7D7BF2DE9F84F8046AB
S31508003560274D28681FFA80F9286840F4004028602B
S31508003570214F386820F480503860224C207870B18A
S315080035802148A178627800EB820212F82A2C891A5F
S3150800359000EB880010F82A0C401886B202E02026B4
S315080035A0012020703046FFF7C7FF0FF2480ADFF800
S315080035B05CB003E086B23046FFF7BEFF386B0428DE
S315080035C005D0386B400754BF701E701CF2E7F86AC6
S315080035D030B184F80180A670C5F80090BDE8F18F77
S315080035E04FF48B7259465046FDF72BF8FDF728F82D
S315080035F0E4E7000030000000D0100040181000403A
S315080036001C1000407C0A0020A80000087002000870
S315080036104FF4FE52810189B2B020FFF709B930B5DF
S3150800362083B0494C002060602060FCF7C6FE00F0BD
S3150800363017F801A90020FCF7E0FEBDF904504FF683
S31508003640FF7060602060FCF7B8FE00F009F801A979
S315080036500020FCF7D2FEBDF90400281A00B23EBDD0
S315080036600020009006230922C021FCF7ACBE2DE9F4
S31508003670F84F364CA06A00902568354E3768DFF853
S31508003680D4803548007818B148F26070C8F8000050
S315080036900220A0620120206040F24C40FCF734FF73
S315080036A00120F06030604CF24C00C8F83C00002065
S315080036B0FFF7AEFFFFF7B3FF82467F20FFF7A8FFAD
S315080036C0FFF7ADFF8346504600F05FFA8146AAEB46
S315080036D00B0000F05AFA82460020C8F83C00BFB238
S315080036E03760F06002202060ADB2256000A800882F
S315080036F0A06240F24C40FCF707FFFE2000FB09F0F1
S315080037001FFA8AF1B0FBF1F080B2401CC003000C2E
S31508003710BDE8F28F70B50446012000FA01F520785D
S315080037200E4E010602D43188294206D0FFF79FFFC4
S3150800373020703188A943318002E04FF67F71084036
S31508003740BDE8704064E70000381000406020004083
S3150800375028100040D010004039000020840A0020BC
S3150800376010B584B00A237F220C48018800A8FCF70C
S315080037702BFF4FF6FF74BDF80000A04207D108489A
S31508003780672200F11C01FCF75CFFFCF759FF224693
S31508003790BDF800101020FFF74BF81FBD2C060008D7
S315080037A0C00100083F22410089B22020FFF740B837
S315080037B02DE9F34F97B0784C78480078002814BF65
S315080037C0606A206980B20390179800784FF67F7177
S315080037D001EA000618990978039B5B1C8B4203DBF8
S315080037E0039B5B1E994201DA012100E000210123B7
S315080037F003FA02F2ADF80A20000608D468480088E1
S31508003800BDF80A20104202D1002900F0BC80E06C05
S3150800381080B20690206880B20590624DE86A80B250
S3150800382004904FF6FF7200211120FEF7FBFF804639
S315080038304FF6FF720021A020FEF7F4FF83464FF4EF
S315080038400040206000202861686148F2020000F00C
S31508003850BDF84CF68C30E06448F2F000E8624FF4AC
S31508003860805211461120FEF7E3FF4FF6FF72002142
S31508003870A020FEF7DDFF00F0AEF802A900F0B3F8CD
S3150800388000F0B4F80DF1060100F0ADF84CF69C30E6
S31508003890E0640020FFF786FF0020009006231A4602
S315080038A0C021FCF790FD0026B0B2FFF77BFF00F0C1
S315080038B092F807A800EB460100F095F8761C202E32
S315080038C0F2DB00F08FF81020FFF76CFF00F08EF89F
S315080038D000F088F8BDF80400BDF80610401ABDF8D7
S315080038E03C10BDF80820891A404301FB01094FF036
S315080038F0100A112700F062F800F078F800F072F864
S3150800390000F052F804DB8146BA467F1C202FF1DB13
S315080039101FFA8AFABAF1100F0FD10F2700F04EF8E6
S3150800392000F064F800F05EF800F03EF805DB81462A
S31508003930BA46781E07B2002FF0D54FEA4A0086B27B
S315080039400698E064059820600498E8624FF6FF72CE
S3150800395041461120FEF76CFF4FF6FF725946A0202C
S31508003960FEF766FF01202861002000F02FF817985F
S31508003970067018980399017009480088BDF80A105E
S315080039808843074908803F2231462020FEF750FF2A
S3150800399019B0BDE8F08F0000C010004039000020C3
S315080039A0820A002018100040BDF80400BDF8061071
S315080039B0401A404306FB06004845704707A830F8FA
S315080039C01700BDF80810461AB8B2EBE6286040F2B0
S315080039D04C40FCF799BD0020009006230622C02122
S315080039E0FCF7F1BC01A90020FCF707BD00200090F8
S315080039F006230722C021FCF7E6BC000038B50446BA
S31508003A00274D214600F055F8E860211D00F051F8D1
S31508003A10A86004F1080100F04CF8686004F10C0194
S31508003A2000F047F8286031BD38B504461C4DEA68F1
S31508003A30214600F03BF8AA68211D00F037F86A68AD
S31508003A4004F1080100F032F82A6804F10C0100209C
S31508003A50BDE8384000F09DB8F8B50446114D802001
S31508003A602860114E062030600720286030688007DD
S31508003A70FCD5002704EB870100F01BF8A8627F1C21
S31508003A80042FF7D330684007FCD500262A6B04EBD1
S31508003A90860100F00BF8761C042EF7D3F1BD000062
S31508003AA0383000400030004010A00040002000F0F0
S31508003AB070B8002000F07BB87FB504460D46FCF7C9
S31508003AC0EDFD064600A8FFF7AFFF2846FFF796FF6D
S31508003AD02046FFF7C1FF00A8FFF790FF3046FCF726
S31508003AE0E3FD7FBD0278C9B28A421AB11CBF10F83D
S31508003AF0012FF9E718BF002070470000C9B28307F5
S31508003B0006D0521E22D310F8013B9942F7D11FE086
S31508003B10083A13D302F1040241EA012141EA0141BC
S31508003B2050F8043B121F21BF4B40A3F1013C2CEA7D
S31508003B30030C1CF0803FF3D0C9B2001F083210F8FE
S31508003B40013B521E28BF91EA030FF8D818BF01207F
S31508003B50401E704700F10103810704D010F8011BCD
S31508003B6089B18107FAD10268B2F10131914311F0A6
S31508003B70803F04BF50F8042FF6E710F8011B11B177
S31508003B8010F8011BFBE7C01A7047002848BF4042DF
S31508003B90704710B50023002814BF1C46C3F1030460
S31508003BA0E4B26254120A5B1C042BF4DB10BD30B578
S31508003BB04A788B78CC78097818B120461D460C4689
S31508003BC002E0084615461A4645EA002044EA02215C
S31508003BD041EA004030BD0000FDF7B6F9002801D0E3
S31508003BE000F006F80020FDF703FF00F017F80000C4
S31508003BF010B5084979441C31074C7C441A34A14253
S31508003C0006D0081D0A68511888470146A142F8D10E
S31508003C1010BD00BF70C4FFFF90C4FFFF80B500F061
S31508003C2001B800BF07463846FCF796FFFBE70000D9
S31508003C30FFFFEFBECEFA00000101040305010000F4
S31508003C400100000000000000FFFFFFFFFFFFFFFF6D
S31508003C500000040001000000000000000000000051
S31508003C6000000000000000000B010000031800001F
S31508003C701316191C1F000000008001000100010135
S31508003C80B5000001FEFFFFFFC046C046C046C0465D
S31508003C90FFF7A2FF38B504460D462846FCF731FF64
S31108003CA0A84218BF0024204632BD0000D0
S70508003C892D
