:03000000021F8656
:0C1F8600787FE4F6D8FD758166021FCD5F
:1025BF000000000017F20DD309BC00000000114EFF
:0425CF0009EB0516F9
:032652000114016F
:082630007F32AE071FEE70FAC5
:01263800227F
:09263900C2B6C2B5C2A7022630E8
:10243500C2B630B5057E007F042230A704E4FEFF56
:1024450022D2B612263030A710D2B51226307E0021
:1024550030A7037F02227F0622D2B51226307E00E6
:0924650030A7037F08227F052245
:1024A400AD07AC06D3ED9400EC64809480401DAB82
:1024B40007AA06D3EB9400EA648094804007EB1BE0
:0C24C40070F11A80EEED1D70DB1C80D85A
:0124D00022E9
:02208F00AA079E
:10209100D292D2B4D291D2B3BD011BC290C2B2E9E5
:1020A100FF7E007C017D4A120C44EF2513F513EEEF
:1020B1003512F512801AD290D2B2E9FF7E007C016E
:1020C1007D4A120C44C3E5139FF513E5129EF512E8
:1020D100C292C2B4A902E9D39400400F0000D29188
:1020E100D2B30000C291C2B31980EBEB60060000CD
:1020F100D291D2B30000D292D2B4EB60077F327E8C
:04210100001224A400
:0121050022B7
:071A8900E493FE740193FFDA
:041A90008E2D8F2EDA
:101A9400E4FDFCD3E52E9513E5126480F8E52D648E
:101AA4008098406DD3E52E9513E5126480F8E52DFA
:101AB4006480984013744A2513F51374013512F5A4
:101AC400120DBD00010C80DCC3E52E9513CFE52D6E
:101AD4009512CF244ACF3401FEC3E513952EFBE5BE
:101AE40012952DFAD3EB9FEE6480F8EA6480984057
:101AF4001174B62513F51374FE3512F512ED1D702D
:101B0400011CED4C7003021B91AF057B0A7D018023
:101B140079C3E52E9513E5126480F8E52D64809869
:101B2400506BC3E52E9513E5126480F8E52D6480AF
:101B340098501374B62513F51374FE3512F5120D6F
:101B4400BD00010C80DCC3E513952ECFE512952D65
:101B5400CF244ACF3401FEC3E52E9513FBE52D9522
:101B640012FAD3EB9FEE6480F8EA64809840117413
:101B74004A2513F51374013512F512ED1D70011C7D
:101B8400ED4C6009AF057B0AE4FD12208FAE12AF65
:011B9400133D
:011B9500222D
:1025F9007B0A7D017F2012208F75122775130F2208
:1024D100AD07AC06D3ED9400EC64809480401DAB55
:1024E10007AA06D3EB9400EA648094804007EB1BB3
:0C24F10070F11A80EEED1D70DB1C80D82D
:0124FD0022BC
:02216C00AC07BE
:10216E00D295D294BD0114C293E975F01FA4AEF0BE
:10217E002509F509EE3508F5088015D293E975F0B5
:10218E001FA4FFAEF0C3E5099FF509E5089EF5080B
:10219E00C295A904E9D39400400B0000D29400002C
:1021AE00C2941980EFEB60040000D2940000D29527
:0A21BE00EB60077F327E001224D18F
:0121C80022F4
:102609007B01E4FD7F2012216C75080075091A22EF
:041B96008E2D8F2ED3
:101B9A00E4FDFCD3E52E9509E5086480F8E52D649B
:101BAA008098406CD3E52E9509E5086480F8E52D08
:101BBA006480984012741F2509F509E43508F50870
:101BCA000DBD00010C80DDC3E52E9509CFE52D95ED
:101BDA0008CF241FCF3400FEC3E509952EFBE50884
:101BEA00952DFAD3EB9FEE6480F8EA648098401151
:101BFA0074E12509F50974FF3508F508ED1D700132
:101C0A001CED4C7003021C95AF057B017D018078A9
:101C1A00C3E52E9509E5086480F8E52D648098509F
:101C2A006AC3E52E9509E5086480F8E52D64809875
:101C3A00501374E12509F50974FF3508F5080DBD3F
:101C4A0000010C80DCC3E509952ECFE508952DCF60
:101C5A00241FCF3400FEC3E52E9509FBE52D950818
:101C6A00FAD3EB9FEE6480F8EA6480984010741F00
:101C7A002509F509E43508F508ED1D70011CED4C40
:0F1C8A006009AF057B01E4FD12216CAE08AF09C4
:011C99002228
:07264B00D296C297C2B12232
:102573007FE87E03C29600000000D296309709EFF1
:0B2583001F70011E144E70F4000000D9
:01258E00222A
:10252A00E4FFFEFDEF25E0FFEE33FED2B10000C26C
:10253A00B10000A2B0E433FBEB42070DBD10E5EE9B
:08254A00A2E713FEEF13FF00EE
:012552002266
:042106008E2D8F2E5D
:10210A00E4F532F531F530F52FE52D54F0704AE556
:10211A002D30E31F5407FCAD2E120B247B937A015A
:10212A0079A0783B1208FBE4FBFA792078C11208FF
:10213A000A8015E52D5407FCAD2E120B247B937AE9
:10214A000179A0783B1208FB8F328E318D308C2FAB
:10215A00AF32AE31AD30AC2F227FE17EFA7DC77C43
:01216A004232
:01216B002251
:1025A80012165812263912264B1225F9122609D26C
:0725B800B7D2A67514012241
:0B262500EF1FAC0670011E4C70F62287
:1022C80012257312252A8E0E8F0F1221068F0D8E5E
:1022D8000C8D0B8C0AE4FFFEFDFCAB0DAA0CA90BC0
:1022E800A80A120AA15015AF0DAE0CAD0BAC0A121C
:1022F8000B0E8F188E178D168C15800C850D188572
:102308000C17850B16850A15AF18AE17AD16AC1548
:0123180022A2
:101C9A00E514AB18AA17A916A81560387FE17E7A51
:101CAA007D147C41120806C004C005C006C007ACFA
:101CBA0008AD09EC120B24A804A905AA06AB07D0A3
:101CCA0007D006D005D004120A047B007A8079274F
:101CDA0078448047E4FFFE7D207C41120806C00458
:101CEA00C005C006C007AC08AD09EC120B24A80455
:101CFA00A905AA06AB07D007D006D005D004120A58
:101D0A0004E4FBFA797A78441208FBE4FBFAF978DE
:101D1A004012080A7466FBFAF9783F1208FB8F1C16
:0F1D2A008E1B8D1A8C19AF1CAE1BAD1AAC192273
:102319007FF47E01121B969025C7121A891222C8D2
:10232900E4FBFAF97841120AA1502FE4F514C2B777
:102339007FC8FE1226251225F99025D1121A891275
:1023490022C8E4FBFA79107841120AA1500C7514DD
:0B23590002D2B77FC87E0012262522AA
:10181500E4F529F52A752B27752C0F1214281226A5
:10182500097FF47E01121B9675210075220212258F
:10183500F9E5146012E52225E0FFE52133FE74BFCA
:101845002FF58274258010E52225E0FFE52133FE82
:1018550074C92FF58274253EF583121A897FC87ED7
:10186500001226251222C8121C9AE4FFFE7D207C58
:1018750041AB1CAA1BA91AA819120AA1501AAE211C
:10188500AF227C007D0A120C448E318F32AF1CAE24
:101895001BAD1AAC19120F95E4FFFE7D7A7C44ABA3
:1018A5001CAA1BA91AA8191208FBC004C005C0066A
:1018B500C007AE21AF227C007D0A120C44AC06ADF8
:1018C50007EC120B24A804A905AA06AB07D007D07C
:1018D50006D005D004120A04120B5DAD22ED25E0F9
:1018E500241FF8A60608A607ED25E0241FF8E6FE46
:1018F50008E6FFD3952AE5296480F8EE64809840D0
:10190500048E298F2AED25E0241FF8E6FE08E6FF60
:10191500C3952CE52B6480F8EE64809850048E2BDB
:101925008F2C0522E52270020521C39405E521646B
:101935008094805003021833E514AB2AAA29AD2CF4
:0E194500AC2BB401047F4E80027F501211E3E0
:011953002271
:10246E001225A81221C920A6FD7F1E7E0012262548
:10247E0030A6FD122319E5146402600512181580AA
:10248E0006122435121DD720A6FD7F1E7E001226B1
:06249E002520A6CC80FB06
:101D3900390031300030005563652F560049632F53
:101D49006D410049623D323075410049623D333091
:101D590075410049623D3430754100423D002D2DE9
:101D6900004E504E00504E5000372034204820433A
:101D7900200030203000302034003220342035005B
:101D89003020380033203200382036006966207947
:101D99006F752077616E7420746F20746573740099
:101DA900706C656173652070757420746865206452
:101DB900657465726D696E616E64007468656E2024
:0E1DC900707265737320746865206B65790015
:102276007F097E001223FD7F4A7E011222A87F0677
:102286001E1223FD7F4A7E011222A87F0E1E1223F4
:10229600FD7F4A7E011222A87F0F1E1223FD7F4A70
:0222A6007E01B7
:1022A800E4FDFCC3ED9FEC9E5015E4FBFA0BBB006C
:0F22B800010ABA01F8BB04F50DBD00010C80E46A
:0122C70022F4
:032619001222A8E2
:09261C00C2A37F027E000222A885
:1014280074FFFFFE122364753D01753E27E4F53F06
:10143800F5407BE6FA7D277C017F14FE120D0F75BF
:101448003D00753E0FE4F53FF5407B14FA7D277C9F
:10145800017F14FE120D0F752D00752E01AE2DAFF4
:101468002E7C007D16120C44EF2414FFE43EFEABE4
:1014780007FA753D01753E22E4F53FF5407D270CDE
:10148800120D0F052EE52E7002052DC39409E52DCA
:101498006480948040C7752D00752E01AE2DAF2E47
:1014A8007C007D1B120C44C374279FFD74019EFCB5
:1014B800F53D8D3EE4F53FF5407B1BFA7F14FE12A7
:1014C8000D0F052EE52E7002052DC3940BE52D6436
:1014D80080948040C7752D00752E01AE2DAF2E7CEF
:1014E800007D16120C44EF2412FFE43EFEE52E2484
:1014F80030FB754E05754F1F74FFF550F5517D2E65
:101508000C121E6AAE2DAF2E7C007D1B120C44C33C
:10151800741D9FFD74019EFCE52E2430FB754E055D
:10152800754F1F74FFF550F5517F087E00121E6A33
:10153800052EE52E7002052DC39409E52D648094CF
:101548008040987BFF7A1D793975440575451F746D
:10155800FFF546F5477D2A7C007F087E0012222091
:101568007BFF7A1D793B75440575451F74FFF54669
:10157800F5477D147C007F017E001222207BFF7AD4
:101588001D793E75440575451F74FFF546F5477D81
:101598002A7C017F107E00122220752D00752E01F5
:1015A800E52E2414FFE4352DFEE52E240FFDE43549
:1015B8002DFCE4FBFA12250AC37414952EFFE4955A
:1015C8002DFEE52E240FFDE4352DFCE4FBFA122553
:1015D8000AC374E6952EFFE4952DFEE52E2427FD1B
:1015E800E52D3401FCE4FBFA12250AC374E6952EB6
:1015F800FFE4952DFEC37427952EFD7401952DFCEF
:10160800E4FBFA12250A052EE52E7002052DC39477
:1016180006E52D6480948040877BFF7A1D794075AC
:1016280044077545E074FFF546F5477D2C7C017F3E
:10163800C87E001222207BFF7A1D79467544077503
:1016480045E074FFF546F547E4FDFCFFFE02222065
:080F95008F308E2F8D2E8C2D64
:100F9D007FCC7ECC7DE47C41121988C004C005C095
:100FAD0006C007E4FFFE7DD87C41AB30AA2FA92EE9
:100FBD00A82D1208FBE4FBFA798078BF12080AD03D
:100FCD0003D002D001D000120A04120B5D8E358FB2
:100FDD0036753300753415AC33AD34EC120B247B00
:100FED00667A6679427842120AA1600250030210B5
:100FFD00ADE53424EDFDE53334FFFC120B2412195D
:10100D0088C004C005C006C007AC35AD36EC120B68
:10101D0024D003D002D001D0001208FBA804A905EA
:10102D00AA06AB077F007E807D937C4312080612D3
:10103D000B5DC006C007E53424EEFDE53334FFFC3F
:10104D00120B24121988C004C005C006C007AC35A8
:10105D00AD36EC120B24D003D002D001D000120813
:10106D00FBA804A905AA06AB077F007E807D937CB3
:10107D0043120806120B5D8E3D8F3EE5342401FBB5
:10108D00E43533FA753FF8754000D005D004AF3420
:10109D00AE33120D0F0534E53470020533020FE443
:1010AD00E4FFFE7DD47C41AB30AA2FA92EA82D12D2
:1010BD0008FBA804A905AA06AB077F007E807D93D7
:1010CD007C43120806120B5DAD07AC06C004C005CB
:1010DD00E4FFFE7DD47C41AB30AA2FA92EA82D12A2
:1010ED0008FBA804A905AA06AB077F007E807D93A7
:1010FD007C43120806120B5D8E3D8F3E753FF875D1
:10110D004000D005D0047BB47A007F307E00120DF4
:10111D000FE53160030211E2E53224E2603F24F66F
:10112D00606F241460030211E2E4FFFE7DD47C4164
:10113D00AB30AA2FA92EA82D1208FBA804A905AA29
:10114D0006AB077F007E807D8F7C43120806120B55
:10115D005DAD07AC067BFF7A1D794C8066E4FFFE22
:10116D007DD47C41AB30AA2FA92EA82D1208FBA847
:10117D0004A905AA06AB077F007E807D8F7C4312F4
:10118D000806120B5DAD07AC067BFF7A1D79548006
:10119D0032E4FFFE7DD47C41AB30AA2FA92EA82DC1
:1011AD001208FBA804A905AA06AB077F007E807D67
:1011BD008F7C43120806120B5DAD07AC067BFF7AE0
:1011CD001D795CE4F544F54574FFF546F5477FB4AC
:0511DD007E001222203B
:0111E20022EA
:0723F60012261C7F107E007F
:1023FD008F828E83D2A37F027E001222A8C2A312E7
:10240D0022A8D3E5829400E583648094804018D29D
:10241D00A07F017E001222A8C2A01222A8E582157B
:08242D008270DF158380DB22C1
:071EF90012261CAF31AE30D0
:041F0000AB07AA067B
:101F04007C007D64120C568E3D8F3E7C007D6412F5
:101F14000C44C3EB9FFFEA9EFE7D0A120C568E3FD3
:101F24008F40AE02AF037C007D0A120C568C418DAB
:101F340042E53E453D7F14700AFE1223FD7FE87E94
:101F440003801C7E001223FD7FE87E031222A8E595
:101F54003E2402FFE4353DFE1223FD7F2C7E011258
:101F640022A8E5402402FFE4353FFE1222A1E54207
:101F74002402FFE43541FE1223FD7FE87E0312268E
:011F84001943
:011F85002239
:0A11E3008F2D8C2E8D2F8A308B315A
:1011ED00AE2EAF2F7C007D64120C568E358F367C63
:1011FD00007D64120C44C3E52F9FFFE52E9EFE7DFE
:10120D000A120C568E378F38AE2EAF2F7C007D0A0A
:10121D00120C568C398D3AE5362430F532E53824EA
:10122D0030F533E53A2430F534E5364535703D85F6
:10123D00333B85343C7BFF7A1D79647544F87545E5
:10124D001F74FFF546F5477D0A7C007F697E00120D
:10125D0022207B007A00793B7544F875451F74FF99
:10126D00F546F5477D0A7C007F8280357BFF7A1D30
:10127D0079647544F875451F74FFF546F5477D0A89
:10128D007C007F697E001222207B007A0079327506
:10129D0044F875451F74FFF546F5477D0A7C007FC0
:1012AD007A7E00122220AE30AF317C007D64120CAC
:1012BD00568E358F367C007D64120C44C3E5319F0C
:1012CD00FFE5309EFE7D0A120C568E378F38AE30FC
:1012DD00AF317C007D0A120C568C398D3AE53624DF
:1012ED0030F532E5382430F533E53A2430F534E580
:1012FD00364535702B85333B85343C7BFF7A1D7924
:10130D00677544F875451F74FFF546F5477D0A7CF2
:10131D00007F947E001222207B007A00793B80238F
:10132D007BFF7A1D79677544F875451F74FFF54687
:10133D00F5477D0A7C007F947E001222207B007A87
:10134D000079327544F875451F74FFF546F5477DF4
:10135D000A7C007FA47E00122220E52D644E7BFFC7
:10136D00704C7A1D796A7544F875451F74FFF54602
:10137D00F5477D0A7C007F3C7E00122220AF2FAE08
:10138D002E121F00121EF91223F67F907E011222DB
:10139D00A87F0C1E1223FD7FB47E001222A87F0DA4
:1013AD001223FD7FB47E001222A87F0C804A7A1D85
:1013BD00796E7544F875451F74FFF546F5477D0A3E
:1013CD007C007F3C7E00122220AF2FAE2E121F001C
:1013DD00121EF91223F67F907E011222A87F0D1E98
:1013ED001223FD7FB47E001222A87F0C1223FD7FF5
:1013FD00B47E001222A87F0D1223FD7FB47E001251
:10140D0022A87F111223FD7FF07E001222A87F13E8
:0A141D001223FD7FD07E071226196E
:0114270022A2
:10201200EE7079EF24FE604B24FE601B14602514E1
:10202200604D24FE6030240870621222767F021214
:1020320022A07F0202207B1222767F021222A07F40
:102042000602207B1222767F041222A07F06122231
:10205200A07F0702207B1222767F021222A07F0A33
:1020620002207B1222767F051222A07F04800A12B0
:1020720022767F0A1222A07F081222A07F121E124D
:0D20820023FD7FC47E091222A812261C2215
:101DD7008E218F2274FFFFFE1223647BFF7A1D7909
:101DE700727544F875451F74FFF546F5477DA07C6D
:101DF700007F387E00122220E521705DE52224FE57
:101E0700603224FE601614601B14603024FE601CD0
:101E1700240870457BFF7A1D797B80267BFF7A1D1E
:101E2700797F801E7BFF7A1D798380167BFF7A1D61
:101E37007989800E7BFF7A1D798D80067BFF7A1D5D
:101E470079917544F875451F74FFF546F5477DA0F0
:101E57007C007F787E00122220AF22AE2112201252
:031E670002261C34
:1021C9007BFF7A1D79957544F875451F74FFF546AF
:1021D900F5477D8C7C007F257E001222207BFF7ACB
:1021E9001D79A97544F875451F74FFF546F5477DB6
:1021F900A77C007F0A7E001222207BFF7A1D79C40A
:102209007544F875451F74FFF546F5477DBE7C009A
:072219007F287E0002222055
:1000030000000000000000000000000000000000ED
:1000130000000000000000000000000000000000DD
:1000230000000000000000000000000000000000CD
:1000330000000000000000000000000000000000BD
:10021300000000101010101010001010000000005B
:10022300000000242424000000000000000000005F
:1002330000000024247E2424247E242400000000C3
:10024300000000107C90907C12127C1000000000D3
:100253000000000062640810204C8C0000000000C5
:1002630000000000182420508A844A300000000057
:10027300000000101020000000000000000000003B
:10028300000008102020202020202010080000005B
:1002930000002010080808080808081020000000C3
:1002A3000000000000105438385410000000000013
:1002B300000000000010107C10100000000000007F
:1002C30000000000000000000000101020000000EB
:1002D300000000000000007C00000000000000009F
:1002E30000000000000000000000001000000000FB
:1002F300000000000002040810204000000000007D
:100303000000003844444C54644444380000000066
:100313000000001030101010101010380000000002
:1003230000000038440404081020407C0000000052
:100333000000007C04081038040404780000000066
:1003430000000008182848487C080808000000003E
:100353000000007C40404078040404780000000062
:100363000000003C40404078444444380000000012
:100373000000007C0404081020202020000000005E
:10038300000000384444443844444438000000002A
:10039300000000384444443C0404043800000000D6
:1003A300000000000000001000001000000000002A
:1003B30000000000000000001000101020000000EA
:1003C30000000000000408102010080400000000D2
:1003D300000000000000007C007C00000000000022
:1003E3000000000000201008040810200000000096
:1003F30000003844440408101000101000000000EE
:10040300000000000038445C545C403C00000000E5
:10041300000018244242427E424242420000000051
:1004230000007C4242427C424242427C0000000087
:1004330000003C42404040404040423C000000003D
:1004430000007C42424242424242427C00000000A1
:1004530000007E40404078404040407E0000000065
:1004630000007E4040407840404040400000000093
:1004730000003C4240405E424242423C00000000D9
:100483000000424242427E42424242420000000099
:100493000000381010101010101010380000000069
:1004A30000001C080808080808084830000000007D
:1004B300000042444850606050484442000000003D
:1004C30000004040404040404040407E000000006B
:1004D30000008282C6C6AAAA92928282000000000D
:1004E300000042626252524A4A46464200000000FD
:1004F30000003C42424242424242423C0000000071
:1005030000007C424242427C4040404000000000E8
:1005130000003C424242424242424A3C0E0000003A
:1005230000007C424242427C5048444200000000AA
:1005330000003C4240403C020202423C00000000FA
:1005430000007C101010101010101010000000009C
:1005530000004242424242424242423C000000000A
:1005630000004444444428282810101000000000D0
:1005730000008282828254545428282800000000FC
:1005830000004242241818182424424200000000AC
:1005930000004444444428281010101000000000B8
:1005A30000007E02020408102040407E000000008C
:1005B30000003820202020202020203800000000C8
:1005C30000000000000040201008040200000000AA
:1005D30000001C04040404040404041C00000000C0
:1005E300000000001028440000000000000000008C
:1005F300000000000000000000000000FF000000F9
:1006030000000010100800000000000000000000BF
:10061300000000000078043C4444443A0000000019
:1006230000004040405C62424242625C00000000C5
:1006330000000000003C42404040423C00000000FB
:1006430000000202023A46424242463A00000000DB
:1006530000000000003C42427E40423C000000009B
:1006630000000E1010103C101010101000000000BD
:1006730000000000003E424242423E02023C0000B3
:1006830000004040405C624242424242000000009F
:100693000000000800080808080808080000000017
:1006A30000000004000404040404040444380000AB
:1006B300000040404042444850684442000000006B
:1006C3000000101010101010101010100000000087
:1006D3000000000000EC92929292929200000000BF
:1006E30000000000007C42424242424200000000FF
:1006F30000000000003C42424242423C0000000035
:1007030000000000005C62424242625C4040000024
:1007130000000000003A46424242463A020200000C
:1007230000000000005C62404040404000000000C8
:1007330000000000003C42403C02423C000000003C
:1007430000000020207820202020221C0000000030
:1007530000000000004242424242423E00000000CC
:100763000000000000424242424224180000000000
:1007730000000000008282829292AA4400000000DE
:1007830000000000004242241824424200000000FE
:10079300000000000042424242423E02023C00008E
:1007A30000000000007E02041820407E00000000CC
:1007B3000000081010102040201010100800000046
:1007C3000010101010101010101010101010100046
:1007D3000000201010100804081010102000000062
:1007E3000000000000002254880000000000000008
:1007F30000000000000000000000000000000000F6
:042364008E2F8F30F9
:10236800756301756440E4FBFA7DF0FCFFFE1223FF
:10237800ADE4F531F532E4F533F534AF30AE2F1274
:1023880026420534E53470020533C394F0E53394EE
:102398000040E80532E53270020531C39440E5316A
:0423A800940140D28A
:0123AC00220E
:061E6A008B4D8D828C837C
:101E7000EF2407FDE43EFCAB82AA83E582240FF544
:0E1E800064E43583F5631223ADE4F552F553A7
:101E8E00AF4DEF3395E0FEEFC4F8540FC868FFEE88
:101E9E00C454F048FEE5532FFFE5523EFE74032F67
:101EAE00F58274003EF583E493F556E4F554F5554A
:101EBE00E55630E706AF4FAE4E8004AF51AE50122E
:101ECE002642E55625E0F5560555E55570020554B2
:091EDE00C39408E554940040D7B8
:101EE7000553E55370020552C39410E55294004020
:011EF7009654
:011EF80022C7
:0E2220008E3D8F3E8C3F8D408B418A4289431C
:10222E00E4F548AB41AA42A943120C2B6039C39482
:10223E008050F0E54875F008A4253EFFE53D35F0E9
:10224E00FE120C2BFB85444E85454F854650854727
:10225E0051AD40AC3F121E6A74012543F543E4357F
:07226E0042F542054880BC67
:012275002246
:03258F00E4FDFC6C
:06259200AB05AA04AD0731
:102598008A658B66E4FF1225D3AD66AF650225E632
:04264200AD07AC062E
:05264600AF040225E6CF
:1025D300C2A2C2A48F80C2A5D2A58D80C2A5D2A556
:0325E300D2A2225F
:1025E600C2A2D2A48F80C2A5D2A58D80C2A5D2A533
:0325F600D2A2224C
:10255300E4FDFCC3ED9FEC9E5015E4FBFA0BBB00BE
:0F256300010ABA01F8BB04F50DBD00010C80E4BC
:012572002246
:10165800D2A27F057E00122553C2A1122553D2A122
:101668007F321225537D007C017F011225927D0077
:101678007C077F021225927D307C107F0312259211
:101688007F0412258F7D077C027F081225927F092F
:1016980012258FE4FDFC7F0A122592E4FDFC7F0CE5
:1016A800122592E4FDFC7F0D122592E4FDFC7F0FCC
:1016B800122592E4FDFC7F101225927D077C007FA5
:1016C80011122592E4FDFC7F12122592E4FDFC7FA5
:1016D800131225927D907C127F101225927D277C13
:1016E800027F111225927D1D7C007F121225927DAA
:1016F800007C157F131225927D187C007F29122506
:10170800927D0D7C007F2B1225927D047C007F301A
:101718001225927D077C037F311225927D027C0081
:101728007F321225927D067C027F351225927D0834
:101738007C047F361225927D077C057F371225921F
:101748007D047C027F381225927407FDFC7F3912D4
:1017580025927D057C047F3C1225927D027C0F7FBB
:101768003D122592E4FDFC7F501225927DEF7C000E
:101778007F51122592E4FDFC7F521225927D3F7C19
:10178800017F531225927D007CA77F601225927DF0
:10179800017C007F61122592E4FDFC7F6A1225928C
:1017A800E4FDFC7F80122592E4FDFC7F81122592E6
:1017B800E4FDFC7F82122592E4FDFC7F83122592D2
:1017C800E4FDFC7F84122592E4FDFC7F85122592BE
:1017D8007D107C007F901225927D007C067F9212FE
:1017E80025927D037C007F931225927D107C017FDA
:1017F80095122592E4FDFC7F97122592E4FDFC7F6B
:0D180800981225927D337C017F0702259206
:0C24FE00AB40AA3FAD4EAC4DAF4CAE4B16
:10250A008A5B8B5C8D828C83AD07AC06AB82AA8317
:10251A008583638582641223ADAF5CAE5B0226427B
:1023AD008E5D8F5E8C5F8D608A618B62AD5EAC5D84
:1023BD007F50122592AD60AC5F7F51122592AD62B8
:1023CD00AC617F52122592AD64AC637F531225929E
:1023DD00AD5EAC5D7F20122592AD62AC617F2112A6
:0923ED0025927D22E4FF0225D3B4
:0C0D0F008E378F388C398D3A8A3B8B3C34
:100D1B00C3E53C9538F542E53B9537F541C3E53ED8
:100D2B00953AF544E53D9539F543E54425E0FFE576
:100D3B004333FEC3EF9542F546EE9541F5458E479D
:100D4B008F48C3E5449542FFE5439541FEEF25E00F
:100D5B00F54AEE33F549E4F54BF54CF54DF54EF50B
:100D6B004FF550F551F552F553F554F555F556F53C
:100D7B0057F558F559F55AE5424541706885374B9B
:100D8B0085384CC3E53A953EE539953D5008853994
:100D9B004D853A4E8006853D4D853E4EE4F559F521
:100DAB005AC3E53A953EE539953D500DC3E53E9561
:100DBB003AFFE53D9539FE800BC3E53A953EFFE5DD
:100DCB0039953DFED3E55A9FE5599E4003020F949A
:100DDB001224FE054EE54E7002054D055AE55A707C
:100DEB00C0055980BCE5444543706885394D853A4B
:100DFB004EC3E538953CE537953B500885374B8519
:100E0B00384C8006853B4B853C4CE4F559F55AC371
:100E1B00E538953CE537953B500DC3E53C9538FFE0
:100E2B00E53B9537FE800BC3E538953CFFE53795E1
:100E3B003BFED3E55A9FE5599E4003020F941224C3
:100E4B00FE054CE54C7002054B055AE55A70C00582
:100E5B005980BCD3E5429400E54194004008754F9E
:100E6B0000755001800EE54245417002800274FF0F
:100E7B00F54FF550D3E5449400E5439400400875D5
:100E8B005100755201800EE5444543700280027497
:100E9B00FFF551F552D3E538953CE537953B400CC2
:100EAB00E538953CFFE537953BFE800BC3E53C955C
:100EBB0038FFE53B9537FE8E418F42D3E53A953EA1
:100ECB00E539953D400CE53A953EFFE539953DFEFC
:100EDB00800BC3E53E953AFFE53D9539FE8E438F7A
:100EEB0044D3E5429544E5419543400885415385FC
:100EFB004254800685435385445485374B85384C83
:100F0B0085394D853A4EE4F559F55AE5542401FFE0
:100F1B00E43553FED3E55A9FE5599E506C1224FEDF
:100F2B00E5422556F556E5413555F555E544255829
:100F3B00F558E5433557F557D3E5569554E5559593
:100F4B00534018E5569554F556E5559553F555E52B
:100F5B0050254CF54CE54F354BF54BD3E558955497
:100F6B00E55795534018E5589554F558E557955363
:100F7B00F557E552254EF54EE551354DF54D055AD4
:090F8B00E55A70020559020F1627
:010F9400223A
:10080300020BC9E86480F8E933E83360110460F04F
:10081300ED33EC337009E8FCE9FDEAFEEBFF22045B
:1008230060DED3EB9FEA9EE99DE8C2E78CF0C2F756
:1008330095F0400CE8CCF8E9CDF9EACEFAEBCFFB22
:10084300120B9485D0F05804700320D5B3E80470DC
:10085300075002B2D5020BD392D5EC0460F7E4CC77
:10086300C0E0C398F8603B94186008400DD0E0FBEB
:10087300020BABE4FBFAC9FC8028E830E406E4C9C8
:10088300FBE4CAFCE830E305E4C9CACBFCE854073F
:100893006010F8C3E913F9EA13FAEB13FBEC13FC4A
:1008A300D8F130F52FC3E49CFCEF9BFFEE9AFEEDED
:1008B30099FDD0E0FBEF4E4D4C701222DB03020B8F
:1008C300D0EC2CFCEF33FFEE33FEED33FDED30E7E0
:1008D300EB020BABEF2BFFEE3AFEED39FDD0E0FB65
:1008E30050130BBB0003020BD3ED13FDEE13FEEF0E
:0808F30013FFEC13FC020BAB38
:1008FB00EC4D6011E8497017ED33EC3304600DE4F7
:10090B00FCFFFEFD22E933E8330470F8020BC91239
:10091B000B9458046009E4CC24815006285009023A
:10092B000BD3284003020BD0C0E0EB4A7044B980D4
:10093B0006D0E0FB020BBFEF4E701CBD8008EBFF37
:10094B00EAFEE9FD80EBE98DF0A4FEE5F00209E497
:10095B00E9CDF9EAFEEBFFEF89F0A4FCE5F0CE89D7
:10096B00F0A42EFFE435F0CD89F0A42DFEE435F094
:10097B008067EF4E7005BD80D780C3EF8BF0A4ACC2
:10098B00F0EE8BF0A42CFCE435F0F8EF8AF0A42CFD
:10099B00E5F038FCE433CB8DF0A42CFCE5F03BF810
:1009AB00EE8AF0A42CFCE5F038F8E433CF89F0A400
:1009BB002CFCE5F038CF3400CE89F0A42FFFE5F006
:1009CB003EFEE433C98DF0A42EFEE5F039CD8AF05E
:1009DB00A42FFFE5F03EFEE43DFD33D0E0FB5007D6
:1009EB000BBB000F020BD3EC2CFCEF33FFEE33FEF3
:0609FB00ED33FD020BAB21
:100A0100020BD3EC5D046005E859047003020BC9C5
:100A1100120B94580460F6EC4860F2EC7004FDFE91
:100A2100FF22C860DB2481C85009C39860025006C8
:100A3100020BD09850CAF582E9294B4A7005AB8266
:100A4100020BBF75F0007C1A7880C3EF9BEE9AED24
:100A510099400DC3EF9BFFEE9AFEED99FDE842F040
:100A6100DC23ACF0D0E0FFD0E0FED0E0FDAB822093
:100A7100E7101BEB60BAEC2CFCEF33FFEE33FEED1D
:100A810033FD020BABE803F830E705C0F075F00069
:100A9100EF2FFFEE33FEED33FD40B830E7C280AA01
:100AA10074F8CC6480CCC86480C8F582046043C308
:100AB100EB9FF5F0EA9E42F0E99D42F0E89C45F09B
:100AC10060305018E5825FFFE582F42B5582FB50C0
:100AD100210ABA001D09B90019088016E5825BFBDD
:100AE100E582F42F5582FF50090EBE00050DBD00B1
:100AF100010CC3EB9FF5F0EA9E42F0E99D42F0E85C
:0D0B01009C45F06007CC4820E701B3EC22D2
:100B0E00ED33EC33600A047003BD8004ECB2E7FCF5
:010B1E0022B4
:100B1F0075F020800E75F010800575F0087D007E51
:100B2F00007F003392D530D503120C8CEC3340107C
:100B3F00EF33FFEE33FEED33FDEC33FCD5F0ED225A
:0E0B4F00E5F0247EA2D513CC92E7CDCEFF2296
:100B5D00EDD2E7CD33EC3392D524814006E4FFFE90
:100B6D00FDFC22FCE4CFCECDCC24E0501174FF80EF
:100B7D00EDC3CC13CCCD13CDCE13CECF13CF04708C
:070B8D00F030D5DE020C8CF4
:101954003E9248DA3ECCCCCD3F2AAAAB40000000F0
:101964003F8000003F9837F03FB504F33FD744FC75
:101974003E3172173EB172173F0515913EDE5BD9B9
:10198400D2008002C200EDD2E7F8CD33EC3304700C
:101994000BBD800592D5020BD3020BC940FBD314B7
:1019A40060F2F5F07C3FEE7A00C39496C8948B40C5
:1019B400230AC89469C8941A401A0AC89468C89437
:1019C4001F40110AC8945AC89425400805F07A00AB
:1019D400CDC2E7CDC0F08C378D388E398F3AEA23EB
:1019E40023C0E02464F582E43419F583120CAA12AE
:1019F400080AECC0E0EDC0E0EEC0E0EFC0E0120C7D
:101A04009AA837A938AA39AB3A120806D0E0FBD015
:101A1400E0FAD0E0F9D0E0B2E7F8120A048C378D8E
:101A2400388E398F3A9019547403120BDEA837A9F3
:101A340038AA39AB3A1208FBD0E0600F2470F58263
:101A4400E43419F583120CAA12080A8C378D388EE7
:101A5400398F3AD0E0C3947FFDE49400FC120B2448
:101A64007B187A727931783F1208FBA837A938AA13
:101A740039AB3A12080A30000B7BD97A5B79DE78ED
:051A84003E1208FB22E8
:100B9400E9D2E7C933E833F892D5EDD2E7CD33ECA7
:070BA40033FC5002B2D52220
:100BAB00EC30E7100FBF000C0EBE00080DBD0004AB
:100BBB000BEB6014A2D5EB13FCED92E7FD2274FF57
:100BCB00FCFDFEFF22E480F8A2D574FF13FC7D80B0
:030BDB00E480EFC4
:100BDE00C0E0EFFBEEFAEDF9ECF81208FBD0E0F511
:100BEE00F0EFFBEEFAEDF9ECF8120C9AA3A3A3A327
:100BFE00E8C0E0E9C0E0EAC0E0EBC0E0C0F01208F7
:100C0E00FB120CAAA3A3A3A312080AD0F0D0E0FBF8
:0D0C1E00D0E0FAD0E0F9D0E0F8D5F0D42213
:101F920002246EE493A3F8E493A34003F68001F2D3
:101FA20008DFF48029E493A3F85407240CC8C33350
:101FB200C4540F4420C8834004F456800146F6DF1F
:101FC200E4800B0102040810204080902652E47E37
:101FD200019360BCA3FF543F30E509541FFEE49314
:101FE200A360010ECF54C025E060A840B8E493A3DB
:101FF200FAE493A3F8E493A3C8C582C8CAC583CA06
:10200200F0A3C8C582C8CAC583CADFE9DEE780BEBD
:012655000084
:100C2B00BB010689828A83E0225002E722BBFE02C7
:090C3B00E32289828A83E49322FA
:100C4400EF8DF0A4A8F0CF8CF0A428CE8DF0A42EC4
:020C5400FE227E
:100C5600C2D5EC30E709B2D5E4C39DFDE49CFCEEB9
:100C660030E715B2D5E4C39FFFE49EFE120CBAC36B
:100C7600E49DFDE49CFC8003120CBA30D507C3E466
:060C86009FFFE49EFE2228
:0E0C8C00C3E49FFFE49EFEE49DFDE49CFC2279
:100C9A00E493FC740193FD740293FE740393FF22A0
:100CAA00E493F8740193F9740293FA740393FB22A0
:100CBA00BC000BBE0029EF8DF084FFADF022E4CC1E
:100CCA00F875F008EF2FFFEE33FEEC33FCEE9DECE7
:100CDA00984005FCEE9DFE0FD5F0E9E4CEFD22ED2D
:100CEA00F8F5F0EE8420D21CFEADF075F008EF2F77
:100CFA00FFED33FD4007985006D5F0F222C398FD68
:050D0A000FD5F0EA2204
:00000001FF
